:020000040001F9
:1090000038400020C1930100C9930100CB930100B7
:10901000CD930100CF930100D19301000000000027
:10902000000000000000000000000000D3930100D9
:10903000D593010000000000D7930100D9930100EF
:1090400031960100DB930100A5980100DB9301003C
:10905000DB930100000000008D950100000000007E
:10906000DB930100DB930100DB930100DB93010044
:10907000DB930100DB930100DB930100DB93010034
:10908000DB93010081960100DB930100DB9301007B
:10909000DB930100DB930100F1960100DB930100FB
:1090A000DB930100DB930100DB9301000000000073
:1090B00000000000000000000000000000000000B0
:1090C00000000000000000000000000000000000A0
:1090D000000000000000000000000000DB93010021
:1090E0000000000000000000000000000000000080
:1090F0000000000000000000000000000000000070
:10910000000000000000000000000000000000005F
:10911000000000000000000000000000000000004F
:10912000000000000000000000000000000000003F
:10913000000000000000000000000000000000002F
:10914000000000000000000000000000000000001F
:10915000000000000000000000000000000000000F
:1091600000000000000000000000000000000000FF
:1091700000000000000000000000000000000000EF
:1091800000000000000000000000000000000000DF
:1091900000000000000000000000000000000000CF
:1091A00000000000000000000000000000000000BF
:1091B00000000000000000000000000000000000AF
:1091C000000000000000000000000000000000009F
:1091D000000000000000000000000000000000008F
:1091E000000000000000000000000000000000007F
:1091F000000000000000000000000000000000006F
:10920000DFF80CD000F084F90048004725E60100A3
:109210003840002030B450E8012F93B2C489234471
:109220008489A34228BF1B1B0489A34202BFBFF34A
:109230002F8F002007E0C3EA020340E80134002C2E
:10924000E9D14FF001000A6030BC704750E8012FAF
:10925000C2EA024240E801210029F7D1704730B448
:1092600050E8022F1FFAA2F3C488A34202BFBFF343
:109270002F8F00200DE0C48923448489A34228BF96
:109280001B1BC2EA034340E80234002CE8D14FF034
:1092900001000A6030BC704750E8022FC2EA224247
:1092A00040E802210029F7D17047034653E8022F16
:1092B000D988B2EB324F4FF0000017BF92B241EAAB
:1092C000014142EA014104E05A68B2EB324F08BF63
:1092D000012043E80212002AE8D1704730B4044666
:1092E00054E8000F0D4644E80053002BF8D11560F8
:1092F00030BC704730B4044654E8000F40EA010522
:1093000044E80053002BF7D1156030BC704730B4EF
:10931000044654E8000F00EA010544E80053002B1E
:10932000F7D1156030BC704730B4044654E8000FE4
:1093300080EA010544E80053002BF7D1156030BCEA
:10934000704730B4044654E8000F00EB010544E8D0
:109350000053002BF7D1156030BC704730B4044681
:1093600054E8000FA0EB010544E80053002BF7D1AF
:10937000156030BC704770B404464FF0000054E8EC
:10938000006F0D68AE4207BF44E80023012044E8A7
:1093900000630E60002B1CBF0020F0E770BC70471C
:1093A00030B4044654E8000F88422CBF451A0546E5
:1093B00044E80053002BF5D1156030BC7047000025
:1093C0000648804706480047FEE7FEE7FEE7FEE75F
:1093D000FEE7FEE7FEE7FEE7FEE7FEE71197010086
:1093E000019201002DE9F05F0546002092469B4660
:1093F00088460646814640241BE0284641464746AB
:10940000224600F074F853465A46C01A914110D3D0
:1094100011461846224600F016F82D1A67EB01088F
:109420004F4622460120002100F00DF817EB0009FD
:109430004E41201EA4F10104DFDC484631462A4695
:109440004346BDE8F09F202A04DB203A00FA02F1EF
:10945000002070479140C2F1200320FA03F3194322
:109460009040704700487047DC52020040EA010318
:109470009B0703D009E008C9121F08C0042AFAD2CA
:1094800003E011F8013B00F8013B521EF9D270478E
:10949000D2B201E000F8012B491EFBD27047002236
:1094A000F6E710B513460A4604461946FFF7F0FFE3
:1094B000204610BD421C10F8011B0029FBD1801A68
:1094C000704730B504460020034600E05B1C934221
:1094D00003D2E05CCD5C401BF8D030BD034611F8F0
:1094E000012B00F8012B002AF9D118467047202AD9
:1094F00004DB203A21FA02F00021704721FA02F33E
:10950000D040C2F120029140084319467047000044
:10951000064C074D06E0E06840F0010394E80700C0
:1095200098471034AC42F6D3FFF76EFED8680200BD
:10953000F868020070B58C1810F8015B15F007038D
:1095400001D110F8013B2A1106D110F8012B03E0DC
:1095500010F8016B01F8016B5B1EF9D12B0705D4E4
:109560000023521E0DD401F8013BFAE710F8013B2D
:10957000CB1A921C03E013F8015B01F8015B521E49
:10958000F9D5A142D8D3002070BD00002DE9F843E1
:109590000025DFF894804FF4807601242F46009553
:1095A000304606F083F838B1D8F80403204203D0DF
:1095B000304606F071F82543361D64007F1CB6B2B4
:1095C000082FEDD34FF4BE74204606F06FF848B173
:1095D000204606F061F845F000456A46012100206A
:1095E00006F018F815F0FF0F16D0012600242E42C1
:1095F0000ED008EB8401D1F81005D1F81015C0F396
:1096000004200A4AC1F3014152F8242002B19047D4
:109610007600641C082CEAD3002D02DA684609F0B3
:10962000C7F9BDE8F8830000006000406C25002009
:1096300070B54FF48076304605F024FC0F4DB4052C
:1096400040B1304605F025FC0120C4F80803296824
:10965000002088474FF48276304605F013FC00283E
:109660000AD0304605F015FC0220C4F8080329682A
:10967000BDE870400120084770BD00000C1E0020AE
:1096800002490248091F096800680847901E002027
:1096900000F00EB970B50E46144900EB400001EB26
:1096A000C0051446E86A183520B101280FD00228F9
:1096B00005D113E0284600F02FF9A04201D2002482
:1096C00011E022463146284600F05EF90BE02846BC
:1096D00000F022F9A042F4D20446F2E731462846CF
:1096E00000F025F90446204670BD0000B02D002092
:1096F00010B50021054A084600F0ACFB002803D055
:10970000BDE8104000F09ABB10BD000001A10100AF
:1097100000B54FF080500022D0E94C100D2901D047
:10972000102907D14FF08043C3F80C21C3F8102152
:10973000534B1A600D2901D0102955D1514A126896
:10974000514B1A604F4A121D12681B1D1A604D4A78
:10975000083212681B1D1A604A4A0C3212681B1D1F
:109760001A60484A103212681B1D1A60454A1432AA
:1097700012681B1D1A60434A18321268424B20338C
:109780001A60404A1C3212681B1D1A603D4A203282
:1097900012681B1D1A603B4A243212681B1D1A6096
:1097A000384A283212681B1D1A60364A2C32126859
:1097B0001B1D1A60334A30321268334B40331A6033
:1097C000304A343212681B1D1A602E4A3832126831
:1097D0001B1D1A602B4A3C3212681B1D1A60294A55
:1097E000403212681B1D1A600D2901D0102906D1C4
:1097F000264A1368DB0702D06FF0010313604FF0B5
:1098000010220D2902D0102904D00DE060B10128EA
:1098100005D109E040B1012806D0022804D0D2F8D1
:109820000802174920310860D2F80002002803DB43
:10983000D2F8040200281EDA012006F09BFE122155
:10984000C2F8001212480368002BFCD0C2F80412C0
:1098500001680029FCD0002006F08CFEBFF34F8F7A
:109860000C4801680C4A01F4E06111430160BFF348
:109870004F8F00BFFDE70A490848086000BD00009F
:10988000380500400404001020C5004000040040DA
:1098900000E401400CED00E00400FA050090D00364
:1098A0003C1F00200148006800470000141E0020F3
:1098B00010B5124C02202061606111A0A06104F17A
:1098C0007800E0614FF4007020620020A0626062C6
:1098D0000BA1A164E06204F51E71E1641021A06592
:1098E000C4E91410E06509A1E01DFFF7F7FD08A128
:1098F0002046FFF7F3FD2020A07110BDB02D002001
:109900005465726D696E616C000000005254540021
:1099100053454747455200000269C1688A4203D84F
:109920008068401A104400E0501A401E70472DE92C
:10993000F047C4681746894606464FF0000830696C
:10994000A04201D9051B02E0B168201A0D1AB068C7
:109950006D1E001BA84200D80546BD4200D33D46FF
:1099600070682A4620444946FFF780FDB0687F1B97
:109970002C44A844A944A04200D10024F460002F44
:10998000DDD14046BDE8F0872DE9F0410446884628
:10999000D4E90207C51BE168606816460844B54271
:1099A00006D94146FFF762FDB819E060BDE8F081D5
:1099B0002A464146FFF75AFD761B08EB0501324661
:1099C0006068FFF753FDE660F0E702E008C8121F89
:1099D00008C1002AFAD170477047002001E001C198
:1099E000121F002AFBD170470121202803DA814091
:1099F0000548014003E0402802DA2038814009B1DF
:109A00000120704700207047FC06FFBD2DE9F84398
:109A1000804643F2020659B9694608F05FF8B04241
:109A200002D008B100F00AFA9DF80000800744D483
:109A30000021404608F05CF805003ED0112D3CD0D6
:109A40001F482049401AC708022000EB07440D2D8B
:109A50000AD00B2D1DD0B5421FD11B4920464246CE
:109A6000BDE8F84306F012B820464246174906F012
:109A70000DF81321404676DF00281ED006F020FCAA
:109A8000024601B020464346BDE8F04310A106F06F
:109A900004B8204642461C49E2E7284606F010FC7E
:109AA0000246012000EB0740434618A105F0F5FFF0
:109AB0002846BDE8F84300F0C1B9BDE8F8830000CE
:109AC0004069020008690200AC5A0200385A0200DC
:109AD00073645F626C655F6761705F646973636F15
:109AE0006E6E65637428292072657475726E656484
:109AF000202573206F6E20636F6E6E5F68616E64E9
:109B00006C652025642E0000F85A020041737365CD
:109B10007274696E672E20706D5F636F6E6E5F7317
:109B2000656375726528292072657475726E656447
:109B3000202573206F6E20636F6E6E5F68616E64A8
:109B40006C652025642E000010B560B159B1027813
:109B50000B785208B2EB530F05D10622401C491C6A
:109B6000FFF7AFFC08B1002010BD012010BD800739
:109B700001D00020704701207047C3688B4206D88F
:109B800011440069491E814201D80120704700201C
:109B9000704790F824001F20704710B50122022161
:109BA000002001F00DFF08B1072810D10722022183
:109BB000012001F005FF08B1072808D100210A2281
:109BC000084601F0FDFE08B1072800D1002010BDB5
:109BD00000B5ABB0AC216846FFF761FC02208DF800
:109BE0000000012006218DF802008DF803101649AF
:109BF00005918DF879008DF87A000021ADF81000FC
:109C000020918DF87C008DF87D004FF44860249001
:109C100044F250608DF87B102191259028210B484B
:109C20002291299040F6B831094823912A9069463B
:109C3000084800F0BBFC08B100F000F9012105481C
:109C400000F0AFFC2BB000BD701A00208D050200A3
:109C5000A9A501003420002010B560B10D480E49BF
:109C6000401AC008032101EB00400CA105F00AFFD7
:109C700008F0F4FD06E001200AF0F0FD03210B4896
:109C800000F073FD002803D0BDE8104000F0D6B806
:109C900010BD0000B86902000869020045726173D6
:109CA0006520626F6E647321000000003420002084
:109CB00070B58CB015460E4600236C46C3F10F01FB
:109CC000415CE1545B1C102BF8D30D2104F1100012
:109CD000FFF7E5FB0020C0F10F02315C2244401C7D
:109CE00011740328F7D3684646DF0020C0F10F0146
:109CF000214491F820102954401C0328F6D30CB0BD
:109D000070BD022001F050BD0149C97800F098BF34
:109D1000A41D002070B50024064D06E068680121EE
:109D200010F8340006F022FB641C28788442F5D336
:109D3000002070BD201E0020F8B516460C460546D2
:109D40000A2A01D20720F8BD06F00AFC18B906F06D
:109D5000CDFB0028F7D1134F102113487D603C70D4
:109D6000BE60FFF79CFB0020C7E904000F4E0DE02A
:109D700005EBC4003168009181788DF801100078FE
:109D80000B4A694606F042FB0028DCD1641EE4B2AF
:109D9000EED2BDE8F84005480021064A001D00F05B
:109DA000E5B80000201E0020C8250020504F02000A
:109DB000C5D5010081C4010072B605F00DFF00BFDA
:109DC00005F044FD0028FBD111481249401AC4088F
:109DD000012000EB044010A105F054FE114800687A
:109DE000C00700D000BE022000EB04400EA105F029
:109DF00049FEBFF34F8F0B48E43801680E4A01F467
:109E0000E06111430160BFF34F8F00BFFDE7000029
:109E1000B869020008690200466174616C206572CD
:109E2000726F7200F0ED00E053797374656D20720B
:109E300065736574000000000400FA050EB500218A
:109E40000091CDE901106A4644F20100FFF7B4FF2A
:109E50000EBD00002DE9F84F254C814692466088E2
:109E60000E46814241D800274FF6FF788DF80070EA
:109E7000684600F005F922786078A188884201DA06
:109E8000401C00E00020C0B2904204D19DF80000C8
:109E900000F01AF927E065786078884201DA401C02
:109EA00000E0002060709DF8000000F00DF94545CD
:109EB00019D0A068B9F1000F40F835A00DD066B1F7
:109EC0006188E068324605FB01004946FFF7CEFA9B
:109ED000A06800EBC500868002E000EBC50087802B
:109EE0000020BDE8F88F0420FBE70920F9E7000017
:109EF000581E002010B50E4C03E0401C00E000206E
:109F0000207020786178814210D022786188E068E2
:109F1000A36802FB010003EBC20153F832208988D9
:109F200090472078A1888842E9DAE6E710BD000072
:109F3000581E002030B5CB0008339DB293074FF078
:109F4000000401D0072030BD044B9A602A44DA6037
:109F50005C701C7058809980002030BD581E002015
:109F6000014802F0F4BA0000701E002010B55AB18A
:109F700000684FF0FF3401294261C0E9024400D07B
:109F800000210161002010BD072010BD38B5114827
:109F900008235822416800910F49006804F04BFDE6
:109FA000002815D10D4A69460D4802F0D5FA040083
:109FB0000ED101210A4802F04AFB0123094A194641
:109FC000074802F09CFA064901200839087020462B
:109FD00038BD0000584F0200E8250020C1320200C1
:109FE000701E0020FFFF7F00F8B5044600261746CC
:109FF0000D468DF80060684600F042F8D4E9020191
:10A00000C04370EA010005D09DF8000000F05CF844
:10A010000020F8BD03F0BCFA40197141C4E9020107
:10A020009DF8000000F050F8A761206900B125619B
:10A030002146BDE8F84000200AF074BA38B504465D
:10A0400000208DF80000684600F01AF8D4E90201FB
:10A05000C04370EA01000DD04FF0FF30C4E90200A8
:10A060009DF8000000F030F82146BDE8384001209E
:10A070000AF058BA9DF8000000F026F8002038BD1C
:10A0800030B5EFF3108172B60D4A9468012324B104
:10A090000370002900D162B630BD93604FF0E02319
:10A0A000D3F88051074C25401560C3F88041D3F8A0
:10A0B000844154605A17C3F8842100220270E8E7F3
:10A0C00040260020FC06FFBD0B498A68002A11D0FB
:10A0D00000280FD1EFF3108072B60B684FF0E0222A
:10A0E000C2F800314B68C2F8043100228A600028AF
:10A0F00000D162B6704700004026002004F058B935
:10A1000006F02CB82DE9F047814605884A484FF003
:10A1100000088AB001784246284600F0A9FD99F867
:10A120000500400701D4002176E005F58077B8B23C
:10A1300005AB0122072107F0C5F804003F48404A5B
:10A140004FF00101A0EB02004FEAD00001EB004606
:10A150000AD0204606F0B4F8024630462B4639496C
:10A1600005F09BFC214629E0284603F04BFE4FF604
:10A17000FF71044688422BD18A46069803F0ACFD55
:10A180000446504510D00146284603F01BFE2846E1
:10A19000FFF7BAFDE0B9284609F02CFB2846FFF787
:10A1A000B3FD0028BFD013E007F062FA0446504523
:10A1B00008D1304624A105F065FC0421284609F0A9
:10A1C00087FBB0E70146284603F0FCFD4FF001088D
:10A1D000B8B22246072107F0EDF807001BD0862F02
:10A1E0001ED006F06DF8024630462B4623490094F7
:10A1F00005F05BFC3946284609F06AFB0021484619
:10A2000006F058FFB8F1000F02D0204603F0E4FD3D
:10A210000AB0BDE8F0870121484606F04BFFF7E79A
:10A22000142217496846FFF721F9ADF80250684635
:10A2300002F02EFCEFE70000A41D00204869020098
:10A2400008690200F45D0200436F756C64206E6F54
:10A250007420616C6C6F63617465206E657720702B
:10A260006565725F696420666F7220696E636F6DE9
:10A27000696E6720626F6E642E000000105F02003E
:10A28000F84E020070B5044690B0087B0D468DF87C
:10A290003800202105A8FFF702F942F61920ADF891
:10A2A00014000120ADF81800ADF81A000EA80790B0
:10A2B000617C9DF82100A21D61F3041040F00200B2
:10A2C0008DF82100A87B8DF82700687B8DF825008C
:10A2D000A08805A901F05CFE00281CD1A968E1B1A5
:10A2E0000FA801F0E5F9064614216846FFF7D7F8F4
:10A2F00042F60810ADF80000E87B8DF806000FA8C4
:10A30000ADF80A60ADF80E600490E08804F10E022A
:10A31000694602F05FF810B070BD0020E081FAE7F6
:10A3200010B50E490E4809F00EFBC1B24FF6FE7291
:10A330000C4800F02DFB00280FD011280DD0132859
:10A340000BD00F2809D0082807D043F201418842DA
:10A3500003D0BDE81040FFF771BD10BD2C210020D7
:10A36000A41A0020042000200A4601461046AEDF51
:10A37000704770B51500044609D00020286034B13C
:10A38000206820B1A079800703D0072070BD0E207F
:10A3900070BD084600F0DEFBC0B2142804D021795D
:10A3A000814203D8042070BD052070BDE288216879
:10A3B00000FB02102860002070BD2DE9FC4700253D
:10A3C00017880646158090F82D001446894630B14E
:10A3D0003A462146484600F071FC051E09D1B07886
:10A3E0004FF00C0A18B32088C846001DB84202D9A5
:10A3F0005046BDE8FC87684679DF0028F9D12088FF
:10A40000032108F8001020881921401C80B2208008
:10A4100008F800102088401C80B2208000EB080162
:10A42000BDF800000AF0A6F8218808442080F078E2
:10A430000222C8B1218896F9033001F1030C484685
:10A44000BC45D5D8425421884FF0010C491C89B233
:10A45000218000F801C02188491C89B2218009F8B7
:10A4600001302088401C20807068B8B1218890F9A4
:10A47000003001F1030C4846BC45B9D8425421884C
:10A480000A22491C89B2218042542188491C89B280
:10A49000218009F801302088401C2080308950B18B
:10A4A000CDE900474B460622022106F108000AF0DA
:10A4B00051F9051E9DD1308A50B1CDE900474B4678
:10A4C0000722032106F110000AF044F9051E90D17D
:10A4D000308B50B1CDE900474B461522142106F1CF
:10A4E00018000AF037F9051E83D1306A30B13B46B7
:10A4F0002246494601F081FE051EDBD1706A30B16B
:10A500003B462246494604F072F9051ED2D196F820
:10A510002C0038B13B4622464946304609F050FBF4
:10A52000051EC7D1307838B13B46224649463046F1
:10A5300004F0EAF9051EBDD128465AE718B50446CD
:10A540000020ADF8000013466A46204600F006F8E9
:10A55000002802D0BDF80000204418BD70B5E0B15D
:10A56000DAB1002402E0045D2C44A4B2651C8D42E3
:10A5700006D21688A642F6D8061976789E42F2D1FF
:10A580008C420AD2A31C005D9BB200B1401E0004A5
:10A59000000C02D01C188C4201D9002070BD138021
:10A5A00070BD80F830107047FFF748BC2DE9F041CE
:10A5B0000D00044606D02CB195F87A00002601283B
:10A5C00003D006E00E20BDE8F08195F89800012840
:10A5D00029D0D5F8A000042825D0D5F89C0004285F
:10A5E00021D04FF00108A6702C2205F17801201D22
:10A5F000FEF73CFF84F83060D5F8A4006063D5F81E
:10A60000A800A0634FF6FF70A4F8E80004F1D4009E
:10A61000C4F8E400C4F8EA60A4F8EE6084F8F060DE
:10A62000207810B104E00720CDE7FF2084F8540023
:10A6300004F155072046C4F8D470FFF7AAFAA4F82D
:10A64000D80004F1D80239462846FFF7B6FE0028A4
:10A65000B9D104F19300C4F8DC002046FFF799FA61
:10A66000A4F8E00004F1E00205F13C00D4F8DC10AD
:10A67000FFF7A3FE0028A6D184F85180208BA4F810
:10A68000480084F83C80266484F8506060690021AA
:10A690006064454604F13C02781E72DF002892D1C6
:10A6A000257090E710B50288102A1BD0112A20D0FF
:10A6B000262A1DD1007A0C46012801D0022817D184
:10A6C000A0780521401CB0FBF1F201FB12012046ED
:10A6D00000F04BF800280BD0A16B002908D0BDE892
:10A6E00010400847C27B012A02D18088A1F8E80007
:10A6F00010BD0C46002184F8F2108088B4F8E810F0
:10A700008842F5D120790028F2D10121DFE790F8C5
:10A71000F1205AB1002280F8F1200A6840F8EA2FAF
:10A720008A8882808979817100207047082070476B
:10A7300010B5044690F8540074DF012084F8F2004C
:10A74000002084F8F40084F850000621204602F02E
:10A75000DAFB002808D1A178204600F006F810B1F5
:10A76000A16B01B18847002010BD2DE9F05F0446C0
:10A7700000780F4698B1A7700025C4F8EA50A4F8F5
:10A78000EE5084F8F050A079012608B1012F09D0CD
:10A79000E07980B1012F05D0022F03D00BE0082013
:10A7A000BDE8F09F616B21B184F8F1600820884713
:10A7B00001E084F8F15004F1EB0100200A5C0AB1D9
:10A7C000304603E0401C0628F8D300204FF0020872
:10A7D0004FF0030A4FF0040B012F06D0022F0CD0CC
:10A7E000032F0FD0042F15D110E0A17929B194F8CF
:10A7F000241011B908B130460DE0E17911B108B16A
:10A80000404608E0207A08B1504604E0607A08B17A
:10A81000584600E02846A070616B41B1032801D082
:10A82000042804D1607910B194F8F20098B184F84A
:10A83000F35004F13C0018210746FEF730FE84F87F
:10A840003C6004F12C0007F0A7F858B194F82C00F4
:10A8500084F8510008E084F8F45084F8F36007208D
:10A860008847E6E784F8516094F8240058B104F171
:10A87000280007F091F820B194F8280084F85200DD
:10A8800001E084F8526084F85050A27804F1EA01A3
:10A8900004F1D409052A4DD2DFE802F065030F1B4D
:10A8A000320084F83160C4F8E450C4E9101584F82B
:10A8B0003C808020A4F848003EE084F8318087F88E
:10A8C00000A0228ABA81C4F8E4507960E168B960D6
:10A8D00032E06069B860208BB8813D4684F83C6006
:10A8E000204609F003FF40B185F81480042120467A
:10A8F00002F009FBF0B9052115E084F831A017E05A
:10A90000E069B860208CB8813D4684F83C60204600
:10A9100009F0ECFE50B185F814800421204602F0C5
:10A92000F2FA38B9062184F8311001E084F831B028
:10A93000C4F8E490A07878B13A4604F15400D4F811
:10A94000E41072DF00287FF42BAF94F8301094F8F5
:10A95000540073DF0028F6D1616B11B194F8310017
:10A96000884700201CE784F83150F5E790F8F33071
:10A97000009933B1002380F8F3300A4303D001215A
:10A9800002E008207047002180F8F4100020704792
:10A99000F7B594B0174605003CD0287C9DF85410BC
:10A9A0000024884252D000264FF0010E0D9615A8C3
:10A9B000ADF834E00E90ADF83660E9880DAA4FF698
:10A9C000FF70ACDF040026D19DF854002874687C29
:10A9D000A0B30F96109611961296E888ADF83C0039
:10A9E000BDF83600ADF840000DA811900E981290F9
:10A9F000A7F57F408DF83EE0FE3805D039460FA818
:10AA0000FFF7B2FC044621E0684600F09DF80025FF
:10AA10006F460FE00E2017B0F0BD00BF07EB4506F4
:10AA2000B08800F0EFF8022803D144B10FA9B08834
:10AA3000AEDF6D1C0098A842F0D807E005E0B188B1
:10AA40000FA8FFF791FC0446F3E708242046E2E74D
:10AA500038B50D46040018D0BDB1286820602879AB
:10AA60006074FF20207401208DF8020041F60F0071
:10AA7000ADF80000221D69460120A8DF002803D19F
:10AA800029462046FFF7FEFB38BD0E2038BD38B5FD
:10AA9000002924D0002822D00288502A1FD1054640
:10AAA000487C0C4600281AD0E9886289A81D91428A
:10AAB00015D14189022912D1216800290FD00C300B
:10AAC00000F0F2FD08B1002000E001208DF8000048
:10AAD000A888ADF80200226869462046904738BD34
:10AAE00070B5040012D001461C221448FEF7BEFCCB
:10AAF0001248134D0560206850B17ADF002806D156
:10AB00002068016829604068686005E00E2070BD1B
:10AB10000B487BDF0028FAD108484FF6FF71143844
:10AB2000084A20F8041B0549343901600021FFF769
:10AB30001DFA0028EBD0032070BD0000DC210020AE
:10AB4000F81C0020854602000149496801F036BB27
:10AB5000F821002010B5044600F0A6F808B1204600
:10AB600010BD142010BD000010B5044600F09CF884
:10AB7000002805D02146BDE81040024803F0DABFA6
:10AB800010BD00000822002070B515460E46044690
:10AB900009F0B8FD002809D0054800EB8400C06921
:10ABA0002A463146BDE8704002F0DAB970BD0000B7
:10ABB000F821002010B5044600F076F8002805D0F2
:10ABC0002146BDE81040024803F0B4BF10BD0000AC
:10ABD0001022002010B5044600F066F8002805D0C9
:10ABE0002146BDE81040024803F0A4BF10BD00009C
:10ABF0000C22002010B5002400F056F800B101240A
:10AC0000204610BD70B50546002400F04DF838B15F
:10AC10002946044803F08EFF08B1022400E0012415
:10AC2000204670BD0022002010B51821034803F013
:10AC30005CFF182800D0C0B210BD0000F821002031
:10AC400070B505460C46084609F05CFD60B1284623
:10AC500000F02AF840B10548294600EB8400BDE821
:10AC600070401C3003F066BF002070BDF82100204A
:10AC700070B5054616460C46084609F043FD002807
:10AC80000ED0284600F010F8002809D005483246BA
:10AC900000EB84002946BDE870401C3002F02EB95C
:10ACA00070BD0000F8210020142801D30020704757
:10ACB0000146014803F03EBFFC2100207CB505465B
:10ACC00008880C460930904201D90C207CBD6846AA
:10ACD0006DDF0028FAD121880820685420881B21C4
:10ACE000401C80B2208029542088401C80B22080E3
:10ACF0002844DDF801100160BDF80510818020882E
:10AD0000801D80B220809DF80010490800D00121EC
:10AD100029542088401C208000207CBD1FB504469B
:10AD200001208DF8060041F60A00ADF80400494AFA
:10AD300001A90120A8DF00287DD122885AB1454809
:10AD4000801C009094F83C3042F62920616801F0A4
:10AD5000EFF800287BD122895AB13E480A30009092
:10AD600094F83C3042F62420E16801F0E1F8002834
:10AD70006DD1228A5AB137481230009094F83C3095
:10AD800042F62520616901F0D3F800285FD1228BBB
:10AD90005AB130481A30009094F83C3042F62720DF
:10ADA000E16901F0C5F8002851D1228C5AB1294837
:10ADB0002230009094F83C3042F62620616A01F07F
:10ADC000B7F8002843D1228D5AB122482A3000908A
:10ADD00094F83C3042F62820E16A01F0A9F80028F6
:10ADE00035D1216B79B102A809F0E2FA194808229D
:10ADF0003230009094F83C3002A942F6232001F052
:10AE000097F8002823D1606B60B112493A31009164
:10AE10000279016894F83C3042F62A2001F088F863
:10AE2000002814D1A16B89B102A807F0A7FD094839
:10AE30004230009000E00AE094F83C30072202A97A
:10AE400042F6502001F074F8002800D1002004B030
:10AE500010BD0000C21D0020F8B5018804463B2942
:10AE600046D01ADC2648274A274DA0EB02004FEABD
:10AE7000D0004FF0030202EB0040102916D000264C
:10AE8000112927D0212907D10096A08869468FDF94
:10AE9000002801D0FEF7D2FFF8BD56292CD0572943
:10AEA000FAD1BDE8F840012000F04CBF17A104F032
:10AEB000E9FD072000F0A6FD08B1FEF7BFFFA1885D
:10AEC000A980154803F066FF0028E5D0BDE8F840EA
:10AED000FEF7B4BF11A104F0D5FD002000F032FF51
:10AEE0004FF6FF70A8806E70112000F08BFDEBE72D
:10AEF0008088132176DFE7E78088132176DFE3E798
:10AF0000B869020008690200681A0020436F6E6E7B
:10AF10006563746564000000282000204469736341
:10AF20006F6E6E65637465640000000010B51A4CA6
:10AF30000188606810290ED011292BD1401E606055
:10AF400028D1FEF72AFE002824D02168002921D02C
:10AF5000BDE810400847D0B900210122084600F0A2
:10AF60002FFD08B107280FD107220221012000F090
:10AF700027FD08B1072807D104220221002000F094
:10AF80001FFD20B1072802D0216801B18847606801
:10AF9000401C606010BD0000F01C00202DE9F0474F
:10AFA00001883B4E40F2F3194FF6FF7510291BD074
:10AFB00011293ED0122954D0502946D1C188F28996
:10AFC000841D914241D1618902293ED18688304653
:10AFD00003F050F8050038D004F10C0000F064FBD9
:10AFE000A8B3294630464EE0C17B87880446012934
:10AFF0002BD1A846284603F03DF8050017D02F8036
:10B0000000202872234843464A460168C5F80A10C2
:10B010004068C5F80E0004F1100105F10A0003F0C4
:10B02000A9F86872F08900280FD129462AE0042087
:10B0300013E0808803F01EF8040006D06068FEF775
:10B04000FDFF08B108F0E8FB2580BDE8F087FFE7C9
:10B050006868FEF7F3FF0028F7D0BDE8F04708F076
:10B06000DBBB87880646384603F004F80400ECD0C2
:10B070002B464A4606F1080104F10A0003F07AF86B
:10B08000607221463846BDE8F04701F0FDB8000087
:10B09000DC210020F81C00202DE9F047028886887A
:10B0A000DFF8F8A098B0102A0DD0112A46D00AF186
:10B0B0001003192A61D01A2A6CD1007A0409042CD1
:10B0C00043D3012242E0354C083CA068C0430B90BA
:10B0D00061680BA803F052FD0B990CA801F06EF803
:10B0E0002C220CA96846FEF7C1F90027E8460FE0BC
:10B0F00008EB47005FF00005B0F8049004EB850012
:10B100004946001D03F0D6FC6D1C1E2DF6D37F1C96
:10B110000098B842ECD8142E05D318B00420BDE82E
:10B12000F047FEF78BBE3146504603F00EFD18B0D7
:10B130003146201DBDE8F04703F007BD18B0314689
:10B140005046BDE8F04703F0B5BC00223146184632
:10B1500001F0D4FE032C01D3012200E000220F48AD
:10B1600031460C3001F0CAFE022C01D3012200E06E
:10B1700000220A483146083007E0017A002909D147
:10B18000407A3146C0F3C002184618B0BDE8F04717
:10B1900001F0B4BE18B0BDE8F08700000022002026
:10B1A00070B51F4E044686B07078002836D02088CF
:10B1B000A588102811D031782846FFF741FD0028D6
:10B1C0002CD1204602F084FC204608F0C1FD06B0D8
:10B1D0002046BDE8704002F017B800208DF800004E
:10B1E000142101A8FEF75BF901208DF804004FF649
:10B1F000FF70ADF8080004F108000390ADF80650A8
:10B20000CDF810D001A801F02DFC9DF80020317878
:10B210002846FFF72DFD9DF80000D0E706B070BD71
:10B22000341D0020F0B587B016460C4605001F46B9
:10B2300035D09EB3A7F57F40FF3832D0ADF814402B
:10B2400004AA1946D5F87801FFF793F8002823D10E
:10B250000498801C0490082C03D822463146FEF73F
:10B2600005F900200090019002900390B5F84E116E
:10B27000ADF8040005A8ADF80010CDE902060121E3
:10B280008DF8021069463846AEDF002804D10299D5
:10B290000988A14200D00C2007B0F0BDFFE70E20C6
:10B2A000FAE70820F8E72DE9F04391B00C460500D5
:10B2B0000DD064B1A07A0A2805D8207C0A2802D8CB
:10B2C000207E0A2805D9072011B0BDE8F0830E20A2
:10B2D000FAE72068286060686860A07AA874207C1B
:10B2E00085F87800207E85F8DE0001268DF8226042
:10B2F00041F61200ADF8200005F1080208A9304619
:10B30000A8DF0028E0D1002709E0A06B01AA30F8EF
:10B3100017102889A9DF0028D6D17F1CFFB294F826
:10B320003600B842F1D8207A4FF0000808B9607AA8
:10B3300038B394F83C9094F83D708DF8306020213B
:10B340006846FEF7ACF842F64E20ADF800000CA8B7
:10B3500002909DF80D00ADF8046040F006008DF8F5
:10B360000D008DF81190ADF806608DF812708DF813
:10B370000F60288905F10A02694600F009FE0028DD
:10B38000A2D12146284602F03FFE00289CD1207C15
:10B3900018B3606908B300271CE06069CDF810801D
:10B3A00000EBC7039DF8100007EB870140F00E008B
:10B3B0008DF8100005EB4100191D7A30CDE9001021
:10B3C00033F8022B04A9284607F052FE002899D131
:10B3D0007F1CFFB2207CB842DFD8207E18B3E06922
:10B3E00008B300271CE0E069CDF80C8000EBC70330
:10B3F0009DF80C0007EB870140F00A008DF80C0067
:10B4000005EB4100191DE030CDE9001033F8022BA7
:10B4100003A9284607F02CFE0028B1D17F1CFFB2FB
:10B42000207EB842DFD82146284607F06EFE00286D
:10B43000A6D1207A70B305F5A770009004F14203FD
:10B44000082242F62221284600F038F9002897D138
:10B4500020216846FEF723F842F63220ADF80000BE
:10B460009DF80D00ADF8046040F00E008DF80D0061
:10B4700094F845008DF8110094F846008DF81200FC
:10B480008DF80F60288905F5AB72694600F080FDE4
:10B4900000289CD1607A60B105F5AF70009004F18E
:10B4A0003F03082242F63321284600F007F900281E
:10B4B0008DD12146284602F010FA002887D194F851
:10B4C0003E708DF80880202109A8FDF7E8FF42F6BC
:10B4D0004C20ADF824009DF83100ADF8286040F014
:10B4E00004008DF8310002A88DF83670ADF82A609E
:10B4F0000B90288905F5B77209A900F049FD0028CD
:10B500008BD1E168C5F87C116169C5F88011E169EA
:10B51000C5F88411D8E600002DE9F04786B09846BA
:10B52000DDF838A016460F4604001ED0B8F1000F13
:10B530001BD0A07CB8424FD907EB870004EB40003A
:10B54000AAF57F4100F11409FF3943D0ADF814602A
:10B55000002504AA5146D4F87801FEF70AFF002816
:10B5600004D10498133004900BE00E2006B0BDE81F
:10B57000F08700BF30F8350004996D1C0844EDB227
:10B580000490D4F87C01BD42F4D330F83700B042C7
:10B590001ED3324641460498FDF768FF0020009014
:10B5A000019002900390B9F80010ADF8040005A8CE
:10B5B000ADF80010CDE9020801218DF802106946AE
:10B5C0005046AEDF0028D1D102990988B142CDD0D2
:10B5D0000C20CBE70820C9E70720C7E70A46014649
:10B5E00010460A88102A05D0502A05D0512A05D1C4
:10B5F00005F0D6BA05F09AB805F03ABB70470000DE
:10B600002DE9F8430D46DDE908171E469046040073
:10B6100007D037B194F87800A84204D80720BDE8D5
:10B62000F8830E20FBE76A46D4F87801FEF7A1FE06
:10B630000028F4D1009813300090002009E000BFEA
:10B64000D4F87C11009A31F83010401C1144C0B27B
:10B650000091A17C8142F3D8002008E0D4F8801149
:10B66000009A31F83010401C1144C0B20091A84239
:10B67000F4D3D4F8800130F8351008EB060081428D
:10B6800007D30098424681193846FDF7EFFE0020A7
:10B69000C5E70920C3E770B504460D460846FDF727
:10B6A00009FF2080656070BD007800F001007047E0
:10B6B0000A78027049784170022070472DE9F04104
:10B6C00088B00F4605461C46164620216846DDF820
:10B6D0003880FDF7E4FE9DF80D00ADF8007040F0F5
:10B6E0000201ADF804608DF80D10607810B141F0E2
:10B6F000080101E021F0080141F010008DF80D0073
:10B7000020788DF8110060788DF81200A0788DF8FF
:10B71000130001208DF80F0028894246694600F089
:10B7200037FC08B0BDE8F0810149085C70470000B3
:10B73000984D02000649095C4FF0A040D0F8100572
:10B74000C84010F0010000D0012080F001007047D7
:10B75000984D02002DE9FC410646C0074FF0000558
:10B760000ED0104F00240122385D009500231146B1
:10B77000019503F019FF641C042CF4D300F046F883
:10B78000B0070DD5074E0024361D0022305D03237F
:10B7900000951146019503F007FF641C042CF4D3B7
:10B7A000BDE8FC81944D020007490B5C4FF0A041BD
:10B7B000D1F804250120984020EA0203C1F8083599
:10B7C0001040C1F80C057047944D02000249085C16
:10B7D000012103F055BF0000944D02000249085CAE
:10B7E000002103F04DBF0000944D02000649095CA2
:10B7F0004FF0A040D0F80405C84010F0010000D080
:10B80000012080F001007047944D020010B5002423
:10B810002046FFF7DBFF641C042CF9D310BD10B5E4
:10B8200000242046FFF7DAFF641C042CF9D310BD76
:10B8300010B50246064B4FF0FF3000215C5C94428D
:10B8400001D1084610BD491C0429F7D310BD0000E2
:10B85000984D020070B50C4E0C004FF000053060A2
:10B860000BD0012000F06AF808B1022004E00020AB
:10B8700000F064F800B10B202070706810B9FEF77A
:10B880008CF90546284670BDF01C002010B500203C
:10B8900000F0F2F908B1062806D1012000F0ECF919
:10B8A00008B1062800D1002010BD00002DE9F047A6
:10B8B0000D468146FFF7BCFF0446042836D2DFF868
:10B8C00074801B481C4EA8F10C0725B3012D0ED027
:10B8D000022D2BD104EB440030444578002D25D0B7
:10B8E000B968002922D02846BDE8F047084704EB94
:10B8F0004401755C0E44717849B10E4A4FF48041A1
:10B90000093A8068FEF770FB08B987F80390B178B0
:10B9100008F80410E2E78068FEF790FB04EB4401AE
:10B92000314418F804008D78A842D7D0BDE8F087DC
:10B930009C4D02008C1C00209C210020042801D278
:10B94000FFF7F8BE0020704710B51B4C0246042AD2
:10B95000A08820D04FF6FF71072A25D00A2A16D0DA
:10B960000E2A13D1884211D00120E16802F034FC84
:10B97000E068401CE060A078401CC0B2A0700628BF
:10B9800004D104F11000E0600020A07010BDBDE8FB
:10B99000104008F0C9B9132176DF0AE00028F5D07D
:10B9A000BDE81040FEF74ABA8842EFD10348FEF7DF
:10B9B000BFFE0828F2D110BD681A002034200020F4
:10B9C00070B50023042810D20D4D00EB4004012A6D
:10B9D00002D101290CD00022094E00EB4000304476
:10B9E00061B1012906D0022906D00723184670BD8F
:10B9F0000E30C2B22A55F9E74270F7E78270F5E7D8
:10BA00009C210020044A014600201279D20702D06E
:10BA1000084600F04DB87047801C002070B50646FF
:10BA20001E480024C0E90161B00720D5002501228D
:10BA300011462846FFF7C4FF6D1C0446042D02D2B0
:10BA4000002CF4D013E094B940F2333204211448AE
:10BA5000FEF772F904000AD1FEF75CF9040006D182
:10BA60000F48104A0021001FFEF780FA0446F00735
:10BA700012D00120FFF76EFE74B909480A4A00216E
:10BA80000C38FEF773FA040006D10548074A012175
:10BA90000838FEF76BFA0446204670BD801C002073
:10BAA000A84D02004DBE010055E20100039D0100BA
:10BAB0002DE9F05F6E4C054600266078B34618B15C
:10BAC00084F801B002F0AEFB6A4F4FF47A694FF48C
:10BAD000C87A4FF00108182D69D2DFE805F00C1381
:10BAE00013384754696E727B727BC5848484848466
:10BAF000B3B6B9BCC5C502F095FB3868FEF79EFA2F
:10BB000006465CE00020FFF771FE00284FF00000C1
:10BB100008D0FFF75BFE022D02D14FF4E16008E090
:10BB2000484606E0FFF75AFE022D01D1C82000E08A
:10BB30005046410CC0034FF47A72801841F1000165
:10BB4000257052000023FDF74DFC01462AE000203D
:10BB5000FFF74CFE00284FF0000004D0FFF736FE40
:10BB60004FF44870E5E7FFF739FEDFE70020FFF705
:10BB70003DFE00284FF0000002D0FFF727FECFE780
:10BB8000FFF72CFED4E70020FFF730FE00284FF02F
:10BB9000000002D0FFF71AFE01E0FFF71FFE25703C
:10BBA00040F6CD4100223868FEF71EFA064646E010
:10BBB0000020FFF7F9FD257008E0002051E0257016
:10BBC0003DE084F801800120FFF7EEFD002240F205
:10BBD0006661E8E784F801800120FFF7E5FD0022B7
:10BBE0004FF40051DFE77868FEF728FA0646D5F1F2
:10BBF000110000D02EB10220FFF7E8FD84F802B05A
:10BC00001DE0012816D980B2C8214843C117C903D5
:10BC100041EA5041C0034FF47A72801841F10001AB
:10BC200052000023FDF7DEFB014600227868FEF794
:10BC3000DBF906460220FFF7D1FD84F8028030468A
:10BC4000BDE8F09F02F0EEFAB9E702F0EBFAB4E7D4
:10BC500002F0E8FA04E002F0E5FA0020FFF7BEFD8A
:10BC60000120FFF7BBFDAAE7FFF7D9FDA7E700001A
:10BC7000801C00209C4D0200012108F0D2BD000074
:10BC80002DE9F84F0546861C00208DF800009146EE
:10BC90000F464FF0010A6846FEF7F2F91B4C04F21A
:10BCA0001C4860683860D4E90101194F401A3968AE
:10BCB000081A0EE00121404602F05AFF02F060FC33
:10BCC0000146404602F054FFD4E90101401A3968A8
:10BCD000081A401C8642EDD8B9F1000F03D00520A8
:10BCE00065F3891002E0062065F39F5061683A68A9
:10BCF000114004EB8101C8606068304460609DF8C9
:10BD00000000FEF7E1F95046BDE8F88F90290020C9
:10BD1000E41E002070B50D4604460A2902D10D210B
:10BD2000FFF7F8FFA0682268411CA1601554D4E910
:10BD30000101814204D32046BDE8704003F0F9B808
:10BD400070BD00007CB51C4C0146002094F83E20DC
:10BD50008AB194F83C2002EB420204EB820599B1CF
:10BD600001A80090D5E901102B786A7807F05CFDF6
:10BD7000132802D008E005207CBD6A78BDF80410C5
:10BD80008A4201D329707CBD94F83C20002102EB4B
:10BD9000420204EB8202516094F83C20521CD2B261
:10BDA00084F83C2094F83E305B1E84F83E30052A2F
:10BDB000E9D184F83C107CBD3C21002070B5124CC8
:10BDC0000646002094F83E50062D1AD094F83D50B7
:10BDD00005EB450504EB8505C5E901162B706A7076
:10BDE00094F83E10491C84F83E1094F83D10491C0C
:10BDF000C9B284F83D10052902D1002184F83D1014
:10BE000070BD042070BD00003C2100200448816802
:10BE10004068814201D10120704700207047000036
:10BE200090290020034630B5074800210478426875
:10BE300006E000BF02EBC10005789D4203D0491C1B
:10BE4000A142F7DB002030BD201E00200078022137
:10BE5000FFF72CBD1CB5044601F0D4FF00236A4651
:10BE6000092105F071FB052805D10348012241791C
:10BE70002046FEF7FDFE1CBD001D00201CB504463B
:10BE80000020009042F6A620ADF8000001208DF8B9
:10BE90000200084801AA6946006801902046A0DF18
:10BEA000002805D10448012281792046FEF7E0FEF2
:10BEB0001CBD0000C84D0200001D002005494FF0C8
:10BEC000FF32082841F8202002D3084480F8482097
:10BED000704700006C250020F0B54FF0FF3512B11F
:10BEE0000023082601E008230C260C4C05E000BFC7
:10BEF00054F823707F1C04D05B1CB342F8D328464F
:10BF0000F0BD26185DB286F8305044F82310002AA0
:10BF1000F5D1E11881F84800F1E700006C25002018
:10BF20000249084490F93000704700006C25002059
:10BF30002DE9F04188B01E46DDF8388014460D002A
:10BF4000074602D10020FDF779FF14B90020FDF764
:10BF500075FF20216846FDF7A2FA9DF80D00ADF8A7
:10BF6000044040F002008DF80D000848ADF8007064
:10BF7000ADF8064002958DF811604246694600888A
:10BF800000F006F808B0BDE8F0810000C21D0020F6
:10BF90002DE9F0438146887891B090460C4600B96F
:10BFA00001208DF83E002088ADF83C00002500956A
:10BFB000607C694607F0A0FE6E46A07C711C07F00D
:10BFC0009BFEE07B00289DF8020002D040F00800B4
:10BFD00001E020F008008DF80200217C11B140F052
:10BFE000100001E020F010008DF80200217B11B15B
:10BFF00040F0010001E020F001008DF80200217DF9
:10C0000009B1022100E0012161F342008DF8020034
:10C010001C2102A8FDF743FA607BC10601D480060B
:10C0200017D50E950EAFE07C791C07F065FE9DF8E4
:10C030003800079720F00F00401C20F0F00010306F
:10C040008DF838009DF83A0020F00600801C8DF82D
:10C050003A00607B8DF80800A07B8DF80900142160
:10C0600009A8FDF71CFA0FA8CDE90906A088ADF8CC
:10C070003000A06820B1E088ADF82C00A0680D90D9
:10C08000A06998B301950088ADF81000A06901ADD2
:10C0900001A94088ADF81200A06940680695039098
:10C0A000A069007B07F028FEA069691C407B07F0AF
:10C0B00023FEA069807A00289DF8060002D040F097
:10C0C000080001E020F008008DF80600A169C97A97
:10C0D00011B140F0100001E020F010008DF80600D2
:10C0E000A169097A19B140F0010002E00DE020F0E9
:10C0F00001008DF80600A169897B09B1022100E0E9
:10C10000012161F342008DF80600E06900B105905D
:10C11000434609AA02A94846AADF11B0BDE8F08348
:10C1200070B504464FF6FF750A462846AC4209D161
:10C130004FF480742146104602F0D7FC80B2A04232
:10C140000BD070BDFF2CFCD82146104602F0BDFC80
:10C1500090F0010F01D0204670BD284670BD000050
:10C1600070B5084C050009D010342168002907D0AB
:10C1700008682060496828468847F6E70834F4E7ED
:10C1800070BD000058250020054A012120B101287A
:10C1900005D19170FFF7E4BF51700020FAE77047B6
:10C1A0005825002010B5D0E90234D1E90220D11A77
:10C1B000A04101D3012010BD002010BD73B58CB08B
:10C1C0000646002000900D9880B100246D4621465F
:10C1D0000DA802F0AFFC30B1009805EB4000848060
:10C1E0000098401C0090641C142CF0D32C2269464B
:10C1F0003046FDF73BF90EB070BD2DE9F0411788D0
:10C200000646B81D14460D46984202D90C20BDE8DA
:10C21000F0813188072206290AD34FF4486C4FF683
:10C22000FF73614501D9994202D17088062801D275
:10C230001046ECE7604501D99842F9D1994203D004
:10C24000984201D08142F3D80520E8552088122178
:10C25000401C80B2208029542088401C80B220805D
:10C260004119308808F086F92188084480B220807E
:10C270004119708808F07EF9218808442080002048
:10C28000C5E7FDF7DBBD000038B54A7A0F4B62B158
:10C2900000220A725969002906D001228DF8002077
:10C2A000ADF802006846884738BD0A7A62B19B68DB
:10C2B0004C68024619462046FDF796FE0028F3D04A
:10C2C000BDE8384007F0A8BA5B68F1E7DC21002040
:10C2D000F0B585B016460F4604461D4614220B499C
:10C2E0006846FDF7C3F80A488DF80870ADF80240BB
:10C2F000ADF80A608DF80C50017800222046FEF758
:10C30000B7FC684600F0C4FB05B0F0BD0C4F02005E
:10C31000A41D0020FDF77ABB70B504460948012131
:10C3200002F041FCBFF35F8F0025002808D12046B2
:10C3300002F09AF8002803D1BFF35F8F014805602F
:10C3400070BD00000C1D00202DE9FF410C4620B1FE
:10C350004FF4064004B0BDE8F0812079002748F290
:10C36000096538B141F61D5601281BD0022826D098
:10C37000681DEFE70220207102970397E0680190A3
:10C38000694601A806F08CFD50B102988188E180D1
:10C3900000882081BDF80010029806F0FFFDD9E763
:10C3A0002846D7E70A4B6A460021A01D06F030FD5B
:10C3B00038B1074918398F61CF61A842CAD13046D8
:10C3C000C8E703488188019806F0E8FDF5E700001A
:10C3D000B01E0020F0B587B00C4607461646142163
:10C3E00001A8FDF75CF8A07800B901208DF81A00CB
:10C3F0002088ADF8180006A80190A079694607F0DA
:10C400007BFC6D46E079691C07F076FCE07800283B
:10C410009DF8020002D040F0080001E020F0080082
:10C420008DF80200217911B140F0100001E020F0F8
:10C4300010008DF80200617911B140F0010001E0B7
:10C4400020F001008DF80200217A09B1022100E0FC
:10C45000012161F342008DF8020002956089ADF878
:10C460000C00A089ADF80E00E089ADF8100020693D
:10C470000590324601A93846ABDF07B0F0BD000099
:10C4800070B500240F4D10E0686800EBC4063078EA
:10C4900004F022F87178012901D0012100E0002187
:10C4A0004140307800F048FA641C28788442EBDB85
:10C4B000D5E90401084303D0BDE8704008F04EB848
:10C4C00070BD0000201E002010B50021024802F0BF
:10C4D0006AFB80F3100010BDAC2D00204FF48032B9
:10C4E0008A400168C1F848230068C0F808237047F3
:10C4F0004FF4A07202EB810189B200F08DBA2DE9F0
:10C50000F04105460E464FF4A07000EB860081B264
:10C5100028684FF48034B440984622F07F47C0F832
:10C5200008432868C0F84843286803F061FC28687D
:10C5300000EB8600C0F840752868C0F84443B8F1A5
:10C54000000F02D02868C0F80443BDE8F0810068FD
:10C55000D0F804057047000070B54379234C44F8C7
:10C5600023204279231D03EBC202224C1579204A75
:10C57000121BD4082DB10825022000EB04401EA197
:10C5800030E005680A88C5F8082590F90420897804
:10C59000002A4FEA411104DB02F1E02282F8001484
:10C5A00005E002F00F0202F1E02282F8141D90F97A
:10C5B00004100122002909DB01F01F0502FA05F52C
:10C5C0004909890001F1E021C1F8005141790025B4
:10C5D00003EBC1010A71417943F83100032000EBFC
:10C5E00004400EA103F04EFA284670BD8C1E0020B8
:10C5F000986902000869020052544320696E7374FE
:10C60000616E636520616C726561647920696E6931
:10C610007469616C697A65642E0000005254433A73
:10C6200020696E697469616C697A65642E00000026
:10C6300090F90400002809DB00F01F02012191405D
:10C640004009800000F1E020C0F8001270470A465F
:10C65000022100F067B94FF4827100F0DDB9006883
:10C6600001210160704700680121416070472DE998
:10C67000F05F07460C464FF4A07000EB84001FFAF1
:10C6800080FA38684FF48036A6409B4622F07F45FA
:10C69000C0F848633868C0F808633868D0F8048583
:10C6A00000EB8402D2F84095C2F8408551463868C4
:10C6B00003F09EFBA9EB080020F07F40012806D183
:10C6C000102003F04BFE5146386803F091FB3868A8
:10C6D000D0F80485C0F84463A5EB080121F07F4140
:10C6E0003868012900EB840010D0C0F84055386844
:10C6F000D0F804156FF07F4C6A1A521E22F07F4268
:10C70000ACEB0B03934217D362B118E06D1CC0F879
:10C710004055102003F022FE3868D0F8040540454B
:10C720000AD10CE000EB84006D1CC0F8405538685D
:10C73000D0F80405884202D00D20BDE8F09F012208
:10C740003146384600F0EEF80020F6E713460A4678
:10C750000021FFF7BDBD00002DE9F843104D0F4645
:10C7600080461E4691466946286802F077F9040023
:10C7700014D01C21FCF793FE01202071C4F8149002
:10C78000380BC4F80080C4E902606946286802F0EA
:10C7900086F906F0A9FA0020BDE8F8830420FBE73B
:10C7A0000050020010B503780022072B06D2DFE804
:10C7B00003F005040610202930000A7010BD012383
:10C7C0000B7003898B818388CB81C06888600A7471
:10C7D00010BD02220A7002898A818288CA81C268D9
:10C7E0008A60807D062802D00020087410BD0120D8
:10C7F000FBE703220A70C2888A810289CA81C06865
:10C80000886010BD04230B70C0888881CA818A604B
:10C8100010BD0520087010BD70B5064D06460024F9
:10C8200055F8241009B130468847641C042CF7D30E
:10C8300070BD00006826002030B50446006887B04F
:10C840000D46806800281FD018216846FCF727FE97
:10C850000195A0680590207910B1012810D107E05A
:10C8600001208DF8000020690290E068039005E047
:10C8700002208DF80000E0680003029060690490D7
:10C88000206881686846884707B030BDF0B585B03C
:10C8900017460C0005463AD0112C38D0082C36D05B
:10C8A0001C481D49401AC6080D2C11D0204603F023
:10C8B00007FD0246012000EB06402B46174903F016
:10C8C000ECF82A460821684602F07CF802941BE046
:10C8D000022000EB06402A46114903F0D7F82A4609
:10C8E0000421684602F06EF827B13878C00701D0FD
:10C8F000012000E002208DF8080000208DF80C00D7
:10C9000041F20110ADF80A00684600F0CFF805B01A
:10C91000F0BD00005069020008690200DC600200FE
:10C92000CC5F02000368C3F84413002A02D00068F9
:10C93000C0F80413704700002DE9F84F0E46344943
:10C94000804601EB5001C007097801D00F0901E0D2
:10C9500001F00F074FF00009424601204946FCF75D
:10C9600072FDDFF8B0A004460D46052F4ED2DFE879
:10C9700007F003161B282C00002E47D0012140464B
:10C9800007F07CFC8DF800906846FDF779FB504677
:10C99000D0E904120C431543CAE9044532E00EB154
:10C9A000022114E0002112E04EB10321404607F0BD
:10C9B00065FC4046BDE8F84F012107F0BBBE0121F0
:10C9C00005E0002E22D1042101E02EB103214046D2
:10C9D000BDE8F84F07F052BC0021404607F04EFC7E
:10C9E0000021404607F0A6FE8DF800906846FDF74E
:10C9F00047FB5046E243D0E904341A4024EA0501DB
:10CA0000CAE904219DF80000FDF75EFBBDE8F88F40
:10CA1000C8250020201E002010B5006842581AB119
:10CA200003F0E6F9012010BD002010BD10B504464A
:10CA3000408801F0E7F9A080024801682046BDE87F
:10CA400010400847081D002010B50446808801F0FA
:10CA5000ADF86080024801682046BDE810400847F4
:10CA6000181D00202DE9F04107460024064E074D11
:10CA700005E000BF56F8241038468847641C287922
:10CA80008442F7DBBDE8F0810C250020341D002036
:10CA900010B50446408801F0B5F9A080024801684D
:10CAA0002046BDE810400847CC4E02000149096805
:10CAB00008470000484F020070B586B004461421B4
:10CAC0006846FCF7ECFCA0890125A0F54040ADF8D4
:10CAD000040020782F4E062833D2DFE800F032031E
:10CAE00003032C4AA08900F0EDF930B9E08943F640
:10CAF000FE71A0F54040884223D8A07B8DF8080045
:10CB0000207803280FD000208DF80900A06803903A
:10CB1000606850B10A208DF8000060680490684693
:10CB200004F064FC0DE00120EEE709208DF8000020
:10CB30008DF81050F3E7A08900F0C4F908B1E0893E
:10CB400030B17078002801D004F0A6FD06B070BDA9
:10CB5000606830B10C208DF800006068029075703C
:10CB6000DDE70B208DF80000BDF8040004F038FE6E
:10CB7000F5E7606848B115208DF800006068029004
:10CB80004FF6FF70ADF80400C9E714208DF80000DF
:10CB9000F6E70000201D002038B504460F48007855
:10CBA000B0B1A4F57F40FF380FD0684605F0CCFF48
:10CBB00088B10521017001210171C480684605F02A
:10CBC000D1FF06F083F8002038BD48F2036038BD7D
:10CBD00048F2016038BD48F2076038BDB81E002039
:10CBE0000D4808B5007888B1684605F0ADFF80B102
:10CBF00006210170684605F0B5FF0848017809B1C3
:10CC00000121017306F062F8002008BD48F20160BE
:10CC100008BD48F2076008BDB81E00202C27002080
:10CC2000F0B587B014216846FCF739FC314C207808
:10CC300018B16846FFF7F0FD5AE0201D01F095FF9E
:10CC4000A0BB40F6F8700168481C02D14FF01020DC
:10CC500041694FF08050026940694B1C01D100FBD3
:10CC600002F1254800220161A1F54051C16023492C
:10CC700002F0F4FA002826D122481C238C222049F5
:10CC8000006801F0D8FE04F03DF905004FF0000601
:10CC900015D0022D13D00127062D16D005A805F0BA
:10CCA00053FFA8B107700C2D1DD200E020E0DFE893
:10CCB00005F01A121A121A191A191A1416142670D3
:10CCC000666048F20A6007B0F0BD27706660B0E7A2
:10CCD00048F20760F7E7067105E0032100E0022152
:10CCE000017100E0077105A805F03CFF05F0EEFFBB
:10CCF0000020E8E7B81E0020401F0020105002006E
:10CD000078260020784F020038B5040014D0694618
:10CD100006F0C6F8B0B1BDF8000000EB80010B488A
:10CD200000EB8100C16851B1A17A41B1C168491ECF
:10CD3000C1600020A07238BD48F2046038BD48F2DE
:10CD4000056038BD48F2096038BD000004270020A6
:10CD50001FB501A9684606F05BF804B010BD07B521
:10CD600013460A466946002006F052F80EBD07B584
:10CD700013460A460021684606F04AF80EBD20B167
:10CD800019B1006808600020704748F204607047DD
:10CD9000F8B50D46040018D0BDB1694606F080F81C
:10CDA000B0B1BDF800000C4900EB800001EB800041
:10CDB00001210C30666801F0DBFE2E6060680C30EB
:10CDC00068600120A0720020F8BD48F20460F8BD40
:10CDD00048F20960F8BD00000427002018B10323C1
:10CDE000002207F0A3BE48F204607047022300222D
:10CDF00007F09CBE094910B50A69042A0AD0084AFE
:10CE0000096942F8210005480121103001F0B0FE07
:10CE1000002010BD48F20B6010BD0000981E0020DD
:10CE2000682600202DE9F84F044624480078D8B140
:10CE3000F4B112212046FCF732FB0320DFF880908A
:10CE40002080002504F1100804F10E0A05EB85018D
:10CE500009EB810630897189084487B2706803F054
:10CE6000DBFF032807D009E048F20160BDE8F88F36
:10CE700048F20460FAE72088401E20806088F1684C
:10CE80000844608020897189084420816089384481
:10CE90006081C7F58060A18980B2814200D2A08103
:10CEA0005346A21D211D2846CDF8008006F094F8B7
:10CEB0006D1CADB2022DC9D30020D7E7B81E0020EB
:10CEC0000427002043F6FE71A0F54040884201D8B7
:10CED000012070470020704710B5044600781828DC
:10CEE00002D1FDF7A1FE207010BD10B504460078F8
:10CEF000182802D1FDF798FE207010BD0AB101F08C
:10CF000024BE01F0D7BD70B50D460446B0F8D81068
:10CF1000D0F8D4000122FDF711FB00B1057004F137
:10CF20003C0204F1D40104F1540072DF70BD000032
:10CF300070B5134600220546112900D10122074C85
:10CF400033B12179FDF794FE00226178284600E094
:10CF50006178BDE87040FDF78BBE0000AC1D00207D
:10CF6000F7B517460E0011D00098002560B10024D7
:10CF70002146684601F0DEFD18B1A0B23946B0473F
:10CF80006D1C641C142CF3D32846FEBD0020FEBD8E
:10CF9000406805F0F9BD00000EB516A19DF8080027
:10CFA00020F00F00401C20F0F00010308DF8080039
:10CFB0000F2202A87CDF08B1FCF740FF40F2C1302D
:10CFC00078DF08B1FCF73AFF0020009001900620BE
:10CFD000ADF800001821ADF804002B20ADF80600D4
:10CFE000ADF8021068467ADF002801D0FCF726FF72
:10CFF0000EBD00004E6F726469635F4B6579626FAE
:10D000006172640070B510B14FF4064070BD1C4CE5
:10D010000025207B08B1257301E000F0A5F82078F9
:10D0200008282AD2DFE800F02904080C102914226D
:10D03000BDE8704000F026B8BDE8704000F082B84E
:10D04000BDE8704000F064B8BDE8704000F040B842
:10D050000620207060880A4900EB8000283901EB27
:10D0600080004068BDE8704003F02CBF07202070AE
:10D070006560BDE8704003F033BF48F20E6070BDDC
:10D080002C2700201149F0B48A1C00200346A1F18E
:10D0900028050C18A67A4EB1A37200EB800405EBAC
:10D0A0008404E66816B9247C012C0AD0401C80B2A6
:10D0B0000228EED30B704B804B60F0BC41F61D5044
:10D0C00070471080F0BC00F03DB800002C27002015
:10D0D0000C48418801EB8102A0F1280101EB82019B
:10D0E000CA6852B105210170074802218180016898
:10D0F00000230122054802F015B804220270496895
:10D10000F6E700002C270020C01E0020401F002052
:10D1100038B50A49084803240B684268898803EB3C
:10D12000810153880470DB1C00201B0400909B0BC2
:10D13000034802F04BF938BD2C270020C01E002008
:10D14000401F0020074910B54888091D05F0F8FE6A
:10D1500018B1BDE81040FFF7DBBFBDE81040FFF796
:10D16000B7BF00002C27002070B5194C0121207892
:10D1700008281AD2DFE800F00419191C25292918FB
:10D180002089134A401C2081002060802073283AA7
:10D1900000EB800312F8233043B100232518401C14
:10D1A00080B2AB720228F3D3217070BD0123F5E782
:10D1B0006068084940888A88C01C10448880022022
:10D1C00004E000F009F8062000E00720207070BDA0
:10D1D0002C270020C01E00200A49094849880268FF
:10D1E00001EB81030749283901EB83014B68036098
:10D1F0004A6082880A810222828000200874704777
:10D20000C01E00202C2700202DE9F0430646808810
:10D210003288DFF85C8185B00746502A37D010DCB1
:10D220005449554B06F10A05A1EB03014FEAD10120
:10D230004FF0020303EB0144352A3AD0362A07D1D6
:10D2400068E0522A02D0542AF9D102E001F0B0F885
:10D2500082E0142249496846FCF708F9ADF80270EB
:10D26000384600F0CFFDADF8040000F0C9F9002207
:10D27000444698F804103846FDF7FAFC0022E1789D
:10D280003846FDF7F5FC6846FFF7D0FB64E0307BDD
:10D29000012861D1B07A01285ED13089A0F52451EE
:10D2A000023959D10121384601F0D6F807F0D2F9F8
:10D2B00052E098F80610FDF7C3FC00284CD000227D
:10D2C00098F806103846FDF7D3FCF288B2F5857F52
:10D2D00017D012B120462AA10BE02A88012A03D0D8
:10D2E000204636A102F0D2FB6A88012A04D02046EB
:10D2F00041A102F0CBFB04E0A98800223846A1DF5F
:10D3000008B1002125E0012298F807103846FDF702
:10D31000AFFC21E04FF0000998F80710FDF790FCF2
:10D32000D0B1002298F807103846FDF7A1FCF2882A
:10D3300012B1204612A104E0AA88012A04D0204696
:10D340002DA102F0A3FB03E0A87900B101208146E2
:10D350004946384606F0F6FF0022364998F80200A2
:10D36000FDF712FC05B0BDE8F04306F021BB00005C
:10D37000001D00200869020008690200204E02001A
:10D38000556E657870656374656420474154542018
:10D39000737461747573207768696C652067657450
:10D3A00074696E6720434152206368617220766120
:10D3B0006C75653A20307825780000004D756C74E6
:10D3C00069706C65202825642920434152206368D8
:10D3D0006172616374657269737469637320666FE7
:10D3E000756E642C207573696E672074686520669D
:10D3F000697273742E000000556E657870656374F1
:10D400006564204341522063686172616374657290
:10D4100069737469632076616C7565206C656E67ED
:10D42000746820282564292C2073746F726520305D
:10D430002E000000FDA0010070B504460078002811
:10D4400014D1608800F0B4FF6588284600F0E8F940
:10D4500028B107480122C1782846FDF709FC6088F9
:10D46000FEF7F8FCBDE8704007F0F4B870BD0000AE
:10D47000001D002070B5204C00252570FDF7D4FB61
:10D480006070FDF7D1FBA070FDF7CEFBE070FDF7FB
:10D49000CBFB2071FDF7C8FB6071FDF7C5FBA071E8
:10D4A000FDF7C2FBE07162780121182A18D0A2783A
:10D4B000182A15D0E278182A12D02279182A0FD00B
:10D4C0006279182A0CD0A279182A09D0182807D016
:10D4D00004F10C000560BFF35F8F2170002070BD68
:10D4E0000648074A801AC00801EB0040054902F0CF
:10D4F000C9FA032070BD0000001D00200869020069
:10D5000008690200E05202007CB504460078092850
:10D5100037D1607A58BB207A1C4E4FF6FF75012830
:10D5200011D0072802D008282BD121E0A08800F0D4
:10D530003DFB0446A84224D0012100F08DFF204687
:10D54000FEF788FC1DE0A0886A46012103F070FE0A
:10D5500068B90198007850B1A08800F027FBA84274
:10D560000FD00122F178FDF783FB06F021FA08E0E5
:10D57000F068012805D1BFF35F8F044900200C310A
:10D580000860BDE87C4007F065B80000001D002081
:10D5900010B50B48FEF7DBFF094A083AD2E904341C
:10D5A000C018D2E9063244F10001C31A71EB02023D
:10D5B00004D24FF08072801841F1000110BD0000CC
:10D5C000701E002010B5C0B2FEF72CFC0446007897
:10D5D00002F082FF01466078012801D0012000E0BE
:10D5E000002090EA010F08D00449D1E90401084362
:10D5F00003D1BDE8104006F0B1BF10BD201E0020D1
:10D600001CB5054AD2E90212CDE900120022694692
:10D6100003F0D4FF1CBD0000384E020003484FF653
:10D62000FF7181800121017000207047101D0020D2
:10D630002DE9FC41804600F0E5FB0024032501278D
:10D64000A0F57F412646FF3908D06A46082103F03D
:10D65000EFFD18B90198841D8688056832462B466F
:10D6600021464046B1DF042804D0082804D00B2806
:10D6700008D002E0112000E00020002F00D10B2094
:10D68000BDE8FC810027A80701D50125E6E7344362
:10D6900003D0002426460325E0E706480649424613
:10D6A000401AC008012101EB0040044902F0EEF9E4
:10D6B000E5E700001069020008690200A8550200B1
:10D6C0002DE9FF47824600F09DFBA0F57F41814692
:10D6D000FF3916D03B493C4A0127891AC90807EB94
:10D6E000014600BF3A467F1C4FF00008BFB202ABB4
:10D6F0000821484603F0E6FD040007D0072C5ED061
:10D700005EE043F2020004B0BDE8F087039D03230E
:10D710002A1DA91D50462B60B2DF040004D00C2C3A
:10D7200037D0052C38D038E06A460821484603F047
:10D730007FFD58B1052814D002F0C2FD02463046E4
:10D74000534622A102F0A9F90320DCE70198AA8838
:10D750008088824205D10199A81D891DFBF7B1FE81
:10D7600030B14A460821104603F024FE044627E063
:10D770000821484603F014FE48B102F0A1FD03461B
:10D7800030464A461F4902F088F9032418E00B246A
:10D7900016E04FF0010800E000240821484603F09D
:10D7A000FFFD40B102F08CFD034630464A46154964
:10D7B00002F073F90324B8F1000F93D100E00C24B8
:10D7C0002046A0E710690200086902007064625FE9
:10D7D000706565725F646174615F7074725F6765C4
:10D7E0007428292072657475726E65642025732013
:10D7F000666F7220636F6E6E5F68616E646C653A0F
:10D80000202564002855020004488088A0F57F4147
:10D81000FF3901D006F0D6B870470000101D002077
:10D820000EB502A9019100F0EDFA6A46012103F05C
:10D83000FFFC08B100200EBD019800780EBD00006D
:10D840002DE9F04107464FF6FF761048B3DF78B177
:10D8500002F036FD02460E480E49401AC00801216A
:10D8600001EB00400C4902F011F90320BDE8F08102
:10D87000064C43F20305A41E324661883846AFDFEA
:10D88000A842F3D16088401C6080F5E7121D00209B
:10D890001069020008690200DC540200428800EBB3
:10D8A00082020C328A4201D9022070478188A1F598
:10D8B0007F42FF3A06D0018821B18068401C01D028
:10D8C0000020704701207047884204D20068401C45
:10D8D00001D0012070470020704770B50C468AB017
:10D8E000064634F8300F8DF82000000A8DF821002C
:10D8F000A0788DF82200E0788DF8230004252021FF
:10D900006846FBF7CCFD42F64A20ADF800009DF8D2
:10D910000D00ADF8045040F002008DF80D002079A4
:10D920008DF8110008A8ADF806500290308906F570
:10D93000B3726946FEF72CFB0AB070BDF0B53448EF
:10D9400093B0002540F8225F082145608560C560DE
:10D95000056145612E480126223002240180857030
:10D96000C670847144710471083003270680857085
:10D97000C470447104710830482104808570C770F8
:10D98000047144716846FBF78AFD224800902248E2
:10D9900001901F488DF808602230039008300590F0
:10D9A0008DF809508DF80A60083007908DF81060E6
:10D9B0004C20ADF824001948089040F20110ADF851
:10D9C00030008DF832508DF833708DF818608DF876
:10D9D00044408DF83C400E488DF836508DF82C4070
:10D9E0008DF845408DF83D400E958DF834408DF80A
:10D9F00042408DF846408DF83E4069464430FDF780
:10DA000052FC002801D0FCF719FA13B0F0BD000059
:10DA1000681A0020E5090200493C0200341C00207D
:10DA200000B585B00821034604914FF6FF7204A9A2
:10DA3000684604F089FD08B1FCF700FA68460499CD
:10DA400004F064F8002801D0FCF7F8F905B000BD37
:10DA50003EB5027802230C46B3EB520F17D1B0F853
:10DA60000110ADF80010C1788DF802108188ADF872
:10DA7000041080798DF8060002AA01A92046FCF75F
:10DA800017F9032202A96846FBF71BFD08B1002025
:10DA90003EBD01203EBD000070B50D460446142871
:10DAA00010D2FDF701F968B1084904EB840001EBDD
:10DAB0004000D0F802102960C188A980007AA871BE
:10DAC000002070BD43F2020070BD000074220020EF
:10DAD00070B5018890B0102961D1011D28226846D7
:10DAE000FBF7C4FC9DF804004FF6FF760321344693
:10DAF000B1EB500F2BD003F01FFD9DF804006D46D5
:10DB000040080ED001280CD0022820D118E00C9932
:10DB1000281D1131FCF718F818B100BFBDF82840D6
:10DB200015E00BAA0AA9072003F0DAFC0028EED1C1
:10DB30000DE00C99281D491CFFF78AFF0028EDD144
:10DB40000BAA0AA9072003F0CBFC0028F1D1BDF8ED
:10DB50000000B44200EB8001124820F8114000EBB5
:10DB600041000199C0F80210BDF80810C1809DF86D
:10DB70000A10017213D0BDF80000ADF82A00002091
:10DB8000ADF82C40084E8DF828000AAD044600BFC1
:10DB900056F8241028468847641C022CF8D310B08D
:10DBA00070BD0000742200204C4E02002DE9F041AF
:10DBB0004FF6FF760546B04213D00B4F002400BF4E
:10DBC00004EB840037F81000A84206D12046FDF788
:10DBD0006BF810B12046BDE8F081641CA4B2142C8F
:10DBE000EED33046F7E70000742200202DE9F04321
:10DBF000CFB00E460746082903D907204FB0BDE82D
:10DC0000F08317B30EB350204D90E846CDF830D1D5
:10DC1000B82114A8FBF743FC002043AA0DF15001E2
:10DC2000C0EBC00303EB00130B4442F82030401C50
:10DC30000828F5D32448254A0024801AC008022267
:10DC4000C14602EB0045884636E0002211461046E8
:10DC50006FDFD3E750216846FBF721FC37F814004B
:10DC60004DAB4BAA072103F06FFC052810D0072805
:10DC70000ED09DF81100400812D0012810D037F8BE
:10DC800014202846124901F001FF43F20220B5E7B3
:10DC900037F8142028460F4901F0F8FE0520ADE7BB
:10DCA000C4EBC40000EB041101EB0800172209F1DA
:10DCB0000101FBF7DBFB641CB442CBD3F2B20021C1
:10DCC00043A86FDF9AE700001869020008690200A4
:10DCD00020560200A85602003EB50C46054603F049
:10DCE0002BFC0BE0BDF80000A04207D028460299AB
:10DCF00000F00EF810B1BDF800003EBD01AA694663
:10DD0000072003F0EDFB0028ECD14FF6FF703EBD7D
:10DD10002DE9F0410C46054600F1110701F111060D
:10DD20001022491C401CFBF7CCFB48B9681C00F0D2
:10DD300043FA28B1601C00F03FFA08B1012400E06A
:10DD4000002431463846FBF7FFFE3B780222B2EB57
:10DD5000530F0CD00321B1EB530F08D03378B2EB43
:10DD6000530F04D0B1EB530F01D0012100E000218B
:10DD7000084201D18C4302D00120BDE8F08100208F
:10DD8000FBE7018811B9421892780AB10120704767
:10DD9000491C0829F7D30020704710B50C460346EC
:10DDA000FFF7EFFF00280AD018882188884205D1A4
:10DDB0000822A11C981CFBF784FB08B1002010BDB1
:10DDC000012010BD142804D2024A00EB800022F882
:10DDD000101070477422002070B50546FFF7E6FE6C
:10DDE0000446284603F028FA002808D1142C06D24D
:10DDF000034B04EB84024FF6FF7123F8121070BD41
:10DE00007422002010B50446142808D2FCF74CFFF9
:10DE100028B1044904EB840031F8100010BD4FF61E
:10DE2000FF7010BD742200203EB5044603F084FB51
:10DE30000EE0019920464631FFF7AFFF28B901995E
:10DE400020462A31FFF7A9FF10B1BDF808003EBDFA
:10DE50006A4602A9072003F043FB0028E9D14FF6E8
:10DE6000FF703EBD7CB514460A000A49097802D00D
:10DE700015688D4203D323B11D688D4201D2042061
:10DE80007CBDCDE9004313460246034803F024FD60
:10DE90007CBD00001C1D00203C23002070B50C46FA
:10DEA00006469AB010211848FBF7F9FA17480025E2
:10DEB0002EB324B30470620031461348FBF7D6FA40
:10DEC000382102A81895FBF7EAFA009518AB02AAC8
:10DED00021463046019503F0FFFC00280DD110AA21
:10DEE0000DF10801C0EBC0030B4442F82030401C88
:10DEF0000828F7D3E1B210466EDF1AB070BD057086
:10DF0000002108466EDFF8E73C2300201C1D00209E
:10DF100010B50A4941600A4800F027FE58B902F0DE
:10DF20002FF907491C238C22087404488C39001FE0
:10DF3000006800F080FD002010BD000004500200C9
:10DF4000D82700202DE9F0412C4D002420B16C6031
:10DF50004FF40640BDE8F0810879012250B1284B0A
:10DF600001280BD0254A02260832022821D0032896
:10DF700029D12CE00A7102F0B3FF22E05FF000002B
:10DF800000EB800113F82110022908D0401C80B258
:10DF90000228F5D32A706C6041F61D50DAE700EBD9
:10DFA000800003F8204003EB8000406802F08AFF05
:10DFB00007E00C719680116800230122114801F0DE
:10DFC000B1F80028C6D06C6048F20D60C2E70C487A
:10DFD0000C7128304188106801EB810703EB870141
:10DFE000D1F804C0C2F800C04860B2F804C0A1F87B
:10DFF00008C0968003F82740D8E70000B81E00202C
:10E0000004270020401F0020FEB50646887A0D46F2
:10E0100070B3E86860B3002427E0E86800EBC4034D
:10E02000002002909DF8080040F002008DF80800E2
:10E03000597911B140F0080001E020F0080040F0EB
:10E0400010008DF8080004EB840006EB4000191D59
:10E050001430CDE9001033F8022B02A9304605F048
:10E0600007F8002805D1641CE4B2A87AA042D4D8ED
:10E070000020FEBD0146034802888A4200D00020ED
:10E0800070470000C82100202DE9FC5F0E00834688
:10E09000DDE90C47C6F1000098469246814600D45F
:10E0A0000846012503E000BF90FBFAF06D1C5045C7
:10E0B000FADAA84500D9454624B1002E01DB7807DD
:10E0C00000D5641EB80702D5B8F1000F0AD0F807D2
:10E0D00008D13CB1A54205D220215846641EFDF767
:10E0E00019FEF6E7002E02DA4E462D2102E07807EF
:10E0F00003D52B215846FDF70DFE07F0030002283B
:10E100000BD1B8F1000F08D13CB1A54205D23021A6
:10E110005846641EFDF7FEFDF6E7CDE9004743468D
:10E1200052463146584606F03BFABDE8FC9F02468F
:10E1300000201268530713D502F00300012802D013
:10E1400002280CD105E0C2F383100B68801C184430
:10E1500004E00223086803EB925210440860012097
:10E16000704700000248007A002800D00120704764
:10E17000D8270020F0B58488A518944200D82246FC
:10E18000A41AC288D6189A4200D81346D21A4B88CD
:10E190000788BB420CD34088834209D88888A042B4
:10E1A00006D3A84204D8C888904201D3B04201D90E
:10E1B0000020F0BD0120F0BD0021425C0AB1012029
:10E1C0007047491C1029F8D300207047800701D000
:10E1D00000207047012070477CB5044601A80090DC
:10E1E0000D46002322460E4805F01EFB13280CD0D6
:10E1F000002809D0082807D0112805D043F2014192
:10E20000884201D0FBF71AFE7CBDBDF80430A34262
:10E21000FAD8224629460248FDF7D0FD7CBD000011
:10E22000AC1A00200A4810B5807860B1002401E0E3
:10E23000022C06D02046FDF7C9FA641C042CF7D343
:10E2400010BD0324F6E7BDE81040FDF7DFBA00007B
:10E25000801C002003480179C90702D00078FDF72F
:10E2600027BC7047801C00201721018041800021BD
:10E2700001714171704700002DE9FE4F2E4F984605
:10E2800092460D00814601D000260DE0684600F060
:10E290008FFB6A460021484602F026FF3878009E30
:10E2A00010B99DF8090098B152463146484605F02C
:10E2B000FDFE0446014600224846FEF739FE0D2CBD
:10E2C00037D008DCA4B3082C33D00B2C09D130E0B4
:10E2D0000520BDE8FE8F112C1ED0A4F54050023859
:10E2E00027D0204601F0ECFF0246144814494B4663
:10E2F000401AC008012101EB0040124901F0CDFB9A
:10E300005FF00305B8F1000F04D0324621464846BD
:10E31000FEF7BCFA2846DCE72A46F9784846FCF7BF
:10E32000A7FC5246B9784846FCF7A2FC0025E9E76D
:10E33000FFE72546E6E70000AC1D0020506902001B
:10E34000086902008460020070B50E460C4915464B
:10E3500004460978FCF774FC00280FD0204602F030
:10E3600069FE00282A463146204603D0BDE87040A9
:10E3700002F066BEBDE87040FEF7E8B970BD00006F
:10E38000A41D002070B5094D0646A978FCF758FC7D
:10E390000446E9783046FCF753FC014622463046F5
:10E3A000BDE870400123FFF767BF0000AC1D0020EF
:10E3B000F0B585B00546002714216846FBF76FF8D5
:10E3C000A5F57F40ADF80250FF3825D02846FFF76D
:10E3D0002FF9040022D01B481B49401AC6080B2CF9
:10E3E00022D0112C1ED0A4F5405002380ED0204669
:10E3F00001F066FF0246012000EB06402B46134960
:10E4000001F04BFB2146284605F04EFA10483A46EB
:10E4100081782846FCF72CFC05B0F0BD0F208DF864
:10E4200000000BE00127F1E710208DF8000002202A
:10E4300000EB06402A46074901F028FB6846FEF734
:10E44000F5FAE3E70869020008690200B053020028
:10E45000001D0020045402000A4602494978FCF7D6
:10E4600007BC0000001D00202DE9F041002786B008
:10E4700080463E46FFF724F904461F481F49401ACC
:10E48000C508112C23D003DCFCB10B2C06D114E001
:10E49000862C1ED0A4F5405002380ED0204601F044
:10E4A0000FFF0246012000EB0540434614A101F096
:10E4B000F4FA2146404605F0F7F939464046FFF7A1
:10E4C000CBFF06B03046BDE8F0810126F5E7012715
:10E4D000F3E714221A496846FAF7C8FF0220ADF89C
:10E4E000028000EB0540424616A101F0CFFA6846D3
:10E4F000FEF79CFAE1E700000869020008690200E3
:10E500006773636D5F6C6F63616C5F64625F6361AF
:10E510006368655F7570646174652829207265742D
:10E5200075726E656420257320666F7220636F6E4E
:10E530006E5F68616E646C653A20256400000000BF
:10E54000F84D0200466C6173682066756C6C2E2075
:10E55000436F756C64206E6F742073746F726520E6
:10E560006461746120666F7220636F6E6E5F6861B4
:10E570006E646C653A20256400000000704700005E
:10E580002DE9FF410026244800F0ECFA2248001F44
:10E59000074600F0E7FA214C2149A06800900D6879
:10E5A00000E000986946284004EB80000C30FFF73B
:10E5B000BEFD0028F5D101AA009901EA050304EB8C
:10E5C0008303491CDB6842F82030401C009102287C
:10E5D000F2D3019800F0030001280BD0022810D1DB
:10E5E0000198032101EB90500099BDF80A6001EBFE
:10E5F000900005E00198BDF80A60C0F3831008445C
:10E600000090384600F0ABFA08B10098A06004B062
:10E610003046BDE8F0810000A82D002090290020A0
:10E62000E41E002088B04FF48041002001F0A8FAD9
:10E6300008B1FBF703FC01F0FBF8FBF7A7FC08B1FE
:10E64000FBF7FCFB544A01215448FBF78FFC08B14F
:10E65000FBF7F4FB52490320FDF7E0F908B1FBF7A3
:10E66000EDFB69460020FDF7F5F808B1FBF7E6FB86
:10E670009DF8000002287DD05FF0000501F08AFBC4
:10E6800008B1FBF7DBFB01F02FFD08B1FBF7D6FB70
:10E69000002469460120009401F0BAFB08B1FBF7A1
:10E6A000CDFB684601F030FC08B1FBF7C7FB3D4AE3
:10E6B0000A210820FBF73EFC08B1FBF7BFFBFEF781
:10E6C0006BFC38480021C43000F0D8FA08B1FBF7E1
:10E6D000B5FBFBF77DFA05F0B9FA3348512101602B
:10E6E0006421416001218160017301462F4805F0DA
:10E6F0001FF91C216846FAF7D2FE4FF4A030CDE98D
:10E7000000404FF4F020032602908DF80C6028485A
:10E71000ADF80E408DF81040CDE905406846FCF795
:10E72000DFF908B1FBF78AFB1F4810305FF00001EA
:10E7300080F83C4080F83D4080F83E4001EB4102CB
:10E7400000EB8202491C54600529F7D303F08EF8D0
:10E7500018481949401AC00806EB004017A101F0FB
:10E7600091F90E4800224FF400410068FBF73CFC91
:10E7700018B100E00DE0FBF761FB2846FBF76CFAEF
:10E78000FBF7B8FB01F062F80028F9D101F016FBA5
:10E79000F6E7012572E7000021A30100904D020079
:10E7A00049B90100541F00202C210020A41A002088
:10E7B00083C20100B8690200086902004849442088
:10E7C0004B6579626F617264206578616D706C650C
:10E7D00020737461727465642E000000002360F37E
:10E7E0000F03184661F3174062F31F60704770B55E
:10E7F000144682880E4605462088111D0144921C4D
:10E80000994201D8FE2A01D90C2070BD521C325405
:10E810002088FF21401C80B2208031542088401C79
:10E8200080B220808119288805F0A4FE2188084440
:10E8300080B22080AA8842B1A96841B13044FAF779
:10E8400015FE2088A98808442080002070BD07207C
:10E8500070BD2DE9F047C5881E1DB6FBF5F789464A
:10E86000B6FBF5F1044605FB176C40791668684362
:10E87000DDF820A0F718001F874200D9C61A1660DD
:10E8800001E02468491E0029FBD1A5EB0C0788464E
:10E89000B74216D818E004EB0C00001D09EB080382
:10E8A000BAF1000F3A4602D00146184600E0194678
:10E8B000FAF7DCFD2468F61B4FF0000CB844B542B3
:10E8C00001D9374600E02F46002EE4D1BDE8F0879D
:10E8D00030B5024651B101F067F90021074C08E05C
:10E8E00034F821301568AB4202D11160002030BDF0
:10E8F000491C8142F4D3052030BD00000000000017
:10E90000BFF35F8F00F016B9F8B50F4601781446D3
:10E910000546012901D1687830B12088821C9A42CD
:10E9200032D8012902D006E00720F8BD69780144F9
:10E93000891C994228D8181A801E86B2ADF800604A
:10E940002188B81C084469467DDF0028EDD129786C
:10E95000022904D06878BDF80020904205D3BDF8A4
:10E960000000B04201D809200AE00820012905D1A1
:10E970006978B14202D8ADF8001001E0ADF800604E
:10E98000BDF80010FE2901D90C20F8BD2288491CD1
:10E99000B9542188491C89B2218078542088401CB0
:10E9A0002080BDF80010084420800020F8BD000041
:10E9B000034A00219268C0E900218160704700008D
:10E9C000AC1D002070B586B00D46064614461421D5
:10E9D0006846FAF764FD8DF80050ADF80240204615
:10E9E000FFF710FAADF80400142269463046FAF732
:10E9F0003DFD06B070BD70B54FF6FF750E46A842DE
:10EA000001D1002000E0401C84B208E021463046DD
:10EA100000F090F808B1204670BD641CA4B2FF2C31
:10EA2000F4D9284670BD10B5FAF73FFC08B10020B4
:10EA300010BD112010BD10B531B1B2FBF3F403FBD2
:10EA400014241CB1092010BD0E2010BD016000214E
:10EA5000416081608281C381084610BD70B50C465B
:10EA60000546FAF7D7FB002802D021882868084419
:10EA700070BD10B50A8849888A4203D1FAF70CFCA8
:10EA8000012010BD002010BD70B50C460546FAF7F8
:10EA9000E6FB002802D061882868084470BD10B5E4
:10EAA0000A8849888A4203D1FAF7D0FB012010BDB9
:10EAB000002010BD01F01F0301229A40D2434909F2
:10EAC00000EB8100114600F059B80A4601F01F031F
:10EAD0000121994010B552090C4600EB820000F06C
