:020000040002F8
:1070000000870020957402009D740200B572020092
:10701000A1740200A3740200A57402000000000025
:1070200000000000000000000000000015720200D7
:10703000A97402000000000059720200AD74020041
:1070400081780200AF740200517B0200AF7402002D
:10705000AF740200AF740200E9750200AF74020061
:10706000AF740200AF740200AF740200AF7402008C
:10707000AF740200AF740200AF740200AF7402007C
:10708000AF740200D9780200AF740200AF7402003E
:10709000AF740200AF74020041790200AF740200C5
:1070A000AF740200AF740200AF740200AF7402004C
:1070B000AF740200AF740200000000000000000086
:1070C000AF740200AF740200AF740200AF7402002C
:1070D000AF740200AF740200AF740200AF7402001C
:1070E000AF740200AF740200AF7402000000000031
:1070F00000000000AF74020000000000AF74020046
:10710000000000000000000000000000000000007F
:10711000000000000000000000000000000000006F
:10712000000000000000000000000000000000005F
:10713000000000000000000000000000000000004F
:10714000000000000000000000000000000000003F
:10715000000000000000000000000000000000002F
:10716000000000000000000000000000000000001F
:10717000000000000000000000000000000000000F
:1071800000000000000000000000000000000000FF
:1071900000000000000000000000000000000000EF
:1071A00000000000000000000000000000000000DF
:1071B00000000000000000000000000000000000CF
:1071C00000000000000000000000000000000000BF
:1071D00000000000000000000000000000000000AF
:1071E000000000000000000000000000000000009F
:1071F000000000000000000000000000000000008F
:10720000DFF80CD000F0B2F90048004791BF02004F
:1072100000870020264B19680868B0E8F04F80F31B
:107220000988BFF36F8F4FF0000080F3118870471B
:10723000000000000748006880F3088862B661B665
:10724000BFF34F8FBFF36F8F4FF4F07080F311884F
:1072500000DF000000700200EFF30980BFF36F8FC2
:10726000134B1A681EF0100F08BF20ED108A20E99A
:10727000F04F106008B44FF0400080F31188BFF366
:107280004F8FBFF36F8F0BF0A7FB4FF0000080F321
:10729000118808BC19680868B0E8F04F1EF0100F9C
:1072A00008BFB0EC108A80F30988BFF36F8F704776
:1072B000DC590020094B1EF0040F1CBFEFF30980BE
:1072C0001847EFF308800649064A884201D89042E1
:1072D00002D88D464FF00000184700008D7602005E
:1072E00000870020007F002030B450E8012F93B2C7
:1072F000C48923448489A34228BF1B1B0489A34259
:1073000002BFBFF32F8F002007E0C3EA020340E86B
:107310000134002CE9D14FF001000A6030BC704705
:1073200050E8012FC2EA024240E801210029F7D1CA
:10733000704730B450E8022F1FFAA2F3C488A3426A
:1073400002BFBFF32F8F00200DE0C489234484893E
:10735000A34228BF1B1BC2EA034340E80234002CAF
:10736000E8D14FF001000A6030BC704750E8022FAE
:10737000C2EA224240E802210029F7D170470346C1
:1073800053E8022FD988B2EB324F4FF0000017BFFD
:1073900092B241EA014142EA014104E05A68B2EB8B
:1073A000324F08BF012043E80212002AE8D170479B
:1073B00030B4044654E8000F0D4644E80053002B57
:1073C000F8D1156030BC704730B4044654E8000F63
:1073D00040EA010544E80053002BF7D1156030BCAA
:1073E000704730B4044654E8000F00EA010544E851
:1073F0000053002BF7D1156030BC704730B4044601
:1074000054E8000F80EA010544E80053002BF7D14F
:10741000156030BC704730B4044654E8000F00EBF0
:10742000010544E80053002BF7D1156030BC7047CC
:1074300030B4044654E8000FA0EB010544E80053C3
:10744000002BF7D1156030BC704770B404464FF084
:10745000000054E8006F0D68AE4207BF44E8002307
:10746000012044E800630E60002B1CBF0020F0E701
:1074700070BC704730B4044654E8000F88422CBFFB
:10748000451A054644E80053002BF5D1156030BC81
:10749000704700000648804706480047FEE7FEE7C1
:1074A000FEE7FEE7FEE7FEE7FEE7FEE7FEE7FEE7B4
:1074B0007579020001720200202A04DB203A00FAEA
:1074C00002F1002070479140C2F1200320FA03F33B
:1074D000194390407047000000487047D03C0300BB
:1074E00010B5431A934209D28318881803E010F8A4
:1074F000011D03F8011D521EF9D210BD40EA01031F
:107500009B0703D009E008C9121F08C0042AFAD259
:1075100003E011F8013B00F8013B521EF9D210BD07
:10752000D2B201E000F8012B491EFBD270470022C5
:10753000F6E710B513460A4604461946FFF7F0FF72
:10754000204610BD421C10F8011B0029FBD1801AF7
:10755000704730B504460020034600E05B1C9342B0
:1075600003D2E05CCD5C401BF8D030BD064C074D2B
:1075700006E0E06840F0010394E807009847103403
:10758000AC42F6D3FFF740FE08560300285603002E
:1075900070B58C1810F8015B15F0070301D110F8D5
:1075A000013B2A1106D110F8012B03E010F8016B02
:1075B00001F8016B5B1EF9D12B0705D40023521E85
:1075C0000DD401F8013BFAE710F8013BCB1A921CED
:1075D00003E013F8015B01F8015B521EF9D5A142EB
:1075E000D8D3002070BD00002DE9FC410025DFF854
:1075F000948000954FF4807601242F460195304603
:1076000005F06EFE38B1D8F80403204203D03046AE
:1076100005F05CFE2543361D64007F1CB6B2082FC2
:10762000EDD34FF4BE74204605F05AFE48B1204613
:1076300005F04CFE45F000456A460221002005F0A9
:10764000ADFD15F0FF0F16D0012600242E420ED0FE
:1076500008EB8401D1F81005D1F81015C0F305200E
:10766000094AC1F3014152F8242002B19047760043
:10767000641C082CEAD3002D02DA684608F0BCFC32
:10768000BDE8FC8100600040A07600201CB581466A
:1076900006F0D2F805F00AFF0028FBD12D485FEA7A
:1076A000090507682C482D494FF00106A0EB0100A1
:1076B0004FEAD00006EB004417D0204628A1AA6963
:1076C00006F014F8D5E90201CDE90001D5E900235F
:1076D000204629A106F022F8E8690090D5E90423A4
:1076E000204633A106F011F803E020463AA105F048
:1076F000F9FF1848001D0068800703D5204643495C
:1077000005F0F0FFDFF80881002500BF06FA05F05C
:10771000384206D058F825201AB120463DA105F080
:10772000E5FF6D1C1A2DF1D3380606D509480C303B
:10773000026820463AA105F0D9FF380406D505486D
:107740001030026820463EA105F0D0FF484600F008
:1077500085F8000028ED00E0C85603003856030005
:1077600048415244204641554C54206174203078A1
:107770002530385800000000202052303A202030B8
:107780007825303858202052313A20203078253062
:107790003858202052323A2020307825303858206E
:1077A0002052333A2020307825303858000000002D
:1077B00020205231323A2030782530385820204C61
:1077C000523A202030782530385820205053523AF1
:1077D0002030782530385800537461636B20766907
:1077E0006F6C6174696F6E3A20737461636B2070A3
:1077F0006F696E746572206F757473696465207348
:107800007461636B20617265612E0000C84B0300D8
:10781000A85B002043617573653A2025732E000034
:107820004D656D4D616E616765204661756C7420B4
:10783000416464726573733A20307825303858009B
:10784000427573204661756C74204164647265737F
:10785000733A20307825303858000000BFF34F8F3E
:1078600005480168054A01F4E06111430160BFF376
:107870004F8F00BFFDE700000CED00E00400FA05AB
:1078800070B54FF48076304604F0E4FF114CB50536
:1078900060B1304604F0E5FF0120C5F808036079C7
:1078A00020B9012060712168002088474FF482765A
:1078B000304604F0CFFF00280AD0304604F0D1FF54
:1078C0000220C5F808032168BDE870400120084780
:1078D00070BD0000505B00202DE9F041164E4FF4C2
:1078E000A071304606F095F80025EFF31184402092
:1078F00080F31188D6F804758100304606F089F8C7
:107900000BF0C8FD381A20F07F46012E07D90BF086
:10791000B3FD022803D000260BF0C8FD0543761EF8
:10792000FAD225B105494FF08050086040BFE0B25F
:1079300080F31188BDE8F0810010014004ED00E003
:1079400008B5002000900948694600680AF052FF17
:107950000098002808D006494FF08050086040BFCA
:10796000BFF34F8FBFF36F8F08BD0000905C002006
:1079700004ED00E030B54FF080520023D2E94C1006
:10798000082906D1CC06C4F80C31C4F81031624C79
:107990002360082955D1614B1B68614C23605F4B04
:1079A0001B1D1B68241D23605C4B08331B68241DB2
:1079B00023605A4B0C331B68241D2360574B103334
:1079C0001B68241D2360554B14331B68241D236042
:1079D000524B18331B68524C203423604F4B1C33DE
:1079E0001B68241D23604D4B20331B68241D23601E
:1079F0004A4B24331B68241D2360484B28331B68E3
:107A0000241D2360454B2C331B68241D2360434BEE
:107A100030331B68424C40342360404B34331B6886
:107A2000241D23603D4B38331B68241D23603B4BD2
:107A30003C331B68241D2360384B40331B68241DD6
:107A40002360082904D1030002D1374C354B236051
:107A5000082904D1030002D1344CFB2323600829F8
:107A600008D1030006D1324B92F858521C6865F3D6
:107A700003041C60082904D1030002D12D4C8B01A2
:107A80002360082906D12C480168C90702D06FF08D
:107A9000010101602948016841F470010160BFF3F0
:107AA0004F8FBFF36F8FD2E94C104FF0102208298F
:107AB00006D1032804D9D2F80802174920310860FA
:107AC000D2F80002002803DBD2F8040200281FDAF3
:107AD000012006F055FD1221C2F800121848036873
:107AE000002BFCD0C2F8041201680029FCD0002051
:107AF00006F046FDBFF34F8F10487C380168114AED
:107B000001F4E06111430160BFF34F8F00BFFDE757
:107B10000E490D48086030BD3805004004040010CF
:107B200020C50040488103008C56004018F50040F5
:107B3000E40E0040409602400004004088ED00E062
:107B400000E401400400FA050090D003985C002096
:107B50000148006800470000585B002002E008C8A8
:107B6000121F08C1002AFAD170477047002001E0B7
:107B700001C1121F002AFBD17047000001212028FB
:107B800003DA81400548014003E0402802DA20384A
:107B9000814009B10120704700207047FC06FFBDFD
:107BA0002DE9F843804643F2020659B9694607F0C9
:107BB000D7FBB04202D008B100F0C8F99DF8000030
:107BC000800744D40021404607F0D4FB05003ED096
:107BD000112D3CD01F482049401AC708022000EB55
:107BE00007440D2D0AD00B2D1DD0B5421FD11B49C6
:107BF00020464246BDE8F84305F078BD204642469F
:107C0000174905F073FD1321404676DF00281ED08A
:107C100006F0AEF8024601B020464346BDE8F04308
:107C200010A105F06ABD204642461C49E2E72846FD
:107C300006F09EF80246012000EB0740434618A1DB
:107C400005F05BFD2846BDE8F84300F07FB9BDE8CC
:107C5000F8830000705603003856030054440300B4
:107C6000E043030073645F626C655F6761705F642B
:107C70006973636F6E6E656374282920726574750D
:107C8000726E6564202573206F6E20636F6E6E5F69
:107C900068616E646C652025642E0000A0440300BA
:107CA000417373657274696E672E20706D5F636FC8
:107CB0006E6E5F73656375726528292072657475D1
:107CC000726E6564202573206F6E20636F6E6E5F29
:107CD00068616E646C652025642E000010B560B18B
:107CE00059B102780B785208B2EB530F05D1062236
:107CF000401C491CFFF72DFC08B1002010BD0120DD
:107D000010BD800701D00020704701207047C36874
:107D10008B4206D811440069491E814201D80120D6
:107D200070470020704790F82400012801D01F20E0
:107D30007047EE20704710B501220221002001F0AB
:107D400049FD08B1072810D107220221012001F0C6
:107D500041FD08B1072808D100210A22084601F098
:107D600039FD08B1072800D1002010BD10B50078FA
:107D700060B10C480C49401AC008032101EB0040D7
:107D80000AA105F0AFFC08F0ADF803E003210B48B1
:107D900000F090FD002803D0BDE8104000F0D6B8F8
:107DA00010BD0000D85603003856030045726173B9
:107DB0006520626F6E64732100000000345D002056
:107DC00070B58CB015460E4600236C46C3F10F010A
:107DD000415CE1545B1C102BF8D30D2104F1100021
:107DE000FFF7A5FB0020C0F10F02315C2244401CCC
:107DF00011740328F7D3684646DF0020C0F10F0155
:107E0000214491F820102954401C0328F6D30CB0CB
:107E100070BD022001F0E0BB0149C97800F0BABF93
:107E2000D45A002070B50024064D06E06868012190
:107E300010F8340006F018F8641C28788442F5D352
:107E4000002070BD605B0020F8B516460C46054664
:107E50000A2A01D20720F8BD06F0FEF818B906F08C
:107E6000BFF80028F7D1134F202113487D603C70E4
:107E7000BE60FFF75CFB0020C7E904000F4E0DE079
:107E800005EBC4003168009181788DF8011000780D
:107E90000B4A694606F034F80028DCD1641EE4B2CF
:107EA000EED2BDE8F84005480021064A001D00F06A
:107EB0006BB80000605B00207C7700207439030001
:107EC000FDB0020055A2020072B605F0B5FC00BF7D
:107ED00005F0ECFA0028FBD111481249401AC408F9
:107EE000012000EB044010A105F0FCFB11480068E4
:107EF000C00700D000BE022000EB04400EA105F038
:107F0000F1FBBFF34F8F0B48E43801680E4A01F4D0
:107F1000E06111430160BFF34F8F00BFFDE7000038
:107F2000D856030038560300466174616C206572B0
:107F3000726F7200F0ED00E053797374656D20721A
:107F400065736574000000000400FA050EB5002199
:107F50000091CDE901106A4644F20100FFF7B4FF39
:107F60000EBD10B508F076FC017B00290BD0417BDB
:107F700039B10021017301688268BDE810400846EC
:107F800010470121F6E710BD38B5046800251AB185
:107F900010B1207B20B901E0072038BD606808B12E
:107FA000082038BD00202060A060E06011B10120F1
:107FB000002101E0002001216173A2600649024610
:107FC000009123464FF47A7104A00BF087FB6060A8
:107FD00000B90E25284638BD637F0200200000004E
:107FE000002070477CB54668044626B1207B0028F7
:107FF00003D000207CBD08207CBDEFF3058022600B
:1080000008B300250A46019501AB092130460095C9
:108010000BF09EFB01282BD10BF042FA024601AB7C
:108020000621304600950BF093FB012820D10198E2
:1080300000B312494FF08050086040BFBFF34F8F2C
:10804000BFF36F8F16E002250A4600230421304655
:1080500000950BF07DFB01280AD10BF01BFA0246BC
:1080600000230121304600950BF072FB012801D05E
:1080700004207CBD01202073BBE7000004ED00E07C
:108080007CB504464068002500280CD0EFF305813C
:10809000B9B1019501AB0022082100950BF058FB06
:1080A000012817D101E008207CBD0198A0B10C493E
:1080B0004FF08050086040BFBFF34F8FBFF36F8F0A
:1080C0000AE00221002300911A4603210BF040FB35
:1080D000012801D004207CBD257300207CBD000058
:1080E00004ED00E030B5EFF3108172B60D4A9468EC
:1080F000012324B10370002900D162B630BD936022
:108100004FF0E023D3F88051074C25401560C3F8A9
:108110008041D3F8844154605A17C3F88421002267
:108120000270E8E79C770020FC06FFBD0B498A68D7
:10813000002A11D000280FD1EFF3108072B60B681F
:108140004FF0E022C2F800314B68C2F8043100223F
:108150008A60002800D162B6704700009C7700203A
:1081600038B50BF097F91D4C022502460095002307
:108170000121A0680BF0ECFA012802D00420FFF7DF
:10818000E5FE0BF087F90246009500230121E06827
:108190000BF0DEFA012802D00420FFF7D7FE0BF027
:1081A00079F9024600950023012120690BF0D0FAED
:1081B000012802D00420FFF7C9FE0BF06BF902463C
:1081C00000950023012160690BF0C2FA012804D058
:1081D000BDE838400420FFF7B9BE38BD785900200B
:1081E00070B5054608680C46411C04D005F047F8F8
:1081F000206804F0A7FF6068411C02D0002104F051
:108200008FFF2968A069C1F82405607D227D296857
:108210001043C1F86C05D4E900122868C0F8142591
:10822000C0F80C15207D012814D1A068411C02D093
:10823000002104F075FFE068411C04D005F01FF830
:10824000E06804F07FFFD4E902122868C0F808252E
:10825000C0F8101570BD70B5054608680C46411C85
:1082600004D005F016F8206804F076FF6068411C21
:1082700002D0002104F05DFF2968A069C1F824053F
:10828000607D217D2A680843C2F86C05D4E900129C
:108290002868C0F80C15C0F81425207D012814D1D9
:1082A000A068411C02D0002104F043FFE068411C9B
:1082B00004D004F0EEFFE06804F04EFFD4E90212AF
:1082C0002868C0F80825C0F8101570BD03F0F4BC8C
:1082D0002DE9F047814605884A484FF000088AB0EA
:1082E00001784246284600F06DFD99F805004007E8
:1082F00001D4002176E005F58077B8B205AB012204
:10830000072106F081FC04003F48404A4FF001017C
:10831000A0EB02004FEAD00001EB00460AD0204655
:1083200005F026FD024630462B46394905F0E5F9B1
:10833000214629E0284603F049FA4FF6FF7104462A
:1083400088422BD18A46069803F0AAF90446504584
:1083500010D00146284603F019FA2846FFF75CFDC5
:10836000E0B9284608F060FF2846FFF755FD0028D1
:10837000BFD013E006F01EFE0446504508D130463B
:1083800024A105F0AFF90421284608F07BFFB0E7EF
:108390000146284603F0FAF94FF00108B8B2224628
:1083A000072106F0A9FC07001BD0862F1ED005F080
:1083B000DFFC024630462B462349009405F0A5F920
:1083C0003946284608F05EFF0021484606F014FBB7
:1083D000B8F1000F02D0204603F0E2F90AB0BDE880
:1083E000F0870121484606F007FBF7E714221749FA
:1083F0006846FFF775F8ADF80250684602F0FEF8DF
:10840000EFE70000D45A00207856030038560300E6
:108410009C470300436F756C64206E6F7420616C21
:108420006C6F63617465206E657720706565725F3F
:10843000696420666F7220696E636F6D696E672074
:10844000626F6E642E000000B8480300103903000C
:1084500070B5044690B0087B0D468DF83800202199
:1084600005A8FFF764F842F61920ADF814000120C2
:10847000ADF81800ADF81A000EA80790617C9DF8C1
:108480002100A21D61F3041040F002008DF82100CC
:10849000A87B8DF82700687B8DF82500A08805A9AA
:1084A00001F00CFC00281CD1A968E1B10FA801F073
:1084B00048F8064614216846FFF739F842F60810D6
:1084C000ADF80000E87B8DF806000FA8ADF80A6053
:1084D000ADF80E600490E08804F10E02694601F0E8
:1084E00063FE10B070BD0020E081FAE710B50D49C1
:1084F0000D4808F03EFFC1B24FF6FE720B4800F087
:10850000F1FA00280DD008280BD0132809D0112823
:1085100007D043F20141884203D0BDE81040FFF785
:1085200015BD10BD6861002094590020B05C00208A
:108530000A4601461046AEDF70472DE9FC4700258C
:1085400017880646158090F82D001446894630B1EC
:108550003A462146484600F05BFC051E09D1B0783A
:108560004FF00C0A18B32088C846001DB84202D943
:108570005046BDE8FC87684679DF0028F9D120889D
:10858000032108F8001020881921401C80B22080A7
:1085900008F800102088401C80B2208000EB080101
:1085A000BDF8000009F047FE218808442080F078DB
:1085B0000222C8B1218896F9033001F1030C484624
:1085C000BC45D5D8425421884FF0010C491C89B2D2
:1085D000218000F801C02188491C89B2218009F856
:1085E00001302088401C20807068B8B1218890F943
:1085F000003001F1030C4846BC45B9D842542188EB
:108600000A22491C89B2218042542188491C89B21E
:10861000218009F801302088401C2080308950B129
:10862000CDE900474B460622022106F1080009F079
:1086300033FF051E9DD1308A50B1CDE900474B462E
:108640000722032106F1100009F026FF051E90D134
:10865000308B50B1CDE900474B461522142106F16D
:10866000180009F019FF051E83D1306A30B13B466E
:108670002246494601F04BFC051EDBD1706A30B141
:108680003B462246494603F06BFD051ED2D196F8C3
:108690002C0038B13B4622464946304608F09EFF42
:1086A000051EC7D1307838B13B4622464946304690
:1086B00003F0E4FD051EBDD128465AE718B504466F
:1086C0000020ADF8000013466A46204600F006F888
:1086D000002802D0BDF80000204418BD70B5E0B1FC
:1086E000DAB1002402E0045D2C44A4B2651C8D4282
:1086F00006D21688A642F6D8061976789E42F2D19E
:108700008C420AD2A31C005D9BB200B1401E000443
:10871000000C02D01C188C4201D9002070BD1380BF
:1087200070BD80F8301070472DE9F0410D0004460F
:1087300006D02CB195F87A000026012803D006E077
:108740000E20BDE8F08195F89800012821D04FF067
:108750000108A6702C2205F17801201DFEF7C0FE4D
:1087600084F83060D5F8A4006063D5F8A800A06351
:108770004FF6FF70A4F8240404F58260C4F82004C6
:10878000C4F82664A4F82A6484F82C64207810B114
:1087900004E00720D5E7FF2084F8540004F15507D2
:1087A0002046C4F81074FFF7BEFAA4F8140404F2CB
:1087B000144239462846FFF7C0FE0028C1D104F212
:1087C0003120C4F818042046FFF7ADFAA4F81C04C1
:1087D00004F21C4205F13C00D4F81814FFF7ADFE7A
:1087E0000028AED184F85180208BA4F8480084F88A
:1087F0003C80266484F850606069002160644546CE
:1088000004F13C02781E72DF00289AD1257098E7A7
:1088100010B50288102A1BD0112A20D0262A1DD17B
:10882000007A0C46012801D0022817D1A078052132
:10883000401CB0FBF1F201FB1201204600F03AF8B7
:1088400000280BD0A16B002908D0BDE810400847D4
:10885000C27B012A02D18088A1F8240410BD0C46F5
:10886000002184F82E148088B4F824148842F5D1AD
:1088700020790028F2D10121DFE710B5044690F8F5
:10888000540074DF012084F82E04002084F83004A2
:1088900084F850000621204602F0EBF8002808D1A9
:1088A000A178204600F006F810B1A16B01B188470D
:1088B000002010BD2DE9F05F044600780F4698B106
:1088C000A7700025C4F82654A4F82A5484F82C5420
:1088D000A079012608B1012F09D0E07980B1012FDC
:1088E00005D0022F03D00BE00820BDE8F09F616B9C
:1088F00021B184F82D640820884701E084F82D54C4
:1089000004F2274100200A5C0AB1304603E0401C13
:108910000628F8D300204FF002084FF0030B012F78
:1089200006D0022F0CD0032F0FD0042F15D110E04A
:10893000A17929B194F8241011B908B130460DE09D
:10894000E17911B108B1404608E0207A08B15846F3
:1089500004E0607A08B1042000E02846A070616B52
:1089600041B1032801D0042804D1607910B194F8F2
:108970002E0498B184F82F5404F13C0018210746C6
:10898000FEF7D5FD84F83C6004F12C0006F044FCB1
:1089900058B194F82C0084F8510008E084F8305461
:1089A00084F82F6407208847E6E784F8516094F83C
:1089B000240058B104F1280006F02EFC20B194F8F0
:1089C000280084F8520001E084F8526084F8505086
:1089D000A27804F2264104F582694FF0060A052ABE
:1089E00064D2DFE802F07C030F22420084F8316099
:1089F000C4F82054C4E9101584F83C808020A4F801
:108A0000480055E084F8318094F82420384612B1AB
:108A10000722027001E080F800B0228A8281C4F847
:108A200020544160E168B96042E06069B860208B21
:108A3000B88194F824003D460028204602D084F8EE
:108A40003CA001E084F83C6009F0F2FC50B185F8EC
:108A500014800421204602F00CF838BB052184F86C
:108A6000311021E084F831B01EE0E069B860208C5C
:108A7000B88194F824003D460028204602D084F8AE
:108A80003CA001E084F83C6009F0D2FC48B185F8D4
:108A900014800421204601F0ECFF38B984F831A09D
:108AA00002E0042084F83100C4F82094A07878B162
:108AB0003A4604F15400D4F8201472DF00287FF401
:108AC00014AF94F8301094F8540073DF0028F6D1F6
:108AD000616B11B194F831008847002005E784F8F4
:108AE0003150F5E7F7B594B0174605003CD0287C27
:108AF0009DF854100024884252D000264FF0010EF9
:108B00000D9615A8ADF834E00E90ADF83660E98802
:108B10000DAA4FF6FF70ACDF040026D19DF854007B
:108B20002874687CA0B30F96109611961296E88868
:108B3000ADF83C00BDF83600ADF840000DA811902E
:108B40000E981290A7F57F408DF83EE0FE3805D0D4
:108B500039460FA8FFF7ECFC044621E0684600F018
:108B60009DF800256F460FE00E2017B0F0BD00BF46
:108B700007EB4506B08800F0EFF8022803D144B1B6
:108B80000FA9B088AEDF6D1C0098A842F0D807E0AE
:108B900005E0B1880FA8FFF7CBFC0446F3E70824F3
:108BA0002046E2E738B50D46040018D0BDB128686C
:108BB000206028796074FF20207401208DF8020065
:108BC00041F60F00ADF80000221D69460120A8DF24
:108BD000002803D129462046FFF73AFC38BD0E2075
:108BE00038BD38B5002924D0002822D00288502A68
:108BF0001FD10546487C0C4600281AD0E9886289B6
:108C0000A81D914215D14189022912D1216800295C
:108C10000FD00C3000F091FC08B1002000E00120E2
:108C20008DF80000A888ADF8020022686946204649
:108C3000904738BD70B5040012D001461C2214487C
:108C4000FEF74EFC1248134D0560206850B17ADFE4
:108C5000002806D12068016829604068686005E046
:108C60000E2070BD0B487BDF0028FAD108484FF674
:108C7000FF711438084A20F8041B05493439016093
:108C80000021FFF781F90028EBD0032070BD000020
:108C9000107300202C5A0020C923030001494968A1
:108CA00001F016B92C73002010B5044600F0A6F8A8
:108CB000002805D02146BDE81040024803F0F4BB6F
:108CC00010BD00003C73002070B515460E460446EA
:108CD00009F0BAFB002809D0054800EB8400C06900
:108CE0002A463146BDE8704001F0F0BE70BD00007C
:108CF0002C73002010B5044600F080F8002805D041
:108D00002146BDE81040024803F0CEBB10BD000074
:108D10004473002010B5044600F070F8002805D018
:108D20002146BDE81040024803F0BEBB10BD000064
:108D30004073002070B50546002400F05FF838B19C
:108D40002946044803F0B0FB08B1022400E00124E6
:108D5000204670BD3873002070B50546002400F031
:108D60004DF838B12946044803F09EFB08B10224AF
:108D700000E00124204670BD3473002010B5182196
:108D8000034803F06CFB182800D0C0B210BD0000EF
:108D90002C73002070B505460C46084609F054FBBC
:108DA00060B1284600F02AF840B10548294600EB9A
:108DB0008400BDE870401C3003F076BB002070BD1D
:108DC0002C73002070B5054616460C46084609F07F
:108DD0003BFB00280ED0284600F010F8002809D0F0
:108DE0000548324600EB84002946BDE870401C303F
:108DF00001F03ABE70BD00002C730020142801D38E
:108E0000002070470146014803F04EBB307300203C
:108E10007CB5054608880C460930904201D90C20E3
:108E20007CBD68466DDF0028FAD12188082068548F
:108E300020881B21401C80B2208029542088401C9F
:108E400080B220802844DDF801100160BDF80510D3
:108E500081802088801D80B220809DF80010490804
:108E600000D0012129542088401C208000207CBD96
:108E70001FB5044601208DF8060041F60A00ADF842
:108E80000400494A01A90120A8DF00287DD12288D9
:108E90005AB14548801C009094F83C3042F6292095
:108EA000616800F0DBFE00287BD122895AB13E4880
:108EB0000A30009094F83C3042F62420E16800F03B
:108EC000CDFE00286DD1228A5AB137481230009069
:108ED00094F83C3042F62520616900F0BFFE00287E
:108EE0005FD1228B5AB130481A30009094F83C3050
:108EF00042F62720E16900F0B1FE002851D1228C12
:108F00005AB129482230009094F83C3042F626208D
:108F1000616A00F0A3FE002843D1228D5AB1224895
:108F20002A30009094F83C3042F62820E16A00F0A4
:108F300095FE002835D1216B79B102A808F054FFC5
:108F4000194808223230009094F83C3002A942F6C9
:108F5000232000F083FE002823D1606B60B112490A
:108F60003A3100910279016894F83C3042F62A20A7
:108F700000F074FE002814D1A16B89B102A807F09B
:108F800020F809484230009000E00AE094F83C30B4
:108F9000072202A942F6502000F060FE002800D10E
:108FA000002004B010BD0000F25A002038B501883E
:108FB0000446212932D015DC1F48204A204DA0EB61
:108FC00002004FEAD0004FF0030202EB00401029EC
:108FD00010D0112905D11BA104F084FB4FF6FF70BE
:108FE000688038BD3B2923D05629FAD180881321C7
:108FF00076DF0DE017A104F075FB072000F00CFCF4
:1090000008B1FEF7A3FFA1886980154803F0AAFB09
:109010000028E6D0BDE83840FEF798BF0020009059
:10902000A08869468FDF0028DBD0FEF78FFF38BDB0
:109030008088132176DFEBE7D8560300385603000B
:1090400078590020446973636F6E6E65637465645C
:1090500000000000436F6E6E65637465640000007D
:10906000285D002010B51A4C0188606810290ED0C8
:1090700011292BD1401E606028D1FEF75CFE00282C
:1090800024D02168002921D0BDE810400847D0B97C
:1090900000210122084600F09DFB08B107280FD1EE
:1090A00007220221012000F095FB08B1072807D113
:1090B00004220221002000F08DFB20B1072802D0FD
:1090C000216801B188476068401C606010BD0000E5
:1090D000C85900202DE9F04701883B4E40F2F319B2
:1090E0004FF6FF7510291BD011293ED0122954D0FC
:1090F000502946D1C188F289841D914241D16189AC
:1091000002293ED18688304602F00CFC050038D09A
:1091100004F10C0000F011FAA8B3294630464EE0E5
:10912000C17B8788044601292BD1A846284602F036
:10913000F9FB050017D02F800020287223484346F2
:109140004A460168C5F80A104068C5F80E0004F1E7
:10915000100105F10A0002F0A9FC6872F0890028EC
:109160000FD129462AE0042013E0808802F0DAFBC0
:10917000040006D06068FEF783FF08B108F066F8C7
:109180002580BDE8F087FFE76868FEF779FF0028D3
:10919000F7D0BDE8F04708F059B88788064638464A
:1091A00002F0C0FB0400ECD02B464A4606F1080151
:1091B00004F10A0002F07AFC607221463846BDE8EC
:1091C000F04700F0EBBE0000107300202C5A002086
:1091D0002DE9F04F044686880188424897B08346BF
:1091E00010290CD0112950D0103019296AD01A2911
:1091F00074D1217A0C09042C4DD301224CE0394D55
:10920000083DA868C0430B9069680BA803F070F98B
:109210000B990CA800F05CFE2C220CA96846FEF706
:109220005FF90027E946A84610E000BF09EB4700B8
:109230005FF00005B0F804A008EB85005146001D62
:1092400003F0F2F86D1C1E2DF6D37F1C0098B84277
:10925000ECD8142E05D317B00420BDE8F04FFEF76C
:1092600075BE3146584603F02AF9314608F104002C
:1092700003F025F9E07B022830D117B03146BDE874
:10928000F04F1848001D03F01AB917B03146BDE879
:10929000F04F03F0C9B80022314601F0E5FB032C82
:1092A00001D3012200E000220E4831460C3001F0CB
:1092B000DBFB022C01D3012200E0002209483146E9
:1092C000083006E0217A002908D1617AC1F3C00292
:1092D000314617B0BDE8F04F01F0C6BB17B0BDE88E
:1092E000F08F00003473002070B51F4E044686B026
:1092F0007078002836D02088A588102811D03178C1
:109300002846FFF747FD00282CD1204602F03AF905
:10931000204608F02FFA06B02046BDE8704001F064
:1093200029BD00208DF80000142101A8FEF7FFF8E8
:1093300001208DF804004FF6FF70ADF8080004F12D
:1093400008000390ADF80650CDF810D001A801F048
:109350003FF99DF8002031782846FFF733FD9DF84E
:109360000000D0E706B070BD645A002030B5044656
:10937000008C8BB0A0F57F42FF3A23D005AA20468F
:1093800002F074F80546ADF800000020019002904C
:10939000039004902189ADF804100121ADF8080074
:1093A0008DF8061005A8CDF80CD00490208C01A9EA
:1093B000AEDF002804D1BDF80010A94200D00C2077
:1093C0000BB030BD0820FBE7F0B504468FB008684D
:1093D0002060087960714FF6FF702084002084F8C7
:1093E0002200A4F84C001427012684F84E708DF852
:1093F000226041F60D000D46ADF82000A21D08A91F
:109400003046A8DF002847D120216846FEF78FF8B4
:1094100042F63720ADF80000ADF8047009AA00212B
:10942000204602F023F8ADF8060009A802908DF856
:109430000C609DF80D0004F1080240F010008DF85A
:109440000D00287B8DF81300E088694600F036FC9B
:10945000002821D1A868F0B120216846FEF767F8FE
:1094600042F63820ADF80460ADF80000ADF80660B3
:10947000A86802909DF80D0004F1100240F002006F
:109480008DF80D00687B8DF81100E088694600F0CA
:1094900015FC002800D100200FB0F0BD38B50288BF
:1094A000102A15D0112A15D0502A16D130F8062FBF
:1094B0008B899A4211D10C46418902290DD121682C
:1094C00000290AD00C3000F038F838B1002006E04E
:1094D000808801E04FF6FF70088438BD01208DF8C8
:1094E0000000226869462046904738BD70B50446A2
:1094F000B0F84C000D4614280AD104F126012622AA
:10950000881EFDF7EDFFB4F84C00401EA4F84C0097
:10951000B4F84C0004EB4001401CA4F84C008D84CE
:1095200070BD80F82210704770B504460D4608469D
:10953000FEF708F82080656070BD007800F001003B
:1095400070470A7802704978417002207047000025
:109550000149085C70470000A4370300084908B5BA
:10956000085C0090684603F031FED0F810050099C1
:10957000C84010F0010000D0012080F0010008BDBB
:10958000A43703002DE9FC410646C0074FF0000553
:109590000ED0104F00240122385D009500231146A3
:1095A000019503F047FD641C042CF4D300F04EF841
:1095B000B0070DD5074E0024361D0022305D032371
:1095C00000951146019503F035FD641C042CF4D37D
:1095D000BDE8FC81A0370300094908B5085C00908C
:1095E000684603F0F3FDD0F80425009B0121994063
:1095F00021EA0203C0F808351140C0F80C1508BD77
:10960000A03703000249085C012103F04CBE0000B2
:10961000A03703000249085C002103F044BE0000AB
:10962000A0370300084908B5085C0090684603F0BD
:10963000CDFDD0F804050099C84010F0010000D01D
:10964000012080F0010008BDA037030010B5002400
:109650002046FFF7D7FF641C042CF9D310BD10B5CA
:1096600000242046FFF7D6FF641C042CF9D310BD5C
:1096700010B50246064B4FF0FF3000215C5C94426F
:1096800001D1084610BD491C0429F7D310BD0000C4
:10969000A437030070B50C4E0C004FF0000530608D
:1096A0000BD0012000F06AF808B1022004E000208D
:1096B00000F064F800B10B202070706810B9FEF75C
:1096C0003AFB0546284670BDC859002010B5002059
:1096D00000F0CCF908B1062806D1012000F0C6F947
:1096E00008B1062800D1002010BD00002DE9F04788
:1096F0000D468146FFF7BCFF0446042836D2DFF84A
:1097000074801B481C4EA8F10C0725B3012D0ED008
:10971000022D2BD104EB440030444578002D25D098
:10972000B968002922D02846BDE8F047084704EB75
:109730004401755C0E44717849B10E4A4FF4806162
:10974000093A8068FEF74EFC08B987F80390B178B3
:1097500008F80410E2E78068FEF792FC04EB44018D
:10976000314418F804008D78A842D7D0BDE8F087BE
:10977000A8370300C4590020D8610020042801D272
:10978000FFF7ECBE002070470146104810B5408836
:10979000042907D007290ED00A2915D1BDE81040A9
:1097A00007F0D4BF132176DF0CE000280CD0BDE811
:1097B0001040FEF7CBBBA0F57F41FF3904D1044830
:1097C000FFF75BF80828F0D110BD000078590020A1
:1097D000345D002070B50023042810D20D4D00EB3D
:1097E0004004012A02D101290CD00022094E00EBCD
:1097F0004000304461B1012906D0022906D0072378
:10980000184670BD0E30C2B22A55F9E74270F7E72C
:109810008270F5E7D8610020044A014600201279E1
:10982000D20702D0084600F04DB87047B859002062
:1098300070B506461E480024C0E90161B0071FD577
:109840000025012211462846FFF7C4FF6D1C04467F
:10985000042D02D2002CF4D012E08CB93322042162
:109860001448FEF7F1FA04000AD1FEF7DBFA04000F
:1098700006D11048104A0021001FFEF785FB044660
:10988000F00712D00120FFF77DFE74B909480B4A9A
:1098900000210C38FEF778FB040006D10548084A81
:1098A00001210838FEF770FB0446204670BD000019
:1098B000B8590020B4370300799B020059BB02005D
:1098C000137E02002DE9F05F654C054600266078A6
:1098D00018B10020607002F027F9624F4FF47A6BE4
:1098E0004FF4FA7A4FF47A784FF00109182D61D2CB
:1098F000DFE805F00C13132F3E4B61666A726A7243
:10990000B37B7B7B7B7BA1A4A7AAB3B302F00CF94A
:109910003868FEF7B5FB064654E00020FFF782FEEC
:1099200000284FF0000008D0FFF76CFE022D02D196
:109930004FF4E16009E0584607E0FFF76BFE022DA7
:1099400001D1C82001E04FF4C87025700AEB8021D6
:1099500029E00020FFF766FE00284FF0000004D049
:10996000FFF750FE4FF44870EFE7FFF753FEE8E7CC
:109970000020FFF757FE00284FF0000002D0FFF74D
:1099800041FED8E7FFF746FEDDE70020FFF74AFE7D
:1099900000284FF0000002D0FFF734FE01E0FFF78F
:1099A00039FE31492570B1FBF8F100223868FEF725
:1099B00019FB06463CE00020FFF70EFE257008E08C
:1099C000002047E0257033E084F801900120FFF784
:1099D00003FE00226621E9E784F801900120FFF7E9
:1099E000FBFD00224FF40071E0E77868FEF748FBCA
:1099F0000646D5F1110000D02EB10220FFF702FE7D
:109A00000020A07014E001280DD980B200EBC00145
:109A100001EB00110AEB413191FBF8F1002278686B
:109A2000FEF7E0FA06460220FFF7F4FD84F8029004
:109A30003046BDE8F09F02F077F8C3E702F074F813
:109A4000BEE702F071F804E002F06EF80020FFF7C4
:109A5000E1FD0120FFF7DEFDB4E7FFF700FEB1E70F
:109A6000B8590020A8370300F4210300012108F0B1
:109A7000D5BF00002DE9F84F0546861C00208DF863
:109A8000000091460F464FF0010A6846FEF72AFB98
:109A90001B4C04F21C4860683860D4E90101194F7E
:109AA000401A3968081A0EE00121404602F01AFDFA
:109AB00002F014FA0146404602F014FDD4E9010117
:109AC000401A3968081A401C8642EDD8B9F1000FD7
:109AD00003D0052065F3891002E0062065F39F504E
:109AE00061683A68114004EB8101C86060683044E5
:109AF00060609DF80000FEF719FB5046BDE8F88F46
:109B0000E07A0020385C002070B50D4604460A2932
:109B100002D10D21FFF7F8FFA0682268411CA16067
:109B20001554D4E90101814204D32046BDE87040B8
:109B300002F045BF70BD0000044881684068814262
:109B400001D101207047002070470000E07A00201A
:109B5000034630B5074800210478426806E000BF9C
:109B600002EBC10005789D4203D0491CA142F7DBFE
:109B7000002030BD605B002000780221FFF7B6BDF9
:109B80001CB5044601F022FE00236A46092105F0B7
:109B90007DF9052805D10348012241792046FFF7C8
:109BA00011F91CBD345A00201CB504460020009059
:109BB00042F6A620ADF8000001208DF8020008480A
:109BC00001AA6946006801902046A0DF002805D15F
:109BD0000448012281792046FFF7F4F81CBD0000FB
:109BE000D8370300345A002005494FF0FF320828C7
:109BF00041F8202002D3084480F858207047000024
:109C0000A0760020F0B54FF0FF3512B100230826F2
:109C100001E008230C260C4C05E000BF54F823702B
:109C20007F1C04D05B1CB342F8D32846F0BD261835
:109C30005DB286F8305044F82310002AF5D1E118BF
:109C400081F85800F1E70000A0760020024908449E
:109C500090F9300070470000A07600202DE9F04117
:109C600088B01E46DDF8388014460D00074602D144
:109C70000020FEF76BF914B90020FEF767F92021E8
:109C80006846FDF754FC9DF80D00ADF8044040F027
:109C900002008DF80D000848ADF80070ADF80640E0
:109CA00002958DF8116042466946008800F006F87A
:109CB00008B0BDE8F0810000F25A00202DE9F04321
:109CC0008146887891B090460C4600B901208DF805
:109CD0003E002088ADF83C0000250095607C694678
:109CE00007F01CFD6E46A07C711C07F017FDE07BA1
:109CF00000289DF8020002D040F0080001E020F0AA
:109D000008008DF80200217C11B140F0100001E044
:109D100020F010008DF80200217B11B140F001000D
:109D200001E020F001008DF80200217D09B102213F
:109D300000E0012161F342008DF802001C2102A81D
:109D4000FDF7F5FB607BC10601D4800617D50E95A3
:109D50000EAFE07C791C07F0E1FC9DF83800079716
:109D600020F00F00401C20F0F00010308DF838007B
:109D70009DF83A0020F00600801C8DF83A00607BC8
:109D80008DF80800A07B8DF80900142109A8FDF7C3
:109D9000CEFB0FA8CDE90906A088ADF83000A06879
:109DA00020B1E088ADF82C00A0680D90A06998B3B0
:109DB00001950088ADF81000A06901AD01A94088A7
:109DC000ADF81200A069406806950390A069007B79
:109DD00007F0A4FCA069691C407B07F09FFCA06908
:109DE000807A00289DF8060002D040F0080001E0CB
:109DF00020F008008DF80600A169C97A11B140F081
:109E0000100001E020F010008DF80600A169097A29
:109E100019B140F0010002E00DE020F001008DF8E2
:109E20000600A169897B09B1022100E0012161F3EB
:109E300042008DF80600E06900B10590434609AA8A
:109E400002A94846AADF11B0BDE8F08370B5044608
:109E50004FF6FF750A462846AC4209D14FF480748C
:109E60002146104602F0FBFA80B2A0420BD070BD32
:109E7000FF2CFCD82146104602F0E1FA90F0010FC9
:109E800001D0204670BD284670BD000070B5084C5A
:109E9000050009D010342168002907D00868206027
:109EA000496828468847F6E70834F4E770BD0000A3
:109EB0008C760020054A012120B1012805D191703E
:109EC000FFF7E4BF51700020FAE770478C7600205E
:109ED00073B58CB00646002000900D9880B1002428
:109EE0006D4621460DA802F0DFFA30B1009805EB6F
:109EF000400084800098401C0090641C142CF0D317
:109F00002C2269463046FDF7EBFA0EB070BD2DE904
:109F1000F04117880646B81D14460D46984202D9EE
:109F20000C20BDE8F0813188072206290AD34FF4BE
:109F3000486C4FF6FF73614501D9994202D1708890
:109F4000062801D21046ECE7604501D99842F9D1C4
:109F5000994203D0984201D08142F3D80520E855B8
:109F600020881221401C80B2208029542088401C67
:109F700080B220804119308808F05DF921880844BA
:109F800080B220804119708808F055F92188084472
:109F900020800020C5E7FDF7D9BF000038B54A7A18
:109FA0000F4B62B100220A725969002906D00122C2
:109FB0008DF80020ADF802006846884738BD0A7A5F
:109FC00062B19B684C68024619462046FEF70AF8C3
:109FD0000028F3D0BDE8384007F038B95B68F1E7F6
:109FE00010730020F0B585B016460F4604461D4696
:109FF00014220B496846FDF773FA0A488DF8087079
:10A00000ADF80240ADF80A608DF80C5001780022DE
:10A010002046FEF7D7FE684600F0F0FA05B0F0BD26
:10A0200024390300D45A0020FDF7BABD70B588B0BA
:10A030000646002005900690ADF81410ADF81610F5
:10A040000190029001AA05A9304690DF050021D0B9
:10A0500003F08EFE0346114811493246401AC108EA
:10A06000012000EB014004460E4903F046FBBDF819
:10A07000042012B9BDF8060028B1BDF8063020460C
:10A0800009A103F03AFBBDF808201AB12046164991
:10A0900003F02CFB08B0284670BD000050560300AA
:10A0A00038560300144003005468652072657175CA
:10A0B00065737465642054582F5258207061636B27
:10A0C0006574206C656E67746820697320746F6FA7
:10A0D000206C6F6E672062792025752F2575206FA3
:10A0E00063746574732E00006040030070B504460D
:10A0F0000948012102F011FABFF35F8F0025002803
:10A1000008D1204601F034FE002803D1BFF35F8F51
:10A110000148056070BD0000405A00202DE9FF4154
:10A120000C4620B14FF4064004B0BDE8F081207920
:10A13000002748F2096538B141F61D5601281BD0A9
:10A14000022826D0681DEFE70220207102970397AE
:10A15000E0680190694601A806F048FD50B10298F8
:10A160008188E18000882081BDF80010029806F007
:10A17000BBFDD9E72846D7E70A4B6A460021A01D58
:10A1800006F0ECFC38B1074918398F61CF61A8425D
:10A19000CAD13046C8E703488188019806F0A4FD7B
:10A1A000F5E70000905B0020F0B587B00C4607464D
:10A1B0001646142101A8FDF7BAF9A07800B90120CC
:10A1C0008DF81A002088ADF8180006A80190A07933
:10A1D000694607F0A3FA6D46E079691C07F09EFA1C
:10A1E000E07800289DF8020002D040F0080001E06D
:10A1F00020F008008DF80200217911B140F0100024
:10A2000001E020F010008DF80200617911B140F0FA
:10A21000010001E020F001008DF80200217A09B16F
:10A22000022100E0012161F342008DF80200029555
:10A230006089ADF80C00A089ADF80E00E089ADF89A
:10A24000100020690590324601A93846ABDF07B0FF
:10A25000F0BD000070B500240F4D10E0686800EB01
:10A26000C406307803F0B4FE7178012901D00121D1
:10A2700000E000214140307800F01EF9641C28788D
:10A280008442EBDBD5E90401084303D0BDE870400C
:10A2900007F0CCBD70BD0000605B002010B5002150
:10A2A000024802F03AF980F3100010BDFC7E002055
:10A2B00009490120096809B1002070470749CA69A6
:10A2C000002AF9D1044A283212688968491E8A4254
:10A2D000F3D102207047000078720020DC59002082
:10A2E00013460A460021FFF77DBE00002DE9F84322
:10A2F000104D0F4680461E4691466946286802F07A
:10A3000067F8040014D01C21FDF711F90120207119
:10A31000C4F81490380BC4F80080C4E902606946A0
:10A32000286802F076F806F085FB0020BDE8F88387
:10A330000420FBE7043A030010B503780022072B42
:10A3400006D2DFE803F005040610202930000A7069
:10A3500010BD01230B7003898B818388CB81C0687A
:10A3600088600A7410BD02220A7002898A8182887C
:10A37000CA81C2688A60807D062802D000200874E5
:10A3800010BD0120FBE703220A70C2888A8102897E
:10A39000CA81C068886010BD04230B70C0888881A2
:10A3A000CA818A6010BD0520087010BD70B5064DC9
:10A3B0000646002455F8241009B130468847641C2D
:10A3C000042CF7D370BD0000C477002030B50446DC
:10A3D000006887B00D46806800281FD018216846A5
:10A3E000FDF7A5F80195A0680590207910B1012826
:10A3F00010D107E001208DF8000020690290E0688C
:10A40000039005E002208DF80000E0680003029050
:10A4100060690490206881686846884707B030BD4D
:10A42000F0B585B017460C0005463AD0112C38D04F
:10A43000082C36D01C481D49401AC6080D2C11D0D6
:10A44000204603F095FC0246012000EB06402B4617
:10A45000174903F052F92A460821684601F06CFFBB
:10A4600002941BE0022000EB06402A46114903F04B
:10A470003DF92A460421684601F05EFF27B138788D
:10A48000C00701D0012000E002208DF80800002064
:10A490008DF80C0041F20110ADF80A00684600F09A
:10A4A000BBF805B0F0BD000080560300385603002D
:10A4B000844A0300744903002DE9F84F0E463449DD
:10A4C000804601EB5001C007097801D00F0901E077
:10A4D00001F00F074FF00009424601204946FCF702
:10A4E000EBFFDFF8B0A004460D46052F4ED2DFE8A3
:10A4F00007F003161B282C00002E47D001214046F0
:10A5000007F0D8FB8DF800906846FDF7EBFD50464C
:10A51000D0E904120C431543CAE9044532E00EB1F8
:10A52000022114E0002112E04EB10321404607F061
:10A53000C1FB4046BDE8F84F012107F09DBF012156
:10A5400005E0002E22D1042101E02EB10321404676
:10A55000BDE8F84F07F0AEBB0021404607F0AAFB6C
:10A560000021404607F088FF8DF800906846FDF70F
:10A57000B9FD5046E243D0E904341A4024EA05010B
:10A58000CAE904219DF80000FDF7D0FDBDE8F88F71
:10A590007C770020605B002010B50446408801F005
:10A5A00015F9A080024801682046BDE81040084720
:10A5B0003C5A002010B50446808801F051F86080B4
:10A5C000024801682046BDE8104008474C5A002068
:10A5D0002DE9F04107460024064E074D05E000BF77
:10A5E00056F8241038468847641C28798442F7DBE3
:10A5F000BDE8F08140760020645A002010B5044682
:10A60000408801F0E3F8A080024801682046BDE8D8
:10A6100010400847E4380300014909680847000072
:10A620006039030070B586B0044614216846FCF713
:10A630007EFFA0890125A0F54040ADF804002078F8
:10A640002F4E062833D2DFE800F0320303032C4AF2
:10A65000A08900F0EDF930B9E08943F6FE71A0F56C
:10A660004040884223D8A07B8DF80800207803283A
:10A670000FD000208DF80900A0680390606850B1E9
:10A680000A208DF8000060680490684604F050FBD2
:10A690000DE00120EEE709208DF800008DF8105044
:10A6A000F3E7A08900F0C4F908B1E08930B170780F
:10A6B000002801D004F090FC06B070BD606830B195
:10A6C0000C208DF80000606802907570DDE70B20AB
:10A6D0008DF80000BDF8040004F022FDF5E7606885
:10A6E00048B115208DF80000606802904FF6FF70A9
:10A6F000ADF80400C9E714208DF80000F6E700006B
:10A70000505A002038B504460F480078B0B1A4F57F
:10A710007F40FF380FD0684606F0BCF888B10521AD
:10A72000017001210171C480684606F0C1F806F08D
:10A7300073F9002038BD48F2036038BD48F201606B
:10A7400038BD48F2076038BD985B00200D4808B559
:10A75000007888B1684606F09DF880B10621017046
:10A76000684606F0A5F80848017809B1012101738F
:10A7700006F052F9002008BD48F2016008BD48F219
:10A78000076008BD985B002088780020F0B587B08E
:10A7900014216846FCF7CBFE314C207818B168468E
:10A7A000FFF704FE5AE0201D01F099FEA0BB40F621
:10A7B000F8700168481C02D14FF0102041694FF039
:10A7C0008050026940694B1C01D100FB02F1254811
:10A7D00000220161A1F54051C160234902F084FAD1
:10A7E000002826D122481C238C222049006801F031
:10A7F000DCFD04F029F805004FF0000615D0022D0D
:10A8000013D00127062D16D005A806F043F8A8B1ED
:10A8100007700C2D1DD200E020E0DFE805F01A12D1
:10A820001A121A191A191A1416142670666048F2A8
:10A830000A6007B0F0BD27706660B0E748F20760B5
:10A84000F7E7067105E0032100E00221017100E055
:10A85000077105A806F02CF806F0DEF80020E8E7FE
:10A86000985B00209C5C0020143A0300D477002001
:10A870007C39030038B5040014D0694606F0B6F9F7
:10A88000B0B1BDF8000000EB80010B4800EB810087
:10A89000C16851B1A17A41B1C168491EC1600020AF
:10A8A000A07238BD48F2046038BD48F2056038BD7A
:10A8B00048F2096038BD0000607800201FB501A98A
:10A8C000684606F04BF904B010BD07B513460A46BA
:10A8D0006946002006F042F90EBD07B513460A4648
:10A8E0000021684606F03AF90EBD20B119B10068A2
:10A8F00008600020704748F204607047F8B50D46C4
:10A90000040018D0BDB1694606F070F9B0B1BDF8C9
:10A9100000000C4900EB800001EB800001210C30AD
:10A92000666801F0DFFD2E6060680C306860012011
:10A93000A0720020F8BD48F20460F8BD48F209603A
:10A94000F8BD00006078002018B10323002208F051
:10A95000B1B948F2046070470223002208F0AAB996
:10A96000094910B50A69042A0AD0084A096942F857
:10A97000210005480121103001F0B4FD002010BD78
:10A9800048F20B6010BD0000785B0020C477002007
:10A990002DE9F84F044624480078D8B1F4B11221CB
:10A9A0002046FCF7C4FD0320DFF8809020800025BE
:10A9B00004F1100804F10E0A05EB850109EB81068C
:10A9C00030897189084487B2706803F0C7FE032894
:10A9D00007D009E048F20160BDE8F88F48F2046052
:10A9E000FAE72088401E20806088F1680844608073
:10A9F0002089718908442081608938446081C7F5C5
:10AA00008060A18980B2814200D2A0815346A21DFC
:10AA1000211D2846CDF8008006F084F96D1CADB2EA
:10AA2000022DC9D30020D7E7985B00206078002072
:10AA300043F6FE71A0F54040884201D801207047DE
:10AA40000020704710B504460078182802D1FEF7A0
:10AA500095F9207010BD10B504460078182802D171
:10AA6000FEF78CF9207010BD0AB101F028BD01F08D
:10AA7000DBBC70B50D460446B0F81414D0F81004D1
:10AA80000122FDF71BFE00B1057004F13C0204F544
:10AA9000826104F1540072DF70BD000070B513468E
:10AAA00000220546112900D10122074C33B121793A
:10AAB000FEF788F900226178284600E06178BDE859
:10AAC0007040FEF77FB90000DC5A0020F7B517464A
:10AAD0000E0011D00098002560B100242146684680
:10AAE00001F0E2FC18B1A0B23946B0476D1C641CFD
:10AAF000142CF3D32846FEBD0020FEBD406805F0AF
:10AB0000E9BE00000EB517A19DF8080020F00F0067
:10AB1000401C20F0F00010308DF808000A2202A836
:10AB20007CDF08B1FDF712FA40F2413078DF08B15E
:10AB3000FDF70CFA0020009001904FF4A071ADF8E1
:10AB40000400ADF800104FF4C8704FF40271ADF876
:10AB50000600ADF8021068467ADF002801D0FDF744
:10AB6000F5F90EBD4E6F726469635F48524D000087
:10AB700070B510B14FF4064070BD1C4C0025207B11
:10AB800008B1257301E000F0A5F8207808282AD242
:10AB9000DFE800F02904080C10291422BDE87040F9
:10ABA00000F026B8BDE8704000F082B8BDE8704003
:10ABB00000F064B8BDE8704000F040B80620207096
:10ABC00060880A4900EB8000283901EB800040686A
:10ABD000BDE8704003F018BE072020706560BDE836
:10ABE000704003F01FBE48F20E6070BD88780020F0
:10ABF0001149F0B48A1C00200346A1F128050C1865
:10AC0000A67A4EB1A37200EB800405EB8404E668DB
:10AC100016B9247C012C0AD0401C80B20228EED345
:10AC20000B704B804B60F0BC41F61D50704710809C
:10AC3000F0BC00F03DB80000887800200C48418846
:10AC400001EB8102A0F1280101EB8201CA6852B137
:10AC5000052101700748022181800168002301223B
:10AC6000054801F0A5BF042202704968F6E700001C
:10AC700088780020A05B00209C5C002038B50A4941
:10AC8000084803240B684268898803EB81015388D4
:10AC90000470DB1C00201B0400909B0B034802F097
:10ACA000DBF838BD88780020A05B00209C5C002089
:10ACB000074910B54888091D05F0E8FF18B1BDE83F
:10ACC0001040FFF7DBBFBDE81040FFF7B7BF000043
:10ACD0008878002070B5194C0121207808281AD2F4
:10ACE000DFE800F00419191C252929182089134AC6
:10ACF000401C2081002060802073283A00EB8003F4
:10AD000012F8233043B100232518401C80B2AB72E7
:10AD10000228F3D3217070BD0123F5E7606808496C
:10AD200040888A88C01C10448880022004E000F01B
:10AD300009F8062000E00720207070BD8878002008
:10AD4000A05B00200A4909484988026801EB810399
:10AD50000749283901EB83014B6803604A60828808
:10AD60000A8102228280002008747047A05B0020C4
:10AD7000887800202DE9F043064680883288DFF885
:10AD80005C8185B00746502A37D010DC5449554BBA
:10AD900006F10A05A1EB03014FEAD1014FF00203CE
:10ADA00003EB0144352A3AD0362A07D168E0522A0B
:10ADB00002D0542AF9D102E000F07EFF82E0142292
:10ADC00049496846FCF78CFBADF80270384600F044
:10ADD000FDFCADF8040000F0AFF90022444698F8FD
:10ADE00004103846FDF7EEFF0022E1783846FDF703
:10ADF000E9FF6846FFF7D0FB64E0307B012861D1B2
:10AE0000B07A01285ED13089A0F52451023959D198
:10AE10000121384600F0A4FF07F0BEFA52E098F88E
:10AE20000610FDF7B7FF00284CD0002298F8061056
:10AE30003846FDF7C7FFF288B2F5857F17D012B10B
:10AE400020462AA10BE02A88012A03D0204636A1F9
:10AE500002F04CFC6A88012A04D0204641A102F08D
:10AE600045FC04E0A98800223846A1DF08B1002192
:10AE700025E0012298F807103846FDF7A3FF21E0EE
:10AE80004FF0000998F80710FDF784FFD0B10022B9
:10AE900098F807103846FDF795FFF28812B1204662
:10AEA00012A104E0AA88012A04D020462DA102F0B4
:10AEB0001DFC03E0A87900B10120814649463846CF
:10AEC00006F05CFF0022364998F80200FDF7FCFE10
:10AED00005B0BDE8F04306F079BA0000345A00200E
:10AEE000385603003856030030380300556E657835
:10AEF00070656374656420474154542073746174B1
:10AF00007573207768696C652067657474696E670E
:10AF10002043415220636861722076616C75653A06
:10AF200020307825780000004D756C7469706C6570
:10AF3000202825642920434152206368617261639F
:10AF400074657269737469637320666F756E642CBF
:10AF5000207573696E672074686520666972737402
:10AF60002E000000556E657870656374656420433B
:10AF700041522063686172616374657269737469B8
:10AF8000632076616C7565206C656E677468202837
:10AF90002564292C2073746F726520302E00000008
:10AFA000CD82020070B504460078002814D1608874
:10AFB00000F082FE6588284600F0CEF928B10748E7
:10AFC0000122C1782846FDF7FDFE6088FEF7D8FD16
:10AFD000BDE8704007F0E0B970BD0000345A0020B1
:10AFE00070B5204C00252570FDF7C8FE6070FDF798
:10AFF000C5FEA070FDF7C2FEE070FDF7BFFE207138
:10B00000FDF7BCFE6071FDF7B9FEA071FDF7B6FE5D
:10B01000E07162780121182A18D0A278182A15D078
:10B02000E278182A12D02279182A0FD06279182AC9
:10B030000CD0A279182A09D0182807D004F10C00E6
:10B040000560BFF35F8F2170002070BD0648074A7E
:10B05000801AC00801EB0040054902F043FB0320C1
:10B0600070BD0000345A00203856030038560300E3
:10B07000D43C03007CB504460078092837D1607AB7
:10B0800058BB207A1C4E4FF6FF75012811D00728B7
:10B0900002D008282BD121E0A08800F0E1FA044674
:10B0A000A84224D0012100F05BFE2046FEF768FD97
:10B0B0001DE0A0886A46012103F05CFD68B9019893
:10B0C000007850B1A08800F0CBFAA8420FD001223E
:10B0D000F178FDF777FE06F079F908E0F0680128CD
:10B0E00005D1BFF35F8F044900200C310860BDE833
:10B0F0007C4007F051B90000345A002010B5C0B2AE
:10B10000FEF726FD0446007802F062FF01466078F3
:10B11000012801D0012000E0002090EA010F08D0B2
:10B120000449D1E90401084303D1BDE8104006F009
:10B130007DBE10BD605B00201CB5054AD2E902123D
:10B14000CDE900120022694603F0DAFE1CBD0000C2
:10B150004838030003484FF6FF71818001210170D8
:10B1600000207047445A00202DE9FC41804600F041
:10B170002DFB002403250127A0F57F412646FF393A
:10B1800008D06A46082103F0F5FC18B90198841D1F
:10B190008688056832462B4621464046B1DF0428A2
:10B1A00004D0082804D00B2808D002E0112000E0C9
:10B1B0000020002F00D10B20BDE8FC810027A8074C
:10B1C00001D50125E6E7344303D0002426460325B4
:10B1D000E0E7064806494246401AC008012101EB53
:10B1E0000040044902F082FAE5E7000040560300FF
:10B1F000385603009C3F03002DE9FF47824600F0CC
:10B20000E5FAA0F57F418146FF3916D03B493C4A1B
:10B210000127891AC90807EB014600BF3A467F1C7F
:10B220004FF00008BFB202AB0821484603F0ECFC27
:10B23000040007D0072C5ED05EE043F2020004B0A9
:10B24000BDE8F087039D03232A1DA91D50462B60EE
:10B25000B2DF040004D00C2C37D0052C38D038E0F5
:10B260006A460821484603F085FC58B1052814D0E9
:10B2700002F07EFD02463046534622A102F03DFA1E
:10B280000320DCE70198AA888088824205D10199D1
:10B29000A81D891DFCF75DF930B14A46082110460A
:10B2A00003F02AFD044627E00821484603F01AFD72
:10B2B00048B102F05DFD034630464A461F4902F0A0
:10B2C0001CFA032418E00B2416E04FF0010800E0FC
:10B2D00000240821484603F005FD40B102F048FD76
:10B2E000034630464A46154902F007FA0324B8F1EE
:10B2F000000F93D100E00C242046A0E74056030045
:10B30000385603007064625F706565725F646174D3
:10B31000615F7074725F6765742829207265747547
:10B32000726E656420257320666F7220636F6E6E87
:10B330005F68616E646C653A202564001C3F030001
:10B3400004488088A0F57F41FF3901D006F048B855
:10B3500070470000445A00200EB502A9019100F088
:10B3600035FA6A46012103F005FC08B100200EBD44
:10B37000019800780EBD00002DE9F04107464FF618
:10B38000FF761048B3DF78B102F0F2FC02460E48B7
:10B390000E49401AC008012101EB00400C4902F09F
:10B3A000A5F90320BDE8F081064C43F20305A41E75
:10B3B000324661883846AFDFA842F3D16088401C2E
:10B3C0006080F5E7465A00204056030038560300D7
:10B3D000D03E0300428800EB82020C328A4201D93F
:10B3E000022070478188A1F57F42FF3A06D001888C
:10B3F00021B18068401C01D00020704701207047B7
:10B40000884204D20068401C01D00120704700200F
:10B410007047000010B51249124805F0AAFF114C00
:10B4200081B2243C6068401C60600F48FDF79EFFBD
:10B4300058B1082809D0132807D0112805D043F2A5
:10B440000141884201D0FCF781FD60680321B0FB17
:10B45000F1F201FB120000B10120207010BD0000CC
:10B46000786100209C590020C45C00202DE9F04147
:10B47000044640799046002500B1042594F8220046
:10B4800008B145F00205CAB2FF2908D9090A88F8AF
:10B49000012045F0010588F80210032602E088F833
:10B4A00001200226B4F84C0008B145F01005002731
:10B4B0001BE000BF94F84E10B21C91420BD2B4F8BE
:10B4C0004C0004EB4701C01B420004F1240024316E
:10B4D000FCF706F80DE004EB470008EB0601808C52
:10B4E0000870000A4870D6B27F1CB4F84C00B8420D
:10B4F000E0DC34F84C0FC01B208088F80050304648
:10B50000BDE8F0813EB5027802230C46B3EB520F42
:10B5100017D1B0F80110ADF80010C1788DF8021005
:10B520008188ADF8041080798DF8060002AA01A97F
:10B530002046FCF745FC032202A96846FCF709F8FF
:10B5400008B100203EBD01203EBD000070B50D4693
:10B550000446142810D2FDF751FC68B1084904EBE9
:10B56000840001EB4000D0F802102960C188A98056
:10B57000007AA871002070BD43F2020070BD000087
:10B58000A873002070B5018890B0102961D1011D09
:10B590002C226846FBF7A4FF9DF804004FF6FF76C7
:10B5A00003213446B1EB500F2BD003F067FC9DF81C
:10B5B00004006D4640080ED001280CD0022820D18E
:10B5C00018E00D99281D1131FCF788FB18B100BF58
:10B5D000BDF82C4015E00CAA0BA9072003F022FCB3
:10B5E0000028EED10DE00D99281D491CFFF78AFFB8
:10B5F0000028EDD10CAA0BA9072003F013FC0028AA
:10B60000F1D1BDF80000B44200EB8001124820F8EF
:10B61000114000EB41000199C0F80210BDF808107C
:10B62000C1809DF80A10017213D0BDF80000ADF87A
:10B630002E000020ADF83040084E8DF82C000BADE8
:10B64000044600BF56F8241028468847641C022C84
:10B65000F8D310B070BD0000A87300205C38030060
:10B660002DE9F0414FF6FF760546B04213D00B4F5F
:10B67000002400BF04EB840037F81000A84206D174
:10B680002046FDF7BBFB10B12046BDE8F081641CED
:10B69000A4B2142CEED33046F7E70000A8730020C4
:10B6A0003EB50C46054603F0E9FB0BE0BDF8000093
:10B6B000A04207D02846029900F00EF810B1BDF85C
:10B6C00000003EBD01AA6946072003F0ABFB00283D
:10B6D000ECD14FF6FF703EBD2DE9F0410C4605461A
:10B6E00000F1110701F111061022491C401CFBF763
:10B6F00030FF48B9681C00F0FBF928B1601C00F06D
:10B70000F7F908B1012400E0002431463846FCF77F
:10B71000E5FA3B780222B2EB530F0CD00321B1EBD8
:10B72000530F08D03378B2EB530F04D0B1EB530F63
:10B7300001D0012100E00021084201D18C4302D058
:10B740000120BDE8F0810020FBE7018811B9421813
:10B7500092780AB101207047491C0829F7D30020CC
:10B76000704710B50C460346FFF7EFFF00280AD0DC
:10B7700018882188884205D10822A11C981CFBF753
:10B78000E8FE08B1002010BD012010BD142804D22D
:10B79000024A00EB800022F810107047A8730020C6
:10B7A00070B50546FFF75CFF0446284603F0E6F94E
:10B7B000002808D1142C06D2034B04EB84024FF668
:10B7C000FF7123F8121070BDA873002010B5044655
:10B7D000142808D2FDF712FB28B1044904EB8400B9
:10B7E00031F8100010BD4FF6FF7010BDA873002097
:10B7F0003EB5044603F042FB0EE001992046463177
:10B80000FFF7AFFF28B9019920462A31FFF7A9FFBA
:10B8100010B1BDF808003EBD6A4602A9072003F03A
:10B8200001FB0028E9D14FF6FF703EBD10B50A4973
:10B8300041600A4800F053FE58B902F023FA074964
:10B840001C238C22087404488C39001F006800F007
:10B85000ACFD002010BD0000083A03003479002040
:10B860002DE9F0412C4D002420B16C604FF40640CE
:10B87000BDE8F0810879012250B1284B01280BD096
:10B88000254A02260832022821D0032829D12CE09B
:10B890000A7102F0C7FF22E05FF0000000EB8001B8
:10B8A00013F82110022908D0401C80B20228F5D3D9
:10B8B0002A706C6041F61D50DAE700EB800003F857
:10B8C000204003EB8000406802F09EFF07E00C710F
:10B8D0009680116800230122114801F069F90028BF
:10B8E000C6D06C6048F20D60C2E70C480C7128307D
:10B8F0004188106801EB810703EB8701D1F804C090
:10B90000C2F800C04860B2F804C0A1F808C0968030
:10B9100003F82740D8E70000985B002060780020FB
:10B920009C5C00200146034802888A4200D0002027
:10B9300070470000FC7200202DE9FC5F0E0083467A
:10B94000DDE90C47C6F1000098469246814600D4D6
:10B950000846012503E000BF90FBFAF06D1C50453E
:10B96000FADAA84500D9454624B1002E01DB780754
:10B9700000D5641EB80702D5B8F1000F0AD0F80749
:10B9800008D13CB1A54205D220215846641EFEF7DD
:10B99000BBF8F6E7002E02DA4E462D2102E07807CA
:10B9A00003D52B215846FEF7AFF807F00300022815
:10B9B0000BD1B8F1000F08D13CB1A54205D230211E
:10B9C0005846641EFEF7A0F8F6E7CDE90047434667
:10B9D00052463146584606F085FCBDE8FC9F000003
:10B9E00070B50D46044600684FF4887102F0E0F926
:10B9F0004FF49071206802F0DBF94FF492712068E7
:10BA000002F0D6F94FF4A271206802F0D1F94FF498
:10BA1000AC71206802F0CCF920681249C0F8041318
:10BA20002068690740F30730090E002804DB00F1A5
:10BA3000E02080F8001405E000F00F0000F1E020A5
:10BA400080F8141D206840F30730002809DB00F05F
:10BA50001F02012191404009800000F1E020C0F860
:10BA6000001170BD10034200024600201268530707
:10BA700013D502F00300012802D002280CD105E002
:10BA8000C2F383100B68801C184404E0022308688A
:10BA900003EB925210440860012070470248007A7C
:10BAA000002800D00120704734790020F0B5848848
:10BAB000A518944200D82246A41AC288D6189A42E1
:10BAC00000D81346D21A4B880788BB420CD3408853
:10BAD000834209D88888A04206D3A84204D8C888DF
:10BAE000904201D3B04201D90020F0BD0120F0BD49
:10BAF0000021425C0AB101207047491C1029F8D38B
:10BB000000207047800701D0002070470120704757
:10BB10000268134602E08A4204D01268002AFAD171
:10BB20000B600160704700000A4810B5807860B172
:10BB3000002401E0022C06D02046FDF763FD641CC2
:10BB4000042CF7D310BD0324F6E7BDE81040FDF741
:10BB50007DBD0000B859002003480179C90702D013
:10BB60000078FDF7AFBE7047B8590020172101805B
:10BB700041800021017141711B218171C1717047A8
:10BB80002DE9FE4F2E4F984692460D00814601D07A
:10BB900000260DE0684600F0C5FB6A4600214846D5
:10BBA00002F044FF3878009E10B99DF8090098B162
:10BBB00052463146484605F08BFF044601460022B6
:10BBC0004846FEF76BFF0D2C37D008DCA4B3082CD9
:10BBD00033D00B2C09D130E00520BDE8FE8F112CAD
:10BBE0001ED0A4F54050023827D0204602F0C0F8FD
:10BBF0000246144814494B46401AC008012101EB83
:10BC00000040124901F079FD5FF00305B8F1000F23
:10BC100004D0324621464846FEF702FC2846DCE7BF
:10BC20002A46F9784846FDF7CDF85246B978484695
:10BC3000FDF7C8F80025E9E7FFE72546E6E700003D
:10BC4000DC5A002080560300385603002C4A0300BB
:10BC500070B50E460C49154604460978FDF79AF86A
:10BC600000280FD0204602F087FE00282A463146E1
:10BC7000204603D0BDE8704002F084BEBDE87040AD
:10BC8000FEF72EBB70BD0000D45A002070B5094DE0
:10BC90000646A978FDF77EF80446E9783046FDF7B8
:10BCA00079F8014622463046BDE870400123FFF78F
:10BCB00067BF0000DC5A0020F0B585B005460027BC
:10BCC00014216846FBF733FCA5F57F40ADF8025020
:10BCD000FF3825D02846FFF747FA040022D01B483A
:10BCE0001B49401AC6080B2C22D0112C1ED0A4F5DB
:10BCF000405002380ED0204602F03AF802460120A9
:10BD000000EB06402B46134901F0F7FC214628467C
:10BD100005F0A4FA10483A4681782846FDF752F813
:10BD200005B0F0BD0F208DF800000BE00127F1E712
:10BD300010208DF80000022000EB06402A4607493B
:10BD400001F0D4FC6846FEF727FCE3E73856030011
:10BD500038560300A43D0300345A0020F83D030088
:10BD60000A4602494978FDF72DB80000345A0020F0
:10BD70002DE9F041002786B080463E46FFF73CFAA9
:10BD800004461F481F49401AC508112C23D003DC64
:10BD9000FCB10B2C06D114E0862C1ED0A4F540502B
:10BDA00002380ED0204601F0E3FF0246012000EBEE
:10BDB0000540434614A101F0A0FC2146404605F091
:10BDC0004DFA39464046FFF7CBFF06B03046BDE896
:10BDD000F0810126F5E70127F3E714221A496846A6
:10BDE000FBF77EFB0220ADF8028000EB05404246E7
:10BDF00016A101F07BFC6846FEF7CEFBE1E70000F0
:10BE000038560300385603006773636D5F6C6F63C9
:10BE1000616C5F64625F63616368655F75706461D4
:10BE2000746528292072657475726E6564202573A7
:10BE300020666F7220636F6E6E5F68616E646C6502
:10BE40003A2025640000000008380300466C617346
:10BE5000682066756C6C2E20436F756C64206E6F65
:10BE6000742073746F7265206461746120666F72F0
:10BE700020636F6E6E5F68616E646C653A20256446
:10BE8000000000001CB51348D0F81800EFF305813E
:10BE9000B9B10021019101A90023009104221946A2
:10BEA00007F08CFA00280BD00198002808D00A4926
:10BEB0004FF08050086040BFBFF34F8FBFF36F8FCC
:10BEC0001CBD02B00023BDE810400422194607F053
:10BED0001FBA00007859002004ED00E02DE9FF4171
:10BEE0000026244800F0F8FA2248001F074600F018
:10BEF000F3FA214C2149A06800900D6800E00098F9
:10BF00006946284004EB80000C30FFF7ADFD0028A7
:10BF1000F5D101AA009901EA050304EB8303491C4A
:10BF2000DB6842F82030401C00910228F2D30198CF
:10BF300000F0030001280BD0022810D10198032142
:10BF400001EB90500099BDF80A6001EB900005E00C
:10BF50000198BDF80A60C0F3831008440090384689
:10BF600000F0B7FA08B10098A06004B03046BDE810
:10BF7000F0810000F87E0020E07A0020385C00208C
:10BF800001F094FA0028FBD106F0CAFCF8E70000A3
:10BF9000ACB04FF40041002001F022FC08B1FBF7E7
:10BFA000D5FF01F075FA00F065FC08B1FBF7CEFF94
:10BFB00056480124CDE900400023220254A15648EE
:10BFC00007F07AF9012802D00420FBF7BFFF53489D
:10BFD000016841F00401016001F0D0FD08B1FBF7F8
:10BFE000B5FF002569460120009501F023FD08B149
:10BFF000FBF7ACFF684601F05FFD08B1FBF7A6FF59
:10C0000005F020FF46490320FDF712FC08B1FBF7BD
:10C010009DFF69460020FDF73DFB08B1FBF796FF49
:10C020009DF8000002286FD05FF000008DF8AC0092
:10C03000FEF768FD00213B4800F0DAFA08B1FBF793
:10C0400085FFAC216846FBF772FA02208DF80000EC
:10C050008DF8024006208DF803002C4803261C3082
:10C060000590ADF810604FF49670229044F2506045
:10C0700023908DF87C402C4829902A48694620302E
:10C08000FCF752FB08B1FBF761FF26480121203085
:10C09000FCF747FB05F0E6FA05F014F91C216846A9
:10C0A000FBF745FA41F28830CDE9005047F23050B5
:10C0B00002901C488DF80C6050388089ADF80E0055
:10C0C0001A4805901A4806908DF810506846FCF7FB
:10C0D000B1FD08B1FBF73AFF03F068F8FCF740F850
:10C0E0002BA9144801F096FD13481449401AC008C2
:10C0F00006EB004012A101F0F5FA06F0E1FB0F207B
:10C10000FBF724FFFBE7FFE701208FE790590020B2
:10C110004C4F47474552000081BF020010ED00E040
:10C1200089970200145D002099E50200EDE5020008
:10C13000979F02006D7D0200D85603003856030019
:10C14000485253204672656552544F5320657861BA
:10C150006D706C6520737461727465642E000000EC
:10C1600070B5144682880E4605462088111D01448C
:10C17000921C994201D8FE2A01D90C2070BD521C94
:10C1800032542088FF21401C80B220803154208806
:10C19000401C80B220808119288806F04CF8218844
:10C1A000084480B22080AA8842B1A96841B13044D5
:10C1B000FBF796F92088A98808442080002070BDEC
:10C1C000072070BD2DE9F047C5881E1DB6FBF5F7A9
:10C1D0008946B6FBF5F1044605FB176C40791668F5
:10C1E0006843DDF820A0F718001F874200D9C61A5F
:10C1F000166001E02468491E0029FBD1A5EB0C075D
:10C200008846B74216D818E004EB0C00001D09EB75
:10C210000803BAF1000F3A4602D00146184600E082
:10C220001946FBF75DF92468F61B4FF0000CB84483
:10C23000B54201D9374600E02F46002EE4D1BDE8D3
:10C24000F087000030B5024651B101F0DDFA00215F
:10C25000074C08E034F821301568AB4202D1116078
:10C26000002030BD491C8142F4D3052030BD0000C0
:10C2700000000000BFF35F8F00F016B9F8B50F465D
:10C28000017814460546012901D1687830B120882B
:10C29000821C9A4232D8012902D006E00720F8BD5C
:10C2A00069780144891C994228D8181A801E86B2E0
:10C2B000ADF800602188B81C084469467DDF00287D
:10C2C000EDD12978022904D06878BDF80020904289
:10C2D00005D3BDF80000B04201D809200AE00820CB
:10C2E000012905D16978B14202D8ADF8001001E00A
:10C2F000ADF80060BDF80010FE2901D90C20F8BD92
:10C300002288491CB9542188491C89B2218078545B
:10C310002088401C2080BDF80010084420800020A8
:10C32000F8BD0000034A00219268C0E90021816045
:10C3300070470000DC5A002070B586B00D460646F6
:10C34000144614216846FBF7F2F88DF80050ADF85A
:10C3500002402046FFF73AFAADF80400142269467D
:10C360003046FBF7BDF806B070BD70B54FF6FF75EF
:10C370000E46A84201D1002000E0401C84B208E033
:10C380002146304600F090F808B1204670BD641C8C
:10C39000A4B2FF2CF4D9284670BD10B5FAF7EFFF10
:10C3A00008B1002010BD112010BD10B531B1B2FB95
:10C3B000F3F403FB14241CB1092010BD0E2010BDA2
:10C3C00001600021416081608281C381084610BD07
:10C3D00070B50C460546FAF787FF002802D0218881
:10C3E0002868084470BD10B50A8849888A4203D17C
:10C3F000FAF7BCFF012010BD002010BD70B50C463F
:10C400000546FAF796FF002802D06188286808449C
:10C4100070BD10B50A8849888A4203D1FAF780FFB7
:10C42000012010BD002010BD01F01F0301229A4021
:10C43000D243490900EB8100114600F059B80A4681
:10C4400001F01F030121994010B552090C4600EB81
:10C45000820000F05DF8204000D0012010BD2DE9E1
:10C46000F04180460D460024481E012101EB501783
:10C4700016E058F82400C04390FAA0F0B0FA80F01B
:10C4800020280CD200EB4416AE4208D2314640467A
:10C49000FFF7D5FF0028ECD13046BDE8F081641CE1
:10C4A000A742E6D82846F8E74A0950F8220001F0EA
:10C4B0001F0201219140084000D00120704701F087
:10C4C0001F0301229A40490900EB8100114600F048
:10C4D00029B8002100F017B8012100F023B801218C
:10C4E00000F016B808B56A46FAF795FF009808BD3F
:10C4F00008B56A46FAF775FF009808BD08B56A46A0
:10C50000FAF789FF08BD08B56A46FAF76AFF08BD61
:10C5100008B56A46FAF758FF08BD08B56A46FAF743
:10C5200047FF08BD08B56A46FAF74EFF009808BDF8
:10C5300008B56A46FAF77CFF009808BD38B504468E
:10C5400000258DF800506846FBF7CCFD2168626835
:10C55000086890420ED9401E08600178238AE2687C
:10C5600001FB0325227A2168101AC0B20A7982429F
:10C5700000D208719DF80000FBF7D8FD284638BDB1
:10C5800038B5054600208DF800000C466846FBF7DC
:10C59000A9FDE868298A201AB0FBF1F12A68106821
:10C5A000431C136001709DF80000FBF7BFFD38BD10
:10C5B00010B530B1017A42680368891AC9B21A60AD
:10C5C00006E00E2010BD03681A68541C1C60117030
:10C5D000491EC9B2F7D2006800210171084610BD9A
:10C5E000C20800F007030120895C984008407047AA
:10C5F00010B560B10161172120F8021B20F8021B61
:10C600001B2100F8021BFFF7B1FA002010BD0E201D
:10C6100010BD0000F0B5858893B00C46002D39D1CF
:10C62000018800263F4F24293BD006DC102909D081
:10C6300011290CD0232958D14FE03A290BD0552984
:10C6400053D129E00146204601F0DEFF4DE0A01D58
:10C65000FFF78CFA49E02246408934F8061F8142F0
:10C6600000D808466080172800D217206080106923
:10C6700070B1607960B1D7E90001CDE90301ADF88F
:10C680000E506088ADF81000136903A91046984752
:10C690006671267113B0F0BD0146204602F008F81D
:10C6A00023E0011D2C2206A8FAF71AFFBDF8180096
:10C6B000BDF81C2004EBC0014A732269AAB1D7E976
:10C6C0000423CDE90423ADF81200487B8DF8140053
:10C6D0002269204604A9904707E0017A207B88421E
:10C6E00000D201462846FDF7A1FCA07A0028D1D04F
:10C6F000E1882846A5DF012580B11128CAD001F0C4
:10C7000037FB02460848094913B0401AC00805EB38
:10C710000040BDE8F04006A100F0E8BFA672E57257
:10C72000B8E7000064380300505603003856030091
:10C7300073645F626C655F67617474635F6578637F
:10C7400068616E67655F6D74755F7265717565733D
:10C750007428292072657475726E65642025732EA5
:10C760000000000020B10278DE2A03D008207047C4
:10C770000E20704741800020704760B159B10278A7
:10C78000DE2A0AD009684160DE2101704FF6FF7190
:10C790004180002070470E207047082070477FB509
:10C7A000054600294DD0002D4BD008780C46DE28D8
:10C7B00047D1A8886188884202D1204605F04AFE08
:10C7C0002888012825D002283BD011283AD05128AA
:10C7D00037D135F8040F6188884232D1A978A81C76
:10C7E00002292ED1017A042903D0062901D0052976
:10C7F00027D10021009102228DF8002001914FF4F1
:10C80000C07202910391ADF80420007A05280FD080
:10C8100010E0297A2046012913D1A9884288914243
:10C820000FD10121017204B0BDE8704005F012BEC5
:10C83000ADF8041028886946B0DF002801D061688F
:10C8400088477FBDA88861888842FAD14FF6FF707B
:10C8500060807FBD00F180400068002800D001208A
:10C86000704708B500F18040002101600068009029
:10C8700008BD000070B50D4C0125207808B1852653
:10C880000EE00020A06060602061E060084801F0D8
:10C89000B3FA064601F0F6F908B901F097FA2570E7
:10C8A00001F08CFA00B1A570304670BD8C76002086
:10C8B000B59E020038B500258DF800506846FBF79C
:10C8C00011FC084CE068401EE060E06828B901F007
:10C8D00075FA10B901F0B0FAA5709DF80000FBF7E9
:10C8E00025FC38BD8C760020F8B5134D0446A87899
:10C8F000002648B114B16168012088478DF80060B6
:10C900006846FBF7EFFB0EE08DF800606846FBF72A
:10C91000E9FB24B1084821461030FFF7F9F8E86830
:10C9200008B901F079FAE868401CE8609DF8000059
:10C93000FBF7FCFBF8BD00008C760020F0B5054647
:10C940000478154889B0164640F82420124A086930
:10C950000832A2F10C0742F82400487F3855202203
:10C960006846FAF7BDFD04942878385C48B10EB1EA
:10C970000A4A00E000226946281D01F0E3FC09B0E4
:10C98000F0BD0EB1064A00E00022694605F10C0038
:10C9900001F0A2FBF3E70000405B0020F52003005C
:10C9A0003D1F03000FB408B50399002904D004AA61
:10C9B00000926A4600F00FF801B05DF814FB10B564
:10C9C00082680446002A05D0D4E904032168984708
:10C9D0000020A06010BD2DE9FC4791460C00804668
:10C9E00076D014F8011B39B125290ED04046FDF749
:10C9F0008BF820780028F4D198F80C00002867D034
:10CA00004046BDE8FC47FFF7DABF0020012221784D
:10CA10002B291BD02D2902D0302908D102E040F06B
:10CA2000010001E040F00200641C002AEFD1002563
:10CA30002A290ED02178A1F130020A2A11D205EB61
:10CA4000850201EB4205641C303DF1E740F0040033
:10CA5000EAE7D9F800100B1DC9F800300968641C1A
:10CA60000D44217800232E290BD114F8011FA1F1C8
:10CA700030020A2A05D203EB830201EB4203303B6A
:10CA8000F3E76C290DD068290BD0692921D00BDC84
:10CA9000252918D0582931D063290ED0642915D101
:10CAA00017E014F8011FECE7702969D0732932D020
:10CAB00075291BD0782909D120E0D9F80000011D83
:10CAC000C9F8001001784046FDF71EF8641C90E795
:10CAD0006CE0D9F800100A1DC9F800200968CDE9FA
