:1000000000000420750300005D0300008D54000013
:1000100061030000630300006503000000000000AE
:100020000000000000000000000000006703000066
:1000300069030000000000006B0300006D03000076
:10004000399F00006F030000499F00006F0300000C
:100050006F0300006F030000FD9B00006F030000B2
:100060006F0300006F0300006F0300006F030000C8
:100070006F0300006F0300006F0300006F030000B8
:100080006F030000B54700006F0300006F0300001E
:100090006F0300006F0300006F0300006F03000098
:1000A0006F0300006F0300006F0300006F03000088
:1000B0006F0300006F03000000000000000000005C
:1000C0006F0300006F0300006F0300006F03000068
:1000D0006F0300006F0300006F0300004DBE0000BF
:1000E0006F0300006F0300006F03000000000000BA
:1000F000000000006F030000000000006F0300001C
:1001000000000000000000000000000000000000EF
:1001100000000000000000000000000000000000DF
:1001200000000000000000000000000000000000CF
:1001300000000000000000000000000000000000BF
:1001400000000000000000000000000000000000AF
:10015000000000000000000000000000000000009F
:10016000000000000000000000000000000000008F
:10017000000000000000000000000000000000007F
:10018000000000000000000000000000000000006F
:10019000000000000000000000000000000000005F
:1001A000000000000000000000000000000000004F
:1001B000000000000000000000000000000000003F
:1001C000000000000000000000000000000000002F
:1001D000000000000000000000000000000000001F
:1001E000000000000000000000000000000000000F
:1001F00000000000000000000000000000000000FF
:10020000354936480A1A02D0072291438D463449AF
:1002100034480A1A06D00722914381F30988022242
:1002200082F3148830483149314A00F044F83148AB
:100230003149324A00F03FF831483249324A00F041
:100240003AF832483249334A00F035F832483349F7
:10025000334A00F030F833483349344A00F02BF881
:1002600033483449344A00F026F8344834490022EF
:1002700000F02CF833483449002200F027F83348C6
:100280003349091A082902DB002202604160314A21
:1002900090471F481F49884205D00268043003B4C4
:1002A000904703BCF7E700208646EC46002000217B
:1002B000294A9047FEE7884207D0521A05D00378B2
:1002C00001300B700131013AF9D17047884202D0F8
:1002D00002700130FAE770470000042000E00320BC
:1002E0000000042000000420B41E01007C01002056
:1002F00060020020D0030000D003000044DA0000B8
:10030000B41E01007C0100207C01002048DE0000BA
:1003100048DE000048DE000048DE000048DE000045
:1003200048DE000048DE000048DE0000B41E010088
:10033000981F01006002002060020020600200207F
:10034000A8180020A8180020AC180020AC18002025
:10035000AC3800209D030000FDC90000FEE7FEE769
:10036000FEE7FEE7FEE7FEE7FEE7FEE7FEE7FEE765
:1003700000F002B8FFF7FCBF0F484FF007018843B9
:1003800085460E4880470E48016841F470010160BF
:10039000BFF34F8FBFF36F8FFFF732BF09480A4992
:1003A0000A4A884207D0521A05D0037801300B70F0
:1003B0000131013AF9D170470000042091CB0000CF
:1003C00088ED00E0CCDC0000000000207C01002073
:1003D00000487047A01800207047000007B50022B1
:1003E00001A908F055FF30B9044A01981368013398
:1003F000136008F008FE03B05DF804FBDC02002087
:100400000148FFF7EBBF00BFDCDA00000148FFF74F
:10041000E5BF00BFF8DA000030B585B004460191B1
:10042000002501A9204608F085FE10B9284605B030
:1004300030BD002203A9204608F02AFF0028F0D191
:10044000039808F0E0FD0135EBE7000073B5836821
:10045000D3F854339B07044603D50022114607F016
:10046000BFFA154D154A25F47F6520464FF4805696
:10047000082125F00F0505F0DDFF2B462046104A28
:100480000096082105F0D6FF0E4B0F4A1B685D1B36
:1004900064236B432046CDE900561B0B082105F071
:1004A000C9FF0A4B0A4A1B680821204602B0BDE872
:1004B000704005F0BFBF00BF972F010048DE00006D
:1004C0005CDE0000D402002089DE0000DC02002097
:1004D000B8DE000000238B540A460068194605F078
:1004E000A9BF00002DE9F0473B4D3C4F86B0804648
:1004F0000E46002202A9404608F0CAFE0446002823
:1005000043D1DDF80890059440230DF10C0A2B60CF
:100510000C22234651464846CDE9034408F096FD97
:100520009AE807009DF80C3003F00303012B87E8DD
:10053000070006D0022B2ED02C60029808F063FD35
:10054000D7E7BDF80C40C4F38314A4000C23224663
:100550002349484608F07AFD2A6804F10C039A42C0
:10056000EBD3029A1F4C009221681F482B603A4639
:1005700008F0DCFAD0B106BB04281ED1029808F0BE
:1005800042FD1A4A136801331360194805F03EF919
:1005900006B0BDE8F087BDF80E40C4F38914342CD2
:1005A00028BF3424033424F00304CFE7002EEFD017
:1005B00023682A6813442360BFE7102806D10298F5
:1005C00008F021FD0B4B01221A7092E70A494FF403
:1005D0009F7005F01FF88CE7D8020020E002002091
:1005E000EC020020D40200204C000020DC0200209D
:1005F000A002002050030020CFDE000038B5174ACB
:1006000013780446CBB90378012B25D1416879B919
:100610001348144A0368156811602B44036012489C
:10062000FFF760FF6069B8B1BDE8384008F0EBBC87
:100630000E4A136801331360F4E7012B0CD10378E1
:10064000022B09D10A4B816823F47F6323F00F0347
:10065000994204BF0023137038BD00BF500300202F
:10066000D4020020D8020020DCDA0000DC020020E6
:10067000972F010007B50E4B1B78B3B908460191BF
:1006800008F0BDFC01990B48FFF7C6FE0A4A136843
:1006900018441060094805F0B0F8014628B905482B
:1006A00003B05DF804EBFFF71DBF03B05DF804FB7A
:1006B00050030020DCDA0000DC020020A002002051
:1006C00013B50C4C2378012B11D00846019108F08A
:1006D00096FC01990848FFF79FFE2378022B06D16C
:1006E0000548012102B0BDE81040FFF7FBBE02B093
:1006F00010BD00BF50030020F8DA000070B51C499F
:100700001C4886B0002208F0D5F91B4B044658BBA4
:1007100002221A70194B0125C3F88450BFF34F8F82
:10072000BFF36F8F1648174E2946FFF7DBFE2923CC
:1007300003948DF80C30039B134A31680D4862F323
:100740009F23124A0393C2E9003494600C2300945F
:1007500008F0ECF933680E480C332946336006B0D4
:10076000BDE87040FFF7BEBE01221A7006B070BD32
:10077000AC0401004C0000205003002000E100E028
:10078000DCDA0000D4020020E1DF0000E0020020FB
:10079000F8DA000070B50E4601680446154621B926
:1007A000154921F47F6121F00F011448216008F000
:1007B00007FBF8B120683060037803F0030300F111
:1007C0000C01012B296003D0022B09D0052070BD3C
:1007D0000388C3F383139B000B4423600020F6E7D8
:1007E0004388C3F38913342B28BF3423033323F006
:1007F0000303F1E70620EAE7972F01004C000020F1
:100800002DE9F0418368D3F854339B0788B0044640
:1008100003D50022114607F0E3F80023CDE90233A7
:10082000264E274D274F4FF0010803AA04A902A81E
:10083000FFF7B0FF0346A8BBDDE90301CDE90633AE
:100840008B6805938B88ADF818300B78346003F013
:100850000302012A07D0022A18D0394640F29E200E
:1008600004F0D8FE0FE0C3F3C2038DF81C300A88F1
:10087000D1F800C00095014605ABC2F383124FEAE0
:100880009C2001F0AFF84FF00008CEE7C3F3C2039D
:100890008DF81C3049882B4605AAC1F3891101F057
:1008A00005F9F0E7B8F1000F04D0074A022120460D
:1008B00005F0C0FD08B0BDE8F08100BF5403002082
:1008C0007C010020CFDE000027DF000010B5084CBF
:1008D000084B094824F47F64012224F00F041A70A5
:1008E0002146002308F0E6F9044B1C6010BD00BF50
:1008F000972F0100500300204C000020D40200205C
:1009000008B58368D3F854339B0703D500221146FA
:1009100007F066F8BDE80840FFF7D8BFF0B595B01E
:1009200008460C4616461D4608F069FB1A9A0D92B9
:1009300000230C2205A920460A938DF82C300C9335
:10094000CDE9086508F082FB079B0293069B0393A1
:1009500001238DF811309DF8143003F00302012AB1
:100960001DD1BDF81420059DC3F3C203C2F3831645
:100970008DF81030B2000C230EA9204608F066FB5B
:10098000C5F3952508AB0093324602AB0EA9284665
:1009900001F028F8204608F036FB15B0F0BD022A19
:1009A000F8D1BDF81650C3F3C203C5F389158DF80D
:1009B00010300C27082D2E4628BF08263B4632460D
:1009C0000EA9204608F042FBAD1B08AB02AA314637
:1009D0000EA8374401F06AF8002DEBD1DAE70000E9
:1009E000014B01221A7070479903002070470000E4
:1009F00070B50F4D06460FCD88B06C460FC495E814
:100A00000F00002E84E80F000A4A0B484FF006033F
:100A100008BF00226946009308F04EFF18B1074A4C
:100A2000432101F0E7F8064B1E7008B070BD00BF0F
:100A3000CCE00000E10900009401002074E0000017
:100A40005803002007B5044B0093044A4023FFF7E6
:100A500065FF03B05DF804FB610A00005903002044
:100A600038B50E480E4C0F4D002323700378EB5C15
:100A7000D2B273B1043009F0E1FF18B10A4A532130
:100A800001F0B8F8094B1A7812B12378002BFBD08B
:100A900038BD0C3009F004FDEFE700BF94010020E1
:100AA00099030020CC0D002074E0000058030020C2
:100AB00008B50848084A0378D35C3BB1043009F014
:100AC0002DFFBDE808400020FFF792BF0C3009F071
:100AD0007DFCF6E794010020CC0D002000230428C3
:100AE000CB604B6098BF044B044A98BF53F820304A
:100AF0008A600B60704700BF8CE6000068E600006B
:100B0000CB6800225A717047C368DB6800225A71B3
:100B10007047CB6801225A717047C368DB680122B5
:100B20005A7170470D4A8A6070B50D4A0D4C00230A
:100B3000121BCB604B600B6012091D469A4207D016
:100B4000E6683679FF2E05D0854202D1A3680B6096
:100B500070BD013501331034F0E700BFA0E600009E
:100B600094DC000054DC00002DE9F3478368D3F8DF
:100B70005433C3F340059B07074606D500221146B0
:100B800002B0BDE8F04706F02BBF144E144CDFF85E
:100B90005880DFF85890DFF858A0A41B2409A5421C
:100BA00002D102B0BDE8F087F168B3680A79FF2A84
:100BB00007D10C4A0821384605F03CFC01351036B7
:100BC000EDE74879002814BF41464946CDE90012B7
:100BD00038465246082105F02DFCEFE754DC0000B2
:100BE00094DC00001AE1000009E1000011E10000BE
:100BF00039E100002DE9F74F154D164C9946641B5D
:100C000052F8043C06468846174624094FF0000B6C
:100C10005C4507D1104A0221304603B0BDE8F04FD1
:100C200005F008BCA968019318460CF0B4FEAA466A
:100C3000019B103540B93B46424651463046CC46B2
:100C400003B0BDE8F04F60470BF1010BE0E700BFD8
:100C500054DC000094DC00005AE10000014BFFF777
:100C6000C9BF00BF39100000014BFFF7C3BF00BF71
:100C7000010B0000014BFFF7BDBF00BF130B0000CD
:100C8000014BFFF7B7BF00BF15110000037813F049
:100C9000040216D003F00303012B03D0022B09D06A
:100CA000012070470A6800880332C0F383100244B1
:100CB0000A60F5E70B684288033303EB92130B607D
:100CC000EEE71046704700002DE9F04FDFF81CA159
:100CD0000F4685B00446C61C0020154603F03EFAB8
:100CE000DAF804203A60DAF8083003F580739B1ACA
:100CF0000AF21C470AF583690AF21448B34219D371
:100D00000020002D6CD004F00F039B0143F005037D
:100D100063F30F00DAF80430DAB2033233444AF8EE
:100D200022000020CAF8043003F028FA012005B0A0
:100D3000BDE8F08F0121384604F047FD484604F035
:100D40005FFD404604F05CFDDAF808000090C0B298
:100D500003300AEB80006946FFF798FF009B83464B
:100D600008B1D8B2F4E7DAB20AEB8202591CD268B1
:100D70000192C9B20AEB810102F003020333012A96
:100D8000C96800931ED0022A24D1BDF80620C2F300
:100D9000891203324FEA114B03EB92030093404652
:100DA00004F031FD10B1009BCAF8083059463846AE
:100DB00004F00BFDDAF80830DAF8042003F580734C
:100DC0009B1A9BE7BDF80420C2F383124FEA114B34
:100DD0001344E3E704494FF4C27004F01BFCDEE760
:100DE000A40544F0060095E770E1000034050020FA
:100DF000012907B5034604D08168D1F85413890747
:100E000007D500221146184603B05DF804EB06F042
:100E1000E7BD53680193054B00931368044A022110
:100E200005F008FB03B05DF804FB00BFCDE1000056
:100E3000C3E1000030B599B10A4B0B4A0B49D21AF5
:100E4000D20800239A4201D1052006E031F8235050
:100E50000468A54202D10360002030BD0133F1E7F0
:100E60000846FAE74CDB000054DC00007400002068
:100E70002DE9F84F04460846002C41D0224D0023AE
:100E80002B7000F073FE2148C5F80C4408F070F890
:100E9000814690BB1E48DFF888801E4CDFF884A096
:100EA00008F048FBA4EB0804E4084D46A54208D12D
:100EB0000023194A19469C421AD022F82310013304
:100EC000F9E700273E4608EBC50BB54209D058F8B4
:100ED0003610DBF8000014220CF04DFC0028C8BFCF
:100EE00001370136B442F0D12AF825700135DDE72B
:100EF0000A48A20000210CF0F9FC4846BDE8F88F32
:100F00004FF00709F9E700BF3405002094DC00002A
:100F10005CE6000054DC000076000020F8000020B1
:100F20004CDB00007400002007B5019001A8FFF71A
:100F300081FF30B9019A044B53F8320003B05DF8D9
:100F400004FB0020FAE700BF4CDB0000002310B5D3
:100F5000CB604B60034B8B600C460121FFF7E4FF35
:100F6000206010BD68E60000094B013903EBC000AA
:100F7000032909D8DFE801F00A02040604207047BB
:100F80000079704740797047002070470220704711
:100F90004CDB000030B5124C00EB400054F82150FF
:100FA00002FA00F3072202FA00F06B400D4A0340F8
:100FB0006B40C3F3821044F8213002EB8101C3F38C
:100FC000C202824238BF0246C3F34220824203F08B
:100FD000070338BF0246934238BF13464B8030BDEB
:100FE000F80000207400002013B50446019101A808
:100FF000114693B1FFF71EFF10B1002002B010BDE3
:1010000001990B4A04EB440052F821200723834046
:10101000134023FA00F0C0B2F0E7FFF70BFF0028FF
:10102000EBD1019A034B03EBC2039879E6E700BFCB
:10103000F80000204CDB0000294B2A4A2DE9F04F34
:101040009B1A4FEAD30ACB685B7985B005460E46FA
:101050001BB9254A022105F0EDF9244B244ADFF89B
:10106000A4800821284605F0E5F9224A08212846EF
:1010700005F0E0F90024544502D105B0BDE8F08F39
:10108000F36893F8049001231A4621464846FFF777
:10109000ABFF00230746012221464846FFF7A4FF85
:1010A0000121042881468346204628BF4FF00409C9
:1010B000FFF73AFF5FFA89F90F4A58F829100346FB
:1010C00058F827000D4F0090CB4598BF1746CDE943
:1010D00001170B4A0821284605F0ACF90134CAE78C
:1010E00054DC00004CDB0000E4E10000F7E100000C
:1010F00003E2000021E2000076140100E2E10000BA
:101100005EE2000078E6000013460A46C168FFF779
:1011100093BF00002DE9F04F2DED028B054683B003
:101120009B461646002A5DD0DBF80070CB68554917
:1011300093F804A038460CF02EFC0446F0B9012EBA
:1011400009D1514A0221284603B0BDEC028BBDE80B
:10115000F04F05F06FB9DBF804304C4F57F8041B23
:1011600000930A2218460CF006FB002800F083804A
:101170000134052C009BF1D1454A15E0454938461C
:101180000CF009FC044668B9012E36D04FF0010876
:10119000414B424AA3EB02094FEAD9030093DFF81F
:1011A00008914FE03E4A3B460221284603B0BDEC81
:1011B000028BBDE8F04F05F03DB900231A463146D9
:1011C0005046FFF711FFA04211D200213046FFF731
:1011D000ABFE424603460221284605F02BF90136B4
:1011E000BE42EAD103B0BDEC028BBDE8F08F2246CF
:1011F00031465046FFF7CEFEF1E7274F274BDFF889
:10120000A480FF1AFF080026EAE700213846FFF70E
:101210008BFE18EE101A20220CF0ADFA034608B12E
:10122000013716E00246019039465046FFF7DCFED2
:10123000A042019B18D3224639465046FFF7AAFE2A
:1012400008F10108B045CDD25BF8283008EE103A1D
:101250000027009BBB42D8D15BF828304A460221C8
:10126000284605F0E7F8EBE719463846FFF75CFE3D
:101270000C4A0346F3E7022EE4B2BED04FF0020858
:1012800086E700BF74E200007BE2000078E6000021
:10129000E6E2000092E2000054DC00004CDB0000BB
:1012A0009AE20000AFE20000D2E2000013460A46D4
:1012B000C168FFF72FBF7047034BD3E90130C31A52
:1012C00058425841704700BF340500202DE9F043D3
:1012D00085B0FFF7F1FF0546002840F00F81884CEC
:1012E000C4F81804BFF34F8FA3680093DBB2033335
:1012F00004EB83006946FFF7C9FC009B50B1D4F8AA
:1013000018243AB962689A42F0D8A260284605B01B
:10131000BDE8F083591CC9B204EB8101DAB2C96897
:10132000029104EB8202991CD2680192C9B2033384
:1013300004EB8101009302F00303C9680391022BBF
:1013400055D1BDF806306F489DF80450C3F3891895
:101350004746A02F28BFA02707F10C0167F38F1382
:10136000C1F30901ADF8063007F01AFEC5F3C20556
:101370000646002800F0A98007F041FE00230C2259
:1013800001A9304607F04EFE0099CB43DBB2013392
:10139000C9B20331B7EB830F4FEA830204EB81013B
:1013A00022D95FFA82F90C23A7EB0907304607F030
:1013B00039FEFFB209F10C03534903F0FC033A462E
:1013C000304607F02FFE009B08F1030803EB98035B
:1013D0000093D4F81834002B41D1D4F81074DFF8FE
:1013E0003C914FF007085FE00C233A46E8E7012BF9
:1013F0006BD1BDF804504348C5F38311062928BFBB
:10140000062161F38915033101F00F018900ADF860
:10141000045007F0C5FDC5F3C2050646002854D0A8
:1014200007F0EDFD00230C2201A9304607F0FAFD7C
:101430000027BDF80420C2F38312BB00974203F1DA
:101440000C03C6D200994A1CC9B20331009204EBC6
:1014500081010422304607F0E5FD0137E9E7304617
:1014600007F0D1FDFFF728FF80F00100C5B24DE77E
:10147000FB685A79B2B11B79BDF8081003EB43023F
:1014800059F8211008FA02F3052D03EA010323FAA3
:1014900002F308BF0325AB4204D33B6831461B6807
:1014A00038469847FB681F68002FE1D1304607F0A7
:1014B000AAFD384602F052FED4F818340BB9009B4E
:1014C000A360002002F05AFECCE7D4F8104474B9AF
:1014D0000E4B5B88012BC5D90D4B0E480E49C01A27
:1014E000C008000440F0020000F07CF8BAE723686E
:1014F00020469B689847E3681C68E8E7002505E7F5
:101500003405002094DC0000400500208C00002001
:101510004CDB00007CDB000003E30000F80000204F
:101520002DE9F34704460F46914601A901221846CA
:101530009846FFF7C9FB264E002835D0019D0023B1
:10154000E81C434503EB000139D12248002104F097
:10155000F5F880F3100A204B204A4FEA14499B1AF1
:10156000B9EBD30F04D31E4940F2A91004F052F88E
:101570006B1CDBB206EB830349EA0A40D860D6F85D
:101580000C349847AB1CDBB2E40006EB830304F099
:101590003804EDB244F00104D860033544EA8813FE
:1015A00043EA872346F8253033781BB1FFF78EFED8
:1015B0000028FBD1FFF77FFE02B0BDE8F087C9B27B
:1015C00006EB810159F82320CA600133B9E700BF57
:1015D000340500205009002054DC00004CDB0000E2
:1015E00070E1000000231A46FFF79ABF07B50123F8
:1015F000019201AAFFF794FF03B05DF804FB07B561
:10160000CDE9002302236A46FFF78AFF03B05DF8A5
:1016100004FB1FB5CDE90123069B039301AA032315
:10162000FFF77EFF05B05DF804FB1FB5CDE9002391
:10163000069B0293079B03936A460423FFF770FF00
:1016400005B05DF804FB7FB5CDE90123089B03934A
:10165000099B04930A9B059301AA0523FFF760FFEA
:1016600007B05DF804FB00002DE9F84388461B49EC
:10167000D1F81034054600241A468AB9EA68147174
:10168000A3B9C1F810541360154B164EF61AF6089C
:10169000002703F10709B7420DD12046BDE8F883C2
:1016A000D2681079A04212D01268E6E7DB681968A8
:1016B00011601D60E8E719F83720EB6842453946AC
:1016C000187928BF4246FFF765FC0137E3E701348C
:1016D0000A2CD1D14FF0FF34DFE700BF34050020E2
:1016E0004CDB000054DC000038B5084B0125D3F872
:1016F00010441D7004B938BDE3685D71236820464D
:101700005B689847E3681C68F4E700BF3405002075
:1017100010B588B00023CDE90233CDE9003304933E
:101720001F4B204A0593204B06929B1A9B08079358
:1017300002AA6B4643F2274141F26E0003F04AFDD4
:10174000B0B905A902A803F03DFD184B5B88022B38
:1017500004460AD91648174B1749C01AC008000496
:10176000224640F00300FFF741FF204608B010BDBD
:1017700048F20963984210D105A902A803F01EFDA2
:101780000A4B5B88022B0446EFD90948094B0B49E9
:10179000C01AC00800042246E3E70324E5E700BFBF
:1017A0006E102734F80000207C0100208C000020FF
:1017B0007CDB00004CDB000014E3000045E300008C
:1017C00010B58368D3F854339B07044605D500222F
:1017D000BDE81040114606F003B9FFF799FF30B994
:1017E000044A08212046BDE8104004F023BE024A06
:1017F0000221F7E776E300008EE3000000B589B030
:101800000023CDE90533CDE90133079305AA01ABE8
:1018100043F2274141F26E0003F0DCFC90B9CDE9C0
:10182000030003A905A803F07FFC40B91048114A42
:101830000499121A0CF031F805A803F09BFC09B0CA
:101840005DF804FB48F2096398420FD10A4B5B88AC
:10185000012B09D909480A4B0A49C01AC0080004DB
:1018600040F00200FFF7BEFE0520E8E70320E6E7B0
:10187000F80000207C0100208C0000207CDB0000B0
:101880004CDB0000B3E3000010B58368D3F8543399
:101890009B07044605D50022BDE81040114606F01E
:1018A0009FB8FFF7ABFF30B9044A08212046BDE8D6
:1018B000104004F0BFBD024A0221F7E7D8E3000060
:1018C000F0E30000F0B5C38887B005460E4633B19B
:1018D000294A009229492A4A304606F0BFFC297A53
:1018E000052946D06B7A4BB1A888FFF73DFB254B05
:1018F000254953F82020304606F0B0FC234B2C68D5
:101900001B68B4FBF3F4224B1868B4FBF0F34FF4FC
:101910007A7E00FB13444FF461610EFB04F4B3FBC9
:10192000F1F23C2701FB1231B4FBF0FCB1FBF7F301
:1019300000FB1C4407FB13110EFB04F40091B4FBE5
:10194000F0F41449CDE901C4304606F087FC2A7A48
:10195000114BA88853F8222005920021FFF7E4FAE2
:10196000059A0E490346304607B0BDE8F04006F040
:1019700075BC07B0F0BD00BF08E80000F0E700004C
:10198000E8E700007CE8000060FC0000F0090020AF
:10199000EC0900200DE80000A0E8000029E80000A4
:1019A00007B503460846197A052911D05B7A2BB191
:1019B000094A0A49019006F051FC01980849019032
:1019C00006F04CFC019803B05DF804EB06F034BC63
:1019D000002AF8D0F2E700BF08E8000060FC000031
:1019E00002FA00002DE9F04385B01F460C9D00234C
:1019F00095F80C902B7306460C46904629463846BF
:101A0000FFF760FFB8F1060F09D8DFE808F004120D
:101A1000181F283340003146284606F01FFC0022DC
:101A200029463846FFF7BCFF85F80C9005B0BDE8A5
:101A3000F08322683146284606F010FCEFE7D4E92F
:101A400000233146284606F009FCE8E7A368009326
:101A50003146D4E90023284606F000FCDFE7E368BE
:101A60000193A36800933146D4E90023284606F089
:101A7000F5FBD4E723690293E3680193A36800931D
:101A80003146D4E90023284606F0E8FBC7E763693E
:101A9000039323690293E3680193A368009331469B
:101AA000D4E90023284606F0D9FBB8E708292DE938
:101AB000F74F80460E4617461C463DD800251B7B37
:101AC0002573214610460193FFF7FCFEDFF88CA03A
:101AD000DFF88CB0AE4232D918F8052059462046BE
:101AE00006F0BCFB0135082DF4D11B49DFF874A0CA
:101AF000DFF874B0204606F0B1FB4FF000094E4508
:101B000024D918F809507E2D1ED828460BF06FFCFA
:101B1000002814BF2A462E225946204606F09EFB76
:101B200009F10109B9F1080FE9D10122214638462E
:101B3000FFF736FF019B237303B0BDE8F08F5146DA
:101B4000204606F08BFBCDE72E22E5E751462046E6
:101B500006F084FBE4E700BF3DE8000039E8000040
:101B600033E800003BE800003FE80000084A10B5F9
:101B70000123084C13600021A04204D801B1136076
:101B8000054B186010BD40085B000121F4E700BF61
:101B9000F009002040420F00EC09002082B0012330
:101BA0008DF807309DF80730114B1860596044F2EA
:101BB000010188429A6012D044F20201884206D1A3
:101BC000DA60DA6812689A61DA685268DA6172B6C5
:101BD0009DF80730002BFBD162B602B070471A6146
:101BE0001A6992685A611A6912689A611A69ECE76F
:101BF000F409002000B583B002900091019244F2F4
:101C0000010071466A4600F003F803B000BD000011
:101C10002DE9F041064686B00F46154672B6FFF72D
:101C200063FDFFF753FB0028FBD1DFF8C88044F2C7
:101C300001029642B8F802301ED044F202029642E7
:101C40003CD15BB1244B25482549C01AC00800048B
:101C5000D5E9003240F00100FFF7D1FC214BD3F869
:101C6000F030DB0700D500BE2A463946304606B0C4
:101C7000BDE8F041FFF792BF002BEFD0AA68164BEA
:101C8000164C0592E41A104607F0D0FCE4082968C7
:101C90000297019124046968009144F0010403460D
:101CA000059A11492046FFF7CEFCB8F80230002B08
:101CB000D4D00E492046FFF795FCCFE7002BCDD0BE
:101CC0000548064B0A491B1ADB081B043A4643F039
:101CD0000100FFF78BFCC1E74CDB00007CDB000060
:101CE000FCE8000000ED00E016E900003CE900001F
:101CF00050E900008C00002010B5D0E90243D1E982
:101D00000202A04272EB03032CBF0120002010BD91
:101D100008B50A4802F037FD094AD2E90031C01877
:101D2000084BD3E9002341F10001904271EB03031A
:101D300003D210F1807041F1000108BDC401002000
:101D4000180A0020800A002037B505460C461248C4
:101D500001A903F07EFCE8B14460057001A90E48BA
:101D600003F0A1FC044628B10C4802F011FD00204C
:101D700003B030BD0A4B5B88012B09D909480A4BD7
:101D80000A49C01AC008000440F00200FFF72AFC0C
:101D90002046EDE70420EBE7B0010020C40100205D
:101DA000940000208CDB00004CDB000068E90000A0
:101DB000436970B504461BB92B49A52003F02AFCE2
:101DC0002A4B1E7816B90026304670BDFFF7A0FFDB
:101DD000D4E90223904299413ED3002002F0BEF99B
:101DE00023692BB94FF0FF324FF0FF33C4E90223D0
:101DF000002002F0C3F91E4B5B88032B0AD91D4853
:101E00001D4BA2691D49C01AC008000440F004001F
:101E1000FFF7ECFBD4E905309847002002F09EF96B
:101E200025696DB1D4E90212B2F1FF3F08BFB1F1EB
:101E3000FF3F0FD0691842F10002C4E90212354693
:101E4000002002F09BF9002DBDD00D48214607F07F
:101E50007BFBB9E70025F3E7B3F1FF3F08BFB2F121
:101E6000FF3FB0D0F1E700BF93E90000200A002057
:101E7000940000208CDB00004CDB0000DEE9000059
:101E800070EB000013B5114B11491868019008233D
:101E90001048582203F0CAFB044698B90E4A0F486E
:101EA00001A902F0FFFA044660B90C48012102F0D2
:101EB00051FC01230A4A0948194602F09FFB094BCD
:101EC00001221A70204602B010BD00BF6CEB00006A
:101ED000240A0020B00100209D1F0000C401002042
:101EE000FFFF7F00200A002070B50C46154606460D
:101EF00020B90D4940F25A2003F08CFB35B940F26D
:101F00005B20094903F086FB072070BD621E336821
:101F100054424FF0FF304FF0FF315441C3E902010A
:101F20005D611C610020F0E793E90000F8B50D4603
:101F30001746044620B9154940F26B2003F06AFBAE
:101F4000002002F00BF9D4E90223B3F1FF3F08BFF0
:101F5000B2F1FF3F15D1FFF7DBFE281841F1000178
:101F6000C4E902010126002002F008F95EB12369EC
:101F7000A76103B1256121460020BDE8F840FFF7C5
:101F8000E3BE0026EFE73046F8BD00BF93E900004E
:101F9000014802F0F8BB00BFC40100202DE9F04F5A
:101FA00085B0A84D074602F0D9FBA74BED1AED0806
:101FB0002D0445F0040880B1A44B5B88032B03D9A2
:101FC000A3494046FFF70EFBA24AD2E9003113F1C4
:101FD000807341F10001C2E900310021384602F06E
:101FE000C7FB58B39C4C2368002B56D0384602F0F0
:101FF000CAFB00210646384602F0BFFB301A20F02B
:102000007F40B0F5960F04D3944940F2411003F09D
:1020100001FB2368DB695B88032B0AD9236890499D
:10202000D869904BC01A8008000440F00400FFF704
:10203000D9FA2068FFF7BCFE00232360012138464F
:1020400002F096FB20B1FFF763FE874BC3E9000166
:102050008648DFF8049203A903F035FB45F0030638
:1020600004464FF0FF3A4FF0FF3B04BBDFF8049209
:10207000794C45F00105484607F092FA002800F037
:102080003381D0E90223B3F1FF3F08BFB2F1FF3F34
:1020900068D1484607F074FAEDE76C4B5B88012B7A
:1020A000CCD9734945F00200FFF79CFAC6E72378C4
:1020B000012B32D0022B09D16E4C204607F060FA7A
:1020C000002800F01B81C0E902ABF6E7DBB96168CC
:1020D000D1E90223B3F1FF3F08BFB2F1FF3F12D0B5
:1020E000644807F031FA6368D8694288032A0AD93C
:1020F0005C4A9B686049801A800800041A4640F0D8
:102100000400FFF77CFA03A9584803F007FB57487F
:1021100003A903F0D8FA0446A7E76168D9F80030AC
:10212000994211D10023C9F800306368D869438807
:10213000032BE8D94B4B5149C01A8008000440F0EA
:102140000400FFF74FFADEE74A4807F035FA0028A7
:10215000EBD13E4B5B88022BE7D949493046FFF76C
:1021600041FAE2E7216811B32168D1E90201824214
:102170008B4161D22368D3E90223B3F1FF3F08BF4B
:10218000B2F1FF3F13D02368DB695B88032B0AD9C8
:1021900023683C49D869334BC01A8008000440F0DA
:1021A0000400FFF71FFA2168484607F0CDF94846BA
:1021B00007F0E6F90646C0694388032B0AD9294B84
:1021C0003149C01A8008B36800041A4640F0040080
:1021D000FFF715FAD6E902ABFFF79AFDBAEB00005C
:1021E0006BEB010B01287BF1000355DBB0F5350FDC
:1021F00025D3FFF7CDFE254A0244DFF850B024482E
:1022000001924FF49603002102F026FABBF8023047
:10221000019A032B824606D903461E4922F07F42CB
:102220004046FFF7ECF9BAF1000F4CD1236813B91F
:10223000384602F0C7F9266005B0BDE8F08F524677
:10224000DBE700BF8CDB00004CDB000094000020CB
:10225000FAE90000180A0020880A002093E900002B
:1022600007EA000074000020800A0020B00100206E
:1022700013EA000070EB000048EA0000A5EA000045
:102280006FEA0000C5EA0000D6EA0000FFFFB400D4
:10229000C4010020F5EA00001E48002102F062FAA5
:1022A0003046FFF785FDF0694388032B08D91A4BA8
:1022B0001A49C01A8008000440F00400FFF792F9A0
:1022C00000232360D7E6BAF10D0FE9D0BBF8023046
:1022D00023B1134952462846FFF788F911494FF4B4
:1022E000867003F097F9DEE70F4B1B68002BA3D134
:1022F000384605B0BDE8F04F02F072B90B4B012231
:102300001A700B4B5B88022B7FF6FDAE09493046F5
:1023100017E700BFC40100207400002029EB000073
:1023200014EB000093E90000880A0020200A002036
:1023300094000020B3EA0000024B5B6803B1184729
:10234000704700BF8C0A00200378052B0BD1074A89
:10235000D2F88434D2F88024D2B222B9044ADBB253
:10236000052B08BF1046034B1B681847007002403E
:1023700080EC00008C0A0020FFF7E6BF38B50D4660
:10238000044620B9064940F2431003F043F963784C
:10239000AB4283BFA07840190019002038BD00BFB0
:1023A0007CEB000038B50D46044620B906494FF4D1
:1023B000887003F02FF9237AAB4283BF093405EB11
:1023C00045056019002038BD7CEB000070B50D4656
:1023D000044620B90D4940F20F1003F01BF9636861
:1023E00023B90A494FF4887003F014F963681B6835
:1023F00023B9064940F2111003F00CF9636829462D
:1024000020461B68BDE87040184700BFCFEB0000B6
:1024100008B520B1044940F27B2003F0FBF8BDE889
:1024200008400248FFF790BFCFEB000084EC0000AB
:1024300010B5044620B9044940F2432003F0EAF8FD
:102440002368186810BD00BF17EC000000F00F03F0
:1024500010F0800F10B51C460AD0082B04D909498A
:102460004FF4CC7003F0D6F8074800EBC40010BD61
:10247000082B04D903494FF4CF7003F0CBF803487D
:10248000F3E700BFCFEB0000980A0020E00A00202D
:1024900070B50D460646FFF7D9FF044605604DB9F5
:1024A000730604D105494FF4E17003F0B3F800233B
:1024B000636070BD6B681B68FAE700BFCFEB00007C
:1024C000012805D0022805D030B90648FFF73CBFE7
:1024D0000548FBE70548F9E7054940F2622003F0AB
:1024E00099B800BF7CEC000078EC000074EC0000B0
:1024F000CFEB0000024B0146D3E90002104700BFBA
:10250000E00A002038B5831EDBB2062B98BF1A4ABA
:102510001A4D98BFD25C2B78A3F10203DBB288BFBF
:102520000022062B9ABF1449CB5C00239342044639
:1025300003D0B2B1124807F003F9022C14D0A4F171
:102540000800424242412B78022B0FD0A3F1080130
:102550004B424B41934202D052B108F0A1FF2C7084
:1025600038BD07F029F9E8E70122ECE70123F1E79C
:1025700008F08CFFF3E700BF68EC0000310B00208F
:10258000CC0100202DE9F04F87B000260546884693
:1025900091461F4602966B6800225C68294601231B
:1025A00002A8A047044638B98DF806000490824678
:1025B000564503D8052028E00136ECE76B680DF19D
:1025C0000602D3F804B02946012304A8D8476B6853
:1025D0000DF10702D3F804B02946012304A8D84717
:1025E0009DF8073043459DF8063013D14C450FD177
:1025F000109A13603B7087F801806A68023B546848
:102600002946BA1C04A8A047002007B0BDE8F08FF7
:102610000134E4B26A68023BD2F804B029460022D1
:1026200004A8D8479DF806309A44C1E7F7B5054697
:1026300007F026F820B92D4940F2313002F0EAFFC8
:102640002B4808F06DFF0446002835D1294B18703F
:10265000294B1860294B01461860482228480BF086
:1026600045F92848482221460BF040F9264B35BB56
:10267000264A1D72C3E90025002007F0C1F830B1D9
:10268000852804D0194A40F25F31FFF7B3FA204F92
:10269000002529463846FFF785FE0135EDB2044690
:1026A00010BB0B231A488DF8043001A9FFF78EFEEA
:1026B000044608B108F0AEFD204603B0F0BD95E831
:1026C000070083E807000028D6D1104A1A60D3E734
:1026D00000783946FFF7DCFEF1B22046FFF74EFEE8
:1026E00001360028F4D1D4E70026F5E7CFEB00004F
:1026F00079230000310B0020280B00202C0B002038
:10270000980A0020E00A00208C0A0020252B0000F7
:10271000A4ED000010B508F067FE10B908231846B4
:1027200010BD08F069FE04460028F7D1064807F0FE
:1027300082F803460028F2D0044A40F2C231FFF783
:1027400059FA2346EBE700BF70EC0000CFEB000026
:1027500008F076BD08B508F059FE20B1044940F2F2
:10276000D13002F057FFBDE8084009F009BC00BFB6
:10277000CFEB000008B508F03FFE20B90A494FF43E
:10278000767002F047FF4FF08043D3F83824920769
:1027900004D5BDE808400548FFF7D6BDD3F8382476
:1027A000D107F2D408BD00BFCFEB000089EC0000D8
:1027B00007B5822301A88DF80430FFF7C5FD03B0EB
:1027C0005DF804FBF7B5044620B9384940F26A5079
:1027D00002F020FF636823B9344940F26B5002F0E5
:1027E00019FF63681B6823B9304940F26C5002F04E
:1027F00011FF23681B6823B12C4940F26D5002F091
:1028000009FF08F0F9FD30B1284940F2715002F09B
:1028100001FF002613E008F0E7FD0028F9D1F3E7F7
:102820000078FFF713FE0368013713B1112023E08E
:102830000027F9B22846FFF7A1FD0028F0D1314664
:102840002046FFF7AFFD0136F6B205460028EFD16E
:1028500029462046FFF7A6FD0135EDB20646C8B968
:10286000134D124E2B68BBB92C600B2301A92046D7
:102870008DF80430FFF7AAFD03B0F0BD00782146C3
:10288000FFF706FEF9B23046FFF778FD0137002862
:10289000F4D1DDE70027F5E7A34204D1314640F249
:1028A000975002F0B7FE2B681D68DBE7CFEB000006
:1028B000280B0020024B1878003818BF0120704701
:1028C000300B0020030710B5044604D409F016F9B4
:1028D000204609F027FC2046BDE8104009F0CEBB99
:1028E00009F096BB014B1868704700BF280B002009
:1028F0002DE9F8430F4B1C6806460D46BCB194F811
:1029000008904FF000085FFA88F7B94504D82046D0
:10291000FFF78EFD0446F1E739462046FFF742FDFA
:102920000378B34208F10108EDD105B12F702046BC
:10293000BDE8F883280B00201146FFF747BD07B517
:1029400000F00F03082B019109D8FFF77FFD006805
:1029500028B1019903B05DF804EBFFF737BD1020F3
:1029600003B05DF804FB000038B5074B1C68054652
:1029700004B938BD29462046FFF728FD2046FFF759
:1029800057FD0446F4E700BF280B002038B5084B7C
:102990001C6805460CB9062038BD29462046FFF7BD
:1029A00015FD0628F8D12046FFF742FD0446F1E761
:1029B000280B002013B50446019108F0FEFD50B12C
:1029C000064B1B78022B06D10199204602B0BDE8C8
:1029D000104008F0F9BD082002B010BD310B0020F6
:1029E00013B50446019108F0E8FD50B1064B1B7881
:1029F000022B06D10199204602B0BDE8104008F034
:102A00006DBE082002B010BD310B002043689B68EA
:102A100070B505460E4614469BB92B7AB34204D2D4
:102A20000F4940F2F92002F0F5FDB4B931462846CD
:102A3000FFF7B8FC46780546E1B2B14205D3002065
:102A400002E098470628E8D070BD2846FFF796FCBC
:102A50000078FFF737FF0134EEE70720F4E700BF07
:102A6000CFEB00004368DB6870B504460D4603B148
:102A70009847237AAB4204D20B494FF4467002F0D8
:102A8000C9FD29462046FFF78DFC467804460025FF
:102A9000E9B28E4200D870BD2046FFF76FFC007887
:102AA00009F0B6FA0135F3E7CFEB000043681B6984
:102AB00003B1184718467047F8B50D4B0D4E1C680A
:102AC00004B9F8BD277A0025E9B28F4204D8204620
:102AD000FFF7AEFC0446F3E700222046FFF796FF1F
:102AE00020B1314640F26A7002F094FD0135EBE707
:102AF000280B0020CFEB0000094B70B51C6804B90F
:102B000070BD267A0025E9B28E42204603D8FFF731
:102B10008FFC0446F3E7FFF7A5FF0135F3E700BF9D
:102B2000280B002038B5974B1B68044623B99649FB
:102B300040F2254002F06EFD01F030FB052804D87C
:102B4000914940F22C4002F065FD23780F2B13D9F8
:102B5000A3F1800283F08003052B06D9BDE838403D
:102B6000894940F2265002F055BD052AF6D8DFE823
:102B700002F06429467079D80F2BEFD801A252F8E1
:102B800023F000BF832C0000B12C0000112D0000A9
:102B9000D52C0000F32C0000232D0000352D000063
:102BA0005D2B0000772D00007B2D00007F2D0000A5
:102BB0005D2B00005D2B00005D2B00005D2B0000F5
:102BC0002D2D00007148FFF795FC7048FFF7CCFEF3
:102BD0000D20FFF7B1FBFFF78FFF00F096FF6C4B66
:102BE0001B6853B96B4B187A00F0010008F0CAFB60
:102BF0000120BDE83840FFF785BC0120F4E7FFF76E
:102C00007BFF09F08FF90020FFF77CFC6248FFF79B
:102C1000ABFE6148FFF76EFC0E20FFF78DFB5F4BAC
:102C20001B78023BDBB2062B3AD85D4AD35C002B03
:102C300036D0BDE8384006F0BFBD584B1B78062B98
:102C400005D003F0FD03052B2AD10220D1E708208F
:102C5000CFE7524B1B78032B22D109F0B3F9F8B11F
:102C60000420C6E74D4B1B78032B05D109F0AAF9C8
:102C700010B10420FFF746FC08F0D6FB80B1062017
:102C8000B7E7464B1B78032B01D0082B02D14548F0
:102C9000FFF748FF0020FFF74FFB3D4B1D6805B9CC
:102CA00038BD28462146FFF791FB2B685D68F6E7A3
:102CB000FFF722FF00F020FF0220FFF723FC012096
:102CC000FFF73AFB2046FFF715FC2046BDE83840E9
:102CD000FFF74ABE314B1B78082B06D10220FFF7C5
:102CE00011FC08F0E7FB0320EAE70520FFF70AFCE8
:102CF000F9E70320FFF720FB2B48FFF7FBFB2A48EF
:102D0000FFF732FE254B1B78062B9ED1072070E77C
:102D10000320FFF7F7FB0220FFF70EFB2046FFF72B
:102D200023FE2046BDE83840FFF7E4BB0F20FFF745
:102D300003FBCAE7A078FFF789FB0368054623B9C0
:102D4000114940F2025002F065FC6B6823B90E494C
:102D500040F2035002F05EFC6B68286821469847F9
:102D600000289DD0A07802079AD0030798D4BDE828
:102D7000384008F08BBE0820D9E70920D7E70A20A1
:102D8000D5E700BF280B0020CFEB000088EC000047
:102D90002C0B00208C0A002087EC0000310B002057
:102DA00068EC000086EC000085EC0000CA699A42DD
:102DB00010B543600CD38C690460086F1844086731
:102DC000D01A1C44C86100388C6118BF012010BDA6
:102DD00001F1280202608B670020F8E7CA694360AE
:102DE0009A4227BF8A69026001F12802026026BF69
:102DF0000B67CB618B6700207047000038B50D462C
:102E0000044620B906494FF4887002F003FC237A87
:102E1000AB4283BF093405EB45056019002038BD7E
:102E20008AEC000038B50D46044620B9064940F248
:102E3000431002F0EFFB6378AB4283BFA0784019E8
:102E40000019002038BD00BF8AEC000008B5012140
:102E5000FFF7D4FF0121FFF7E5FF007808BD000070
:102E60002DE9F843DFF8408299460B7A88F8003064
:102E70000E461746054620B989494FF4447002F0C2
:102E8000C9FB2B68002B00F08780A3F213337C2B47
:102E900000F23B837C2B00F23883DFE813F08800DC
:102EA0009300A100AD00B900C500D100DD003603DC
:102EB00036033603360336033603F50007013603BF
:102EC0003603360336031A0126013401360336036E
:102ED00036034701530181013603360336033603B7
:102EE0006901750181013603360336033603360363
:102EF000360393013603360336033603A701B301C5
:102F0000BF01CB01D80136033603E401F001FC0117
:102F1000080214023603360320022C0238024B0248
:102F200036033603570263026F027B0287023603C1
:102F300036033603360336033603360336033603C9
:102F400036033603360336033603360336033603B9
:102F500036033603AF02BB02360336033603CD0217
:102F60003603360336033603EA02360336033603E6
:102F70003603EA02360336033603360336033603D6
:102F8000FC020803360336033603360326033603F2
:102F9000360336033603260308232B71B9F1000FDD
:102FA00005D140F213332B600120BDE8F8830FB147
:102FB0002B793B700B23B9F1010F2B710ED84FF415
:102FC0004573F0E700240FB12B793B550134337D75
:102FD0002B714C4505D340F21533E4E70124F2E7A9
:102FE00000240FB12B793B55013402234C452B7142
:102FF00003D340F21633D6E700240FB12B793B55AB
:10300000013402234C452B7103D340F21733CAE736
:1030100000240FB12B793B55013402234C452B7111
:1030200003D34FF44673BEE700240FB12B793B5511
:103030000134737E2B714C4503D340F21933B2E750
:1030400000240FB12B793B55013400234C452B71E3
:1030500003D340F21A33A6E700240FB12B793B5576
:10306000104B002201341A700E4B1A7898F8003079
:103070009A4202D340F29A3395E70923A1452B7176
:1030800003D840F221338EE700240FB12B793B5552
:10309000013404234C452B7109D340F2223382E7DB
:1030A000CCEC0000330B0020340B002000240FB1C7
:1030B0002B793B559C4B30461978FFF79FFE9B4B75
:1030C000013418604C4503782B7103D340F2273349
:1030D00069E700240FB12B793B55013400234C459F
:1030E0002B7103D34FF44A735DE700240FB12B79A2
:1030F0003B558E4B1B6801345B782B714C4503D3D9
:1031000040F229334FE700240FB12B793B55874B11
:10311000327D1B681B789A4204F101041ED1022300
:103120004C452B7103D340F22D333CE700240FB103
:103130002B793B55013402234C452B7103D340F2CC
:103140002E3330E700240FB12B793B550134737EC9
:103150002B714C4525D340F22F3324E7B27D9A42A0
:103160002AD10A234C452B7103D34FF44D731AE730
:1031700000240FB12B793B55013400234C452B71B2
:1031800003D340F235330EE700240FB12B793B55C2
:10319000013400234C452B7103D340F2363302E750
:1031A00000240FB12B793B5501340023A1452B712D
:1031B00009D840F23D33F6E65D4940F23A3002F07C
:1031C00029FAF2E700240FB12B793B55574B327D9A
:1031D0001B681B789A4204F1010440F0FF8005232C
:1031E0004C452B7103D340F24233DCE600240FB18F
:1031F0002B793B55013424234C452B7103D340F2EA
:103200004333D0E600240FB12B793B550134002322
:103210004C452B7103D34FF45173C4E600240FB116
:103220002B793B55013410234C452B7103D340F2CD
:103230004533B8E600240FB12B793B55013401200A
:103240004C45287104D340F246332B60ADE6002490
:103250000FB12B793B55013405234C452B7103D31A
:1032600040F249339FE600240FB12B793B550134DE
:1032700024234C452B7103D340F24A3393E60024B8
:103280000FB12B793B55013401204C45287103D3F4
:1032900040F24B33D9E700240FB12B793B55013471
:1032A00003234C452B7103D34FF453737BE6002467
:1032B0000FB12B793B550134B37D2B714C4503D3B2
:1032C00040F24D336FE600240FB12B793B550134AA
:1032D00004234C452B7103D34FF4547363E600244D
:1032E0000FB12B793B55013424234C452B7103D36B
:1032F00040F2513357E600240FB12B793B5501348E
:1033000002234C452B7103D340F252334BE6002489
:103310000FB12B793B55013402234C452B710AD355
:1033200040F253333FE600BF330B0020380B002040
:10333000CCEC000000240FB12B793B550134052360
:103340004C452B7103D340F256332CE600240FB1C9
:103350002B793B55013424234C452B7103D340F288
:10336000573320E600240FB12B793B550134062357
:103370004C452B7103D34FF4567314E600240FB160
:103380002B793B550134337D2B714C4503D340F2EF
:10339000593308E600240FB12B793B550134B37D36
:1033A0002B714C4503D340F25A33FCE500240FB196
:1033B0002B793B550134564B1B685A78554B1A7084
:1033C000554B00221A70544B1A78524B1B789A4274
:1033D0000DD3524A13780133137045E6B27D9A42F9
:1033E000E9D04F4940F2633002F014F9E3E70723D4
:1033F000A1452B7103D840F26E33D4E500240FB100
:103400002B793B55013405234C452B7103D340F2F6
:103410006F33C8E500240FB12B793B553E4B19782B
:103420003B4B1868FFF7FEFC013403782B714C45C9
:1034300003D340F27333B6E500240FB12B793B552B
:10344000334B327D1B681B789A4204F1010406D18C
:1034500003234C452B710DD34FF45E73A3E5B27D6E
:103460009A4212D102234C452B7103D340F27D3393
:1034700099E500240FB12B793B5501344023A14538
:103480002B7109D84FF461738DE5254940F28130E5
:1034900002F0C0F8F2E700240FB12B793B5501345C
:1034A00000234C452B7103D340F285337BE5002488
:1034B0000FB12B793B55164B327D1B681B789A4216
:1034C00004F1010407D1336A4C451B782B710DD3ED
:1034D00040F28A3367E5B27D9A4210D100234C4511
:1034E0002B7103D340F28F335DE500240FB12B79AC
:1034F0003B550134084A13780133137063E70849D8
:1035000040F2933002F086F8F4E7002028604CE5A2
:10351000380B0020320B0020350B0020330B00202D
:10352000CCEC000010B5044618B906495F2002F043
:1035300071F823681BB90349602002F06BF820681A
:103540000C3010BDCCEC00000149522002F062B8F2
:10355000CCEC000013B5044618B90191FFF7F4FF55
:103560000199E36923B1204602B0BDE81040184735
:1035700002B010BD10B5044608B9FFF7E5FF2046BC
:10358000FFF7D0FF0023C0E91B33C0E91D3383825E
:103590008361036200F12803836610BD10B5044601
:1035A00070B90846FFF7BEFF0378202B0AD1D0F888
:1035B0000230C360C3880382037A8374204610BD3F
:1035C0000320FCE70620FAE72DE9F0470E4688B015
:1035D000054620B9A14940F2DD2002F01BF826B9CA
:1035E0009E4940F2DE2002F015F833780E2B20D8E9
:1035F000DFE813F079006201790079001F000F0005
:10360000C5001F001F005E011F00790079007900CE
:10361000790025B991494FF4E47001F0FBFF72780D
:10362000D1094FEA521342D013F0030306D0012B05
:1036300028D00624204608B0BDE8F08702F01F021B
:10364000012AF6D1B478062CF3D105A8039300F033
:1036500015FD03AB0093F2783179034607462846FF
:10366000FEF790FF0528E5D0039B3F2B03D97B494C
:10367000C92001F0CFFF039A3946701C00F060FAB0
:103680000446D7E70DB9FFF75FFF2846FFF74AFF6B
:10369000B378212BCDD1B6F80720072AC9D100F184
:1036A0000C01701C08B0BDE8F04700F049BA012BCE
:1036B000BFD10DB9FFF748FF2846FFF733FFB378B6
:1036C000202B074611D0222BB3D1B6F80730002BA0
:1036D000AFD1828AB6F80330838202F0010203F090
:1036E00001018A4229D10024A4E7B6F80730072B4C
:1036F0009FD10DB9FFF728FF2846FFF713FFB378D6
:103700000370B6F80730DBB243700230CDE9050331
:103710000020079000F022FD05A90020FFF74AF9DC
:10372000044630B94E4B03A9CDE9033500F0F6F954
:103730000446002000F022FD7CE78CB2C1F10301B9
:10374000C9B22846FFF706FF002CCCD1012128463C
:10375000FFF754FB2146FFF765FB007808F038FBC4
:103760002846FFF773FB08F033FB07F12803C7E98E
:103770001B44C7E91D44BC613C62BB665AE700219B
:103780002846FFF73BFB0021FFF74CFBB37802789C
:103790009A42A8D01B06F47809D51CB1032CA2D0FC
:1037A000032447E701212846FFF7D4FE42E704F04F
:1037B000FD03012B97D0002CF2D10DB9FFF7C4FE09
:1037C0002846FFF7AFFE06462846FFF73FFB254B8E
:1037D000F469CDE905368046ACB9336FF466C6E9C5
:1037E0001C43336A63B1D6E9080106F1180383E884
:1037F0000300346205A94046FFF7F2F8044600E0F2
:10380000B4610021CFE7D6F878A0B069544528BF4D
:10381000544606F12807224639460AF03EF8336F2F
:1038200023447367AAEB0403F366336A4FF000097D
:103830003C44C6F87090B4665BB306F1180406F118
:10384000200797E8030084E80300F36EB069C6F828
:1038500020904BB9B369002BCCD11BE0CCEC00001D
:103860009D350000AD2D0000F269B16E9A4213D86B
:103870000AF013F8F369F26E7367D21AF266B26E49
:103880001A44B26600212846FFF764FE336A002B13
:10389000D7D1B3610024B4E71A4609F0FEFFF26EF7
:1038A000F36932679B1AF361B3691344B361D1E7DB
:1038B00003212846FFF74EFE2846FFF75BFE12E77E
:1038C0007FB5144606460D46FFF72CFE838ADA07BD
:1038D00013D501213046FFF791FA0021FFF7A2FA34
:1038E000A30600780CBF0123002301A9CDE90154F0
:1038F0000393FFF75FF804B070BD0820FBE708B53D
:10390000FFF710FE406F08BD2DE9F34107469046D2
:103910000E4621B91E494FF4846001F07BFE384603
:10392000FFF700FE838ADB0704462ED5002000F057
:1039300015FCE56EB5B1454528BF4546A16E2A4642
:10394000304609F0AAFFE36E65675B1BE366A36E72
:103950002B44A3660024002000F010FC204602B097
:10396000BDE8F081A36973B9C4E906683846FFF77A
:103970006DFA084B6946CDE90034FFF731F8041EB3
:1039800008BF9224E7E71124E5E70824E6E700BF33
:10399000CCEC0000DD2D00000020704710B504467F
:1039A00020B9044940F2432001F034FE236818682E
:1039B00010BD00BF17EC00002DE9F04F2DED028B7C
:1039C0004B6885B007460C4691466BB90868FFF70F
:1039D000E5FF48B9A5683DB9C7E90055284605B0D7
:1039E000BDEC028BBDE8F08FB9F1400F04D9354929
:1039F00040F2971001F00EFE07F0BAFEE368019066
:103A00004B4528BF4B46984604F110034FF0000A7F
:103A100008EE103A56460125B8F1000F2DD0A368E4
:103A2000616843459B4628BFC34651B3019B5A4634
:103A3000981909F032FF00236360A368E268A3EBE2
:103A40000B03A2EB0B02A360E260A8EB0B085E4441
:103A500033B9BAF1000F03D02068FFF79FFF206051
:103A6000E368002B2CD0A368002BD5D12268BAB90B
:103A7000626016B1B14588BF0025019BC7E90036D9
:103A8000ACE7002BD9D02168019A4B6818EE100AD8
:103A9000D3F804A032445B46D0474FF0010ACCE78C
:103AA000029321684B680022D3F804B002A80123D6
:103AB000D84708B92061AFE7A3680133A360F0E7F6
:103AC0001D46A9E748ED0000084B1A7882420CD049
:103AD000052818BF064A187018BF137805481CBF80
:103AE00023F002031370FFF71DB87047480B002046
:103AF000640B0020B4ED000008B50020FEF7E2FEE4
:103B0000BDE808408020FEF7DDBE08B50020FEF7C6
:103B1000E7FEBDE808408020FEF7E2BE38B5054666
:103B20000C4608F07BF8A84205BFD4E90001034B1E
:103B30001020C3E9000108BF002038BD680B002039
:103B40007FB5C38893421E4628BF164693420D4652
:103B5000144620D9802007F02BFDB4FBF0F202FBC5
:103B60001044B4FA84F4640900200394CDE90156AA
:103B700000F0F4FA01A98020FEF71CFF044620B9EA
:103B800006498020FFF7CAFF0446002000F0F6FA3D
:103B9000204604B070BD0024E6E700BFE8ED000059
:103BA0002DE9F04F0B780E2B89B004460D4613D843
:103BB000A3B1013B0D2B11D8DFE813F01200240054
:103BC0001600100035003402100010001000100024
:103BD0000902140221022902852B1ED0062418E0B6
:103BE0000320FFF771FFF9E7A34801F00CFE30B1A5
:103BF000A24B0122DA65BFF36F8FBFF34F8FA04B4B
:103C00001C780CB1002404E09E4940F2424001F0CF
:103C100001FD204609B0BDE8F08F994B1B78032BBE
:103C2000DCD10420DDE705230DF115008DF81430FB
:103C300007F088FF9DF81570934D002307F01F07CC
:103C40002B60032F00F28181DFE817F004002E01C2
:103C50007601D10024B98B494FF45A7001F0DAFC97
:103C60009DF8152012F0600FC2F3411140F0BF80A3
:103C7000D2099DF8163000F0AB80062B11D0082B2E
:103C800000F09980002B40F0B28080494B70804B4F
:103C90000A701B78980744BF03230B7002227B49EC
:103CA0000FE09DF81830022B11D0032B75D0012B9B
:103CB00040F09D80BDF81B30002B00F0AC807549B2
:103CC00012220DF11500FFF73BFF04463BE0BDF863
:103CD0001B30002B00F09F80092B28BF092398463A
:103CE000FEF700FEDFF89CA106464FF009097EBBF7
:103CF000664C69494246204609F0CFFD2771A4F879
:103D00000290FEF7D7FD18B1E37943F02003E37189
:103D1000FEF7E8FD614BC3E90004C3F80880BDF875
:103D20001B20DA60002000F019FA5D498020FEF7C0
:103D300057FE044620B95B498020FFF7EFFE04469A
:103D4000002000F01BFA062C51D0002C63D05AE062
:103D5000736823B9514640F2D12001F05BFC7368CF
:103D60005B6823B9514640F2D22001F053FC002495
:103D7000039473680022D3F804B03146012303A8EA
:103D8000D84740B9337A30461F44FFF707FEA144B5
:103D9000FFB20646ABE70134EBE7BDF81B30002B62
:103DA00039D0BDF819109DF8170000F099F90146B7
:103DB000E8B1027885E7324B1B78052B03D1334BF2
:103DC0001A7001226BE7042B11D1304B1970F8E700
:103DD000013B082B0BD8DFE803F02B0A0E0A050A7B
:103DE0000A0A380027494FF4637001F013FC05A854
:103DF000FEF7CCFD9EE0BDF81730012BF7D1FEF7A2
:103E000059FD18B90F2407F0FFFE02E7204A137886
:103E100043F0020313702C68002C00F0228107F09D
:103E2000FDFE044600287FF4EDAE07F0ADFEF0E69F
:103E3000BDF81730012BDAD1FEF73CFD0028E1D0A8
:103E4000134A137823F00203E4E70D4B1B78043B7D
:103E5000012B01D90824D6E79DF817302BB9FEF7BE
:103E60004BFE0420FFF730FED5E7012B5BD1FEF7B8
:103E700023FE0520F6E700BF700B00200070024013
:103E8000480B002048ED0000680B0020740B002058
:103E9000640B0020D4ED0000B5ED00004C0B0020B9
:103EA000F0ED0000E8ED00009DF8190003A9FEF711
:103EB0001FFD074608B91024A5E79DF80C1005AAB8
:103EC000FEF73AFD062804467FF43FAF9DF8152023
:103ED00012F0600F97D1654B9DF80C101E789DF87D
:103EE0001630D20916D07BB10A2B8CD1052EB1D158
:103EF00038460192FEF7DAFD5D49019A08700DF12E
:103F00001500FFF71DFE15E0052EA3D158490B80C3
:103F10000222F4E70B2B7FF476AF052E9AD1BDF881
:103F20001730FF2B01D907246DE79DF8172038467D
:103F3000FEF76CFD044608E79DF81900020706D15C
:103F40009DF8153013F0600F09D006245BE705A932
:103F5000FEF7F5FC062804467FF4F7AEF0E79DF87F
:103F60001620424B9DF819401B78012A1DD0032AC8
:103F70000CD0002AE9D1052B02D023077FF46AAFC9
:103F8000204607F09DFD3A490880C1E72707DCD4A9
:103F9000BDF81720002AD8D12607D6D0052B7FF4EC
:103FA00059AF204607F072FD35E72007CDD4BDF8A4
:103FB0001720002AC9D12107C7D0052B7FF44AAFAB
:103FC000204607F09BFD204608F0ACF823E7274B7E
:103FD0001B78002B3FF416AE264940F2564001F004
:103FE00019FB0FE6214B1B78012B04D0214940F22D
:103FF0005C4001F00FFB0020FFF766FD02E64FF08A
:104000008043D3F83834DA070AD50220F4E7174B97
:104010001B78012B04D817494FF48E6001F0FAFA8F
:104020000120E9E7CB78032B3FF4D8AD8B785B0612
:1040300004D0104940F27E4001F0ECFA0E4E336895
:1040400093B100227168E8783260984704460028EE
:104050007FF4D9AE336823B1AB78002B7FF4D2ADB7
:10406000E3E607F0C7FDD4E50E24CCE6480B0020BC
:10407000740B002048ED0000680B002008B14023BD
:1040800003600148704700BF740B0020F8B5124B65
:1040900053F820502B7813B9AE1C3046F8BD0020E1
:1040A000FFF7ECFF0D4F0646013D002315F8012FE9
:1040B0005C1C2AB96400E4B244F440743480ECE738
:1040C0001E2B03D93946FC2001F0A4FAE3B22A786A
:1040D00026F81320EAE700BFA4EE0000F8ED000088
:1040E000034608B9FFF7D2BF012807D0022805D040
:1040F000032803D0042801D0052809D1054800EB86
:104100004303587820B1044B53F82030002BE9D1F9
:1041100000207047BCEE0000A4EE000072B6024A18
:104120001368013313607047B40B0020034A13680F
:10413000013B136003B962B6704700BFB40B0020A7
:10414000EFF30583C3F308032BB9EFF31480C043E7
:1041500000F00100704701207047000008B5FFF72C
:10416000EFFF012803D00449432001F053FABDE8D2
:104170000840FFF7D3BF00BFC8EE000008B5FFF747
:10418000DFFF012803D00449512001F043FABDE8C4
:104190000840FFF7CBBF00BFC8EE0000EFF3058378
:1041A000C3F308038BB1103B5AB2002AABBF02F134
:1041B0006043074A03F5614303F00F03ACBF93F874
:1041C0000003D05C4009C0B270470F20704700BFA9
:1041D00014ED00E08368D3F854339B0703D5002225
:1041E000114603F0FDBBBFF34F8F0549054BCA686D
:1041F00002F4E0621343CB60BFF34F8F00BFFDE7D3
:1042000000ED00E00400FA0537B58368D3F85433B5
:104210000D46C3F340019B07144606D50022114604
:1042200003B0BDE8304003F0DBBB2A4B022D5B88B6
:1042300005F1FF3212D0022A24D0002A3ED1012BF0
:1042400045D92548254B2649C01AC008000440F02E
:10425000020003B0BDE83040FDF7C4B9012B36D9E8
:1042600060680A2209F0C6FA1B4B1E4902461B4829
:104270001B1ADB081B0443F0020003B0BDE830400A
:10428000FDF7B4B9012B22D9606801910A2209F027
:10429000B1FA019905460A22A0680F4C09F0AAFA62
:1042A00003460E481049241AE40824042A4644F020
:1042B000020003B0BDE83040FDF7A1B9012B06D9DB
:1042C0000548064B0949C01AC0080004BFE703B0FF
:1042D00030BD00BF8C0000207CDB00004CDB000008
:1042E00019EF00002EEF000047EF000063EF000021
:1042F00037B58368D3F854330D46C3F340019B07A9
:10430000144606D50022114603B0BDE8304003F044
:1043100067BB294B022D5B8805F1FF3212D0022AC0
:1043200024D0002A3DD1002B43D02448244B2549DA
:10433000C01AC008000440F0010003B0BDE83040DE
:10434000FDF750B9002B34D060680A2209F052FA08
:104350001A4B1D4902461A481B1ADB081B0443F07E
:10436000010003B0BDE83040FDF740B90BB3606811
:1043700001910A2209F03EFA019905460A22A06835
:104380000E4C09F037FA03460D481049241AE40888
:1043900024042A4644F0010003B0BDE83040FDF794
:1043A0002EB933B10548064B0949C01AC0080004AC
:1043B000C1E703B030BD00BF8C0000207CDB0000F3
:1043C0004CDB000093EF0000A6EF0000BDEF000003
:1043D000D7EF00001FB58368D3F854339B0706D589
:1043E0000022114605B05DF804EB03F0F9BA064B64
:1043F000064A0093D21ACDE901220821044A02F0AC
:1044000019F805B05DF804FB00000000981F0100DA
:1044100005F000008368D3F854339B0703D50022CE
:10442000114603F0DDBA024A45210320FDF7E2BB45
:104430003AF0000038B50C46054618B90449B320D7
:1044400001F0E8F82B68C3F84843C3F8084338BDC7
:10445000BCF1000070B50C461646054618B9054972
:10446000A92001F0D7F82B68C3F844430EB1C3F874
:10447000044370BDBCF1000037B50C46054618B9C1
:104480000749BA2001F0C6F82B68185928B1002254
:104490001A511B590193019B012003B030BD00BF8D
:1044A000BCF100002DE9F8430E461546044618B944
:1044B0003849552001F0AEF81EB93649562001F0B2
:1044C000A9F81DB93349572001F0A4F86379324A9D
:1044D000DFF8EC8042F8235008EBC3032F4F1B7921
:1044E0007BB17B88012B09D92D482E4B2E49C01A50
:1044F000C008000440F00200FDF774F80820BDE891
:10450000F8833588D4F80090B5F5805F04D3274947
:104510004FF4BE7001F07EF8C9F80855B67894F9EA
:104520000450072E03D922496B2001F073F8002DA7
:10453000B6BF204B05F1604505F00F054FEA461662
:10454000F6B2AABF05F561455E5585F8006394F99A
:104550000430002B08DB0122590903F01F0302FA83
:1045600003F3154A42F82130637908EBC30248F897
:1045700033407B880121022B117109D90848094B6E
:104580000E49C01AC008000440F00300FDF72AF8E5
:104590000020B4E7BCF10000C00B00209400002014
:1045A0008CDB00004CDB000004F2000026F200006F
:1045B00053F2000014ED00E000E100E082F20000A0
:1045C000B80B002010B5044618B90449872001F043
:1045D00021F8236801221A6010BD00BFBCF1000061
:1045E00010B5044618B904498D2001F013F823686A
:1045F00001225A6010BD00BFBCF100002DE9F3415B
:104600000C4616461F46804618B91249962001F0FE
:1046100001F804F150018900D8F8002089B24FF464
:104620008035A5400023C2F80853C2F848535350C0
:1046300004F5A8745358019326F07F46019B42F875
:104640002460C2F844530FB1C2F8045302B0BDE86D
:10465000F08100BFBCF100002DE9F74F0D46144674
:104660009846074618B93949CD2000F0D3FF4FF4DA
:10467000803909FA05F949463846FFF7DBFE3A6802
:1046800005F1500602EB8500B600B6B2D2F804156B
:10469000D0F84035C0F840154FF0000B42F806B096
:1046A0005B1A9259009223F07F43012B009A24F069
:1046B0007F444FEA850A0BD1254B4FF4806043F0CD
:1046C000010398473B6843F806B09B590193019B4F
:1046D0003868D0F80465C0F84493A31B23F07F43E7
:1046E000012B1AD11A4B05F5A875013440F8254065
:1046F00043F001034FF4806098473B68D3F80435DA
:104700009E4208D1384601224946FFF7A3FE002009
:1047100003B0BDE8F08F0D20FAE700EB0A03621E3C
:10472000C3F84045D0F80415C8F1FF18521A22F01A
:104730007F4208F57F489045EDD3002AE2D101344D
:10474000C3F84045D0F804359942DAE7BCF10000DF
:10475000A0F200000A460221FFF77CBE4FF48271EE
:10476000FFF78ABE4FF4803303FA01F1FFF762BE10
:104770005031890089B2FFF77FBE036801F5A87147
:1047800053F8210070470368D3F804057047000010
:1047900090F90430002B09DB5A09012103F01F03B3
:1047A00001FA03F34032024941F82230704700BF5A
:1047B00000E100E0024B034A1B681068184700BF85
:1047C000C00B0020B80B002070B5064D0646002433
:1047D00055F8043B0BB1304698470134042CF7D10F
:1047E00070BD00BFD00B00204388033300EB830370
:1047F00099420BD382884FF6FF739A4208D0038800
:1048000033B18068431C58425841704702207047BA
:1048100001207047033080B240F2FE33984230B539
:104820001FD8134B1A783AB91C895D892C4404446B
:10483000A4B2B4F5806F0AD91A7DAAB99A8BDC8B21
:104840002244024492B2B2F5806F0DD801220A8050
:104850001446142202FB04335A8910445881002064
:1048600030BD48F20860FBE748F20660F8E700BF99
:10487000040C00200B4A0C495388142000FB031140
:10488000CB6833B90420496810700122074804F04E
:1048900011BA07490523137002238B80012209688E
:1048A0000023F3E7E80B0020040C00206000002048
:1048B000300C002007B5002305490093054A09681C
:1048C0000548082304F032F903B05DF804FB00BF8B
:1048D000300C002004F300006000002007B5002326
:1048E00001460093034A0448082304F01FF903B06B
:1048F0005DF804FBFCF200006000002013B500230B
:104900000C4600930146084A0848042304F00EF9B7
:1049100038B9074B142101FB043101230B7402B099
:1049200010BD48F20D60FAE7F8F2000060000020C8
:10493000040C002037B50A480A4B42689C88196865
:1049400053880325033305709BB2002000909B0021
:1049500001EB8401044804F0E9F803B030BD00BF66
:10496000E80B0020300C00206000002010B501464C
:10497000044800F06EFE1C220446002108F0B6FF39
:10498000204610BDD401002038B5144B14220D462A
:1049900002FB00302B68446804F58051A3B15C88A9
:1049A000033403EB84048C4215D22368013312D004
:1049B0002046FFF719FF012808D002280BD0002855
:1049C000F1D12C60012038BD0834ECE76388033353
:1049D00004EB8304E7E70020F5E700BF040C0020A8
:1049E000426873B504460D466AB3234BD9688A42C0
:1049F00029D31B699A4226D812F0030323D11F49F9
:104A00000089098988421ED12068916888421AD19C
:104A10001B4841688A4203D901F580518A420DD36F
:104A200081698A420CD901F580518A4208D201225B
:104A30002A80B3FA83F0400902B070BD1A46F7E746
:104A400048F20963F5E700262E800196288801A91F
:104A5000FFF79AFF30B92B8801339BB2012B2B80D3
:104A6000F3D9E9E7019B226899689142EED163602E
:104A7000024B1B892381DFE760000020E80B002048
:104A8000040C00202DE9F8431C461D4B1B780646FC
:104A90000F46154673B382B37CB3DFF86C804FF0DA
:104AA0001409A388012B02D948F2096020E009FB10
:104AB00003F318F803302BB9A0882146FFF764FFF1
:104AC00020B92060A3880133A380EAE723681EB1E0
:104AD000998832889142EFD11FB119883A88914262
:104AE000EAD19A68C5E90023064B1B892B81002077
:104AF000BDE8F88348F20160FAE748F20460F7E79E
:104B0000E00B0020E80B0020040C002008B5074B48
:104B10005888191DFFF738FF18B1BDE80840FFF7A6
:104B200009BFBDE80840FFF7A5BE00BFE80B0020A5
:104B30002DE9F047A24FDFF8B08288B006463B6807
:104B400053B9A048414600F0BEFD386020B99E49E7
:104B50004FF4B46000F05EFD3D6829784B1E052BD4
:104B600007D8DFE813F02000740074000601060186
:104B70005F0148F20E641422002103A808F0B6FE7B
:104B800041F61D539C4208BF00243B6804941A78E8
:104B9000023A042A00F2FE81DFE812F0DF01EB01A5
:104BA00016021E0225022EB1884B00225A604FF4D5
:104BB0000644E0E72B79032B1CD8DFE803F014024E
:104BC0002A35834A1378022B1AD0137D022B4FF01B
:104BD000010317D114214B43D1180020D054486849
:104BE000FFF77CFE03E001232B71FFF763FE002833
:104BF00000F0B980754B00225A6048F20D64BAE7A4
:104C00000023E7E7714A13700023536041F61D54F7
:104C1000B1E770497048002302222B718A8009682D
:104C2000012204F047F8E2E76C4B694C5B88694A63
:104C300014214B43E11800262E714D681068156051
:104C4000958848600D810221E6549180C8E7B5F847
:104C500014A0AA7DDFF87891AEB1022AEB8806D9BC
:104C6000142101FB0A91DA1C088902440A811422EA
:104C700002FB0A99C3F57F43B9F80A20FD331344B8
:104C8000A9F80A3093E7142303FB0A9318895C6898
:104C900004EB8004062A69D8DFE802F0274E364488
:104CA0001D5A040041F61D54AA7DEB88022A06D93C
:104CB000142101FB0A91DA1C088902440A8114229A
:104CC00002FB0A99C3F57F43B9F80A20FD33134468
:104CD000A9F80A304FE74248424900234360AB69D4
:104CE0000360FFF77DFE00285BD00223AB75002335
:104CF00000930423EA182146374803F017FF0028E1
:104D000031D048F20D64CFE72B69002B14BF032389
:104D10000123AB750023009305F10C02042304F179
:104D20000801E9E70123AB750022EB8800922A69AC
:104D30009B0004F10C01DFE703290CBF05230623C8
:104D4000AB7500230093042305F10802E118D3E7B3
:104D50000623AB75234B1988214B5868FFF7CEFD0E
:104D600004460028A0D108B0BDE8F08748F20E64E0
:104D70009AE7002E7FF41BAF2B79012B36D0022B44
:104D80003FF444AF002B7FF4F4AE02232B710DF1FE
:104D90000A01EB68039303A8CDE90466FFF720FE40
:104DA00010B948F20964E6E60498BDF80A10838851
:104DB000EB8003882B81FFF7A1FD04462BE000BFA9
:104DC000000C0020D4010020A6F20000E00B00201F
:104DD000040C0020300C002060000020E80B0020B4
:104DE000C40B0020380C0020F80B0020DFF81892CC
:104DF00003AA4B463146A81DFFF744FE044670B98E
:104E0000B9F804100498FFF779FD044648F20963E5
:104E10009C423FF4FBAE002C7FF4ADAEA3E7C9E9A2
:104E20000066F3E7002E7FF4C2AE714B1A7BBAB175
:104E30001E731A78013A062A3FF69BAE01A151F87B
:104E400022F000BFEF4E0000154F0000334F00006E
:104E5000394F0000734B00003F4F0000514F0000DE
:104E60001A78072AE5D801A151F822F08D4E0000EA
:104E7000334E0000334E0000B34E0000C74E00001A
:104E8000EB4E0000EB4E0000AF4E00001A8959496E
:104E900001321A8100225A801A730A78B2FA82F219
:104EA00052099A720A7DB2FA82F25209DA7201222A
:104EB00007E0514958688A884088033202448A8052
:104EC00002221A70B5E75C884A4A4B49142505FB53
:104ED00004220868546850608888108102200C60A1
:104EE0008880002111740622EBE70722E9E79A7A0D
:104EF00032B9DA7A8AB900221A705A805A6085E685
:104F00003C4900229A72CA68002AF2D1097C002921
:104F1000EFD05A80FFF7FAFD4FE70022DA72354AE8
:104F2000116A0029E7D192F82420002AE3D0012257
:104F3000EFE7FFF7FFFC40E7FFF79CFC3DE75A88EF
:104F40002C4B142101FB02335868FFF7C7FC34E7F0
:104F500000225A60FFF7AEFC2FE701228DF80C20EB
:104F60001A89ADF818209A88DB68ADF81A200593E5
:104F700010E002228DF80C201A89ADF818209A88CA
:104F8000ADF81A20DA689B7D05929A1F534253416F
:104F90008DF81C3003A8FFF717FC002317483B606F
:104FA000414600F0BBFB164B1B6823B915494FF473
:104FB000247000F02FFB1248012100F012FC0028A1
:104FC0003FF4D1AE0026BAE503228DF80C20DA8832
:104FD000ADF818201A89C7E704228DF80C20DB8869
:104FE000ADF81830D6E705238DF80C30D2E700BFB6
:104FF000E80B0020040C0020300C0020D40100201D
:105000002C0C0020A6F200003C0C00204068FFF7AA
:105010008FBD000008B50548012100F0CAFB18B992
:10502000BDE80840FFF784BD08BD00BF2C0C002080
:105030002DE9F3419846374B1B7806460D46002B69
:105040005CD000295DD009884FF6FF7399425BD090
:105050006B88002B58D06B689B0758D14AB92F89B1
:105060000DF102013846FFF7D5FB30B102B0BDE8C3
:10507000F08113885788ADF8023001A8FFF776FC5D
:10508000044660B9BDF80220234B142101FB023312
:1050900058890338C01B588148F20760E6E780F85A
:1050A000008000238375BDF8023083826B68036142
:1050B00001211A4800F089FB2B882381B8F1030FE6
:1050C0006B88A38004BF0423A3754FF0000508BFBD
:1050D0003368E06008BFA3611148E780658101A9DA
:1050E00000F0E1FA36B1E36833600E4B75601B895E
:1050F000B5723381FFF78EFF0020B7E748F20160F9
:10510000B4E748F20460B1E748F20360AEE748F262
:105110000260ABE7E00B0020040C0020FC0B002039
:10512000D4010020E80B002073B50D460446C8B139
:10513000C1B10DF10601FFF753FCB0B1BDF8063067
:105140000B486668142202FB030001210C3000F0BA
:105150003CFB63682E600C336B600123A37200205C
:1051600002B070BD48F20460FAE748F20960F7E760
:10517000040C002013B50446A8B10DF10601FFF799
:105180002FFC98B1BDF806200B4B142101FB023314
:10519000DA6872B1A27A62B1DA680020013ADA60A4
:1051A000A07202B010BD48F20460FAE748F209604C
:1051B000F7E748F20560F4E7040C00200223002220
:1051C000FFF736BF18B103230022FFF731BF48F2C3
:1051D0000460704707B5ADF80600ADF804100DF196
:1051E000060001A9FFF74EFC03B05DF804FB0B07B6
:1051F00010B5044607D508F0C3F820B12046BDE835
:10520000104008F0F9B8204610BD2DE9F04F89B0E4
:105210001546019105930646002851D000294FD02C
:10522000059B002B00F02B8102F00403069302F093
:1052300001030C4602F0020A0393B146294619F80D
:10524000010BFFF7D4FF0346C0B23F2894F800805B
:1052500007462CD013F0C00F0BD1E0B12A2843D061
:1052600029464046FFF7C3FF874204F1010439D0C5
:1052700026E05B2800F08F805C28F1D1039B002B97
:10528000EED170782946FFF7B2FF10F0FF0718BF84
:1052900006F10209E4E7E90602D5B8F12F0F03D0C1
:1052A000B8F1000018BF012009B0BDE8F08FB8F1D7
:1052B000000F05D0B8F12F0F04D1BAF1000F10D0B4
:1052C0000120F1E7B8F12E0F0BD1069B4BB1019BEA
:1052D0009C42F5D0BAF1000F03D014F8013C2F2BFB
:1052E000EED001344E46A8E770782946FFF77FFFDD
:1052F000C6B22A2E1ED0B8F12E0F0BD1069B4BB191
:10530000019B9C42DCD0BAF1000F03D014F8013CA1
:105310002F2BD5D096B915F00200C5D0EA0600F1C2
:10532000B0802F21204608F017FA00280CBF304625
:105330000120B9E719F8010F2946D7E72F2E23D10D
:10534000BAF1000F20D02046314608F005FA044695
:105350000028C7D1B4E73B46524659464846FFF7B6
:1053600054FF0128A0D12F2E02D1B8F1000F9BD1FC
:10537000A34629469BF80000FFF739FF10F0FF060F
:1053800004F10104E7D19BE7059B25F0040A5F1EA9
:1053900005F00208ECE7B8F1000F91D0B8F12F0F3B
:1053A00002D1BAF1000F8BD129464046FFF71FFF0B
:1053B00073780290212B01D05E2B1FD1023601237E
:1053C000049301224FF0000B3746294617F8010BD2
:1053D0000792FFF70CFFC3B25D2B079A11D1FAB900
:1053E000049B5B453FF46CAF7B1C04D1B8F15B0FB1
:1053F0007FF466AF4F460134B94673E74E4600234B
:10540000DEE72F2BF2D05C2B07D1039A42B97078DC
:105410002946FFF7ECFEB71CC3B2002B3FF450AF98
:105420003A782D2A24D1787807932946FFF7DFFEB2
:1054300010F0FF00079B1BD05D2819D05C2807F1F6
:1054400002060CD1039A52B9B8782946FFF7CFFE6D
:1054500010F0FF00079B07F103063FF431AF029AFB
:105460009A4203DB8242D8BF4FF0010B0022ABE728
:10547000029A3E469A4208BF4FF0010BF6E703201E
:1054800012E7304610E74023FFF7BFBE1EF0040FBF
:105490001CBFEFF309800AE0EFF308800549064AD4
:1054A000884201D8904202D88D464FF00000034B4D
:1054B000184700000000042000E00320E55400002D
:1054C000BFF34F8F0549064BCA6802F4E0621343ED
:1054D000CB60BFF34F8F00BFFDE700BF00ED00E0E2
:1054E0000400FA052DE9F74F0546FCF7FDF8FBF738
:1054F000EDFE0028FBD13A4C3A483B4B3B4E9F6AAD
:105500007388241AE408240444F00104002D5FD0B9
:10551000D3B1AA6936492046FCF768F873889BB175
:10552000EB680193AB6800933249D5E9002320462C
:10553000FCF77BF873883BB1EB6900932E49D5E902
:1055400004232046FCF765F8274BDB6A980705D54E
:1055500073881BB129492046FCF744F8DFF8ACA05A
:10556000DFF8ACB04FF000084FF0010909FA08F37A
:105570003B4208D05AF828202AB173881BB15946FB
:105580002046FCF733F808F10108B8F11A0FEDD105
:10559000390607D573882BB1134B19495A6B20462E
:1055A000FCF724F83A0407D573882BB10E4B154944
:1055B0009A6B2046FCF71AF80B4BD3F8F030DB0758
:1055C00000D500BE2846FFF77BFF03B0BDE8F08F93
:1055D000002BB9D00C492046FCF704F8B4E700BF13
:1055E00004DC00004CDB000000ED00E0D0000020F7
:1055F0000CF3000021F3000056F30000B1F30000AB
:1056000000F4000020F400007EF30000FCF800002D
:10561000F5F3000007B5CDE900016A46002144F228
:105620000200FCF7F5FA03B05DF804FB10B561B1B8
:10563000B2FBF3F403FB1424A4B244B9C0E9001490
:1056400084608281C381204610BD0E20FCE70920C2
:10565000FAE737B550E8013F9DB2C48925448489F3
:10566000A54228BF2D1B0489A54202BFBFF32F8F7F
:10567000002207E0C5EA030540E80154002CE9D107
:105680004FF001028DF803200193019A0A609DF802
:10569000031001F0FF0321B1006810FA82F003B09B
:1056A00030BD1846FBE70A884B889A4209D150E87A
:1056B000012FC2EA024240E80123002BF7D101206A
:1056C00070470020704737B550E8023F1FFAA3F536
:1056D000C488A54202BFBFF32F8F00220DE0C4890A
:1056E00025448489A54228BF2D1BC3EA054540E80F
:1056F0000254002CE8D14FF001028DF803200193F1
:10570000019A0A609DF8031001F0FF0321B10068BF
:1057100000EB124003B030BD1846FBE70A884B8807
:105720009A4209D150E8022FC2EA224240E80223FD
:10573000002BF7D1012070470020704710B50346B9
:1057400053E8000F0A4643E8002494F0000FF7D115
:1057500010BD10B5034653E8000F40EA010243E8CC
:10576000002494F0000FF6D110BD10B5034653E8A5
:10577000002F42EA010043E8000494F0000FF6D144
:1057800010BD10B5034653E8000F00EA010243E8DC
:10579000002494F0000FF6D110BD10B5034653E875
:1057A000002F02EA010043E8000494F0000FF6D154
:1057B00010BD10B5034653E8000F00EB010243E8AB
:1057C000002494F0000FF6D110BD10B5034653E845
:1057D000002F02EB010043E8000494F0000FF6D123
:1057E00010BD10B5034653E8002FA2EB010043E8BB
:1057F000000494F0000FF6D110BD0121FFF7A9BFFE
:105800000121FFF7B2BF0021FFF7BBBF0021FFF767
:10581000C4BF00002DE9F0478368D3F85433C3F3C5
:1058200040059B0788B0074606D50022114608B000
:10583000BDE8F04702F0D4B8012906D91E4A02217A
:1058400008B0BDE8F04700F0F5BD1C4C1C4EDFF879
:1058500074A04FF06408A946361B1C23B6FBF3F670
:10586000AE4204F11C0402D108B0BDE8F08754F840
:105870001C0C54E90623017900689A1A1B1ADBB242
:10588000039308FB03F3B3FBF2F3CDE9019334F880
:10589000043C0093CDE9061254F8083C11FB08F1D2
:1058A0003846B1FBF2F1CDE904215246082100F05F
:1058B000C1FD0135D4E700BF64F9000094DC0000AD
:1058C000CCDC000077F9000010B50446002834D085
:1058D00003681BB91A49FF20FFF79CFE636823B9D0
:1058E00017494FF48070FFF795FEA36823B9144958
:1058F00040F20110FFF78EFEE36823B910494FF420
:105900008170FFF787FE238B23B90D4940F2031006
:10591000FFF780FED4E9012321689B1ADBB20A60FD
:10592000013BDBB2FF2B226802D10020107110BDB9
:105930001168481C10600B70F2E70E20F7E700BFFB
:1059400005FA000038B5044620B911494FF49270A9
:10595000FFF760FE0020FEF701FC22686368116813
:10596000994213D9481E106011F8013CE568218B5B
:1059700001FB0355A36811791B1ADBB2994200D2CF
:1059800013710020FEF7FAFB284638BD0025F8E722
:1059900005FA000038B50C46054620B90E4940F21C
:1059A0004710FFF737FE24B90B494FF4A470FFF7F7
:1059B00031FE0020FEF7D2FB2A681368591C1160E3
:1059C000E968641A298BB4FBF1F41C70BDE8384017
:1059D0000020FEF7D3BB00BF05FA0000436810B5F6
:1059E0009C686068036801219B689847A36810B9A8
:1059F00003221A7010BD0422FBE7000038B50546EB
:105A00000C4621B9064940F63120FFF703FE35B1B7
:105A1000A268B2F8543343F02003A2F8543338BDDF
:105A2000D4FA000038B50D46044620B9084940F6BE
:105A30002520FFF7EFFD25B9054940F62620FFF7A1
:105A4000E9FD29682068BDE8384007F0A4BF00BF21
:105A5000D4FA00002DE9F843089E1D460C46F1B922
:105A6000194E1A49891BB2EBD10F4FEAD10905D261
:105A7000174F043607EB8207A14502D100232B60A4
:105A800009E056F834803868D8F8001007F083FF32
:105A900018B9C5F80080BDE8F8830134ECE70028A8
:105AA000ECD00178436839B13146104698473368E5
:105AB000002BE3D02E60EEE7110103EB02125B58DE
:105AC000002BDBD02A60E6E744DA0000DCDA0000D5
:105AD0000000002030B583680546D3F84C0387B03A
