:020000040000FA
:1000000040480020F5040000FD0400001503000036
:1000100001050000030500000505000000000000C8
:1000200000000000000000000000000007050000C4
:1000300009050000000000000B0500000D05000090
:100040003D0F00000F050000811200000F050000A9
:100050000F0500000F050000710C00000F050000E7
:100060000F0500000F0500000F0500000F05000040
:100070000F0500000F0500000F0500000F05000030
:100080000F0500004D0F00000F0500000F050000D8
:100090000F0500000F0500000F0500000F05000010
:1000A0000F0500000F0500000F0500000F05000000
:1000B0000F0500000F050000000000000000000018
:1000C0000F0500000F0500000F0500000F050000E0
:1000D0000F0500000F0500000F050000D9120000F9
:1000E0000F0500000F0500000F05000000000000D4
:1000F000000000000F050000000000000F050000D8
:1001000000000000000000000000000000000000EF
:1001100000000000000000000000000000000000DF
:1001200000000000000000000000000000000000CF
:1001300000000000000000000000000000000000BF
:1001400000000000000000000000000000000000AF
:10015000000000000000000000000000000000009F
:10016000000000000000000000000000000000008F
:10017000000000000000000000000000000000007F
:10018000000000000000000000000000000000006F
:10019000000000000000000000000000000000005F
:1001A000000000000000000000000000000000004F
:1001B000000000000000000000000000000000003F
:1001C000000000000000000000000000000000002F
:1001D000000000000000000000000000000000001F
:1001E000000000000000000000000000000000000F
:1001F00000000000000000000000000000000000FF
:10020000DFF80CD000F0E8FC00480047D98A000075
:100210004048002030B4044654E8000F0D4644E83E
:100220000053002BF8D1156030BC704730B4044641
:1002300054E8000F40EA010544E80053002BF7D1D1
:10024000156030BC704730B4044654E8000F00EA33
:10025000010544E80053002BF7D1156030BC70470E
:1002600030B4044654E8000F80EA010544E8005326
:10027000002BF7D1156030BC704730B4044654E809
:10028000000F00EB010544E80053002BF7D1156087
:1002900030BC704730B4044654E8000FA0EB0105B1
:1002A00044E80053002BF7D1156030BC704770B4A0
:1002B00004464FF0000054E8006F0D68AE4207BFDF
:1002C00044E80023012044E800630E60002B1CBFBB
:1002D0000020F0E770BC704730B4044654E8000FCB
:1002E00088422CBF451A054644E80053002BF5D13F
:1002F000156030BC7047000000B583B002900091DB
:10030000019244F2010071466A4601F06DF903B0B2
:1003100000BD0000094B1EF0040F1CBFEFF3098065
:100320001847EFF308800649064A884201D89042F0
:1003300002D88D464FF0000018470000150D000050
:10034000404800204028002030B450E8012F93B2EC
:10035000C48923448489A34228BF1B1B0489A34268
:1003600002BFBFF32F8F002007E0C3EA020340E87B
:100370000134002CE9D14FF001000A6030BC704715
:1003800050E8012FC2EA024240E801210029F7D1DA
:10039000704730B450E8022F1FFAA2F3C488A3427A
:1003A00002BFBFF32F8F00200DE0C489234484894E
:1003B000A34228BF1B1BC2EA034340E80234002CBF
:1003C000E8D14FF001000A6030BC704750E8022FBE
:1003D000C2EA224240E802210029F7D170470346D1
:1003E00053E8022FD988B2EB324F4FF0000017BF0D
:1003F00092B241EA014142EA014104E05A68B2EB9B
:10040000324F08BF012043E80212002AE8D17047AA
:1004100030B4044654E8000F0D4644E80053002B66
:10042000F8D1156030BC704730B4044654E8000F72
:1004300040EA010544E80053002BF7D1156030BCB9
:10044000704730B4044654E8000F00EA010544E860
:100450000053002BF7D1156030BC704730B4044610
:1004600054E8000F80EA010544E80053002BF7D15F
:10047000156030BC704730B4044654E8000F00EB00
:10048000010544E80053002BF7D1156030BC7047DC
:1004900030B4044654E8000FA0EB010544E80053D3
:1004A000002BF7D1156030BC704770B404464FF094
:1004B000000054E8006F0D68AE4207BF44E8002317
:1004C000012044E800630E60002B1CBF0020F0E711
:1004D00070BC704730B4044654E8000F88422CBF0B
:1004E000451A054644E80053002BF5D1156030BC91
:1004F000704700000648804706480047FEE7FEE7D1
:10050000FEE7FEE7FEE7FEE7FEE7FEE7FEE7FEE7C3
:10051000A5100000010200002DE9F05F0546002053
:1005200092469B4688460646814640241BE0284664
:1005300041464746224600F02FF853465A46C01A15
:10054000914110D311461846224600F016F82D1A94
:1005500067EB01084F4622460120002100F00DF80C
:1005600017EB00094E41201EA4F10104DFDC4846D0
:1005700031462A464346BDE8F09F202A04DB203A54
:1005800000FA02F1002070479140C2F1200320FAE6
:1005900003F3194390407047202A04DB203A21FAE4
:1005A00002F00021704721FA02F3D040C2F120028C
:1005B00091400843194670470048704704270100DE
:1005C000A0F14101192900D8203070472DE9FE43E0
:1005D000994615468846074601AC022942D3002DAC
:1005E00040D000200290A8F101004FF0FF360090AB
:1005F00022E000FB057201FB057011464A46904758
:10060000002805DC54F82600304444F8260013E0A6
:1006100060682A4600FB057154F8040C00FB057065
:1006200007E00B7890F800C001F801CB00F8013B1F
:10063000521E002AF5D1764254F8040C61688842B3
:10064000D7DC4B462A463846FFF7C0FF54F8040C67
:100650004B46A8EB0001401C00FB05702A46491ED2
:10066000FFF7B4FFBDE8FE8310B5431A934209D2E9
:100670008318881803E010F8011D03F8011D521EAD
:10068000F9D210BD40EA01039B0703D009E008C975
:10069000121F08C0042AFAD203E011F8013B00F847
:1006A000013B521EF9D210BDD2B201E000F8012B7D
:1006B000491EFBD270470022F6E710B513460A46E2
:1006C00004461946FFF7F0FF204610BD30B5054639
:1006D0002A460B4612F8010B13F8014B08B1A04251
:1006E000F8D01CB1002802D06D1CF1E7284630BDBF
:1006F000CAB2401E10F8011F8A4202D00029F9D167
:1007000000207047421C10F8011B0029FBD1801A01
:10071000704710B5002200E0521C835C8C5CA34241
:1007200001D1002BF8D1D8B2E1B2401A10BD034676
:1007300011F8012B00F8012B002AF9D11846704757
:1007400030B505460020034600E05B1C934205D20D
:10075000EC5CC85C201A01D1002CF6D130BD2DE92B
:10076000F04791460F4680460446002614F8015B88
:100770002DB1FFF721FF0068405DC007F6D12B2D9A
:1007800002D02D2D18D0641E4A463946204600F06E
:1007900077F927B13968A14201D1C7F80080710506
:1007A0004FF002040BD54042002803DD00F086FE26
:1007B0000460A007BDE8F08746F48066E4E70028FF
:1007C000F8DA00F07BFE04606FF00040F2E72DE9FC
:1007D000FE4F804681EA0300C00F0C46009021F0D6
:1007E000004123F00045B8EB0200A94105D2404684
:1007F000214690461C460B46024623F0004010431B
:1008000047D0270DC7F30A00C3F30A510290401ADC
:10081000019040286BDAC3F3130040F4801B00986A
:10082000924620B10023D2EB030A63EB0B0B019835
:100830005946C0F140025046FFF79FFE06460D465E
:1008400050465946019A00F009F910EB0800614141
:10085000002487EA115284EAE7731A4340D0009AD1
:1008600062B3019A012A4FEA075215DC001B61EBC3
:1008700002014FF0004202EA0752CDE90042001C9B
:1008800041F5801132462B4600F058F903B0BDE81F
:10089000F08F40462146F9E7001B61EB0201001C86
:1008A00041F5801300185B412018A2F5001747EBB3
:1008B000030140EAD570B6196D4111E06D084FEAA9
:1008C000360645EAC0754FEA0752001B61EB02018C
:1008D000001C41F5801149084FEA300000195141D0
:1008E00032462B4603B0BDE8F04F00F018B900982F
:1008F000012240000023D0EB020263EBE07300987A
:1009000021464FEAE074B8EB000061EB0401E9E72F
:1009100083F000435BE781F0004158E72DE9F04D9B
:1009200081EA030404F0004B21F0004514464FF027
:10093000000A23F0004150EA050220D054EA0102E7
:100940001DD0C5F30A570246C5F31303C1F31300C4
:10095000C1F30A5640F4801543F48013A7EB060850
:10096000101BD64608F2FD3873EB050002D308F1E0
:10097000010801E092185B41B8F1000F03DA002092
:100980000146BDE8F08D00204FF4801106468446F4
:100990000EE0171B73EB050705D3121B63EB050372
:1009A00006434CEA010C49084FEA300092185B41BB
:1009B00050EA0107EDD152EA030012D082EA0400A6
:1009C00083EA0501084305D0101BAB4106D2012282
:1009D000002306E000224FF0004302E06FF0010226
:1009E00053101AEB06004CEB085110EB0A0041EBD8
:1009F0000B01BDE8F04D00F092B8000030B5041EC8
:100A000071F1000404DB4FF00044404264EB01014B
:100A1000141E73F1000405DB1C464FF000435242E4
:100A200063EB04038B4208BF824230BD30B5041E25
:100A300071F1000404DB4FF00044404264EB01011B
:100A4000141E73F1000405DB1C464FF000435242B4
:100A500063EB0403994208BF904230BD202A06DBB5
:100A6000CB17203A41FA02F043EAE07306E041FA7C
:100A700002F3D040C2F1200291400843194670476A
:100A80002DE9F05F82460078002715468B460AF173
:100A90000104B946302801D09DB113E014F8010BD0
:100AA0000127782803D0582801D045B10AE00DB1BC
:100AB000102D07D10027102514F8010B02E008259E
:100AC00000E00A250026B0460EE005FB080005FB05
:100AD00006F1012701EB10461FFA80F8B6F5803FBA
:100AE00000D3B94614F8010B294600F087F8002816
:100AF000EBDABBF1000F05D00FB1641E00E05446E5
:100B0000CBF80040B9F1000F06D000F0D7FC02216D
:100B10000160C81EBDE8F09F48EA0640FAE710B53C
:100B2000141E73F1000408DA401C41F10001921810
:100B30005B411A4301D120F0010010BD2DE9F04DB9
:100B400092469B4611B1B1FA81F202E0B0FA80F20E
:100B500020329046FFF711FD04460F4640EA0A0096
:100B600041EA0B0153465A46084313D0114653EA53
:100B7000010019D0C8F140025046FFF70DFD0546AF
:100B80000E46504659464246FFF7F7FC084305D04B
:100B9000012004E020463946BDE8F08D00200543E1
:100BA00046EAE0762C4337430A986305E40AA0EB53
:100BB00008000022FD0A44EA47540A3002D500200A
:100BC0000146E9E7010510196941DDE90845001909
:100BD0006941BDE8F04DA2E7064C074D06E0E0682C
:100BE00040F0010394E8070098471034AC42F6D374
:100BF000FFF70AFBCC470100EC4701003A2800D27E
:100C0000303820F02002412A01D3A2F13700884277
:100C100001D34FF0FF30704770B58C1810F8015BAE
:100C200015F0070301D110F8013B2A1106D110F885
:100C3000012B03E010F8016B01F8016B5B1EF9D189
:100C40002B0705D40023521E0DD401F8013BFAE70F
:100C500010F8013BCB1A921C03E013F8015B01F87A
:100C6000015B521EF9D5A142D8D3002070BD00000F
:100C70002DE9FC410025DFF8948000954FF4807643
:100C800001242F46019530460AF088FA38B1D8F889
:100C90000403204203D030460AF076FA2543361D7D
:100CA00064007F1CB6B2082FEDD34FF4BE7420460B
:100CB0000AF074FA48B120460AF066FA45F0004599
:100CC0006A46022100200AF06DF915F0FF0F16D0D8
:100CD000012600242E420ED008EB8401D1F8100525
:100CE000D1F81015C0F30520094AC1F3014152F8AB
:100CF000242002B190477600641C082CEAD3002D12
:100D000002DA68460EF080FABDE8FC81006000401F
:100D1000AC1700201CB582460AF0C4FF0AF040FD63
:100D20000028FBD139485FEA0A05076839483A4983
:100D3000374EA0EB01004FEAD0004FF0010808EB5E
:100D4000004470881ED0002821D0204633A1AA6913
:100D50000AF064FE7088002819D0D5E90201CDE9B7
:100D60000001D5E90023204632A10AF06FFE708809
:100D700068B1E8690090D5E9042320463BA10AF058
:100D80005CFE04E018B1204642A10AF043FE1F4871
:100D9000001D0068800705D5708818B120464A49B3
:100DA0000AF038FEDFF82491002500BF08FA05F0AC
:100DB000384208D059F825202AB1708818B1204649
:100DC00043A10AF02BFE6D1C1A2DEFD3380608D56F
:100DD000708830B10D480C30026820463FA10AF0FF
:100DE0001DFE380408D5708830B1084810300268FC
:100DF000204642A10AF012FE0448C8300068C0072D
:100E000000D000BE504600F087F8000028ED00E05A
:100E1000A0040020CC490100E448010048415244AC
:100E2000204641554C542061742030782530385884
:100E300000000000202052303A2020307825303841
:100E400058202052313A2020307825303858202040
:100E500052323A2020307825303858202052333A08
:100E600020203078253038580000000020205231F2
:100E7000323A2030782530385820204C523A202001
:100E800030782530385820205053523A2030782579
:100E900030385800537461636B2076696F6C6174ED
:100EA000696F6E3A20737461636B20706F696E7442
:100EB0006572206F75747369646520737461636B08
:100EC00020617265612E000034320100680200204A
:100ED00043617573653A2025732E00004D656D4D95
:100EE000616E616765204661756C7420416464724F
:100EF0006573733A20307825303858004275732076
:100F00004661756C7420416464726573733A203075
:100F10007825303858000000BFF34F8F054801682E
:100F2000054A01F4E06111430160BFF34F8F00BF38
:100F3000FDE700000CED00E00400FA0510B50CF030
:100F4000A3FABDE810400CF0C9B9000002490248FC
:100F5000091F0968006808471C020020044900EBCB
:100F6000400001EBC000416D806D081A7047000021
:100F7000B825002000F0ECB970B5064614460D46C1
:100F8000002001F0ABFD22462946304600F006F86D
:100F90000446002001F0D0FD204670BD2DE9F04749
:100FA0001B4D0746164628780C4608B900F0D0F9C4
:100FB00007EB470005EBC007A046D7E915950024CD
:100FC00048374D4511D9B868441BB44200D3344664
:100FD0007868224641194046FFF746FBB868361B41
:100FE0002544A044A84200D10025A9EB0500B04249
:100FF00000D206463EB17868324641194046FFF7B6
:1010000033FB3444354404B13D612046BDE8F087EC
:10101000B825002070B50B4B0646144618780D46CF
:1010200008B900F095F9002001F058FD2246294644
:10103000304600F009F80446002001F07DFD20460E
:1010400070BD0000B825002070B50E46144900EBB5
:10105000400001EBC0051446E86A183520B10128AC
:101060000FD0022805D113E0284600F0A5F9A042D0
:1010700001D2002411E022463146284600F0E9F969
:101080000BE0284600F098F9A042F4D20446F2E7BB
:101090003146284600F0B0F90446204670BD0000F5
:1010A000B825002030B54FF080520023D2E94C1013
:1010B000082906D1CC06C4F80C31C4F81031624CB2
:1010C0002360082955D1614B1B68614C23605F4B3D
:1010D0001B1D1B68241D23605C4B08331B68241DEB
:1010E00023605A4B0C331B68241D2360574B10336D
:1010F0001B68241D2360554B14331B68241D23607B
:10110000524B18331B68524C203423604F4B1C3316
:101110001B68241D23604D4B20331B68241D236056
:101120004A4B24331B68241D2360484B28331B681B
:10113000241D2360454B2C331B68241D2360434B27
:1011400030331B68424C40342360404B34331B68BF
:10115000241D23603D4B38331B68241D23603B4B0B
:101160003C331B68241D2360384B40331B68241D0F
:101170002360082904D1030002D1374C354B23608A
:10118000082904D1030002D1344CFB232360082931
:1011900008D1030006D1324B92F858521C6865F30F
:1011A00003041C60082904D1030002D12D4C8B01DB
:1011B0002360082906D12C480168C90702D06FF0C6
:1011C000010101602948016841F470010160BFF329
:1011D0004F8FBFF36F8FD2E94C104FF010220829C8
:1011E00006D1032804D9D2F8080217492031086033
:1011F000D2F80002002803DBD2F8040200281FDA2C
:1012000001200DF015FE1221C2F8001218480368E3
:10121000002BFCD0C2F8041201680029FCD0002089
:101220000DF006FEBFF34F8F10487C380168114A5D
:1012300001F4E06111430160BFF34F8F00BFFDE790
:101240000E490D48086030BD380500400404001008
:1012500020C50040488103008C56004018F500402E
:10126000E40E0040409602400004004088ED00E09B
:1012700000E401400400FA050090D003B003002010
:1012800010B5054C206818B904A1512001F00AFDE1
:101290002068BDE810400047780100202E2E5C2E0B
:1012A0002E5C2E2E5C2E2E5C2E2E5C2E2E5C6D6FF8
:1012B00064756C65735C6E7266785C647269766581
:1012C00072735C7372635C7072735C6E7266785F6B
:1012D0007072732E630000002DE9F0411A48D0F8B7
:1012E0000453002601240FE095FAA5F0B0FA80F728
:1012F000B80000F580700BF0DFFE10B104FA07F0C3
:10130000064304FA07F08543002DEDD1C6F3C0571C
:1013100026F40005DFF834800AE000BF95FAA5F056
:10132000B0FA80F658F82600804704FA06F08543A4
:10133000002DF3D10FF06AFF002F03D0BDE8F0417C
:1013400005F046BDBDE8F08100700240441D01007B
:1013500010B5124C02202061606111A0A06104F15F
:101360007800E0614FF4007020620020A0626062AB
:101370000BA1A164E06204F51E71E1641021A06577
:10138000C4E91410E06509A1E01DFFF7D0F908A138
:101390002046FFF7CCF92020A07110BDB825002011
:1013A0005465726D696E616C000000005254540007
:1013B00053454747455200000269C1688A4203D835
:1013C0008068401A104400E0501A401E7047000028
:1013D000C11700EBD161074B4A1153F8222021F0CD
:1013E0001F01411A01208840024201D001207047AC
:1013F0000020704700E100E02DE9F047C46817467F
:10140000894606464FF000083069A04201D9051B05
:1014100002E0B168201A0D1AB0686D1E001BA842C8
:1014200000D80546BD4200D33D4670682A46204498
:101430004946FFF719F9B0687F1B2C44A844A9441A
:10144000A04200D10024F460002FDDD14046BDE869
:10145000F0872DE9F04104468846D4E90207C51B10
:10146000E168606816460844B54206D94146FFF770
:10147000FBF8B819E060BDE8F0812A464146FFF765
:10148000F3F8761B08EB050132466068FFF7ECF8CD
:10149000E660F0E70FB4084B10B504A902AA039860
:1014A00000F01FF8044602A9002000F085F820464D
:1014B00010BC5DF814FB0000B9150000004870472F
:1014C000B403002002E008C8121F08C1002AFAD1A4
:1014D00070477047002001E001C1121F002AFBD1B4
:1014E00070472DE9F84F99469246884605460027F1
:1014F00006E025280AD051464A4690476D1C7F1CBD
:1015000028780028F5D13846BDE8F88F002315F873
:10151000011F18462E2915D115F8011F04232A2969
:101520000DD06FF02F022978A1F13004092C09D8D1
:1015300000EB800002EB400008446D1CF3E758F814
:10154000040B6D1C2A78002ADDD0632A07D0732A89
:101550000FD0104651464A4690477F1C2AE018F8A3
:10156000042B8DF8002000218DF801106E4601211A
:1015700003E058F8046B4FF0FF315A074FF00004B6
:1015800001D409E0641C84420BDA8C42FADB325D40
:10159000002AF7D105E0641C8C42FCDB305D00289A
:1015A000F9D1274404E016F8010B51464A4690470A
:1015B000641EF8D26D1CA3E70A68531C0B60107000
:1015C0007047800701D00020704701207047C36832
:1015D0008B4206D811440069491E814201D801207E
:1015E00070470020704700002DE9FE4314460F4667
:1015F000804672B60AF056FB0AF0D2F80028FBD1FA
:101600002448254A6FF48041A0EB0200204E4FEAA7
:10161000D0004FF0010218EB010102EB00451ED093
:101620007088012912D020B128463A461BA10AF041
:10163000F5F920480068C00700D000BE224603B07C
:1016400039464046BDE8F04300F062B80028F0D0CB
:10165000D4E90032284618A10AF0E7F9E9E77088D2
:101660000028E6D0A0680BF033FB0346D4E9000164
:10167000CDE900100297284616A1A2680AF0F0F9F9
:1016800070880028D5D028461CA10AF0C3F9D0E7FD
:10169000C4040020144A0100E4480100554E4B4E9A
:1016A0004F574E204641554C5420617420307825C8
:1016B00030385800F0ED00E0415353455254494F43
:1016C0004E204641494C45442061742025733A25FB
:1016D000750000004552524F52202575205B25733E
:1016E0005D2061742025733A25750D0A50432061F1
:1016F000743A20307825303878000000456E642038
:101700006F66206572726F72207265706F727400FE
:1017100008B501238DF800309DF80030144B186097
:1017200059609A606FF48041401807D001280FD1AA
:10173000DA60D86800689861D86807E01A611869AB
:101740008068586118690068986118694068D861B4
:10175000186858689868D868186958699869D86985
:1017600072B600BF9DF800000028FBD162B608BD2C
:10177000A01A0020014804F099BF00009801002041
:1017800070B514460E46050004D10DA140F25A2052
:1017900001F088FA5CB128684FF0FF32012E4461F5
:1017A000C0E902220AD000210161002070BD04A11D
:1017B00040F25B2001F076FA072070BD0121F3E7CB
:1017C0002E2E5C2E2E5C2E2E5C2E2E5C2E2E5C2E53
:1017D0002E5C636F6D706F6E656E74735C6C6962A6
:1017E0007261726965735C74696D65725C61707059
:1017F0005F74696D6572322E6300000038B5114860
:1018000008235822416800910F49006807F027FC1F
:10181000002815D10D4A69460D4804F04BFF04001D
:101820000ED101210A4805F03EF80123094A194664
:10183000074804F0F1FE06490120083908702046E7
:1018400038BD0000E01D0100C01A002021F9000091
:1018500098010020FFFF7F0070B516460D4604007A
:1018600004D113A140F26B2001F01CFA002001F01A
:1018700035F9D4E90201C04370EA010004D0002028
:1018800001F05AF9002070BD06F070FA401941F1DC
:101890000001C4E90201002001F04EF9A6612069AF
:1018A00000B125612146BDE8704000200FF0C4B8AA
:1018B0002E2E5C2E2E5C2E2E5C2E2E5C2E2E5C2E62
:1018C0002E5C636F6D706F6E656E74735C6C6962B5
:1018D0007261726965735C74696D65725C61707068
:1018E0005F74696D6572322E6300000010B50400EC
:1018F00004D110A140F2932001F0D4F9002001F0AE
:10190000EDF8D4E90201C04370EA01000CD04FF0B9
:10191000FF30C4E90200002001F00EF92146BDE8C5
:10192000104001200FF088B8002001F005F90020D8
:1019300010BD00002E2E5C2E2E5C2E2E5C2E2E5CFA
:101940002E2E5C2E2E5C636F6D706F6E656E7473E1
:101950005C6C69627261726965735C74696D6572F1
:101960005C6170705F74696D6572322E6300000097
:1019700070B505460648446807E02946204602F04F
:1019800099F8204600F02EFA0446002CF5D170BDDF
:10199000C801002070B50A4845680EE02E7A002480
:1019A00005E02146284600F057FE641CE4B2B4422C
:1019B000F7D3284600F016FA0546002DEED170BD8B
:1019C000C80100202DE9F0410E4840F26A774568D1
:1019D00014E02E7A00240BE000222146284600F075
:1019E0009FFE18B108A1384601F05CF9641CE4B20E
:1019F000B442F1D3284600F0F5F90546002DE8D1B0
:101A0000BDE8F081C80100202E2E5C2E2E5C2E2E0B
:101A10005C2E2E5C2E2E5C2E2E5C636F6D706F6EB6
:101A2000656E74735C6C69627261726965735C7512
:101A30007362645C6170705F757362642E63000032
:101A400070B506460948062544680AE03146204636
:101A500002F030F80546062805D1204600F0C2F90C
:101A60000446002CF2D1284670BD0000C8010020B9
:101A70002DE9FC4115460F00064604D11E494FF4DE
:101A8000846001F00FF9304601F0C4F90446007D8E
:101A9000C00715D0002001F021F8E06E98B1A842EF
:101AA00000D805462A463846A16EFEF7DDFDE06EF9
:101AB000401BE066A06E65672844A066002405E030
:101AC0000820BDE8FC81A06928B11124002001F0A4
:101AD00033F82046F5E7C4E90675304604F02FFDDB
:101AE00006498969CDE90014694600F0B7FB040096
:101AF000ECD19224EAE7000000300100481E01000A
:101B000010B501F087F9406F10BD0000FEB5154615
:101B10000E46044601F07EF9007D10F0010F0CD056
:101B2000204604F003FDA90609D000210096CDE966
:101B30000151694600F0DEFBFEBD0820FEBD0149F3
:101B4000896AF3E7481E0100F8B5040004D138A102
:101B500040F26A5001F0A6F8606820B934A140F262
:101B60006B5001F09FF86068006820B930A140F226
:101B70006C5001F097F82068006820B12CA140F269
:101B80006D5001F08FF80CF079FF10B90CF080FF68
:101B900020B927A140F2715001F084F800250FE030
:101BA000002705E0007800F06DFB08B11120F8BDBA
:101BB0003946781CC7B2304600F0C0F80028F1D191
:101BC0002946681CC5B2204600F0E0F80600E7D1BF
:101BD00000250DE0002703E00078214600F058FBC7
:101BE0003946781CC7B2304600F0A8F80028F3D177
:101BF0002946681CC5B2204600F0C8F80600E9D1A5
:101C0000194D40F2975607E0A04203D108A1304693
:101C100001F048F82868056828680028F4D11348BE
:101C20002C60694680690090204601F043FFF8BDB2
:101C30002E2E5C2E2E5C2E2E5C2E2E5C2E2E5C2EDE
:101C40002E5C636F6D706F6E656E74735C6C696231
:101C50007261726965735C757362645C6170705FF8
:101C6000757362642E630000CC010020F41D010036
:101C70002DE9F04F87B04FF000081D469346894686
:101C80000446DDF840A04646CDF80C8000E0761C06
:101C90006068012300224768214603A8B84700284E
:101CA000F5D140468DF800800027B84601903BE012
:101CB000606801236A46D0F804C0214601A8E047C5
:101CC0006068012305AAD0F804C0214601A8E047B6
:101CD0009DF8141049451AD1D84514D19DF800003B
:101CE000CAF8000005F8010B6A1C85F800906068CE
:101CF0009DF800302146456801A89B1EA84700209A
:101D000007B0BDE8F08F08F1010000F0FF0860683F
:101D10009DF800300022D0F804C0214601A89B1E87
:101D2000E0479DF800000744B742C1D30520E7E72C
:101D30000148406870470000C801002070B50D469A
:101D4000040004D1064940F2431000F0ABFF607874
:101D5000A84201D8002070BDA0782044284470BD5E
:101D6000BC2F010070B50D46040004D1064940F2B5
:101D7000431000F097FF6078A84201D8002070BDA2
:101D8000A0782044284470BDBC2F010070B50D46DA
:101D9000040004D107494FF4887000F083FF207AD3
:101DA000A84201D8002070BD05EB4500093420444D
:101DB00070BD0000BC2F010070B50D46040004D1B9
:101DC00007494FF4887000F06DFF207AA84201D8CF
:101DD000002070BD05EB45000934204470BD0000B3
:101DE000BC2F010010B5040004D1044940F2432087
:101DF00000F058FF2068006810BD0000C0250000FA
:101E000010B5040004D104A140F2432000F04AFFC1
:101E10002068006810BD00002E2E5C2E2E5C2E2E39
:101E20005C2E2E5C2E2E5C2E2E5C636F6D706F6EA2
:101E3000656E74735C6C69627261726965735C75FE
:101E40007362645C6170705F757362642E68000019
:101E500002484078002800D001207047C8010020C7
:101E600010B5002000F0E6F9BDE81040802000F039
:101E7000E1B910B5002000F0DFF9BDE81040802086
:101E800000F0DAB970B5444E0D46024609780624D2
:101E900030780B2933D007DC07296ED2DFE801F058
:101EA0006D0D0F116D2A52000C2930D00D2937D03D
:101EB0000E293ED0852960D116E0032017E00024CA
:101EC0005BE03548001D07F00CF930B133480121C3
:101ED0000160BFF36F8FBFF34F8F30780028EED1D2
:101EE0002FA140F242400FE0032846D104200FF01A
:101EF000CBF842E0104600F08DF804463DE00028A3
:101F0000DDD027A140F2564000F0CCFED7E70128F3
:101F100004D023A140F25C4000F0C4FE002005E0A4
:101F20002E48006810F0010F0AD002200FF0ACF824
:101F3000C5E7022804D21AA14FF48E6000F0B2FE69
:101F40000120F3E7E878032817D0A87830B180287B
:101F500004D013A140F27E4000F0A4FE0E49E878C0
:101F600008310A6832B100230B60496890470400C9
:101F700005D000E00E240CF0D3FD204670BD0FF01C
:101F80007BF828B1A8780028F7D10CF09EFDF4E783
:101F90000CF098FDF1E70000EC0100205C700240BD
:101FA0002E2E5C2E2E5C2E2E5C2E2E5C2E2E5C2E6B
:101FB0002E5C636F6D706F6E656E74735C6C6962BE
:101FC0007261726965735C757362645C6170705F85
:101FD000757362645F636F72652E6300380400403E
:101FE000024A0146D2E9000210470000601B0020AF
:101FF00070B50C4605460CF05FFDA84201D01020DC
:1020000070BD0348D4E90012C0E90212002070BD7F
:10201000EC0100207FB5054605208DF80000062460
:102020000DF101000CF054FD0FF026F829490020B5
:1020300008609DF8010010F01F0006D001280FD0A5
:10204000022826D0032833D106E0694628460DF041
:10205000A3FF044606282AD16846FFF7F1FC25E0D5
:102060009DF8050003A900F037FB050008D06A467B
:102070009DF80C1000F0ECFA0446062802D016E099
:10208000102415E06A469DF80C1028460EF0D6F88C
:102090000CE09DF80500010705D0694600F080F8C6
:1020A0000446062803D168460EF018F8044624B109
:1020B0000CF036FD04B0204670BD0EF0DDFF30B1EF
:1020C0000CF0FAFC0028F5D10CF0FFFCF2E70CF064
:1020D000F9FCEFE7F4010020FEB5C08814460E4677
:1020E000A04201D2054600E01546844207D2802076
:1020F0000CF064F9B4FBF0F100FB114068B1002072
:102100000096CDE90150002000F0E8FC69468020EF
:1021100000F0F0F8040002D006E00120F0E70549E5
:102120008020FFF765FF0446002000F005FD2046F3
:10213000FEBD0000841E010008B14021016001487D
:1021400070470000B41B002010B50CF0A9FC20B1B2
:1021500004A140F2D13000F0A5FDBDE810400BF025
:1021600087BF00002E2E5C2E2E5C2E2E5C2E2E5C49
:102170002E2E5C2E2E5C636F6D706F6E656E7473A9
:102180005C6C69627261726965735C757362645CD0
:102190006170705F757362642E6300000BF0A6BF00
:1021A00010B50C46010600F00F02092A08D200F013
:1021B00009F8006820B12146BDE8104001F07ABC62
:1021C000102010BD10B5010600F00F0408D5092C31
:1021D00004D309A14FF4CC7000F064FD144808E06A
:1021E000092C04D304A14FF4CF7000F05BFD10481C
:1021F000483000EBC40010BD2E2E5C2E2E5C2E2E1F
:102200005C2E2E5C2E2E5C2E2E5C636F6D706F6EBE
:10221000656E74735C6C69627261726965735C751A
:102220007362645C6170705F757362642E6300003A
:10223000181B00200BF0BEBF10B5044600F00F00C5
:10224000082805D220460BF0E5FF20460CF03AF9AD
:102250002046BDE810400CF001B8000070B50C46F7
:1022600005460CF04BF818B105480078022801D05B
:10227000082070BD21462846BDE870400CF046B8E5
:10228000C801002010B5FFF79DFF006810BD0000D9
:1022900070B50D460646FFF795FF0446056015B17B
:1022A0006868006808E00EB1802E04D103A14FF4E5
:1022B000E17000F0F7FC0020606070BD2E2E5C2EF7
:1022C0002E5C2E2E5C2E2E5C2E2E5C2E2E5C636FD2
:1022D0006D706F6E656E74735C6C69627261726949
:1022E00065735C757362645C6170705F7573626462
:1022F0002E63000070B50C4605460BF0FFFF18B1C9
:1023000005480078022801D0082070BD21462846E3
:10231000BDE870400CF06AB9C801002001780529B9
:102320000BD107490968064AC9B2121F126812F098
:10233000FF0F02D1052900D1024803490968084767
:1023400084740240121E0100A81B002070B58B4C43
:102350000546606820B98AA140F2254000F0A2FC41
:1023600003F05FFF062804D285A140F22C4000F064
:1023700099FC2878092877D008DC092818D2DFE8EA
:1023800000F07494C39DB0CCD117F40082282DD0F6
:1023900008DC0A28EFD00F28EDD0802841D0812812
:1023A00006D10CE0832847D084284ED0852872D0EF
:1023B000BDE8704072A140F2265000F073BC7E4828
:1023C000FFF70EFE7C48FFF7D3FA0D200FF0B2F9AD
:1023D000FFF7E0FAFFF744FDA06810B97748007AEC
:1023E00000B101200CF0A0FB012089E0FFF7D2FA38
:1023F0000CF0E6FB00200EF0D1F86F48401CFFF710
:10240000B7FA6D48401CFFF7EBFD0E200FF092F974
:10241000207800F049FB002846D0BDE8704007F066
:10242000C7BF2078052803D0062803D007283BD152
:10243000022065E0082063E02078032834D10CF006
:102440000BFC002830D004205AE02078032805D166
:102450000CF002FC10B104200EF0A0F80CF0BEFC51
:10246000002821D006204BE080E02078032801D00E
:10247000082803D15048801CFFF768FF00200FF0A8
:1024800059F9A46840F25F260CE02946204601F085
:1024900011FB2CB900E040E049A1304600F002FCFD
:1024A00020684468002CF0D170BDFFF773FAFFF785
:1024B000E0FC02200EF072F8012006E020780828E7
:1024C00009D005200EF06AF803200FF033F92846F2
:1024D000FFF786FD4CE002200EF060F80CF066FA83
:1024E000F2E703200FF026F93348C01CFFF778FD10
:1024F0003148C01CFFF73CFA2078062898D1072005
:10250000BDE870400EF04AB803200EF047F80220F4
:102510000FF010F92846FFF72BFA2846BDE8704067
:10252000FFF75EBDA878FFF74DFE0446006820B9AE
:1025300013A140F2025000F0B5FB606820B910A171
:1025400040F2035000F0AEFBD4E900022946904768
:102550000028A9D0A8780107A6D000F00F0108290B
:10256000A2D2BDE870400BF07BBF08200FF0E2F86C
:102570002846BDE87040FFF7FBB90000C801002005
:102580002E2E5C2E2E5C2E2E5C2E2E5C2E2E5C2E85
:102590002E5C636F6D706F6E656E74735C6C6962D8
:1025A0007261726965735C757362645C6170705F9F
:1025B000757362642E630000051E0100A81B0020D5
:1025C0002E2E5C2E2E5C2E2E5C2E2E5C2E2E5C2E45
:1025D0002E5C636F6D706F6E656E74735C6C696298
:1025E0007261726965735C757362645C6170705F5F
:1025F000757362642E680000FFF790BE10B520B1BD
:1026000004A140F27B2000F04DFBBDE810400F48D4
:10261000FFF784BE2E2E5C2E2E5C2E2E5C2E2E5CA2
:102620002E2E5C2E2E5C636F6D706F6E656E7473F4
:102630005C6C69627261726965735C757362645C1B
:102640006170705F757362642E630000F41D010099
:10265000114601F02FBA000070B5044640680D46DF
:10266000C2680AB120469047207AA84204D20CA141
:102670004FF4467000F016FB29462046FFF786FB14
:1026800005464678002408E021462846FFF756FB19
:1026900000780BF08FFD641CE4B2B442F4D370BD3B
:1026A0002E2E5C2E2E5C2E2E5C2E2E5C2E2E5C2E64
:1026B0002E5C636F6D706F6E656E74735C6C6962B7
:1026C0007261726965735C757362645C6170705F7E
:1026D000757362642E6300002DE9F04180460F4857
:1026E0000E46456816E02F7A00240DE02146284664
:1026F000FFF74CFB0178414504D106B13470284600
:10270000BDE8F081641CE4B2BC42EFD32846FFF779
:1027100069FB0546002DE6D10020F1E7C801002045
:1027200070B50446406815460E4683681BB12046C6
:102730009847062809D1207AB04204D20E4940F2C7
:10274000F92000F0AFFA0DB1072070BD31462046E8
:10275000FFF71CFB05464678002408E02146284682
:10276000FFF7ECFA0078FFF767FD641CE4B2B442AF
:10277000F4D3002070BD0000A02600000346002016
:102780005A681269002A01D01846104770470000A5
:102790002DE9F843044607F0BDFE20B92FA140F211
:1027A000313000F07FFA3B480CF006F9002850D198
:1027B000394908704860886048213848FDF77BFF38
:1027C000364848214830FDF776FF3448344D803094
:1027D0004CB194E80E00103080E80E002F48903085
:1027E000016821B105E005F134010EC9F3E72D4977
:1027F0000160002007F0E6FE30B1852804D017A262
:1028000040F25F31FDF778FD274E00240DE00027F0
:1028100003E000783146FFF73BFD3946781CC7B22C
:102820004046FFF78BFA0028F3D12146641CE4B23E
:102830003046FFF7ABFA5FEA0008E8D1686800901D
:102840006946304601F036F9040004D00CF09AFADB
:102850002046BDE8F8830020FBE700002E2E5C2E0A
:102860002E5C2E2E5C2E2E5C2E2E5C2E2E5C636F2C
:102870006D706F6E656E74735C6C696272617269A3
:1028800065735C757362645C6170705F75736264BC
:102890002E630000F9250000C8010020181B00204D
:1028A000F41D01004D230000C41E010040B10128A9
:1028B00008D0022809D007A140F2622000F0F2B946
:1028C000124804E01148001D01E010480830FFF7ED
:1028D00025BD00002E2E5C2E2E5C2E2E5C2E2E5C36
:1028E0002E2E5C2E2E5C636F6D706F6E656E747332
:1028F0005C6C69627261726965735C757362645C59
:102900006170705F757362642E630000161E0100B3
:1029100010B50CF0BDF810B10CF0B0F808B10820FB
:1029200010BD054807F062FE20B104A240F2C2319A
:10293000FDF7E2FC002010BD241E01002E2E5C2EAF
:102940002E5C2E2E5C2E2E5C2E2E5C2E2E5C636F4B
:102950006D706F6E656E74735C6C696272617269C2
:1029600065735C757362645C6170705F75736264DB
:102970002E6300002DE9F0410D46164901EB80075A
:1029800057F82500017849B10020FFF7D5FB57F82B
:10299000255006460024287848B911E0801CBDE87F
:1029A000F0811F2C03D30C49FC2000F07BF9641C40
:1029B000E4B215F8010B26F8140028780028F0D1AD
:1029C000022000EB4400C0B240F44070308030463A
:1029D000E5E70000FC0100205030010010B50CF0CC
:1029E0004DF820B909A14FF4767000F05BF9154855
:1029F0000168C1F3400121B1BDE810401248FFF762
:102A00008DBC016811F0010FF2D110BD2E2E5C2E8D
:102A10002E5C2E2E5C2E2E5C2E2E5C2E2E5C636F7A
:102A20006D706F6E656E74735C6C696272617269F1
:102A300065735C757362645C6170705F757362640A
:102A40002E63000038040040F91D0100034808B55A
:102A5000806800906846FFF761FC08BDF41D010026
:102A600030B44FF0000180B10D4B002213F812403A
:102A700084420ED103EB4200407870B1094A02EB68
:102A8000800252F8212042B100E0002030BCFFF764
:102A900071BF521CD2B2062AE8D330BC0020704766
:102AA0002C1F0100FC010020092808D2DFE800F0FB
:102AB00007070507070505050500012070470020E9
:102AC0007047092808D2DFE800F007070507070765
:102AD00007070500012070470020704710B50CF073
:102AE00071FC012803D004A1432000F0DBF8BDE80D
:102AF000104000F04FB800002E2E5C2E2E5C2E2EC3
:102B00005C2E2E5C2E2E5C2E2E5C636F6D706F6EB5
:102B1000656E74735C6C69627261726965735C7511
:102B200074696C5C6170705F7574696C5F706C6106
:102B300074666F726D2E630010B50CF043FC0128B3
:102B400003D004A1512000F0ADF8BDE8104000F022
:102B500029B800002E2E5C2E2E5C2E2E5C2E2E5CB4
:102B60002E2E5C2E2E5C636F6D706F6E656E7473AF
:102B70005C6C69627261726965735C7574696C5CC6
:102B80006170705F7574696C5F706C6174666F7290
:102B90006D2E630072B602480168491C01607047DF
:102BA0001402002003490868401E086000D162B684
:102BB000704700001402002070B5054608680C46F6
:102BC000411C04D008F0CCFA206808F0BFF9606816
:102BD000411C02D0002108F0A7F92968A069C1F8BA
:102BE0002405607D227D29681043C1F86C05D4E975
:102BF00000122868C0F81425C0F80C15207D0128A3
:102C000014D1A068411C02D0002108F08DF9E068C1
:102C1000411C04D008F0A4FAE06808F097F9D4E960
:102C200002122868C0F80825C0F8101570BD70B5EC
:102C3000054608680C46411C04D008F09BFA206841
:102C400008F08EF96068411C02D0002108F075F987
:102C50002968A069C1F82405607D217D2A680843A0
:102C6000C2F86C05D4E900122868C0F80C15C0F849
:102C70001425207D012814D1A068411C02D0002118
:102C800008F05BF9E068411C04D008F073FAE068D2
:102C900008F066F9D4E902122868C0F80825C0F8DF
:102CA000101570BD1CB56A46CDE90001002144F243
:102CB0000200FEF799FC1CBDF0B500220D4BCA6066
:102CC000C1E901230C4B0D4D1446EE1A0A600CE0CD
:102CD00003EB0215EF683F79FF2F05D0A04202D128
:102CE000A8680860F0BD641C521CB2EB161FEFD33D
:102CF000F0BD00001025010084480100E4480100F7
:102D0000102802D31038C0B2704740F080007047DE
:102D10002DE9F0470546C61C91460F464FF0010AC3
:102D20000020FFF7DBFE1B4C04F21C486068386093
:102D3000D4E90101184F401A3968081A0EE0012140
:102D4000404606F0D7F905F0CDFD0146404606F0B5
:102D5000D1F9D4E90101401A3968081A401C8642A9
:102D6000EDD8B9F1000F03D0052065F3891002E01A
:102D7000062065F39F5061683A68114004EB8101B9
:102D8000C8606068304460600020FFF7D5FE5046A0
:102D9000BDE8F087982100203C03002070B50D4667
:102DA00004460A2902D10D21FFF7F8FFA068226826
:102DB000411CA1601554D4E90101814204D320468D
:102DC000BDE8704007F0E2BC70BD000004488168B7
:102DD0004068814201D10120704700207047000007
:102DE000982100204360CA699A420DD38A69026023
:102DF000886918448861086F18440867C869C01A50
:102E0000C86100D00120704701F128020260002053
:102E10008B67704710B5040003D106495F20FFF7A8
:102E200041FF206818B903496020FFF73BFF206885
:102E30000C3010BD0030010070B50C46060004D106
:102E4000254940F2DD20FFF72DFF24B9224940F249
:102E5000DE20FFF727FF207800250F2838D2DFE893
:102E600000F038083838370C1137373237383838EF
:102E70003800304600F0E7FB2BE0214630460DF0ED
:102E800077F90FE0304603F0A2F80146A07800255C
:102E900081421ED00106E1784FF0030004D531B91C
:102EA00001210CE0054614E021B1012911D00329CC
:102EB000F8D10EE0304600F0D7FB05460021304641
:102EC0000EF02AFC05E0032130460EF025FCD0E789
:102ED0000625284670BD0000003001002DE9FF5F87
:102EE00005460198DFF8F8931F46017A89F800102B
:102EF0001646019800F050FB804625B9F9494FF479
:102F00004470FFF7CFFE28684FF0000A40F24632C7
:102F10005446A0F246314FF0020B904273D056DC7B
:102F2000B0F54A7F70D02BDC4FF4467290426CD0E3
:102F300013DC40F21531A0F21533884273D007DC60
:102F4000A8B3A0F5407013386ED0012871D18DE080
:102F5000012B6BD0022B6CD1ADE040F22131A0F2FD
:102F60002132884272D006DCA0F5407019386ED04C
:102F700001285ED1C6E0012A6AD0062A59D1ECE0C8
:102F800040F23632A0F2363190426ED015DC40F27B
:102F90002F31A0F22F32884267D009DCA0F54070B3
:102FA00029386ED004286DD0052842D11BE146E0B7
:102FB000052A68D0062A3CD13CE1C91F092938D22C
:102FC000DFE801F0F937373737F8F7F6F50013295E
:102FD00070D00DDCA1F1030110292AD2DFE801F045
:102FE000F7F6F5F4F32929F2F1F0EF2929EEEDECEB
:102FF00037290FD00FDC292974D007DC142972D0AF
:10300000282916D12DE26FE1B2E05FE02D296BD0C7
:1030100032290ED155E2442967D008DC3E2970D010
:103020003F2906D174E22FE013E002E037E049299E
:10303000F2D00020C5F800A004B0BDE8F09F082041
:103040002871002F05D840F213300CE068E04DE005
:1030500071E00EB1287930700B2001242871012F06
:1030600004D84FF4457028602EE0C8E00EB12879EE
:10307000305598F81400641C2871BC4204D32960B0
:1030800022E082E0A4E0CAE00EB128793055641C49
:1030900085F804B0BC4202D340F21630E3E70EB12B
:1030A00028793055641C85F804B0BC4203D340F243
:1030B0001730D8E7AAE10EB128793055641C85F89D
:1030C00004B0BC4202D32A600120B5E70EB12879D2
:1030D000305598F81900641C2871BC4206D340F2A0
:1030E0001930C0E7C8E19DE1D9E125E20EB12879A8
:1030F0003055641C85F804A0BC4203D340F21A305A
:10310000B1E7FAE10EB12879305589F801A0641CC5
:1031100036E209202871BC4202D340F22130A2E7F6
:103120000EB1287930550420641C2871BC4202D3AA
:1031300040F2223097E70EB12879305599F8011006
:10314000641C0198FEF738FEC9F804000078287165
:10315000BC4202D340F2273085E70EB128793055C2
:10316000641C85F804A0BC4202D34FF44A707AE78D
:103170000EB128793055D9F80400641CBC4240785F
:10318000287102D340F229306DE70EB1287930550D
:10319000D9F8040098F81410641C0078814233D1E7
:1031A00085F804B0BC4213D340F22D305BE78BE0CE
:1031B0007FE073E067E054E01CE110E104E1F8E037
:1031C000ECE0E0E0D4E0C8E0BAE0AEE0A2E096E0F7
:1031D0000EB128793055641C85F804B0BC4202D386
:1031E00040F22E303FE70EB12879305598F819009B
:1031F000641C2871BC4202D340F22F3033E70EB179
:1032000028793055641C25E098F8161081421CD1AD
:103210000A202871BC4202D34FF44D7023E70EB14F
:1032200028793055641C85F804A0BC4202D340F2D2
:10323000353018E70EB128793055641C85F804A0A4
:10324000BC42DCD340F236300DE7264940F23A303A
:10325000FFF728FD85F804A0BC4202D340F23D30C0
:1032600001E70EB128793055D9F8040098F8141008
:10327000641C007881426FD105202871BC4202D3C2
:1032800040F24230EFE60EB1287930552420641C1C
:103290002871BC4202D340F24330E4E60EB12879F3
:1032A0003055641C85F804A0BC4202D34FF4517021
:1032B000D9E60EB1287930551020641C2871BC4223
:1032C00002D340F24530CEE60EB1287930550120C8
:1032D000641C2871BC4207D340F24630C3E60000AC
:1032E000E0010020003001000EB1287930550520A2
:1032F000641C2871BC4202D340F24930B3E60EB1DF
:10330000287930552420641C2871BC4202D340F235
:103310004A30A8E60EB1287930550120641C287186
:10332000BC4202D340F24B309DE60EB128793055B5
:103330000320641C2871BC4202D34FF4537092E600
:103340000EB12879305598F81600641C2871BC42DB
:1033500003D340F24D3086E669E00EB1287930554E
:103360000420641C2871BC4202D34FF454707AE6E6
:103370000EB1287930552420641C2871BC4202D338
:1033800040F251306FE60EB128793055641C85F853
:1033900004B0BC4202D340F2523064E60EB1287948
:1033A0003055641C85F804B0BC4202D340F253305F
:1033B00059E60EB1287930550520641C2871BC42AD
:1033C00002D340F256304EE60EB128793055242013
:1033D000641C2871BC4202D340F2573043E60EB160
:1033E000287930550620641C2871BC4202D34FF462
:1033F000567038E60EB12879305598F81400641CE0
:103400002871BC4202D340F259302CE60EB1287923
:10341000305598F81600641C2871BC4202D340F263
:103420005A3020E60EB128793055641C08E098F82F
:103430001610814204D0574940F26330FFF732FC46
:10344000D9F804104846497889F80210514689F89D
:1034500003A08CE007202871BC4202D340F26E30FA
:1034600001E60EB1287930550520641C2871BC4254
:1034700002D340F26F30F6E50EB12879305599F855
:103480000310641CD9F80400FEF76CFCC9F80800AE
:1034900000782871BC4202D340F27330E3E50EB1EC
:1034A00028793055D9F8040098F81410641C007875
:1034B00081420BD103202871BC4202D34FF45E70CD
:1034C000D1E50EB128793055641C0FE098F816103C
:1034D000814206D185F804B0BC42F2D340F27D307F
:1034E000C1E52C4940F28130FFF7DCFB4020287118
:1034F000BC4202D34FF46170B5E50EB12879305566
:10350000641C85F804A0BC4202D340F28530AAE5D1
:103510000EB128793055D9F8040098F81410641CBD
:10352000007881420DD1D8F82000BC420078287183
:1035300002D340F28A3096E50EB128793055641CEA
:103540000FE098F81610814206D185F804A0BC421D
:10355000F2D340F28F3086E50E4940F29330FFF708
:10356000A1FB99F803104846491C89F8031082789A
:10357000C9B29142FFF46EAF4178491C89F801103D
:1035800099F8011099F800008142FFF4C2AD40F2B1
:103590009A3068E50030010010B5040003D10349FA
:1035A0005220FFF77FFB204610BD000000300100D5
:1035B00070B50546144808F02BFE30B91348006872
:1035C0004068D0E90021002090474022104911486E
:1035D000FEF74EFA38B1922815D0BDE870400E4A79
:1035E0007121FCF789BE2846FEF78AFA0446024696
:1035F0000749054808F0C2FD8442DBD0064968202F
:10360000FFF750FBD6E770BDE04A0100D80200206A
:10361000101E0020C8210100503A010010B508B169
:10362000032010BD0846FFF7F5FB0178202901D0E3
:10363000062010BDD0F80210C160C1880182017A55
:103640008174002010BD10B5FFF7A6FFFFF7E2FB65
:103650000021818281610162C166016741678167E2
:1036600000F12801816610BD2DE9FC478146FFF776
:1036700093FFFFF7CFFB0446484602F060FF074682
:103680002F4800268068CDE90004E069B0B1D4F885
:1036900078804546404500D205462A4604F1280177
:1036A000A069FCF7E1FF206F2844C4E91C60A8EB87
:1036B0000500E06660192830A06627E0206F60678B
:1036C0002667E666216A304621B1626AA161C4E9D3
:1036D00007202CE0A06130E004F11802616A82E862
:1036E0004300E26E1AB38A4215D3A36E0A46194606
:1036F000FCF7BAFFE16EE069091AE166A16E0144C8
:10370000A1666067002148460EF006F8206A00288E
:10371000E2D1A66111E0A16EFCF7A6FFE06E206782
:10372000E169091AE161A1690818A06105D069463B
:103730003846FEF793FDBDE8FC870020FBE700005C
:10374000481E01004360CA699A4204D38A69026034
:103750000B67CB6103E001F1280202608B67002058
:103760007047000070B5044671B111480129006826
:1037700003D0022916D0032919D14068D0E90021CD
:10378000BDE8704001201047FEF7BAF90546024631
:103790000849094808F0F2FC854203D00749932004
:1037A000FFF780FA2046BDE87040FFF701BF70BD0B
:1037B000D8020020101E0020E04A0100503A01000B
:1037C0000249084490F9300070470000AC1700200F
:1037D00070B581680446CA8C002A4DD0088D002837
:1037E0004AD0121A084495B200F12C016A1C2B3001
:1037F000FCF73AFFA068018D491E0185A068C18CC5
:10380000491EC1848DB308221C49206906F07EFF41
:10381000204605F0FCFB8188C088814211D1A06858
:1038200017A2018D4318082120462C3306F030FAE8
:10383000204600F0C1F929462046BDE8704002F05C
:103840007BBD204600F0C4FA204600F0B5F9A06820
:103850000BA2018D4318082120462C3306F018FADC
:103860002046BDE8704000F07DBA2069BDE8704098
:10387000044A03A106F04ABF70BD0000B03A000040
:10388000257300008121010070B504468068C28C58
:10389000018D521A15042D0C48D0084400F12D0159
:1038A0002A462C30FCF7E0FEA068C18C491EC1847A
:1038B000204605F0ACFB8188C08881420CD1A0680D
:1038C0001BA2018D4318082120462C3306F0E0F995
:1038D00040F28F46C4B913E0204600F079FA204642
:1038E00000F06AF9A06812A2018D43180821204651
:1038F0002C3306F0CDF92046BDE8704000F032BA16
:103900000CA13046FFF7CEF9206918B909A130465D
:10391000FFF7C8F9154A06A1206906F0F7FE6D1EEB
:10392000A9B22046BDE8704002F006BD70BD00009F
:10393000257300002E2E5C2E2E5C2E2E5C2E2E5C0F
:103940002E2E5C2E2E5C636F6D706F6E656E7473C1
:103950005C6C69627261726965735C636C695C6EF0
:1039600072665F636C692E630000000085210100B0
:103970002DE9F041044680680F46D0F85413028DBB
:1039800011F00106C18CA1EB02039DB24FF4BF738D
:103990000BD0994201D9002D7ED0A068018D08443A
:1039A000002180F82C7066B113E099427CD8002D7C
:1039B000F3D0831803F12C012A46481CFCF754FE6F
:1039C000EBE7A068C28C521C92B2C284A0682C3271
:1039D00081544DB3204605F01AFB8188C08881428E
:1039E0000ED1A06831A2018D4318082120462C3346
:1039F00006F04EF9A81B81B2204602F09DFC21E0A2
:103A0000204600F0E5F9A06828A2018D431808219E
:103A100020462C3306F03CF9204600F0A3F90121A2
:103A2000204602F06BFD0DE03EB1A068C28C521C36
:103A300092B2C284A0682C3281543A461CA12069FB
:103A400006F064FEA168088D401C0885204602F03F
:103A500060FC0028204603D0BDE8F04102F078BCAD
:103A600004F06EF800281FD0204605F0D0FA054675
:103A7000C088A988401A401E81B2204602F0EAFBA5
:103A8000204602F065FCE888A988401A81B22046E9
:103A900002F040FD288800E006E0401E81B220468A
:103AA000BDE8F04102F02ABDBDE8F08125730000B9
:103AB0002563000070B50D46040004D10DA140F24D
:103AC0000F10FFF7EFF8606820B90AA14FF4887073
:103AD000FFF7E8F86068006820B906A140F211100D
:103AE000FFF7E0F86068294602682046BDE87040AC
:103AF000104700002E2E5C2E2E5C2E2E5C2E2E5C8F
:103B00002E2E5C2E2E5C636F6D706F6E656E7473FF
:103B10005C6C69627261726965735C757362645C26
:103B20006170705F757362642E63000009B10620D6
:103B3000704700207047000041680A6041684B6090
:103B40000149086000207047D802002070B51C00B1
:103B500015460E4603D10649C720FFF7A3F82A46AB
:103B60003146044808F01CFC2060002070BD0000B5
:103B7000503A0100E04A01000020704770B51C0077
:103B800015460E4603D10A49D420FFF78BF82A4682
:103B900031460848FDF7BAFF38B1082805D011288A
:103BA00002D100202060002070BD2560FBE70000EE
:103BB000503A0100C821010070B504004FF4EA75C5
:103BC00003D108A12846FFF76DF8206918B905A1AF
:103BD0002846FFF767F82069BDE870400F4A10A13A
:103BE00006F094BD2E2E5C2E2E5C2E2E5C2E2E5CAE
:103BF0002E2E5C2E2E5C636F6D706F6E656E74730F
:103C00005C6C69627261726965735C636C695C6E3D
:103C100072665F636C692E63000000007921010009
:103C2000257300008268002182F82C1082681185BB
:103C30008068C184704700002DE9F047816805461F
:103C4000C88C00287CD0088D002879D00446002636
:103C500003E0761C641EB6B2A4B284B104F12B0258
:103C60008A5C202AF5D0641E240406F10106240C87
:103C7000B6B204D004F12B028A5C202AF3D180462C
:103C80002146284600F0B0FA07464146284600F093
:103C9000ABFAA7EB0008A8682146B0F828902846A0
:103CA00000F052F807464946284600F04DF83F1A02
:103CB000A8680319C18C8A1B06F12C01194404F170
:103CC0002C031844FCF7D0FCA868C18C891BC18464
:103CD000A8680021002F0485A868C28C104480F8D1
:103CE0002C10284603DDB9B202F008FC05E004DA26
:103CF000C7F1000189B202F01FFB2846B8F1000F9E
:103D000004DD1FFA88F102F0A5FA05E004DAC8F133
:103D1000000189B202F0FEFB284600F059F8A868BD
:103D200008A2018D4318082128462C3305F0B0FF66
:103D30002846FFF741FF2846BDE8F04700F012B8DB
:103D4000BDE8F0872573000070B584680D460068F3
:103D500000F02EFEE18B2844B0FBF1F201FB1200D3
:103D6000401C70BD70B504004FF4F07503D108A17C
:103D70002846FEF797FF206918B905A12846FEF7E7
:103D800091FF2069BDE870400F4A10A106F0BEBC4B
:103D90002E2E5C2E2E5C2E2E5C2E2E5C2E2E5C2E5D
:103DA0002E5C636F6D706F6E656E74735C6C6962B0
:103DB0007261726965735C636C695C6E72665F6385
:103DC0006C692E6300000000732101002573000060
:103DD00070B504004FF4ED7503D108A12846FEF735
:103DE00061FF206918B905A12846FEF75BFF20692D
:103DF000BDE870400F4A10A106F088BC2E2E5C2E44
:103E00002E5C2E2E5C2E2E5C2E2E5C2E2E5C636F76
:103E10006D706F6E656E74735C6C696272617269ED
:103E200065735C636C695C6E72665F636C692E635C
:103E3000000000007021010025730000074A084BB4
:103E4000ADF59E4D0020134469469A1A01E00854CE
:103E5000401C8242FBD80DF59E4D70474028002043
:103E6000002000002DE9F04F4FF000099BB00546FF
:103E70004E464C4602F05EF8284604F0CDF8A8689D
:103E8000CA464FF4C07100F5D670FCF714FCA86860
:103E900000F12C01C28C00F5D670FCF7E5FBA86898
:103EA00000F5D6700CF090FAA86800F5D67000F016
:103EB0007FFDA968401C4885284602F0D7F92846AE
:103EC00002F027FA10B9284602F042FAAA680C2339
:103ED00004A911A82C3204F0CDFE0346119840B17C
:103EE0005BB16CA20221284605F0D2FE1BB0BDE8F2
:103EF000F08F284602F02CFAF8E76B496B48002750
:103F0000A1EB00080DF1100B13E008D368A000909E
:103F10006CA202212846049B05F0BAFEE6E700EBFE
:103F2000C704606801685BF82900FCF7F2FB20B168
:103F30007F1C5E48B7EBD80FE7D9207820B163A18A
:103F400040F6A510FEF7AEFE00201690A968486066
:103F50008860C86008616168C86828B18AC9AA68B1
:103F6000C2E90370C2E90113606809F101044FF06E
:103F7000000880680390119884425FD25F465BF826
:103F8000240060A1FCF7C5FBD0B157F824005EA166
:103F9000FCF7BFFBA0B157F824000DF01FFCB8B12F
:103FA0000020149014A8009057F824302246284688
:103FB000039902F04DF8022840D014998A443BE05E
:103FC000A868D0F8541341F00201C0F8541335E04A
:103FD00017A84246009008F1010816AB2146039845
:103FE00001F00AFDB8F1000F28D0169830B301682F
:103FF00057F82400FCF78DFB0028BCD11698C16847
:10400000B1B1BAF1000F0BD0284602F02FF92846C3
:1040100002F07FF910B9284602F09AF93CA22CE090
:1040200090E88810AA682646C2E903C1C2E90137B0
:1040300080684FF000080390641C9CE7BAF1000F01
:1040400010D0A86800F5D671428D2C30FCF70CFB1F
:10405000A8680C23418DC184AA6804A911A82C3238
:1040600004F008FEA868036933B111980BEB8602CF
:10407000811B2846984704E031A20221284605F01A
:1040800007FEA868D0F8541321F00201C0F85413B9
:104090002CE700006E6F74207465726D696E617438
:1040A00065643A2025630A0084480100EC4701005A
:1040B0003A20636F6D6D616E64206E6F7420666F61
:1040C000756E6400257325730A0000002E2E5C2E89
:1040D0002E5C2E2E5C2E2E5C2E2E5C2E2E5C636FA4
:1040E0006D706F6E656E74735C6C6962726172691B
:1040F00065735C636C695C6E72665F636C692E638A
:10410000000000002D6800002D2D68656C70000017
:104110004572726F723A2072657175657374656469
:10412000206D756C7469706C652066756E6374695A
:104130006F6E20657865637574696F6E730A000031
:10414000506C656173652073706563696679206181
:1041500020737562636F6D6D616E642E0A000000DE
:104160008068D0F85403C0F3C000704710B58AB01F
:10417000032401231A4600211948009405F062FF28
:1041800018B1184ADE21FCF7B7F81549202248314A
:1041900001A8FCF769FA062001900820029000208F
:1041A0008DF818000E4801231A4601A91830009412
:1041B00005F048FF18B10B4AE721FCF79DF80848C5
:1041C00001231A4600213030009405F03BFF0028FF
:1041D00003D0044AEB21FCF78FF80AB010BD0000B1
:1041E000281C0100F08B000070B584680D46006843
:1041F00000F0DEFBE18B2844B0FBF1F070BD000065
:104200002DE9F0410446C0688EB00D464068002696
:104210003246006801A907F043FF18B100200EB034
:10422000BDE8F0816DB1019807F00BFEA168D1F8EF
:104230004403401CC1F8440300F0070001287AD170
:104240000126204604F0E3FE05468088012804D9B3
:10425000401E81B2204602F05DF92888012804D969
:10426000401E81B2204602F067F82046FFF7A4FC0A
:104270002EB132A20221204605F00AFD5BE04FF08C
:10428000010800230C2202A9019807F0E9FD049817
:104290000590BDF80C00ADF81800BDF80E00ADF8A3
:1042A0001A008DF81D8002980C2700F003000128E9
:1042B00002D0022818D032E002983B46860AC0F3AA
:1042C000C2008DF81C00029808A9C0F38315AA004B
:1042D000019807F0C5FD2069009005AB2A4608A9A2
:1042E000304607F0F3FC1AE00298850DC0F3C200D7
:1042F0008DF81C00082D01D22E4600E008263B4612
:10430000324608A9019807F0ABFD3744AD1B05AA5A
:10431000314608A8236907F0B1FB002DEAD10198C6
:1043200007F08FFDE068002201A94068006807F0EF
:10433000B7FE0028A5D0012071E700004C6F737410
:10434000206C6F6773202D20696E637265617365E1
:10435000206C6F67206261636B656E6420717565A8
:1043600075652073697A652E0A0000002DE9F04119
:104370001E4617460D46040000D025B90AA140F29A
:104380002310FEF78FFC606820B907A14FF49270EC
:10439000FEF788FC606833463A4601680C69294696
:1043A000A446BDE8F04160472E2E5C2E2E5C2E2EDA
:1043B0005C2E2E5C2E2E5C2E2E5C636F6D706F6EED
:1043C000656E74735C6C69627261726965735C635B
:1043D0006C695C6E72665F636C692E63000000003E
:1043E00070B5044640680E460025007A38B1A068D2
:1043F0000068FDF77BFA08B108281AD10025BEB97C
:104400006068007A50B90B4A0021A068FDF7B8F93E
:10441000616805004FF00100087209D1A0682246CA
:1044200040F266610068FDF717FA0546FCF7A2FD49
:10443000284670BD1508010010B541680A60416842
:104440004B60406800210172FCF794FD0249012095
:104450000870002010BD0000DC02002070B51C00B8
:1044600015460E4603D106A18C20FEF71BFC2A46FA
:1044700031460020FCF780FD2060002070BD000068
:104480002E2E5C2E2E5C2E2E5C2E2E5C2E2E5C2E66
:104490002E5C636F6D706F6E656E74735C6C6962B9
:1044A0007261726965735C636C695C7274745C6E72
:1044B00072665F636C695F7274742E630000000043
:1044C00080680068FDF712BA2DE9F05F5FEA030823
:1044D00015460E4603D11DA19A20FEF7E3FB2B489B
:1044E0000068C0070FD0DFF8A8B000244FF0050A1D
:1044F000B14600BF09EB04012A460020FCF78AFD03
:10450000060003D011E0C8F8005018E09BF8000046
:1045100088B10A271F494FF47A4088477F1EF9D196
:10452000AAF101005FEA000A0CD001218BF800100B
:104530003444AD1BDED1002CE5D0C8F8004000208B
:10454000BDE8F09F00218BF80010F4E72E2E5C2EC2
:104550002E5C2E2E5C2E2E5C2E2E5C2E2E5C636F1F
:104560006D706F6E656E74735C6C69627261726996
:1045700065735C636C695C7274745C6E72665F63B5
:104580006C695F7274742E6300000000F0ED00E04F
:10459000DC0200202122010010B50F4805F0A8FE22
:1045A00018B10E4ACC21FBF7A7FE0B48183005F0D6
:1045B0009FFE18B1094AD121FBF79EFE0648303014
:1045C00005F096FE002805D0BDE81040034AD5212D
:1045D000FBF792BE10BD0000281C0100F08B00000C
:1045E0002DE9FC470025044640F2EE7740F2EF78D3
:1045F0000126019501AB012269462046FFF7B6FE70
:104600000198002837D09DF800007F28F2D807F0E5
:1046100035FDA068417821B1012978D0022977D1F0
:10462000FBE09DF8001089460D2909D00A2907D022
:10463000D0F85423002161F38D12C0F8542322E0F6
:10464000D0F85423C2F387122AB1D0F85423C2F30E
:1046500087128A4217D1D0F8542361F38D12C0F823
:104660005423A068C18C41B12046FFF7FBFB022117
:10467000204600F089F9BDE8FC87C0F85053204679
:1046800001F066FEF3E74846B9F1090F78D00ADC7D
:10469000B9F1090F15D2DFE809F005FE142B14FD5E
:1046A00014148E00A6E7172876D005DC0C2830D02D
:1046B000B9F1150F05D165E01B2815D0B9F17F0FB1
:1046C00077D0FBF779FF016811F8090010F03E0F71
:1046D00090D02046FFF744FD00287ED09DF80010C2
:1046E0002046FFF745F985E7A1680120487081E77A
:1046F000204601F0BBFD204601F00BFE10B920461C
:1047000001F026FE0221204600F03EF972E77BE030
:104710007EE01CB98CA13846FEF7C4FA206918B9AE
:1047200089A13846FEF7BEFA954A96A1206905F0A0
:10473000EDFF1CB984A14046FEF7B4FA206918B910
:1047400081A14046FEF7AEFA8D4A8EA11132206952
:1047500005F0DCFF8BA203212046236805F098FAC0
:104760002046FFF7FDFC00289CD0A36885A2082105
:1047700020462C3305F08CFA204601F089FE39E7FB
:104780000EE009E0204601F09AFD2046FFF74AFAC4
:104790002046FFF711FA2DE72046FFF74DFA29E7EB
:1047A0002046FFF7DDFC00289DD0204600F006F9EA
:1047B00020E709E011E02046FFF7D2FC002892D064
:1047C0002046FFF705F815E72046FFF7C9FC00284B
:1047D00089D02046FFF758F80CE7A1689DF8002023
:1047E000C88CB0F5BF7F91D8088D0B18401C088588
:1047F00083F82C20A068018D084480F82C50A06814
:10480000C18C491CC184F5E69DF800105B2901D0DC
:10481000002100E002214170ECE6002141702046B9
:10482000FFF79EFC00283FF426AF9DF800004228C9
:1048300044D01BDC332872D012DC312878D03228E7
:104840009DD1A16803204870A068D0F85413D0F817
:10485000542326EA010161F30002C0F85423C9E69B
:1048600034285ED041288AD1012128E046285BD037
:104870001FDC432827D044288DD1204604F0C7FBF5
:1048800081460188007B401C814206D1B9F80400B2
:10489000012801E048E04EE081D001294FF00101FC
:1048A000204634D001F048FDA168088D401E0885DF
:1048B000A0E648283FD04C2885D1C5E700212046F6
:1048C00003F08EFA96E6204604F0A1FB81460188AB
:1048D0004088814205D1B9F80420B9F80600824227
:1048E00091D0B9F80A0081424FF00101204607D16A
:1048F00001F0B0FCB9F80A10204601F01DFD01E0FE
:1049000001F0FCFDA068018D491C018572E601F0F3
:1049100001FEB9F80A10204601F0F0FDC4E70EE0F0
:1049200006E0A16803204870204601F09FFC61E684
:10493000A16803204870204601F0C1FC5AE6A16836
:104940000320487040E700002E2E5C2E2E5C2E2E99
:104950005C2E2E5C2E2E5C2E2E5C636F6D706F6E47
:10496000656E74735C6C69627261726965735C63B5
:104970006C695C6E72665F636C692E630000000098
:10498000892101002573000010B5044680680229C2
:1049900001700AD12046FFF745F920462368BDE89B
:1049A000104002A2032105F073B910BD2573000069
:1049B000002801D0FBF7A6BE704700002DE9F04F9C
:1049C00005460020A7B007460990064620900690AD
:1049D000A868C18CA1F27F11494289B25FEA01093E
:1049E00073D0028D00F12C0100F5D670FBF73CFE70
:1049F000A8680024018D084480F8AC41FBF7DCFD79
:104A000021900168A8680C23028D024492F82B20A3
:104A1000895CC0F85043AA6801F0010A0BA918A8E4
:104A200002F5D67204F026F90B98FFF7C1FF1FFAC2
:104A300080F8A34619941A94189818B15044401E4F
:104A4000B0426DD8BAF1000F01D0002005E00BA8EC
:104A500050F82600FFF7ACFF80B2804600241BA868
:104A600022460090641C19AB3146584600F0C4FF42
:104A7000199800287DD001680BA8424650F82600FE
:104A800003F0A2FC0028EAD01A987F1CF0B1199814
:104A90000068FFF78DFF069980B2884200D9069022
:104AA000B9F1000F2ED022A800901AAB314658461B
:104AB000099A00F0A1FF199801681A9801EB080201
:104AC0000168002001EB080316E043E0601E20901F
:104AD00019980068FFF76CFF80B20690A0EB080001
:104AE00048450FDA80B20CE013F800C0614506D1EA
:104AF000401C0004000C10D0115C0029F4D1814549
:104B000000D98146601E099019981A90A7D26AA20E
:104B10000421284605F0BCF82BE04FF6FF70EEE7C5
:104B200000241BA822460090641C19AB314658464D
:104B300000F062FF4CB1199800280BD00BA850F878
:104B400026000CF04BFEA0B907E05BA2042128462A
:104B500005F09EF827B0BDE8F08F199801680BA802
:104B600050F82600FBF7D5FD0028DAD11998D0F8C7
:104B700008B0BBF1000F09D0199838B11899761C0C
:104B8000B6B201EB0A008642FFF456AF002FE1D027
:104B9000012F3AD000212846069A0AF0DFF9209C1E
:104BA0000DF16C0A2246641C19AB31465846CDF80B
:104BB00000A000F021FF1998424601680BA850F8A8
:104BC000260003F001FC30B119987F1E069A016897
:104BD00028460AF0C3F9002FE4D142A20321284657
:104BE0002B6805F055F8AB683FA2082128462C3306
:104BF00005F04EF8284601F04BFC1A984A46016829
:104C00002846414401F08EFAA4E79BF8000038B131
:104C10001BA800901AAB31465846099A00F0ECFEEA
:104C20001A980068FFF7C4FE404506D01A984A4615
:104C300001682846414401F075FA2198A968026884
:104C4000088D0B1893F82C30D25CD20715D0C98C84
:104C50008842D9D2284604F0DAF98488A868018D00
:104C6000491C0185284604F0D2F98088A0421FD152
:104C70000121284601F042FC6CE7D1F85403C0073B
:104C800011D0D1F8540320F00100C1F854032021C1
:104C90002846FEF76DFEA868D0F8541341F00101D4
:104CA000C0F8541356E720212846FEF761FE51E76D
:104CB000284601F04DFB4DE75461622066756E6336
:104CC00074696F6E3A20636F6D6D616E64732063FB
:104CD0006F756E746572206F766572666C6F77653E
:104CE000642E0A000A2573002573000070B505467E
:104CF0000C0004D107A140F63120FDF7D3FF002DB1
:104D000006D0A068D0F8541341F02001C0F8541325
:104D100070BD00002E2E5C2E2E5C2E2E5C2E2E5C86
:104D20002E2E5C2E2E5C636F6D706F6E656E7473CD
:104D30005C6C69627261726965735C636C695C6EFC
:104D400072665F636C692E630000000000238B5461
:104D50000A460068194604F09BBF000070B504467F
:104D600040680D4690F8280030B1A0680068FCF754
:104D7000BDFD08B108280CD1012685B1606905F098
:104D8000B9FC616800220831606905F041FC08B196
:104D9000062070BD606880F82960002070BD6068E2
:104DA00090F8280048B9074A0021A068FCF7E8FC01
:104DB0006168002881F82860F0D12046BDE8704085
:104DC0000AF070BF9508010070B5044640680D46B2
:104DD0000260606800224360606880F82820606894
:104DE00080F82920606820220830FBF73DFC2C6108
:104DF000074A2946606905F00BFC050005D1E0680B
:104E000007F0E0FD206907F0DDFD284670BD0000D9
:104E1000A50B01002DE9F0411C0016460F46054682
:104E200003D106A1F820FDF73DFF26602246394652
:104E3000E868BDE8F04107F07DBC00002E2E5C2E36
:104E40002E5C2E2E5C2E2E5C2E2E5C2E2E5C636F26
:104E50006D706F6E656E74735C6C6962726172699D
:104E600065735C636C695C756172745C6E72665FBD
:104E7000636C695F756172742E63000010B504463F
:104E8000406905F037FCA0680068BDE81040FCF7F9
:104E90002DBD00002DE9FC411D0016460F460446BD
:104EA00004D11BA14FF48670FDF7FCFE2E602A464C
:104EB0003946206907F0AAFC050025D16069244A1B
:104EC0000178515C19B1001D08F0EAFF02E00C30D6
:104ED00008F0B2FDC0B9FF20009001236A4601A985
:104EE000206907F00DFD78B900980199C2B2606998
:104EF00005F0F0FB0546606890F8290020B11DB967
:104F00002069009907F0E8FC2846BDE8FC81000014
:104F10002E2E5C2E2E5C2E2E5C2E2E5C2E2E5C2ECB
:104F20002E5C636F6D706F6E656E74735C6C69621E
:104F30007261726965735C636C695C756172745CE3
:104F40006E72665F636C695F756172742E630000D8
:104F5000480100202DE9F8431F4614468846050005
:104F600002D0B8F1000F03D11EA1F420FDF79AFE84
:104F70006868006818B91BA1F520FDF793FE0026AC
:104F800028E000BF686808EB06016B460268D2F8AB
:104F90000CC02246E04718B112A1FF20FDF782FEA7
:104FA0000098844204D20FA14FF48070FDF77AFE7E
:104FB00000980644241A68B9A8680178032909D022
:104FC000D0F854138906FBD5D0F8541321F02001F2
:104FD000C0F85413002CD5D1002F01D000983860B0
:104FE000BDE8F8832E2E5C2E2E5C2E2E5C2E2E5CC1
:104FF0002E2E5C2E2E5C636F6D706F6E656E7473FB
:105000005C6C69627261726965735C636C695C6E29
:1050100072665F636C692E630000000070B5084C17
:10502000050009D010342168002907D008682060E5
:10503000496828468847F6E70834F4E770BD000061
:1050400098170020054A012120B1012805D191704F
:10505000FFF7E4BF51700020FAE77047981700206F
:105060003EB5044604F0E2FF38B103B02046BDE887
:1050700030400022114604F069BE06490648CDE9D9
:1050800000010346029105A20821204604F000FE1B
:105090003EBD0000504C0100000000004170706CEB
:1050A00069636174696F6E20616464726573733AD9
:1050B00025642028307825303858292C2073697AC7
:1050C000653A2025642028307825303858290D0A83
:1050D00000000000F8B514460E46050004D121A1D9
:1050E00040F23510FDF7DEFDA86818B1686808B118
:1050F000286820B91BA14FF49B70FDF7D3FD012E4A
:1051000003D0284604F08CFF30B12846BDE8F840B3
:1051100001221B4904F01ABE022E08D0236801B0F8
:105120002846BDE8F04017A2022104F0B1BD1CA141
:105130006068FBF7EEFA68B11AA16068FBF7E9FA5C
:1051400040B16068009019A202212846236804F04B
:105150009FFDF8BD2846BDE8F8401BA2002104F0E1
:1051600097BD00002E2E5C2E2E5C2E2E5C64656D8D
:105170006F5F636C695F636D64732E630000000092
:10518000FC1B010025733A2062616420706172612A
:105190006D6574657220636F756E740A000000009F
:1051A0002D7400002D2D74657374000025733A2052
:1051B000756E6B6E6F776E20706172616D65746570
:1051C000723A2025730A000044756D6D792074656C
:1051D0007374206F7074696F6E2E0A00012904D0F9
:1051E000136804A2022104F053BD0949002048605D
:1051F0007047000025733A2062616420706172611B
:105200006D6574657220636F756E740A000000002E
:1052100000000020012904D0136804A2022104F038
:1052200037BD0949012008707047000025733A20F6
:1052300062616420706172616D6574657220636F74
:10524000756E740A0000000000000020012904D0DF
:10525000136804A2022104F01BBD09490020087054
:105260007047000025733A206261642070617261AA
:105270006D6574657220636F756E740A00000000BE
:105280000000002070B514460D460646012902D0E4
:1052900004F0C6FE30B13046BDE870400022114631
:1052A00004F054BD2368022D01D904A200E00AA233
:1052B0003046BDE87040022104F0EABC25733A2074
:1052C00062616420706172616D6574657220636FE4
:1052D000756E740A0000000025733A20706C6561D9
:1052E0007365207370656369667920737562636F97
:1052F0006D6D616E640A00002DE9F04714460D469D
:10530000814604F08DFE30B14846BDE8F0470022EA
:10531000114604F01BBD022D07D048462368BDE8A6
:10532000F04728A2022104F0B3BCDFF8B48098F85B
:105330000100142801D32BA206E06068FBF7E2F914
:1053400086B2212E02D32DA2022132E00025676809
:105350000AE000BFFBF730F90068795D405C10F0AF
:10536000380F2BD06D1CEDB2B542F3D3284E00257B
:1053700005EB451030446168FBF7CBF900281FD0DE
:105380006D1CEDB2142DF3D398F80110454601EBD6
:105390004110491C88F8011030441EA16268FCF7D6
:1053A00079F81D4B212269781948FBF70FF91BA2E8
:1053B00000214846BDE8F04704F06ABC1EA2C3E7DE
:1053C0002DA2C1E725733A20626164207061726189
:1053D0006D6574657220636F756E740A000000005D
:1053E00000000020636F6D6D616E64206C696D69F3
:1053F0007420726561636865640A0000746F6F20D1
:105400006C6F6E6720636F6D6D616E640A000000E3
:105410006405002025730000F5040100636F6D6DC5
:10542000616E642061646465642073756363657391
:105430007366756C6C790A0062616420636F6D6DD0
:10544000616E64206E616D65202D20706C656173E6
:105450006520757365206F6E6C7920616C70686172
:105460006E756D65726963616C20636861726163FA
:10547000746572730A0000006475706C696361740E
:10548000656420636F6D6D616E640A002DE9F843F9
:1054900014460D46804604F0C3FD30B14046BDE8D9
:1054A000F8430022114604F051BC022D03D014A28F
:1054B000022123681DE00025184F194E09E000BFA6
:1054C00005EB451038446168FBF723F970B16D1C9A
:1054D000EDB270788542F3D36068009011A202218A
:1054E0004046236804F0D4FBBDE8F883636814A247
:1054F000002101B04046BDE8F04304F0C9BB000004
:1055000025733A2062616420706172616D65746513
:105510007220636F756E740A00000000640500203D
:105520000000002025733A20756B6E6F776E207037
:105530006172616D657465723A2025730A0000001E
:1055400064796E616D696320636F6D6D616E643A3D
:105550002025730A000000002DE9F04117460C4693
:105560008046012902D004F05BFD30B14046BDE821
:10557000F0410022114604F0E9BB022C02D01BA22C
:105580003B6811E00024204E204D08E004EB44105D
:1055900030447968FBF7BDF860B1641CE4B2687808
:1055A0008442F3D37B681AA24046BDE8F041022151
:1055B00004F06EBB132C14D06878001B00EB401273
:1055C00004EB4410304400F12101FBF74DF86878FA
:1055D00016A2401E68704046BDE8F041002104F06C
:1055E00057BB002086F87302F1E7000025733A20CC
:1055F00062616420706172616D6574657220636FB1
:10560000756E740A00000000640500200000002090
:10561000646964206E6F742066696E6420636F6DC8
:105620006D616E643A2025730A000000636F6D6D32
:10563000616E642072656D6F766564207375636357
:1056400065737366756C6C790A000000F8B51446D2
:105650000D46074604F0E4FC30B13846BDE8F8409A
:105660000022114604F072BB012D08D0236801B05E
:105670003846BDE8F04013A2022104F009BB184DE2
:10568000687838B117A20021384604F001FB0024E5
:105690001A4E13E03846BDE8F84019A2042104F080
:1056A000F7BA00BF04EB44103044009023461DA21B
:1056B0000021384604F0ECFA641CE4B268788442B5
:1056C000F0D3F8BD25733A20626164207061726185
:1056D0006D6574657220636F756E740A000000005A
:1056E0000000002044796E616D696320636F6D6D09
:1056F000616E64206C6973743A0A000064050020CE
:10570000506C656173652061646420736F6D652002
:10571000636F6D6D616E64732066697273742E0AB7
:10572000000000005B2533645D2025730A00000043
:1057300010B5044604F07AFC30B120460022BDE8E2
:105740001040114604F002BB4521BDE8104002A202
:105750000320FAF7D1BD00002E2E5C2E2E5C2E2EDB
:105760005C2E2E5C2E2E5C2E2E5C636F6D706F6E29
:10577000656E74735C6C69627261726965735C6397
:105780006C695C636C695F7574696C735F636D648D
:10579000732E630030B505462DED048B83B09FED6D
:1057A000690B6AA28DED000B002104F071FA9FEDE8
:1057B000690B66A28DED000B0021284604F068FA03
:1057C0009FED669B67A28DED009B0021284604F0AB
:1057D0005FFA9FED658B63A28DED008B002128465B
:1057E00004F056FA624C51EC190B94ED020B53EC99
:1057F000102BFBF793F8CDE900015AA200212846AF
:1058000004F046FA94ED020B53EC102B9FED590B6C
:1058100051EC100BFBF782F8CDE9000157A20021F3
:10582000284604F035FA94ED020B51EC180B53ECBA
:10583000102BFBF773F8CDE900014AA2002128469E
:1058400004F026FA94ED020B53EC102B9FED4C0B59
:1058500051EC100BFBF762F8CDE9000147A20021E3
:10586000284604F015FA9FED480B3EA28DED000B83
:105870000021284604F00CFA9FED450B39A28DED6E
:10588000000B0021284604F003FA9FED430B35A2DC
:105890008DED000B0021284604F0FAF99FED400B36
:1058A00030A28DED000B0021284604F0F1F99FEDA8
:1058B0003E0B2CA28DED000B0021284604F0E8F9E8
:1058C0009FED3B0B27A28DED000B0021284604F035
:1058D000DFF99FED398B3AA28DED008B0021284630
:1058E00004F0D6F98DED008B37A20021284604F094
:1058F000CFF98DED008B37A20021284604F0C8F9BE
:105900008DED008B36A20021284604F0C1F98DED03
:10591000008B36A20021284604F0BAF994ED020B60
:1059200051EC190B53EC102BFAF7F8FFCDE90001FD
:1059300023A20021284604F0ABF903B0BDEC048B90
:1059400030BD0000BBBDD7D9DF7CEB3D252E31300B
:10595000660A00007D1B000000206340000000007C
:105960000000000025660A00000000000000F03F73
:1059700000000020000000000000008025460A0012
:10598000000000000000F0BF3C98AA3AFF84BF3F2F
:10599000111F33ABD271BC3F1F85EB51B81E0940BC
:1059A0001F85EB51B81E09C00000000000486AC006
:1059B00039B4C876BE9F06400E2DB29DEF8360407D
:1059C0002531302E32660A00252B31302E32660A00
:1059D00000000000253031302E32660A0000000041
:1059E000252D31302E32660A00000000252B2D3186
:1059F000302E32660A0000002DE9F05F1C000A9F7D
:105A000015468846064604D121A14FF49C70FDF747
:105A100049F927B91EA140F23910FDF743F94FF0BB
:105A20000009B8F1000F0BD01EB3307838B372689C
:105A30003946284690473868D8B12760BDE8F09FBE
:105A400021492248A1EB0008B5EBD80F14D2DFF8AA
:105A500080A00026834609E00BEBC6077868016842
:105A60005AF82500FAF755FE20B1761CB6EBD80F90
:105A7000F2D301E0786808E0C4F80090DEE77068CF
:105A800000EB051001680029F6D02060D6E7000081
:105A90002E2E5C2E2E5C2E2E5C2E2E5C2E2E5C2E40
:105AA0002E5C636F6D706F6E656E74735C6C696293
:105AB0007261726965735C636C695C6E72665F6368
:105AC0006C692E630000000084480100EC4701006F
:105AD000B803002070B515460E46044604F0A6FA39
