:020000040002F8
:10700000A8590020C1730200C9730200CB730200AB
:10701000CD730200CF730200D173020000000000A4
:10702000000000000000000000000000D373020018
:10703000D573020000000000D7730200D97302006C
:107040001D760200DB73020081780200DB73020010
:10705000DB730200DB73020079750200DB73020050
:10706000DB730200DB730200DB730200DB730200E0
:10707000DB730200DB730200DB730200DB730200D0
:10708000DB73020075760200DB730200DB73020023
:10709000DB730200DB73020085760200DB73020003
:1070A000DB730200DB730200DB730200DB730200A0
:1070B000DB730200DB730200000000000000000030
:1070C000DB730200DB730200DB730200DB73020080
:1070D000DB730200DB730200DB730200DB73020070
:1070E000DB730200DB730200DB73020000000000B0
:1070F00000000000DB73020000000000DB730200F0
:10710000000000000000000000000000000000007F
:10711000000000000000000000000000000000006F
:10712000000000000000000000000000000000005F
:10713000000000000000000000000000000000004F
:10714000000000000000000000000000000000003F
:10715000000000000000000000000000000000002F
:10716000000000000000000000000000000000001F
:10717000000000000000000000000000000000000F
:1071800000000000000000000000000000000000FF
:1071900000000000000000000000000000000000EF
:1071A00000000000000000000000000000000000DF
:1071B00000000000000000000000000000000000CF
:1071C00000000000000000000000000000000000BF
:1071D00000000000000000000000000000000000AF
:1071E000000000000000000000000000000000009F
:1071F000000000000000000000000000000000008F
:10720000DFF80CD000F07AF90048004789C7020087
:10721000A859002030B450E8012F93B2C489234408
:107220008489A34228BF1B1B0489A34202BFBFF36A
:107230002F8F002007E0C3EA020340E80134002C4E
:10724000E9D14FF001000A6030BC704750E8012FCF
:10725000C2EA024240E801210029F7D1704730B468
:1072600050E8022F1FFAA2F3C488A34202BFBFF363
:107270002F8F00200DE0C48923448489A34228BFB6
:107280001B1BC2EA034340E80234002CE8D14FF054
:1072900001000A6030BC704750E8022FC2EA224267
:1072A00040E802210029F7D17047034653E8022F36
:1072B000D988B2EB324F4FF0000017BF92B241EACB
:1072C000014142EA014104E05A68B2EB324F08BF83
:1072D000012043E80212002AE8D1704730B4044686
:1072E00054E8000F0D4644E80053002BF8D1156018
:1072F00030BC704730B4044654E8000F40EA010542
:1073000044E80053002BF7D1156030BC704730B40F
:10731000044654E8000F00EA010544E80053002B3E
:10732000F7D1156030BC704730B4044654E8000F04
:1073300080EA010544E80053002BF7D1156030BC0A
:10734000704730B4044654E8000F00EB010544E8F0
:107350000053002BF7D1156030BC704730B40446A1
:1073600054E8000FA0EB010544E80053002BF7D1CF
:10737000156030BC704770B404464FF0000054E80C
:10738000006F0D68AE4207BF44E80023012044E8C7
:1073900000630E60002B1CBF0020F0E770BC70473C
:1073A00030B4044654E8000F88422CBF451A054605
:1073B00044E80053002BF5D1156030BC7047000045
:1073C0000648804706480047FEE7FEE7FEE7FEE77F
:1073D000FEE7FEE7FEE7FEE7FEE7FEE7A576020032
:1073E000017202002DE9F05F0546002092469B469F
:1073F00088460646814640241BE0284641464746CB
:10740000224600F06BF853465A46C01A914110D3F9
:1074100011461846224600F016F82D1A67EB0108AF
:107420004F4622460120002100F00DF817EB00091D
:107430004E41201EA4F10104DFDC484631462A46B5
:107440004346BDE8F09F202A04DB203A00FA02F10F
:10745000002070479140C2F1200320FA03F3194342
:1074600090407047004870478040030040EA0103A5
:107470009B0703D009E008C9121F08C0042AFAD2EA
:1074800003E011F8013B00F8013B521EF9D27047AE
:10749000D2B201E000F8012B491EFBD27047002256
:1074A000F6E710B513460A4604461946FFF7F0FF03
:1074B000204610BD421C10F8011B0029FBD1801A88
:1074C000704730B504460020034600E05B1C934241
:1074D00003D2E05CCD5C401BF8D030BD202A04DB39
:1074E000203A21FA02F00021704721FA02F3D0403D
:1074F000C2F120029140084319467047064C074DDF
:1075000006E0E06840F0010394E807009847103473
:10751000AC42F6D3FFF778FE24570300445703002C
:1075200070B58C1810F8015B15F0070301D110F845
:10753000013B2A1106D110F8012B03E010F8016B72
:1075400001F8016B5B1EF9D12B0705D40023521EF5
:107550000DD401F8013BFAE710F8013BCB1A921C5D
:1075600003E013F8015B01F8015B521EF9D5A1425B
:10757000D8D3002070BD00002DE9FC410025DFF8C4
:10758000948000954FF4807601242F460195304673
:1075900006F074FA38B1D8F80403204203D030461C
:1075A00006F062FA2543361D64007F1CB6B2082F30
:1075B000EDD34FF4BE74204606F060FA48B1204681
:1075C00006F052FA45F000456A460221002006F016
:1075D000B3F915F0FF0F16D0012600242E420ED06D
:1075E00008EB8401D1F81005D1F81015C0F305207F
:1075F000094AC1F3014152F8242002B190477600B4
:10760000641C082CEAD3002D02DA684609F09EFEBD
:10761000BDE8FC8100600040F430002070B54FF4FC
:107620008076304605F00EFD114CB50560B1304650
:1076300005F00FFD0120C5F80803607920B901208D
:1076400060712168002088474FF48276304605F04B
:10765000F9FC00280AD0304605F0FBFC0220C5F8F2
:1076600008032168BDE870400120084770BD000094
:107670004026002002490248091F0968006808479F
:10768000C026002010B50021054A084600F048FB3E
:10769000002803D0BDE8104000F036BB10BD00004C
:1076A000B980020030B54FF080520023D2E94C106F
:1076B000082906D1CC06C4F80C31C4F81031624C4C
:1076C0002360082955D1614B1B68614C23605F4BD7
:1076D0001B1D1B68241D23605C4B08331B68241D85
:1076E00023605A4B0C331B68241D2360574B103307
:1076F0001B68241D2360554B14331B68241D236015
:10770000524B18331B68524C203423604F4B1C33B0
:107710001B68241D23604D4B20331B68241D2360F0
:107720004A4B24331B68241D2360484B28331B68B5
:10773000241D2360454B2C331B68241D2360434BC1
:1077400030331B68424C40342360404B34331B6859
:10775000241D23603D4B38331B68241D23603B4BA5
:107760003C331B68241D2360384B40331B68241DA9
:107770002360082904D1030002D1374C354B236024
:10778000082904D1030002D1344CFB2323600829CB
:1077900008D1030006D1324B92F858521C6865F3A9
:1077A00003041C60082904D1030002D12D4C8B0175
:1077B0002360082906D12C480168C90702D06FF060
:1077C000010101602948016841F470010160BFF3C3
:1077D0004F8FBFF36F8FD2E94C104FF01022082962
:1077E00006D1032804D9D2F80802174920310860CD
:1077F000D2F80002002803DBD2F8040200281FDAC6
:10780000012007F077FB1221C2F800121848036824
:10781000002BFCD0C2F8041201680029FCD0002023
:1078200007F068FBBFF34F8F10487C380168114A9E
:1078300001F4E06111430160BFF34F8F00BFFDE72A
:107840000E490D48086030BD3805004004040010A2
:1078500020C50040488103008C56004018F50040C8
:10786000E40E0040409602400004004088ED00E035
:1078700000E401400400FA050090D00380270020B6
:1078800001480068004700004826002002E008C8C0
:10789000121F08C1002AFAD170477047002001E08A
:1078A00001C1121F002AFBD17047000001212028CE
:1078B00003DA81400548014003E0402802DA20381D
:1078C000814009B10120704700207047FC06FFBDD0
:1078D0002DE9F843804643F2020659B9694608F09B
:1078E000CBFDB04202D008B100F00EFA9DF80000C6
:1078F000800744D40021404608F0C8FD05003ED072
:10790000112D3CD01F482049401AC708022000EB27
:1079100007440D2D0AD00B2D1DD0B5421FD11B4998
:1079200020464246BDE8F84306F0AEBA204642463D
:10793000174906F0A9FA1321404676DF00281ED029
:1079400006F0D8FE024601B020464346BDE8F043AB
:1079500010A106F0A0BA204642461C49E2E728469C
:1079600006F0C8FE0246012000EB0740434618A17E
:1079700006F091FA2846BDE8F84300F0C5B9BDE825
:10798000F88300008C57030054570300F4480300A9
:107990008048030073645F626C655F6761705F6459
:1079A0006973636F6E6E65637428292072657475E0
:1079B000726E6564202573206F6E20636F6E6E5F3C
:1079C00068616E646C652025642E000040490300E8
:1079D000417373657274696E672E20706D5F636F9B
:1079E0006E6E5F73656375726528292072657475A4
:1079F000726E6564202573206F6E20636F6E6E5FFC
:107A000068616E646C652025642E000010B560B15D
:107A100059B102780B785208B2EB530F05D1062208
:107A2000401C491CFFF74DFD08B1002010BD01208E
:107A300010BD800701D00020704701207047C36847
:107A40008B4206D811440069491E814201D80120A9
:107A500070470020704790F82400012801D01F20B3
:107A60007047EE20704710B501220221002001F07E
:107A7000B3FF08B1072810D107220221012001F02D
:107A8000ABFF08B1072808D100210A22084601F0FF
:107A9000A3FF08B1072800D1002010BD00B5ABB08E
:107AA000AC216846FFF7FBFC02208DF800000120A6
:107AB00006218DF802008DF80310164905918DF806
:107AC00079008DF87A000021ADF8100020918DF832
:107AD0007C008DF87D004FF44860249044F25060A3
:107AE0008DF87B102191259028210B482291299017
:107AF00040F6B831094823912A906946084800F0B9
:107B000031FD08B100F000F90121054800F025FD24
:107B10002BB000BD902200200DEF02006185020015
:107B20007C28002010B560B10D480E49401AC008ED
:107B3000032101EB00400CA106F0A2F909F05CFB67
:107B400006E001200BF04AFD03210B4800F0E3FDA5
:107B5000002803D0BDE8104000F0D6B810BD0000EA
:107B60000458030054570300457261736520626F27
:107B70006E647321000000007C28002070B58CB07A
:107B800015460E4600236C46C3F10F01415CE154DB
:107B90005B1C102BF8D30D2104F11000FFF77FFCC4
:107BA0000020C0F10F02315C2244401C11740328F4
:107BB000F7D3684646DF0020C0F10F01214491F859
:107BC00020102954401C0328F6D30CB070BD0220AD
:107BD00001F0EEBD0149C97801F02AB8C4250020A2
:107BE00070B50024064D06E06868012110F83400E5
:107BF00006F0F4FD641C28788442F5D3002070BDA3
:107C000050260020F8B516460C4605460A2A01D231
:107C10000720F8BD06F0DAFE18B906F09BFE002832
:107C2000F7D1134F202113487D603C70BE60FFF7F1
:107C300036FC0020C7E904000F4E0DE005EBC40040
:107C40003168009181788DF8011000780B4A6946FF
:107C500006F010FE0028DCD1641EE4B2EED2BDE8CE
:107C6000F84005480021064A001D00F0E5B8000074
:107C700050260020B0310020E43C03009DB60200F5
:107C800059A5020072B606F0A5F900BF05F0DCFFA9
:107C90000028FBD111481249401AC408012000EB0A
:107CA000044010A106F0ECF811480068C00700D0AD
:107CB00000BE022000EB04400EA106F0E1F8BFF385
:107CC0004F8F0B48E43801680E4A01F4E06111431C
:107CD0000160BFF34F8F00BFFDE7000004580300B1
:107CE00054570300466174616C206572726F7200B4
:107CF000F0ED00E053797374656D207265736574FF
:107D0000000000000400FA050EB500210091CDE945
:107D100001106A4644F20100FFF7B4FF0EBD0000F7
:107D20002DE9F84F254C8146924660880E468142E7
:107D300041D800274FF6FF788DF80070684600F0B4
:107D400005F922786078A188884201DA401C00E0B9
:107D50000020C0B2904204D19DF8000000F01AF952
:107D600027E065786078884201DA401C00E0002056
:107D700060709DF8000000F00DF9454519D0A0682D
:107D8000B9F1000F40F835A00DD066B16188E06808
:107D9000324605FB01004946FFF768FBA06800EB8F
:107DA000C500868002E000EBC50087800020BDE8AA
:107DB000F88F0420FBE70920F9E70000882600205F
:107DC00010B50E4C03E0401C00E00020207020782D
:107DD0006178814210D022786188E068A36802FB54
:107DE000010003EBC20153F83220898890472078C4
:107DF000A1888842E9DAE6E710BD00008826002065
:107E000030B5CB0008339DB293074FF0000401D08A
:107E1000072030BD044B9A602A44DA605C701C7005
:107E200058809980002030BD88260020014802F04B
:107E3000FABB0000A026002010B55AB100684FF030
:107E4000FF3401294261C0E9024400D000210161F0
:107E5000002010BD072010BD38B511480823582256
:107E6000416800910F49006804F097FE002815D181
:107E70000D4A69460D4802F0DBFB04000ED10121DA
:107E80000A4802F050FC0123094A1946074802F04B
:107E9000A2FB0649012008390870204638BD0000C1
:107EA000EC3C0300E0310020911C0300A0260020E0
:107EB000FFFF7F00F8B50446002617460D468DF8F3
:107EC0000060684600F042F8D4E90201C04370EA5D
:107ED000010005D09DF8000000F05CF80020F8BD1E
:107EE00003F0C2FB40197141C4E902019DF8000092
:107EF00000F050F8A761206900B125612146BDE876
:107F0000F84000200BF01EB838B5044600208DF86C
:107F10000000684600F01AF8D4E90201C04370EA94
:107F200001000DD04FF0FF30C4E902009DF80000C1
:107F300000F030F82146BDE8384001200BF002B8CF
:107F40009DF8000000F026F8002038BD30B5EFF3B2
:107F5000108172B60D4A9468012324B10370002980
:107F600000D162B630BD93604FF0E023D3F880516A
:107F7000074C25401560C3F88041D3F88441546014
:107F80005A17C3F8842100220270E8E73832002033
:107F9000FC06FFBD0B498A68002A11D000280FD1CA
:107FA000EFF3108072B60B684FF0E022C2F8003198
:107FB0004B68C2F8043100228A60002800D162B602
:107FC000704700003832002070B5054608680C463E
:107FD000411C04D005F021FD206805F081FC60689B
:107FE000411C02D0002105F069FC2968A069C1F894
:107FF0002405607D227D29681043C1F86C05D4E911
:1080000000122868C0F81425C0F80C15207D01283E
:1080100014D1A068411C02D0002105F04FFCE0689B
:10802000411C04D005F0F9FCE06805F059FCD4E9E6
:1080300002122868C0F80825C0F8101570BD70B588
:10804000054608680C46411C04D005F0F0FC206889
:1080500005F050FC6068411C02D0002105F037FC9F
:108060002968A069C1F82405607D217D2A6808433C
:10807000C2F86C05D4E900122868C0F80C15C0F8E5
:108080001425207D012814D1A068411C02D00021B4
:1080900005F01DFCE068411C04D005F0C8FCE06858
:1080A00005F028FCD4E902122868C0F80825C0F8B9
:1080B000101570BD04F02EBA06F06ABA2DE9F0472B
:1080C000814605884A484FF000088AB00178424648
:1080D000284600F0C5FD99F80500400701D40021AD
:1080E00076E005F58077B8B205AB0122072107F0ED
:1080F000B5FD04003F48404A4FF00101A0EB0200EB
:108100004FEAD00001EB00460AD0204606F0F2FA12
:10811000024630462B46394905F0BDFE214629E08E
:10812000284603F0DBFE4FF6FF71044688422BD150
:108130008A46069803F03CFE0446504510D001469E
:10814000284603F0ABFE2846FFF744FDE0B9284679
:108150000AF068F82846FFF73DFD0028BFD013E07D
:1081600007F052FF0446504508D1304624A105F0DF
:1081700087FE042128460AF0C3F8B0E701462846E6
:1081800003F08CFE4FF00108B8B22246072107F039
:10819000DDFD07001BD0862F1ED006F0ABFA02468D
:1081A00030462B462349009405F07DFE394628468B
:1081B0000AF0A6F80021484607F048FCB8F1000F85
:1081C00002D0204603F074FE0AB0BDE8F08701211A
:1081D000484607F03BFCF7E7142217496846FFF7CB
:1081E00045F9ADF80250684602F0BEFCEFE700002A
:1081F000C425002094570300545703003C4C03004F
:10820000436F756C64206E6F7420616C6C6F63617A
:108210007465206E657720706565725F696420669D
:108220006F7220696E636F6D696E6720626F6E6436
:108230002E000000584D0300803C030070B504463A
:1082400090B0087B0D468DF83800202105A8FFF777
:1082500026F942F61920ADF814000120ADF81800F7
:10826000ADF81A000EA80790617C9DF82100A21DB0
:1082700061F3041040F002008DF82100A87B8DF816
:108280002700687B8DF82500A08805A901F08CFEE9
:1082900000281CD1A968E1B10FA801F009FA06462F
:1082A00014216846FFF7FBF842F60810ADF800000D
:1082B000E87B8DF806000FA8ADF80A60ADF80E60F7
:1082C0000490E08804F10E02694602F0EFF810B065
:1082D00070BD0020E081FAE710B50E490E480AF0A3
:1082E0004AF8C1B24FF6FE720C4800F03FFB00287E
:1082F0000FD011280DD013280BD00F2809D0082833
:1083000007D043F20141884203D0BDE81040FFF797
:10831000FBBC10BDB02C0020C42200204828002047
:108320000A4601461046AEDF704770B51500044698
:1083300009D00020286034B1206820B1A0798007DE
:1083400003D0072070BD0E2070BD084600F0F0FB82
:10835000C0B2142804D02179814203D8042070BD12
:10836000052070BDE288216800FB02102860002013
:1083700070BD2DE9FC47002517880646158090F84A
:108380002D001446894630B13A462146484600F051
:108390008DFC051E09D1B0784FF00C0A18B3208867
:1083A000C846001DB84202D95046BDE8FC87684661
:1083B00079DF0028F9D12088032108F800102088EF
:1083C0001921401C80B2208008F800102088401C31
:1083D00080B2208000EB0801BDF800000AF081FFA8
:1083E000218808442080F0780222C8B1218896F9BB
:1083F000033001F1030C4846BC45D5D842542188CE
:108400004FF0010C491C89B2218000F801C021887D
:10841000491C89B2218009F801302088401C208045
:108420007068B8B1218890F9003001F1030C48461A
:10843000BC45B9D8425421880A22491C89B22180FE
:1084400042542188491C89B2218009F801302088D2
:10845000401C2080308950B1CDE900474B460622B0
:10846000022106F108000BF02BF8051E9DD1308A81
:1084700050B1CDE900474B460722032106F1100019
:108480000BF01EF8051E90D1308B50B1CDE900479E
:108490004B461522142106F118000BF011F8051EA9
:1084A00083D1306A30B13B462246494601F0B1FEE5
:1084B000051EDBD1706A30B13B462246494604F0C6
:1084C00048FA051ED2D196F82C0038B13B46224618
:1084D000494630460AF084F8051EC7D1307838B1D5
:1084E0003B4622464946304604F0C0FA051EBDD13F
:1084F00028465AE718B504460020ADF80000134698
:108500006A46204600F006F8002802D0BDF80000B8
:10851000204418BD70B5E0B1DAB1002402E0045D7A
:108520002C44A4B2651C8D4206D21688A642F6D809
:10853000061976789E42F2D18C420AD2A31C005DC5
:108540009BB200B1401E0004000C02D01C188C42EB
:1085500001D9002070BD138070BD80F830107047C5
:10856000FFF7D2BB2DE9F0410D00044606D02CB137
:1085700095F87A000026012803D006E00E20BDE819
:10858000F08195F89800012821D04FF00108A670DD
:108590002C2205F17801201DFEF768FF84F8306079
:1085A000D5F8A4006063D5F8A800A0634FF6FF706B
:1085B000A4F8240404F58260C4F82004C4F82664F6
:1085C000A4F82A6484F82C64207810B104E0072011
:1085D000D5E7FF2084F8540004F155072046C4F87D
:1085E0001074FFF738FAA4F8140404F21442394660
:1085F0002846FFF7BEFE0028C1D104F23120C4F89E
:1086000018042046FFF727FAA4F81C0404F21C42C1
:1086100005F13C00D4F81814FFF7ABFE0028AED1EA
:1086200084F85180208BA4F8480084F83C802664AC
:1086300084F85060606900216064454604F13C02A2
:10864000781E72DF00289AD1257098E710B502884D
:10865000102A1BD0112A20D0262A1DD1007A0C46C0
:10866000012801D0022817D1A0780521401CB0FBB9
:10867000F1F201FB1201204600F04DF800280BD06A
:10868000A16B002908D0BDE810400847C27B012A31
:1086900002D18088A1F8240410BD0C46002184F882
:1086A0002E148088B4F824148842F5D1207900284B
:1086B000F2D10121DFE790F82D246AB1002280F881
:1086C0002D240A68C0F826248A88A0F82A248979EB
:1086D00080F82C14002070470820704710B504461D
:1086E00090F8540074DF012084F82E04002084F8F0
:1086F000300484F850000621204602F070FC002867
:1087000008D1A178204600F006F810B1A16B01B1A4
:108710008847002010BD2DE9F05F044600780F4621
:1087200098B1A7700025C4F82654A4F82A5484F8F8
:108730002C54A079012608B1012F09D0E07980B12D
:10874000012F05D0022F03D00BE00820BDE8F09FD9
:10875000616B21B184F82D640820884701E084F81A
:108760002D5404F2274100200A5C0AB1304603E090
:10877000401C0628F8D300204FF002084FF0030BEE
:10878000012F06D0022F0CD0032F0FD0042F15D1AC
:1087900010E0A17929B194F8241011B908B130463C
:1087A0000DE0E17911B108B1404608E0207A08B146
:1087B000584604E0607A08B1042000E02846A07022
:1087C000616B41B1032801D0042804D1607910B154
:1087D00094F82E0498B184F82F5404F13C00182129
:1087E0000746FEF75CFE84F83C6004F12C0007F0BD
:1087F0009FFD58B194F82C0084F8510008E084F8EB
:10880000305484F82F6407208847E6E784F85160E5
:1088100094F8240058B104F1280007F089FD20B134
:1088200094F8280084F8520001E084F8526084F83B
:108830005050A27804F2264104F582694FF0060AEE
:10884000052A64D2DFE802F07C030F22420084F89C
:108850003160C4F82054C4E9101584F83C808020AD
:10886000A4F8480055E084F8318094F82420384674
:1088700012B10722027001E080F800B0228A8281E2
:10888000C4F820544160E168B96042E06069B860B2
:10889000208BB88194F824003D460028204602D061
:1088A00084F83CA001E084F83C600AF0D5FD50B1AA
:1088B00085F814800421204602F091FB38BB052185
:1088C00084F8311021E084F831B01EE0E069B8602E
:1088D000208CB88194F824003D460028204602D020
:1088E00084F83CA001E084F83C600AF0B5FD48B192
:1088F00085F814800421204602F071FB38B984F811
:1089000031A002E0042084F83100C4F82094A0785B
:1089100078B13A4604F15400D4F8201472DF0028EC
:108920007FF414AF94F8301094F8540073DF0028EB
:10893000F6D1616B11B194F831008847002005E74A
:1089400084F83150F5E790F82F34009933B10023C3
:1089500080F82F340A4303D0012102E00820704739
:10896000002180F83014002070470000F7B594B063
:10897000174605003CD0287C9DF8541000248842FE
:1089800052D000264FF0010E0D9615A8ADF834E038
:108990000E90ADF83660E9880DAA4FF6FF70ACDF97
:1089A000040026D19DF854002874687CA0B30F966B
:1089B000109611961296E888ADF83C00BDF8360086
:1089C000ADF840000DA811900E981290A7F57F40C9
:1089D0008DF83EE0FE3805D039460FA8FFF7A0FC21
:1089E000044621E0684600F09DF800256F460FE040
:1089F0000E2017B0F0BD00BF07EB4506B08800F0B1
:108A0000F9F8022803D144B10FA9B088AEDF6D1C7C
:108A10000098A842F0D807E005E0B1880FA8FFF75A
:108A20007FFC0446F3E708242046E2E738B50D460C
:108A3000040018D0BDB12868206028796074FF2038
:108A4000207401208DF8020041F60F00ADF80000FF
:108A5000221D69460120A8DF002803D129462046AF
:108A6000FFF7ECFB38BD0E2038BD38B5002924D007
:108A7000002822D00288502A1FD10546487C0C4687
:108A800000281AD0E9886289A81D914215D1418930
:108A9000022912D1216800290FD00C3000F004FE09
:108AA00008B1002000E001208DF80000A888ADF892
:108AB0000200226869462046904738BD70B5040020
:108AC00012D001461C221448FEF7D0FC1248134D68
:108AD0000560206850B17ADF002806D1206801685F
:108AE00029604068686005E00E2070BD0B487BDFA0
:108AF0000028FAD108484FF6FF711438084A20F8C8
:108B0000041B0549343901600021FFF795F900285D
:108B1000EBD0032070BD0000642D0020182500203C
:108B2000F13303000149496801F054BB802D002056
:108B300010B5044600F0B0F808B1204610BD14206E
:108B400010BD000010B5044600F0A6F8002805D0BE
:108B50002146BDE81040024804F09EB810BD000058
:108B6000902D002070B515460E4604460AF080FC94
:108B7000002809D0054800EB8400C0692A46314628
:108B8000BDE8704002F058BA70BD0000802D002092
:108B900010B5044600F080F8002805D02146BDE855
:108BA0001040024804F078B810BD0000982D002055
:108BB00010B5044600F070F8002805D02146BDE845
:108BC0001040024804F068B810BD0000942D002049
:108BD00070B50546002400F05FF838B12946044816
:108BE00004F05AF808B1022400E00124204670BDC8
:108BF0008C2D002070B50546002400F04DF838B1EA
:108C00002946044804F048F808B1022400E0012491
:108C1000204670BD882D002010B51821034804F0AF
:108C200016F8182800D0C0B210BD0000802D00201A
:108C300070B505460C4608460AF01AFC60B1284695
:108C400000F02AF840B10548294600EB8400BDE851
:108C500070401C3004F020B8002070BD802D002032
:108C600070B5054616460C4608460AF001FC002879
:108C70000ED0284600F010F8002809D005483246EA
:108C800000EB84002946BDE870401C3002F0A2B918
:108C900070BD0000802D0020142801D300207047F3
:108CA0000146014803F0F8BF842D00207CB505463D
:108CB00008880C460930904201D90C207CBD6846DA
:108CC0006DDF0028FAD121880820685420881B21F4
:108CD000401C80B2208029542088401C80B2208013
:108CE0002844DDF801100160BDF80510818020885E
:108CF000801D80B220809DF80010490800D001211D
:108D000029542088401C208000207CBD1FB50446CB
:108D100001208DF8060041F60A00ADF80400494A2A
:108D200001A90120A8DF00287DD122885AB1454839
:108D3000801C009094F83C3042F62920616801F0D4
:108D400003F900287BD122895AB13E480A300090AD
:108D500094F83C3042F62420E16801F0F5F8002850
:108D60006DD1228A5AB137481230009094F83C30C5
:108D700042F62520616901F0E7F800285FD1228BD7
:108D80005AB130481A30009094F83C3042F627200F
:108D9000E16901F0D9F8002851D1228C5AB1294853
:108DA0002230009094F83C3042F62620616A01F0AF
:108DB000CBF8002843D1228D5AB122482A300090A6
:108DC00094F83C3042F62820E16A01F0BDF8002812
:108DD00035D1216B79B102A809F0FAFF19480822B0
:108DE0003230009094F83C3002A942F6232001F082
:108DF000ABF8002823D1606B60B112493A31009181
:108E00000279016894F83C3042F62A2001F09CF87F
:108E1000002814D1A16B89B102A808F07DFA094895
:108E20004230009000E00AE094F83C30072202A9AA
:108E300042F6502001F088F8002800D1002004B04C
:108E400010BD0000E2250020F8B5018804463B294A
:108E500046D01ADC2648274A274DA0EB02004FEAED
:108E6000D0004FF0030202EB0040102916D000267C
:108E7000112927D0212907D10096A08869468FDFC4
:108E8000002801D0FEF740FFF8BD56292CD0572905
:108E9000FAD1BDE8F840012000F060BF17A104F04E
:108EA000EFFF072000F0BAFD08B1FEF72DFFA18803
:108EB000A980154804F04EF80028E5D0BDE8F84038
:108EC000FEF722BF11A104F0DBFF002000F046FFF7
:108ED0004FF6FF70A8806E70112000F09FFDEBE749
:108EE0008088132176DFE7E78088132176DFE3E7C8
:108EF000045803005457030088220020436F6E6E0D
:108F00006563746564000000702800204469736321
:108F10006F6E6E65637465640000000010B51A4CD6
:108F20000188606810290ED011292BD1401E606085
:108F300028D1FEF798FD002824D02168002921D0EF
:108F4000BDE810400847D0B900210122084600F0D2
:108F500043FD08B107280FD107220221012000F0AC
:108F60003BFD08B1072807D104220221002000F0B0
:108F700033FD20B1072802D0216801B1884760681D
:108F8000401C606010BD0000102500202DE9F04756
:108F900001883B4E40F2F3194FF6FF7510291BD0A4
:108FA00011293ED0122954D0502946D1C188F289C6
:108FB000841D914241D1618902293ED18688304683
:108FC00003F0C4F8050038D004F10C0000F06CFB8D
:108FD000A8B3294630464EE0C17B87880446012964
:108FE0002BD1A846284603F0B1F8050017D02F80F2
:108FF00000202872234843464A460168C5F80A10F3
:109000004068C5F80E0004F1100105F10A0003F0F4
:1090100061F96872F08900280FD129462AE00420FE
:1090200013E0808803F092F8040006D06068FEF731
:109030006BFF08B109F008F92580BDE8F087FFE76C
:109040006868FEF761FF0028F7D0BDE8F04709F037
:10905000FBB887880646384603F078F80400ECD061
:109060002B464A4606F1080104F10A0003F032F9E2
:10907000607221463846BDE8F04701F011B90000A2
:10908000642D0020182500202DE9F04F0446868825
:109090000188424897B0834610290CD0112950D03E
:1090A000103019296AD01A2974D1217A0C09042C9C
:1090B0004DD301224CE0394D083DA868C0430B90C8
:1090C00069680BA803F00CFE0B990CA801F082F85C
:1090D0002C220CA96846FEF7C9F90027E946A846E4
:1090E00010E000BF09EB47005FF00005B0F804A0F6
:1090F00008EB85005146001D03F08EFD6D1C1E2DF2
:10910000F6D37F1C0098B842ECD8142E05D317B0C4
:109110000420BDE8F04FFEF7F7BD3146584603F096
:10912000C6FD314608F1040003F0C1FDE07B0228D2
:1091300030D117B03146BDE8F04F1848001D03F09C
:10914000B6BD17B03146BDE8F04F03F065BD002253
:10915000314601F03FFF032C01D3012200E0002241
:109160000E4831460C3001F035FF022C01D30122AC
:1091700000E0002209483146083006E0217A002943
:1091800008D1617AC1F3C002314617B0BDE8F04F93
:1091900001F020BF17B0BDE8F08F0000882D00203F
:1091A00070B51F4E044686B07078002836D02088EF
:1091B000A588102811D031782846FFF739FD0028FE
:1091C0002CD1204602F0F0FC204609F0D1FA06B07E
:1091D0002046BDE8704002F083B800208DF8000002
:1091E000142101A8FEF75BF901208DF804004FF669
:1091F000FF70ADF8080004F108000390ADF80650C8
:10920000CDF810D001A801F099FC9DF8002031782C
:109210002846FFF725FD9DF80000D0E706B070BD99
:1092200054250020F0B587B016460C4605001F46B1
:1092300035D09EB3A7F57F40FF3832D0ADF814404B
:1092400004AA1946D5F87801FFF76FF8002823D152
:109250000498801C0490082C03D822463146FEF75F
:1092600005F900200090019002900390B5F84E118E
:10927000ADF8040005A8ADF80010CDE90206012103
:109280008DF8021069463846AEDF002804D10299F5
:109290000988A14200D00C2007B0F0BDFFE70E20E6
:1092A000FAE70820F8E72DE9F04391B00C460500F5
:1092B0000DD064B1A07A0A2805D8207C0A2802D8EB
:1092C000207E0A2805D9072011B0BDE8F0830E20C2
:1092D000FAE72068286060686860A07AA874207C3B
:1092E00085F87800207E85F8DE0001268DF8226062
:1092F00041F61200ADF8200005F1080208A9304639
:10930000A8DF0028E0D1002709E0A06B01AA30F80F
:1093100017102889A9DF0028D6D17F1CFFB294F846
:109320003600B842F1D8207A4FF0000808B9607AC8
:1093300038B394F83C9094F83D708DF8306020215B
:109340006846FEF7ACF842F64E20ADF800000CA8D7
:1093500002909DF80D00ADF8046040F006008DF815
:109360000D008DF81190ADF806608DF812708DF833
:109370000F60288905F10A02694600F015FE0028F1
:10938000A2D12146284602F0ABFE00289CD1207CC9
:1093900018B3606908B300271CE06069CDF810803D
:1093A00000EBC7039DF8100007EB870140F00E00AB
:1093B0008DF8100005EB4100191D7A30CDE9001041
:1093C00033F8022B04A9284608F03AFB002899D16B
:1093D0007F1CFFB2207CB842DFD8207E18B3E06942
:1093E00008B300271CE0E069CDF80C8000EBC70350
:1093F0009DF80C0007EB870140F00A008DF80C0087
:1094000005EB4100191DE030CDE9001033F8022BC7
:1094100003A9284608F014FB0028B1D17F1CFFB235
:10942000207EB842DFD82146284608F056FB0028A7
:10943000A6D1207A70B305F5A770009004F142031D
:10944000082242F62221284600F038F9002897D158
:1094500020216846FEF723F842F63220ADF80000DE
:109460009DF80D00ADF8046040F00E008DF80D0081
:1094700094F845008DF8110094F846008DF812001C
:109480008DF80F60288905F5AB72694600F08CFDF8
:1094900000289CD1607A60B105F5AF70009004F1AE
:1094A0003F03082242F63321284600F007F900283E
:1094B0008DD12146284602F07CFA002887D194F805
:1094C0003E708DF80880202109A8FDF7E8FF42F6DC
:1094D0004C20ADF824009DF83100ADF8286040F034
:1094E00004008DF8310002A88DF83670ADF82A60BE
:1094F0000B90288905F5B77209A900F055FD0028E1
:109500008BD1E168C5F87C116169C5F88011E1690A
:10951000C5F88411D8E600002DE9F04786B09846DA
:10952000DDF838A016460F4604001ED0B8F1000F33
:109530001BD0A07CB8424FD907EB870004EB40005A
:10954000AAF57F4100F11409FF3943D0ADF814604A
:10955000002504AA5146D4F87801FEF7E6FE00285B
:1095600004D10498133004900BE00E2006B0BDE83F
:10957000F08700BF30F8350004996D1C0844EDB247
:109580000490D4F87C01BD42F4D330F83700B042E7
:109590001ED3324641460498FDF768FF0020009034
:1095A000019002900390B9F80010ADF8040005A8EE
:1095B000ADF80010CDE9020801218DF802106946CE
:1095C0005046AEDF0028D1D102990988B142CDD0F2
:1095D0000C20CBE70820C9E70720C7E70A46014669
:1095E00010460A88102A05D0502A05D0512A05D1E4
:1095F00005F0A2BF05F05ABD06F006B8704700009E
:109600002DE9F8430D46DDE908171E469046040093
:1096100007D037B194F87800A84204D80720BDE8F5
:10962000F8830E20FBE76A46D4F87801FEF77DFE4A
:109630000028F4D1009813300090002009E000BF0A
:10964000D4F87C11009A31F83010401C1144C0B29B
:109650000091A17C8142F3D8002008E0D4F8801169
:10966000009A31F83010401C1144C0B20091A84259
:10967000F4D3D4F8800130F8351008EB06008142AD
:1096800007D30098424681193846FDF7EFFE0020C7
:10969000C5E70920C3E770B504460D460846FDF747
:1096A00009FF2080656070BD007800F00100704700
:1096B0000A78027049784170022070472DE9F04124
:1096C00088B00F4605461C46164620216846DDF840
:1096D0003880FDF7E4FE9DF80D00ADF8007040F015
:1096E0000201ADF804608DF80D10607810B141F002
:1096F000080101E021F0080141F010008DF80D0093
:1097000020788DF8110060788DF81200A0788DF81F
:10971000130001208DF80F0028894246694600F0A9
:1097200043FC08B0BDE8F0810149085C70470000C7
:10973000183B0300084908B5085C0090684604F02F
:1097400013F9D0F810050099C84010F0010000D0BE
:10975000012080F0010008BD183B03002DE9FC4109
:109760000646C0074FF000050ED0104F002401221E
:10977000385D009500231146019504F029F8641C1A
:10978000042CF4D300F04EF8B0070DD5074E00249A
:10979000361D0022305D032300951146019504F02B
:1097A00017F8641C042CF4D3BDE8FC81143B0300BF
:1097B000094908B5085C0090684604F0D5F8D0F86F
:1097C0000425009B0121994021EA0203C0F80835D5
:1097D0001140C0F80C1508BD143B03000249085C99
:1097E000012104F02EB90000143B03000249085C7B
:1097F000002104F026B90000143B0300084908B515
:10980000085C0090684604F0AFF8D0F804050099B1
:10981000C84010F0010000D0012080F0010008BD18
:10982000143B030010B500242046FFF7D7FF641C4B
:10983000042CF9D310BD10B500242046FFF7D6FF45
:10984000641C042CF9D310BD10B50246064B4FF032
:10985000FF3000215C5C944201D1084610BD491CD8
:109860000429F7D310BD0000183B030070B50C4E5F
:109870000C004FF0000530600BD0012000F06AF8BA
:1098800008B1022004E0002000F064F800B10B20D1
:109890002070706810B9FEF7E6F80546284670BDDE
:1098A0001025002010B5002000F0F2F908B10628BC
:1098B00006D1012000F0ECF908B1062800D1002003
:1098C00010BD00002DE9F0470D468146FFF7BCFFB3
:1098D0000446042836D2DFF874801B481C4EA8F1D9
:1098E0000C0725B3012D0ED0022D2BD104EB440023
:1098F00030444578002D25D0B968002922D028466B
:10990000BDE8F047084704EB4401755C0E447178EC
:1099100049B10E4A4FF48041093A8068FEF7CAFA0D
:1099200008B987F80390B17808F80410E2E7806876
:10993000FEF7EAFA04EB4401314418F804008D788C
:10994000A842D7D0BDE8F0871C3B0300AC24002020
:10995000202D0020042801D2FFF7ECBE0020704724
:1099600010B51B4C0246042AA08820D04FF6FF7188
:10997000072A25D00A2A16D00E2A13D1884211D0E0
:109980000120E16802F0D8FCE068401CE060A078AB
:10999000401CC0B2A070062804D104F11000E060A1
:1099A0000020A07010BDBDE8104008F0CDBE13210E
:1099B00076DF0AE00028F5D0BDE81040FEF7A4B934
:1099C0008842EFD10348FEF789FE0828F2D110BD86
:1099D000882200207C28002070B50023042810D2A3
:1099E0000D4D00EB4004012A02D101290CD00022C8
:1099F000094E00EB4000304461B1012906D0022934
:109A000006D00723184670BD0E30C2B22A55F9E7BA
:109A10004270F7E78270F5E7202D0020044A0146E6
:109A200000201279D20702D0084600F04DB87047E6
:109A3000A024002070B506461E480024C0E901613C
:109A4000B00720D50025012211462846FFF7C4FFA4
:109A50006D1C0446042D02D2002CF4D013E094B9FE
:109A600040F2333204211448FEF7CCF804000AD146
:109A7000FEF7B6F8040006D10F48104A0021001F77
:109A8000FEF7DAF90446F00712D00120FFF766FE70
:109A900074B909480A4A00210C38FEF7CDF90400D0
:109AA00006D10548074A01210838FEF7C5F90446E2
:109AB000204670BDA0240020283B0300659E0200C4
:109AC000B5C30200CF7B02002DE9F05F6E4C054666
:109AD00000266078B34618B184F801B002F052FC59
:109AE0006A4F4FF47A694FF4C87A4FF00108182D85
:109AF00069D2DFE805F00C1313384754696E727BA6
:109B0000727BC58484848484B3B6B9BCC5C502F0B5
:109B100039FC3868FEF7F8F906465CE00020FFF7EC
:109B20006DFE00284FF0000008D0FFF757FE022D11
:109B300002D14FF4E16008E0484606E0FFF756FE28
:109B4000022D01D1C82000E05046410CC0034FF463
:109B50007A72801841F10001257052000023FDF750
:109B600041FC01462AE00020FFF748FE00284FF0A4
:109B7000000004D0FFF732FE4FF44870E5E7FFF72E
:109B800035FEDFE70020FFF739FE00284FF0000028
:109B900002D0FFF723FECFE7FFF728FED4E700202F
:109BA000FFF72CFE00284FF0000002D0FFF716FE52
:109BB00001E0FFF71BFE257040F6CD41002238681A
:109BC000FEF778F9064646E00020FFF7F1FD257024
:109BD00008E0002051E025703DE084F8018001207C
:109BE000FFF7E6FD002240F26661E8E784F80180B5
:109BF0000120FFF7DDFD00224FF40051DFE7786818
:109C0000FEF782F90646D5F1110000D02EB10220F0
:109C1000FFF7E4FD84F802B01DE0012816D980B2F8
:109C2000C8214843C117C90341EA5041C0034FF45A
:109C30007A72801841F1000152000023FDF7D2FB37
:109C4000014600227868FEF735F906460220FFF744
:109C5000CDFD84F802803046BDE8F09F02F092FB13
:109C6000B9E702F08FFBB4E702F08CFB04E002F0EE
:109C700089FB0020FFF7BAFD0120FFF7B7FDAAE737
:109C8000FFF7D9FDA7E70000A02400201C3B03003C
:109C9000012109F07DBC00002DE9F84F0546861C26
:109CA00000208DF8000091460F464FF0010A6846EB
:109CB000FEF74CF91B4C04F21C4860683860D4E98C
:109CC0000101194F401A3968081A0EE00121404677
:109CD00003F000F802F006FD0146404602F0FAFFEC
:109CE000D4E90101401A3968081A401C8642EDD8AF
:109CF000B9F1000F03D0052065F3891002E00620BA
:109D000065F39F5061683A68114004EB8101C860B7
:109D10006068304460609DF80000FEF73BF95046F3
:109D2000BDE8F88F883500202827002070B50D4643
:109D300004460A2902D10D21FFF7F8FFA068226826
:109D4000411CA1601554D4E90101814204D320468D
:109D5000BDE8704003F001BA70BD00007CB51C4C3A
:109D60000146002094F83E208AB194F83C2002EB92
:109D7000420204EB820599B101A80090D5E90110D7
:109D80002B786A7808F068FA132802D008E00520DA
:109D90007CBD6A78BDF804108A4201D329707CBD6D
:109DA00094F83C20002102EB420204EB8202516055
:109DB00094F83C20521CD2B284F83C2094F83E30F7
:109DC0005B1E84F83E30052AE9D184F83C107CBD46
:109DD000C02C002070B5124C0646002094F83E506E
:109DE000062D1AD094F83D5005EB450504EB85058A
:109DF000C5E901162B706A7094F83E10491C84F86E
:109E00003E1094F83D10491CC9B284F83D10052954
:109E100002D1002184F83D1070BD042070BD000007
:109E2000C02C0020044881684068814201D1012093
:109E3000704700207047000088350020034630B589
:109E4000074800210478426806E000BF02EBC10029
:109E500005789D4203D0491CA142F7DB002030BDAC
:109E60005026002000780221FFF72CBD1CB50446C7
:109E700002F034F800236A46092106F031F805287B
:109E800005D10348012241792046FEF7E9FE1CBDB9
:109E9000202500201CB504460020009042F6A62094
:109EA000ADF8000001208DF80200084801AA6946BB
:109EB000006801902046A0DF002805D10448012257
:109EC00081792046FEF7CCFE1CBD0000483B030014
:109ED0002025002005494FF0FF32082841F82020B6
:109EE00002D3084480F8582070470000F430002066
:109EF000F0B54FF0FF3512B10023082601E008232A
:109F00000C260C4C05E000BF54F823707F1C04D0D5
:109F10005B1CB342F8D32846F0BD26185DB286F824
:109F2000305044F82310002AF5D1E11881F8580088
:109F3000F1E70000F43000200249084490F93000B5
:109F400070470000F43000202DE9F04188B01E4633
:109F5000DDF8388014460D00074602D10020FDF7D9
:109F6000D3FE14B90020FDF7CFFE20216846FDF78F
:109F700096FA9DF80D00ADF8044040F002008DF80F
:109F80000D000848ADF80070ADF8064002958DF858
:109F9000116042466946008800F006F808B0BDE846
:109FA000F0810000E22500202DE9F0438146887809
:109FB00091B090460C4600B901208DF83E002088F3
:109FC000ADF83C0000250095607C694608F0A4FBD4
:109FD0006E46A07C711C08F09FFBE07B00289DF87A
:109FE000020002D040F0080001E020F008008DF8E7
:109FF0000200217C11B140F0100001E020F01000BF
:10A000008DF80200217B11B140F0010001E020F049
:10A0100001008DF80200217D09B1022100E001213B
:10A0200061F342008DF802001C2102A8FDF737FA07
:10A03000607BC10601D4800617D50E950EAFE07C7B
:10A04000791C08F069FB9DF83800079720F00F0095
:10A05000401C20F0F00010308DF838009DF83A00D8
:10A0600020F00600801C8DF83A00607B8DF8080017
:10A07000A07B8DF80900142109A8FDF710FA0FA89C
:10A08000CDE90906A088ADF83000A06820B1E088CD
:10A09000ADF82C00A0680D90A06998B301950088D8
:10A0A000ADF81000A06901AD01A94088ADF812001B
:10A0B000A069406806950390A069007B08F02CFB1E
:10A0C000A069691C407B08F027FBA069807A002802
:10A0D0009DF8060002D040F0080001E020F00800E2
:10A0E0008DF80600A169C97A11B140F0100001E0B5
:10A0F00020F010008DF80600A169097A19B140F02E
:10A10000010002E00DE020F001008DF80600A169D9
:10A11000897B09B1022100E0012161F342008DF841
:10A120000600E06900B10590434609AA02A9484625
:10A13000AADF11B0BDE8F08370B504464FF6FF7595
:10A140000A462846AC4209D14FF480742146104695
:10A1500002F07DFD80B2A0420BD070BDFF2CFCD878
:10A160002146104602F063FD90F0010F01D0204619
:10A1700070BD284670BD000070B5084C050009D0C0
:10A1800010342168002907D00868206049682846F3
:10A190008847F6E70834F4E770BD0000E03000209F
:10A1A000054A012120B1012805D19170FFF7E4BFD4
:10A1B00051700020FAE77047E030002010B5D0E978
:10A1C0000234D1E90220D11AA04101D3012010BDEF
:10A1D000002010BD73B58CB00646002000900D988D
:10A1E00080B100246D4621460DA802F055FD30B126
:10A1F000009805EB400084800098401C0090641C8F
:10A20000142CF0D32C2269463046FDF72FF90EB0FE
:10A2100070BD2DE9F04117880646B81D14460D465D
:10A22000984202D90C20BDE8F08131880722062926
:10A230000AD34FF4486C4FF6FF73614501D9994238
:10A2400002D17088062801D21046ECE7604501D99A
:10A250009842F9D1994203D0984201D08142F3D873
:10A260000520E85520881221401C80B22080295406
:10A270002088401C80B220804119308809F031F8D4
:10A280002188084480B220804119708809F029F89B
:10A290002188084420800020C5E7FDF735BD000077
:10A2A00038B54A7A0F4B62B100220A725969002907
:10A2B00006D001228DF80020ADF8020068468847DC
:10A2C00038BD0A7A62B19B684C680246194620463E
:10A2D000FDF7F0FD0028F3D0BDE8384007F0B4BF2B
:10A2E0005B68F1E7642D0020F0B585B016460F4697
:10A2F00004461D4614220B496846FDF7B7F80A4884
:10A300008DF80870ADF80240ADF80A608DF80C5079
:10A31000017800222046FEF7A3FC684600F024FCEA
:10A3200005B0F0BD943C0300C4250020FDF7D0BA71
:10A3300070B588B00646002005900690ADF8141060
:10A34000ADF816100190029001AA05A9304690DFE1
:10A35000050021D004F0CEF90346114811493246D8
:10A36000401AC108012000EB014004460E4903F0E9
:10A3700092FDBDF8042012B9BDF8060028B1BDF861
:10A380000630204609A103F086FDBDF808201AB169
:10A390002046164903F078FD08B0284670BD00003D
:10A3A0006C57030054570300B444030054686520FD
:10A3B0007265717565737465642054582F52582006
:10A3C0007061636B6574206C656E67746820697377
:10A3D00020746F6F206C6F6E672062792025752F57
:10A3E0002575206F63746574732E000000450300AB
:10A3F00070B504460948012102F087FCBFF35F8F66
:10A400000025002808D1204602F0E0F8002803D1FA
:10A41000BFF35F8F0148056070BD00002C25002050
:10A420002DE9FF410C4620B14FF4064004B0BDE8D1
:10A43000F0812079002748F2096538B141F61D56B0
:10A4400001281BD0022826D0681DEFE702202071CA
:10A4500002970397E0680190694601A807F008FA9F
:10A4600050B102988188E18000882081BDF80010F9
:10A47000029807F07BFAD9E72846D7E70A4B6A46E5
:10A480000021A01D07F0ACF938B1074918398F61D8
:10A49000CF61A842CAD13046C8E7034881880198F5
:10A4A00007F064FAF5E70000E0260020F0B587B079
:10A4B0000C4607461646142101A8FCF7F0FFA078C9
:10A4C00000B901208DF81A002088ADF8180006A800
:10A4D0000190A079694608F01FF96D46E079691C82
:10A4E00008F01AF9E07800289DF8020002D040F048
:10A4F000080001E020F008008DF80200217911B178
:10A5000040F0100001E020F010008DF802006179A9
:10A5100011B140F0010001E020F001008DF80200CF
:10A52000217A09B1022100E0012161F342008DF896
:10A53000020002956089ADF80C00A089ADF80E000C
:10A54000E089ADF8100020690590324601A938462F
:10A55000ABDF07B0F0BD000070B500240F4D10E078
:10A56000686800EBC406307804F0ECF971780129D2
:10A5700001D0012100E000214140307800F048FA8C
:10A58000641C28788442EBDBD5E90401084303D03E
:10A59000BDE8704008F0F2BC70BD000050260020FD
:10A5A00010B50021024802F0B0FB80F3100010BD8E
:10A5B000A43900204FF480328A400168C1F8482352
:10A5C0000068C0F8082370474FF4A07202EB8101C5
:10A5D00089B200F08DBA2DE9F04105460E464FF4E0
:10A5E000A07000EB860081B228684FF48034B4403C
:10A5F000984622F07F47C0F808432868C0F84843CF
:10A60000286803F00BFE286800EB8600C0F8407550
:10A610002868C0F84443B8F1000F02D02868C0F899
:10A620000443BDE8F0810068D0F8040570470000DD
:10A6300070B54379234C44F823204279231D03EB62
:10A64000C202224C1579204A121BD4082DB10825CC
:10A65000022000EB04401EA130E005680A88C5F81E
:10A66000082590F904208978002A4FEA411104DB7B
:10A6700002F1E02282F8001405E002F00F0202F17C
:10A68000E02282F8141D90F904100122002909DB50
:10A6900001F01F0502FA05F54909890001F1E021E1
:10A6A000C1F800514179002503EBC1010A714179DC
:10A6B00043F83100032000EB04400EA103F0E0FB5F
:10A6C000284670BDBC260020E45703005457030001
:10A6D00052544320696E7374616E636520616C72BD
:10A6E0006561647920696E697469616C697A656411
:10A6F0002E0000005254433A20696E697469616CFF
:10A70000697A65642E00000090F90400002809DBD6
:10A7100000F01F02012191404009800000F1E0207B
:10A72000C0F8001270470A46022100F067B94FF4E2
:10A73000827100F0DDB90068012101607047006896
:10A740000121416070472DE9F05F07460C464FF448
:10A75000A07000EB84001FFA80FA38684FF480364E
:10A76000A6409B4622F07F45C0F848633868C0F891
:10A7700008633868D0F8048500EB8402D2F840956D
:10A78000C2F840855146386803F048FDA9EB08003F
:10A7900020F07F40012806D1102004F017F8514620
:10A7A000386803F03BFD3868D0F80485C0F844638E
:10A7B000A5EB080121F07F413868012900EB8400F6
:10A7C00010D0C0F840553868D0F804156FF07F4CB1
:10A7D0006A1A521E22F07F42ACEB0B03934217D34E
:10A7E00062B118E06D1CC0F84055102003F0EEFF78
:10A7F0003868D0F8040540450AD10CE000EB84002D
:10A800006D1CC0F840553868D0F80405884202D065
:10A810000D20BDE8F09F01223146384600F0EEF8E9
:10A820000020F6E713460A460021FFF75DBD000051
:10A830002DE9F843104D0F4680461E469146694665
:10A84000286802F0BDF9040014D01C21FCF727FE93
:10A8500001202071C4F81490380BC4F80080C4E9BA
:10A8600002606946286802F0CCF906F025FF002056
:10A87000BDE8F8830420FBE7903D030010B50378A2
:10A880000022072B06D2DFE803F00504061020297A
:10A8900030000A7010BD01230B7003898B818388FF
:10A8A000CB81C06888600A7410BD02220A700289D8
:10A8B0008A818288CA81C2688A60807D062802D027
:10A8C0000020087410BD0120FBE703220A70C28833
:10A8D0008A810289CA81C068886010BD04230B7018
:10A8E000C0888881CA818A6010BD0520087010BDAB
:10A8F00070B5064D0646002455F8241009B13046BF
:10A900008847641C042CF7D370BD0000603200201F
:10A9100030B50446006887B00D46806800281FD017
:10A9200018216846FCF7BBFD0195A06805902079C9
:10A9300010B1012810D107E001208DF80000206936
:10A940000290E068039005E002208DF80000E068C6
:10A950000003029060690490206881686846884717
:10A9600007B030BDF0B585B017460C0005463AD0AB
:10A97000112C38D0082C36D01C481D49401AC60866
:10A980000D2C11D0204603F0B5FE0246012000EB4D
:10A9900006402B46174903F07EFA2A4608216846EE
:10A9A00002F0C2F802941BE0022000EB06402A46A7
:10A9B000114903F069FA2A460421684602F0B4F806
:10A9C00027B13878C00701D0012000E002208DF8BF
:10A9D000080000208DF80C0041F20110ADF80A00CB
:10A9E000684600F0CFF805B0F0BD00009C570300AA
:10A9F00054570300244F0300144E03000368C3F8A8
:10AA00004413002A02D00068C0F804137047000005
:10AA10002DE9F84F0E463449804601EB5001C0073E
:10AA2000097801D00F0901E001F00F074FF000098C
:10AA3000424601204946FCF706FDDFF8B0A0044677
:10AA40000D46052F4ED2DFE807F003161B282C0019
:10AA5000002E47D00121404608F020F98DF80090E3
:10AA60006846FDF773FA5046D0E904120C431543CB
:10AA7000CAE9044532E00EB1022114E0002112E0DF
:10AA80004EB10321404608F009F94046BDE8F84FB1
:10AA9000012108F005BD012105E0002E22D104218D
:10AAA00001E02EB103214046BDE8F84F08F0F6B8AA
:10AAB0000021404608F0F2F80021404608F0F0FC82
:10AAC0008DF800906846FDF741FA5046E243D0E920
:10AAD00004341A4024EA0501CAE904219DF8000063
:10AAE000FDF758FABDE8F88FB0310020502600205D
:10AAF00010B5006842581AB103F090FB012010BD58
:10AB0000002010BD10B50446408801F0E7F9A08090
:10AB1000024801682046BDE810400847282500206B
:10AB200010B50446808801F0ADF8608002480168E5
:10AB30002046BDE810400847382500202DE9F041A7
:10AB400007460024064E074D05E000BF56F82410C6
:10AB500038468847641C28798442F7DBBDE8F081D9
:10AB6000943000205425002010B50446408801F0A0
:10AB7000B5F9A080024801682046BDE810400847AA
:10AB8000543C03000149096808470000D03C030019
:10AB900070B586B0044614216846FCF780FCA08995
:10ABA0000125A0F54040ADF8040020782F4E06287E
:10ABB00033D2DFE800F0320303032C4AA08900F00F
:10ABC000EDF930B9E08943F6FE71A0F540408842C6
:10ABD00023D8A07B8DF80800207803280FD0002010
:10ABE0008DF80900A0680390606850B10A208DF8C4
:10ABF000000060680490684605F0C4F80DE001208C
:10AC0000EEE709208DF800008DF81050F3E7A089D9
:10AC100000F0C4F908B1E08930B17078002801D0A3
:10AC200005F006FA06B070BD606830B10C208DF8F2
:10AC30000000606802907570DDE70B208DF8000061
:10AC4000BDF8040005F098FAF5E7606848B11520F2
:10AC50008DF80000606802904FF6FF70ADF80400B8
:10AC6000C9E714208DF80000F6E700004025002019
:10AC700038B504460F480078B0B1A4F57F40FF38DE
:10AC80000FD0684606F048FC88B10521017001210B
:10AC90000171C480684606F04DFC06F0FFFC002000
:10ACA00038BD48F2036038BD48F2016038BD48F253
:10ACB000076038BDE82600200D4808B5007888B147
:10ACC000684606F029FC80B106210170684606F04E
:10ACD00031FC0848017809B10121017306F0DEFC5E
:10ACE000002008BD48F2016008BD48F2076008BDB9
:10ACF000E826002024330020F0B587B014216846F0
:10AD0000FCF7CDFB314C207818B16846FFF7F0FD19
:10AD10005AE0201D01F0DBFFA0BB40F6F87001688F
:10AD2000481C02D14FF0102041694FF08050026959
:10AD300040694B1C01D100FB02F125480022016152
:10AD4000A1F54051C160234902F09CFB002826D1A7
:10AD500022481C238C222049006801F01EFF04F0C9
:10AD60009DFD05004FF0000615D0022D13D00127E0
:10AD7000062D16D005A806F0CFFBA8B107700C2D44
:10AD80001DD200E020E0DFE805F01A121A121A19AD
:10AD90001A191A1416142670666048F20A6007B071
:10ADA000F0BD27706660B0E748F20760F7E706710C
:10ADB00005E0032100E00221017100E0077105A810
:10ADC00006F0B8FB06F06AFC0020E8E7E826002061
:10ADD00084270020A03D030070320020083D0300BE
:10ADE00038B5040014D0694606F042FDB0B1BDF894
:10ADF000000000EB80010B4800EB8100C16851B1FD
:10AE0000A17A41B1C168491EC1600020A07238BD5D
:10AE100048F2046038BD48F2056038BD48F2096068
:10AE200038BD0000FC3200201FB501A9684606F0BD
:10AE3000D7FC04B010BD07B513460A46694600208A
:10AE400006F0CEFC0EBD07B513460A460021684643
:10AE500006F0C6FC0EBD20B119B1006808600020E4
:10AE6000704748F204607047F8B50D46040018D0EA
:10AE7000BDB1694606F0FCFCB0B1BDF800000C495C
:10AE800000EB800001EB800001210C30666801F0CE
:10AE900021FF2E6060680C3068600120A0720020E5
:10AEA000F8BD48F20460F8BD48F20960F8BD000042
:10AEB000FC32002018B10323002208F0F7BC48F24E
:10AEC000046070470223002208F0F0BC094910B565
:10AED0000A69042A0AD0084A096942F8210005488B
:10AEE0000121103001F0F6FE002010BD48F20B6089
:10AEF00010BD0000C8260020603200202DE9F84F68
:10AF0000044624480078D8B1F4B112212046FCF759
:10AF1000C6FA0320DFF880902080002504F1100895
:10AF200004F10E0A05EB850109EB81063089718970
:10AF3000084487B2706804F03BFC032807D009E09E
:10AF400048F20160BDE8F88F48F20460FAE7208813
:10AF5000401E20806088F1680844608020897189E3
:10AF600008442081608938446081C7F58060A189E8
:10AF700080B2814200D2A0815346A21D211D2846E5
:10AF8000CDF8008006F010FD6D1CADB2022DC9D3C6
:10AF90000020D7E7E8260020FC32002043F6FE71AF
:10AFA000A0F54040884201D801207047002070473A
:10AFB00010B504460078182802D1FDF72DFE207048
:10AFC00010BD10B504460078182802D1FDF724FE04
:10AFD000207010BD0AB101F06ABE01F01DBE70B54F
:10AFE0000D460446B0F81414D0F810040122FDF701
:10AFF00081FA00B1057004F13C0204F5826104F1AC
:10B00000540072DF70BD000070B513460022054683
:10B01000112900D10122074C33B12179FDF720FE1F
:10B0200000226178284600E06178BDE87040FDF7B5
:10B0300017BE0000CC250020F7B517460E0011D032
:10B040000098002560B100242146684601F024FEE6
:10B0500018B1A0B23946B0476D1C641C142CF3D350
:10B060002846FEBD0020FEBD406806F075BA00000F
:10B070000EB516A19DF8080020F00F00401C20F02E
:10B08000F00010308DF808000F2202A87CDF08B114
:10B09000FCF73AFE40F2C13078DF08B1FCF734FE2D
:10B0A0000020009001900620ADF800001821ADF8B6
:10B0B00004002B20ADF80600ADF8021068467ADFD8
:10B0C000002801D0FCF720FE0EBD00004E6F726418
:10B0D00069635F4B6579626F6172640070B510B12E
:10B0E0004FF4064070BD1C4C0025207B08B1257331
:10B0F00001E000F0A5F8207808282AD2DFE800F067
:10B100002904080C10291422BDE8704000F026B86C
:10B11000BDE8704000F082B8BDE8704000F064B84F
:10B12000BDE8704000F040B80620207060880A49F1
:10B1300000EB8000283901EB80004068BDE87040DA
:10B1400004F08CBB072020706560BDE8704004F0FF
:10B1500093BB48F20E6070BD243300201149F0B457
:10B160008A1C00200346A1F128050C18A67A4EB1CE
:10B17000A37200EB800405EB8404E66816B9247C16
:10B18000012C0AD0401C80B20228EED30B704B80F9
:10B190004B60F0BC41F61D5070471080F0BC00F0D1
:10B1A0003DB80000243300200C48418801EB8102A7
:10B1B000A0F1280101EB8201CA6852B1052101709A
:10B1C000074802218180016800230122054802F01E
:10B1D000BDB8042202704968F6E70000243300205D
:10B1E000F02600208427002038B50A4908480324A7
:10B1F0000B684268898803EB810153880470DB1C6B
:10B2000000201B0400909B0B034802F0F3F938BDAB
:10B2100024330020F026002084270020074910B5A1
:10B220004888091D06F074FB18B1BDE81040FFF70F
:10B23000DBBFBDE81040FFF7B7BF0000243300209C
:10B2400070B5194C0121207808281AD2DFE800F0E7
:10B250000419191C252929182089134A401C20810A
:10B26000002060802073283A00EB800312F823301E
:10B2700043B100232518401C80B2AB720228F3D3DF
:10B28000217070BD0123F5E76068084940888A880D
:10B29000C01C10448880022004E000F009F8062059
:10B2A00000E00720207070BD24330020F02600202D
:10B2B0000A4909484988026801EB8103074928398E
:10B2C00001EB83014B6803604A6082880A81022295
:10B2D0008280002008747047F0260020243300206C
:10B2E0002DE9F043064680883288DFF85C8185B01E
:10B2F0000746502A37D010DC5449554B06F10A0551
:10B30000A1EB03014FEAD1014FF0020303EB01442B
:10B31000352A3AD0362A07D168E0522A02D0542A78
:10B32000F9D102E001F0F6F882E0142249496846BA
:10B33000FCF79CF8ADF80270384600F0CFFDADF890
:10B34000040000F0C9F90022444698F80410384679
:10B35000FDF786FC0022E1783846FDF781FC68465F
:10B36000FFF7D0FB64E0307B012861D1B07A01287F
:10B370005ED13089A0F52451023959D101213846D6
:10B3800001F01CF908F01CF852E098F80610FDF7DF
:10B390004FFC00284CD0002298F806103846FDF7E4
:10B3A0005FFCF288B2F5857F17D012B120462AA142
:10B3B0000BE02A88012A03D0204636A102F064FD62
:10B3C0006A88012A04D0204641A102F05DFD04E014
:10B3D000A98800223846A1DF08B1002125E001221A
:10B3E00098F807103846FDF73BFC21E04FF00009C4
:10B3F00098F80710FDF71CFCD0B1002298F8071050
:10B400003846FDF72DFCF28812B1204612A104E067
:10B41000AA88012A04D020462DA102F035FD03E0C0
:10B42000A87900B1012081464946384607F09AFCC8
:10B430000022364998F80200FDF794FB05B0BDE8FC
:10B44000F04306F0C5BF000020250020545703003C
:10B4500054570300A03B0300556E65787065637414
:10B460006564204741545420737461747573207768
:10B4700068696C652067657474696E672043415222
:10B4800020636861722076616C75653A203078259A
:10B49000780000004D756C7469706C652028256417
:10B4A0002920434152206368617261637465726947
:10B4B000737469637320666F756E642C207573698D
:10B4C0006E67207468652066697273742E000000D0
:10B4D000556E6578706563746564204341522063DE
:10B4E00068617261637465726973746963207661FF
:10B4F0006C7565206C656E67746820282564292C3E
:10B500002073746F726520302E000000B580020039
:10B5100070B504460078002814D1608800F0FAFF66
:10B520006588284600F0E8F928B107480122C1786B
:10B530002846FDF795FB6088FEF798FCBDE8704053
:10B5400007F03EBF70BD00002025002070B5204CE4
:10B5500000252570FDF760FB6070FDF75DFBA070B6
:10B56000FDF75AFBE070FDF757FB2071FDF754FB28
:10B570006071FDF751FBA071FDF74EFBE071627841
:10B580000121182A18D0A278182A15D0E278182A92
:10B5900012D02279182A0FD06279182A0CD0A279F9
:10B5A000182A09D0182807D004F10C000560BFF351
:10B5B0005F8F2170002070BD0648074A801AC008BE
:10B5C00001EB0040054902F05BFC032070BD000068
:10B5D00020250020545703005457030084400300E3
:10B5E0007CB504460078092837D1607A58BB207AA8
:10B5F0001C4E4FF6FF75012811D0072802D00828ED
:10B600002BD121E0A08800F03DFB0446A84224D0C5
:10B61000012100F0D3FF2046FEF728FC1DE0A088A2
:10B620006A46012104F0D0FA68B90198007850B157
:10B63000A08800F027FBA8420FD00122F178FDF787
:10B640000FFB06F0C5FE08E0F068012805D1BFF346
:10B650005F8F044900200C310860BDE87C4007F092
:10B66000AFBE00002025002010B50B48FEF7DBFF21
:10B67000094A083AD2E90434C018D2E9063244F142
:10B680000001C31A71EB020204D24FF080728018DD
:10B6900041F1000110BD0000A026002010B5C0B28D
:10B6A000FEF7CCFB0446007803F04CF901466078C5
:10B6B000012801D0012000E0002090EA010F08D00D
:10B6C0000449D1E90401084303D1BDE8104007F063
:10B6D00055BC10BD502600201CB5054AD2E9021207
:10B6E000CDE900120022694604F034FC1CBD0000C4
:10B6F000B83B030003484FF6FF71818001210170C0
:10B7000000207047302500202DE9FC41804600F0E4
:10B71000E5FB002403250127A0F57F412646FF39DC
:10B7200008D06A46082104F04FFA18B90198841D20
:10B730008688056832462B4621464046B1DF0428FC
:10B7400004D0082804D00B2808D002E0112000E023
:10B750000020002F00D10B20BDE8FC810027A807A6
:10B7600001D50125E6E7344303D00024264603250E
:10B77000E0E7064806494246401AC008012101EBAD
:10B780000040044902F080FBE5E700005C5703003D
:10B79000545703004C4303002DE9FF47824600F055
:10B7A0009DFBA0F57F418146FF3916D03B493C4ABD
:10B7B0000127891AC90807EB014600BF3A467F1CDA
:10B7C0004FF00008BFB202AB0821484604F046FA29
:10B7D000040007D0072C5ED05EE043F2020004B004
:10B7E000BDE8F087039D03232A1DA91D50462B6049
:10B7F000B2DF040004D00C2C37D0052C38D038E050
:10B800006A460821484604F0DFF958B1052814D0EB
:10B8100002F070FF02463046534622A102F03BFB85
:10B820000320DCE70198AA888088824205D101992B
:10B83000A81D891DFBF745FE30B14A460821104678
:10B8400004F084FA044627E00821484604F074FA1C
:10B8500048B102F04FFF034630464A461F4902F006
:10B860001AFB032418E00B2416E04FF0010800E057
:10B8700000240821484604F05FFA40B102F03AFF84
:10B88000034630464A46154902F005FB0324B8F149
:10B89000000F93D100E00C242046A0E75C57030082
:10B8A000545703007064625F706565725F64617411
:10B8B000615F7074725F67657428292072657475A2
:10B8C000726E656420257320666F7220636F6E6EE2
:10B8D0005F68616E646C653A20256400CC420300A9
:10B8E00004488088A0F57F41FF3901D006F07ABD79
:10B8F00070470000302500200EB502A9019100F02C
:10B90000EDFA6A46012104F05FF908B100200EBD8E
:10B91000019800780EBD00002DE9F04107464FF672
:10B92000FF761048B3DF78B102F0E4FE02460E481D
:10B930000E49401AC008012101EB00400C4902F0F9
:10B94000A3FA0320BDE8F081064C43F20305A41ED0
:10B95000324661883846AFDFA842F3D16088401C88
:10B960006080F5E7322500205C5703005457030040
:10B9700080420300428800EB82020C328A4201D9E5
:10B98000022070478188A1F57F42FF3A06D00188E6
:10B9900021B18068401C01D0002070470120704711
:10B9A000884204D20068401C01D00120704700206A
:10B9B000704770B50C468AB0064634F8300F8DF8E3
:10B9C0002000000A8DF82100A0788DF82200E07890
:10B9D0008DF82300042520216846FBF760FD42F620
:10B9E0004A20ADF800009DF80D00ADF8045040F07D
:10B9F00002008DF80D0020798DF8110008A8ADF82F
:10BA000006500290308906F5B3726946FEF7CCFA0B
:10BA10000AB070BDF0B5344893B0002540F8225FFD
:10BA2000082145608560C560056145612E48012695
:10BA30002230022401808570C670847144710471C3
:10BA40000830032706808570C47044710471083083
:10BA5000482104808570C770047144716846FBF703
:10BA60001EFD22480090224801901F488DF8086072
:10BA700022300390083005908DF809508DF80A6047
:10BA8000083007908DF810604C20ADF8240019485C
:10BA9000089040F20110ADF830008DF832508DF86A
:10BAA00033708DF818608DF844408DF83C400E4896
:10BAB0008DF836508DF82C408DF845408DF83D407E
:10BAC0000E958DF834408DF842408DF846408DF843
:10BAD0003E4069464430FDF7E6FB002801D0FCF704
:10BAE00013F913B0F0BD0000882200207DF302009E
:10BAF000692603005424002000B585B008210346C0
:10BB000004914FF6FF7204A9684605F0EBF908B1FD
:10BB1000FCF7FAF86846049904F0C6FC002801D046
:10BB2000FCF7F2F805B000BD3EB5027802230C46E2
:10BB3000B3EB520F17D1B0F80110ADF80010C17877
:10BB40008DF802108188ADF8041080798DF8060018
:10BB500002AA01A92046FCF711F8032202A96846AF
:10BB6000FBF7AFFC08B100203EBD01203EBD000048
:10BB700070B50D460446142810D2FDF78DF868B153
:10BB8000084904EB840001EB4000D0F80210296062
:10BB9000C188A980007AA871002070BD43F202001C
:10BBA00070BD0000FC2D002070B5018890B01029F8
:10BBB00061D1011D2C226846FBF758FC9DF804005A
:10BBC0004FF6FF7603213446B1EB500F2BD004F033
:10BBD0007FF99DF804006D4640080ED001280CD076
:10BBE000022820D118E00D99281D1131FBF70EFF16
:10BBF00018B100BFBDF82C4015E00CAA0BA9072016
:10BC000004F03AF90028EED10DE00D99281D491CE9
:10BC1000FFF78AFF0028EDD10CAA0BA9072004F03A
:10BC20002BF90028F1D1BDF80000B44200EB8001EF
:10BC3000124820F8114000EB41000199C0F80210B1
:10BC4000BDF80810C1809DF80A10017213D0BDF82C
:10BC50000000ADF82E000020ADF83040084E8DF801
:10BC60002C000BAD044600BF56F824102846884728
:10BC7000641C022CF8D310B070BD0000FC2D002015
:10BC8000CC3B03002DE9F0414FF6FF760546B0426C
:10BC900013D00B4F002400BF04EB840037F81000D2
:10BCA000A84206D12046FCF7F7FF10B12046BDE8B8
:10BCB000F081641CA4B2142CEED33046F7E70000E8
:10BCC000FC2D00202DE9F043CFB00E460746082991
:10BCD00003D907204FB0BDE8F08317B30EB350204F
:10BCE0004D90E846CDF830D1B82114A8FBF7D7FB2A
:10BCF000002043AA0DF15001C0EBC00303EB001379
:10BD00000B4442F82030401C0828F5D32448254A2B
:10BD10000024801AC0080222C14602EB0045884672
:10BD200036E00022114610466FDFD3E75021684607
:10BD3000FBF7B5FB37F814004DAB4BAA072104F015
:10BD4000CFF8052810D007280ED09DF81100400824
:10BD500012D0012810D037F814202846124902F0DA
:10BD600093F843F20220B5E737F8142028460F492C
:10BD700002F08AF80520ADE7C4EBC40000EB041123
:10BD800001EB0800172209F10101FBF76FFB641CAE
:10BD9000B442CBD3F2B2002143A86FDF9AE7000090
:10BDA0006457030054570300C44303004C4403008A
:10BDB0003EB50C46054604F08BF80BE0BDF80000DC
:10BDC000A04207D02846029900F00EF810B1BDF845
:10BDD00000003EBD01AA6946072004F04DF8002886
:10BDE000ECD14FF6FF703EBD2DE9F0410C46054603
:10BDF00000F1110701F111061022491C401CFBF74C
:10BE000060FB48B9681C00F087FA28B1601C00F09C
:10BE100083FA08B1012400E0002431463846FBF7DC
:10BE2000F5FD3B780222B2EB530F0CD00321B1EBAE
:10BE3000530F08D03378B2EB530F04D0B1EB530F4C
:10BE400001D0012100E00021084201D18C4302D041
:10BE50000120BDE8F0810020FBE7018811B94218FC
:10BE600092780AB101207047491C0829F7D30020B5
:10BE7000704710B50C460346FFF7EFFF00280AD0C5
:10BE800018882188884205D10822A11C981CFBF73C
:10BE900018FB08B1002010BD012010BD142804D2E9
:10BEA000024A00EB800022F810107047FC2D0020A1
:10BEB00070B50546FFF7E6FE0446284603F088FE07
:10BEC000002808D1142C06D2034B04EB84024FF651
:10BED000FF7123F8121070BDFC2D002010B5044630
:10BEE000142808D2FCF7D8FE28B1044904EB8400DA
:10BEF00031F8100010BD4FF6FF7010BDFC2D002072
:10BF00003EB5044603F0E4FF0EE0019920464631B9
:10BF1000FFF7AFFF28B9019920462A31FFF7A9FFA3
:10BF200010B1BDF808003EBD6A4602A9072003F023
:10BF3000A3FF0028E9D14FF6FF703EBD7CB5144643
:10BF40000A000A49097802D015688D4203D323B14B
:10BF50001D688D4201D204207CBDCDE9004313460B
:10BF60000246034804F084F97CBD00003C25002013
:10BF7000C42E002070B50C4606469AB01021184811
:10BF8000FBF78DFA174800252EB324B30470620026
:10BF900031461348FBF76AFA382102A81895FBF7D7
:10BFA0007EFA009518AB02AA21463046019504F0AE
:10BFB0005FF900280DD110AA0DF10801C0EBC003F4
:10BFC0000B4442F82030401C0828F7D3E1B2104659
:10BFD0006EDF1AB070BD0570002108466EDFF8E70D
:10BFE000C42E00203C25002010B50A4941600A48B3
:10BFF00000F06DFE58B902F0DDFA07491C238C22CF
:10C00000087404488C39001F006800F0C6FD002049
:10C0100010BD0000943D0300D03300202DE9F04115
:10C020002C4D002420B16C604FF40640BDE8F08137
:10C030000879012250B1284B01280BD0254A02264D
:10C040000832022821D0032829D12CE00A7103F0FC
:10C0500013FC22E05FF0000000EB800113F82110D8
:10C06000022908D0401C80B20228F5D32A706C60E7
:10C0700041F61D50DAE700EB800003F8204003EBA7
:10C080008000406803F0EAFB07E00C7196801168BD
:10C0900000230122114801F059F90028C6D06C6034
:10C0A00048F20D60C2E70C480C71283041881068D6
:10C0B00001EB810703EB8701D1F804C0C2F800C08F
:10C0C0004860B2F804C0A1F808C0968003F8274081
:10C0D000D8E70000E8260020FC320020842700205A
:10C0E000FEB50646887A0D4670B3E86860B3002452
:10C0F00027E0E86800EBC403002002909DF80800E8
:10C1000040F002008DF80800597911B140F00800A4
:10C1100001E020F0080040F010008DF8080004EB6A
:10C12000840006EB4000191D1430CDE9001033F8EF
:10C13000022B02A9304605F083FC002805D1641CBF
:10C14000E4B2A87AA042D4D80020FEBD014603483C
:10C1500002888A4200D0002070470000502D002045
:10C160002DE9FC5F0E008346DDE90C47C6F10000B7
:10C1700098469246814600D40846012503E000BF58
:10C1800090FBFAF06D1C5045FADAA84500D94546F7
:10C1900024B1002E01DB780700D5641EB80702D554
:10C1A000B8F1000F0AD0F80708D13CB1A54205D27A
:10C1B00020215846641EFDF7B9FDF6E7002E02DA8D
:10C1C0004E462D2102E0780703D52B215846FDF776
:10C1D000ADFD07F0030002280BD1B8F1000F08D124
:10C1E0003CB1A54205D230215846641EFDF79EFDA4
:10C1F000F6E7CDE90047434652463146584607F038
:10C2000085F8BDE8FC9F000070B50D460446006847
:10C210004FF4887102F08EFA4FF49071206802F0AA
:10C2200089FA4FF49271206802F084FA4FF4A271F7
:10C23000206802F07FFA4FF4AC71206802F07AFABD
:10C2400020681249C0F804132068690740F30730DA
:10C25000090E002804DB00F1E02080F8001405E05E
:10C2600000F00F0000F1E02080F8141D206840F37A
:10C270000730002809DB00F01F020121914040092E
:10C28000800000F1E020C0F8001170BD10034200F2
:10C29000024600201268530713D502F0030001285C
:10C2A00002D002280CD105E0C2F383100B68801C79
:10C2B000184404E00223086803EB9252104408601B
:10C2C000012070470248007A002800D00120704702
:10C2D000D0330020F0B58488A518944200D82246B7
:10C2E000A41AC288D6189A4200D81346D21A4B888C
:10C2F0000788BB420CD34088834209D88888A04273
:10C3000006D3A84204D8C888904201D3B04201D9CC
:10C310000020F0BD0120F0BD0021425C0AB10120E7
:10C320007047491C1029F8D300207047800701D0BE
:10C3300000207047012070477CB5044601A800909A
:10C340000D46002322460E4805F086FF13280CD028
:10C35000002809D0082807D0112805D043F2014150
:10C36000884201D0FBF7D0FC7CBDBDF80430A3426D
:10C37000FAD8224629460248FDF72CFD7CBD000074
:10C38000CC2200200A4810B5807860B1002401E07A
:10C39000022C06D02046FDF721FA641C042CF7D3AA
:10C3A00010BD0324F6E7BDE81040FDF73BBA0000DE
:10C3B000A024002003480179C90702D00078FDF7C6
:10C3C00083BB7047A02400201721018041800021F9
:10C3D000017141711B218171C17170472DE9FE4FBF
:10C3E0002E4F984692460D00814601D000260DE062
:10C3F000684600F08FFB6A460021484603F040FB88
:10C400003878009E10B99DF8090098B1524631461F
:10C41000484606F05BFB0446014600224846FEF70C
:10C42000F3FD0D2C37D008DCA4B3082C33D00B2C33
:10C4300009D130E00520BDE8FE8F112C1ED0A4F5F7
:10C440004050023827D0204602F054F902461448E2
:10C4500014494B46401AC008012101EB0040124923
:10C4600001F019FD5FF00305B8F1000F04D032466A
:10C4700021464846FEF776FA2846DCE72A46F97850
:10C480004846FCF7EDFB5246B9784846FCF7E8FB16
:10C490000025E9E7FFE72546E6E70000CC25002078
:10C4A0009C57030054570300CC4E030070B50E4652
:10C4B0000C49154604460978FCF7BAFB00280FD052
:10C4C000204603F083FA00282A463146204603D04E
:10C4D000BDE8704003F080BABDE87040FEF7A2B935
:10C4E00070BD0000C425002070B5094D0646A9782E
:10C4F000FCF79EFB0446E9783046FCF799FB0146C1
:10C5000022463046BDE870400123FFF767BF0000B8
:10C51000CC250020F0B585B00546002714216846DB
:10C52000FAF7BDFFA5F57F40ADF80250FF3825D0E2
:10C530002846FFF7E9F8040022D01B481B49401A9F
:10C54000C6080B2C22D0112C1ED0A4F54050023866
:10C550000ED0204602F0CEF80246012000EB064045
:10C560002B46134901F097FC2146284605F0B4FEFE
:10C5700010483A4681782846FCF772FB05B0F0BDBA
:10C580000F208DF800000BE00127F1E710208DF857
:10C590000000022000EB06402A46074901F074FC27
:10C5A0006846FEF7AFFAE3E7545703005457030019
:10C5B0005441030020250020A84103000A460249F7
:10C5C0004978FCF74DBB0000202500202DE9F04103
:10C5D000002786B080463E46FFF7DEF804461F4837
:10C5E0001F49401AC508112C23D003DCFCB10B2CC9
:10C5F00006D114E0862C1ED0A4F5405002380ED08F
:10C60000204602F077F80246012000EB0540434641
:10C6100014A101F040FC2146404605F05DFE39467C
:10C620004046FFF7CBFF06B03046BDE8F08101265B
:10C63000F5E70127F3E714221A496846FAF716FFCF
:10C640000220ADF8028000EB0540424616A101F041
:10C650001BFC6846FEF756FAE1E70000545703005A
:10C66000545703006773636D5F6C6F63616C5F6445
:10C67000625F63616368655F7570646174652829D2
:10C680002072657475726E656420257320666F7202
:10C6900020636F6E6E5F68616E646C653A2025641E
:10C6A00000000000783B0300466C617368206675EB
:10C6B0006C6C2E20436F756C64206E6F74207374E5
:10C6C0006F7265206461746120666F7220636F6EA3
:10C6D0006E5F68616E646C653A202564000000003E
:10C6E000704700002DE9FF410026244800F0ECFAD5
:10C6F0002248001F074600F0E7FA214C2149A068B4
:10C7000000900D6800E000986946284004EB800026
:10C710000C30FFF7BDFD0028F5D101AA009901EA10
:10C72000050304EB8303491CDB6842F82030401CFE
:10C7300000910228F2D3019800F0030001280BD0E9
:10C74000022810D10198032101EB90500099BDF807
:10C750000A6001EB900005E00198BDF80A60C0F3A3
:10C76000831008440090384600F0ABFA08B10098F6
:10C77000A06004B03046BDE8F0810000A039002080
:10C78000883500202827002088B04FF48041002001
:10C7900001F0F4FB08B1FBF7B7FA01F047FAFBF739
:10C7A0005BFB08B1FBF7B0FA544A01215448FBF790
:10C7B00043FB08B1FBF7A8FA52490320FDF73AF909
:10C7C00008B1FBF7A1FA69460020FDF74FF808B160
:10C7D000FBF79AFA9DF8000002287DD05FF0000573
:10C7E00001F0D6FC08B1FBF78FFA01F097FE08B113
:10C7F000FBF78AFA002469460120009401F01EFD2F
:10C8000008B1FBF781FA684601F098FD08B1FBF723
:10C810007BFA3D4A0A210820FBF7F2FA08B1FBF740
:10C8200073FAFEF725FC38480021C43000F0D8FA2E
:10C8300008B1FBF769FAFBF731F905F017FF334848
:10C840005121016064214160012181600173014631
:10C850002F4805F085FD1C216846FAF720FE4FF4AD
:10C86000A030CDE900404FF4F020032602908DF86F
:10C870000C602848ADF80E408DF81040CDE9054019
:10C880006846FCF71BF908B1FBF73EFA1F48103069
:10C890005FF0000180F83C4080F83D4080F83E4069
:10C8A00001EB410200EB8202491C54600529F7D3D9
:10C8B00003F0A8FC18481949401AC00806EB0040CC
:10C8C00017A101F0DDFA0E4800224FF40041006884
:10C8D000FBF7F0FA18B100E00DE0FBF715FA284677
:10C8E000FBF720F9FBF76CFA01F0AEF90028F9D15B
:10C8F00001F062FCF6E7012572E70000D982020030
:10C90000103B03006199020098270020B02C002002
:10C91000C42200209BA202000458030054570300C5
:10C92000484944204B6579626F6172642065786183
:10C930006D706C6520737461727465642E00000004
:10C94000002360F30F03184661F3174062F31F6082
:10C95000704770B5144682880E4605462088111D22
:10C960000144921C994201D8FE2A01D90C2070BDC5
:10C97000521C32542088FF21401C80B22080315448
:10C980002088401C80B220808119288806F0A9FCEC
:10C990002188084480B22080AA8842B1A96841B1A8
:10C9A0003044FAF763FD2088A988084420800020DD
:10C9B00070BD072070BD2DE9F047C5881E1DB6FB70
:10C9C000F5F78946B6FBF5F1044605FB176C40798F
:10C9D00016686843DDF820A0F718001F874200D9C9
:10C9E000C61A166001E02468491E0029FBD1A5EB98
:10C9F0000C078846B74216D818E004EB0C00001D5F
:10CA000009EB0803BAF1000F3A4602D00146184676
:10CA100000E01946FAF72AFD2468F61B4FF0000CD7
:10CA2000B844B54201D9374600E02F46002EE4D184
:10CA3000BDE8F08730B5024651B101F0B3FA0021EC
:10CA4000074C08E034F821301568AB4202D1116080
:10CA5000002030BD491C8142F4D3052030BD0000C8
:10CA600000000000BFF35F8F00F016B9F8B50F4665
:10CA7000017814460546012901D1687830B1208833
:10CA8000821C9A4232D8012902D006E00720F8BD64
:10CA900069780144891C994228D8181A801E86B2E8
:10CAA000ADF800602188B81C084469467DDF002885
:10CAB000EDD12978022904D06878BDF80020904291
:10CAC00005D3BDF80000B04201D809200AE00820D3
:10CAD000012905D16978B14202D8ADF8001001E012
