:020000021000EC
:1090000000600020A59301005D9301005F930100C3
:10901000619301006393010065930100000000006B
:109020000000000000000000000000006793010045
:1090300069930100000000006B9301006D93010033
:1090400051BC01006F93010055C001006F930100F6
:109050006F9301000000000009BF01006F93010041
:109060006F9301006F9301006F9301006F930100F4
:109070006F9301006F9301006F9301006F930100E4
:109080006F930100819F01006F9301006F930100B6
:109090006F9301006F930100192002006F9301008C
:1090A0006F9301006F9301000000000000000000BA
:1090B0006F9301006F9301000000000000000000AA
:1090C00000000000000000000000000000000000A0
:1090D0000000000000000000000000000000000090
:1090E0000000000000000000000000000000000080
:1090F0000000000000000000000000000000000070
:10910000000000000000000000000000000000005F
:10911000000000000000000000000000000000004F
:10912000000000000000000000000000000000003F
:10913000000000000000000000000000000000002F
:10914000000000000000000000000000000000001F
:10915000000000000000000000000000000000000F
:1091600000000000000000000000000000000000FF
:1091700000000000000000000000000000000000EF
:1091800000000000000000000000000000000000DF
:1091900000000000000000000000000000000000CF
:1091A00000000000000000000000000000000000BF
:1091B00000000000000000000000000000000000AF
:1091C000000000000000000000000000000000009F
:1091D000000000000000000000000000000000008F
:1091E000000000000000000000000000000000007F
:1091F000000000000000000000000000000000006F
:10920000354936480A1A02D0072291438D4634491F
:1092100034480A1A06D00722914381F309880222B2
:1092200082F3148830483149314A00F044F831481B
:109230003149324A00F03FF831483249324A00F0B1
:109240003AF832483249334A00F035F83248334967
:10925000334A00F030F833483349344A00F02BF8F1
:1092600033483449344A00F026F83448344900225F
:1092700000F02CF833483449002200F027F8334836
:109280003349091A082902DB002202604160314A91
:1092900090471F481F49884205D00268043003B434
:1092A000904703BCF7E700208646EC4600200021EB
:1092B000294A9047FEE7884207D0521A05D0037822
:1092C00001300B700131013AF9D17047884202D068
:1092D00002700130FAE7704700600020005800205B
:1092E0000060002000600020B0250200541A002019
:1092F000221D0020EC930100EC930100CC2302001E
:10930000B0250200541A0020541A002068240200DC
:109310006824020068240200682402006824020015
:10932000682402006824020068240200B0250200BC
:1093300080280200241D0020241D0020241D002060
:109340006A2700206C2700206C2700206C27002053
:109350006C2F0020BB93010011CB0100FEE7FEE75C
:10936000FEE7FEE7FEE7FEE7FEE7FEE7FEE7FEE7D5
:1093700009480068094909680A280AD1002908D162
:10938000074802686FF070031A404FF040031A4319
:10939000026000F009B80000300100103401001034
:1093A000E40E0040FFF7E4BF0B484FF0070188438D
:1093B00085460A488047FFF723BF094809490A4AFA
:1093C000884207D0521A05D0037801300B70013162
:1093D000013AF9D17047000000600020B1B60100E9
:0C93E00054240200401A0020541A0020FF
:1093EC00C30710B507D4F023054A4008145C23408A
:1093FC001943115410BD0901C9B20F23F4E700BF82
:10940C00381D002030B5094B1C78094B02461968F1
:10941C0000239C4201DC002030BD11F833509542F2
:10942C0001EBC300F8D00133F3E700BF241D00208B
:10943C00481D002070B504460D46FFF7E3FF30B120
:10944C00436823B129462046BDE87040184770BDDB
:10945C00034B044819680022490800F0FDBA00BF0C
:10946C00281D0020581A002010B5C0B2FFF7CAFF03
:10947C000446007802F038FD63785A1E534253417B
:10948C00834208D1044BD3E90023134303D1BDE835
:10949C001040FFF7DDBF10BD301D002037B543086D
:1094AC00374AD35CC2074CBF1B0903F00F030446B9
:1094BC000D46042B25D8DFE803F003262F3C400093
:1094CC00F9B10121FFF78CFF00230DF107008DF896
:1094DC00073000F0FBFB0120A4F12003C4F12001B4
:1094EC00284A20FA01F100FA03F30B43A040D2E919
:1094FC00004120430B43C2E900039DF8070000F034
:10950C0009FC03B030BD002918BF0221204603B06E
:10951C00BDE83040FFF764BF49B10321FFF760FF9E
:10952C000121204603B0BDE83040FFF783BF012185
:10953C00ECE70029E5D10421E8E709B10321E5E7CF
:10954C00FFF74EFF29462046FFF774FF0DF1070089
:10955C008DF8075000F0BAFB0120A4F12003C4F1F0
:10956C002001084A20FA01F100FA03F30B43A04052
:10957C00D2E9004124EA000021EA0303BBE700BF63
:10958C00381D0020301D00202DE9F041124E134FE4
:10959C0000243378A34208DC114BD3E90023134396
:1095AC0018D0BDE8F041FFF753BF3D6805EBC40888
:1095BC0015F8340002F098FC98F801305A1E53420A
:1095CC005341181A4142414115F83400FFF766FF28
:1095DC000134DEE7BDE8F081241D0020481D002089
:1095EC00301D0020092AF7B505460C4616463ED913
:1095FC0002F0B2FBE8B11F4B1F481D601F4B204F00
:10960C001C70204B002110221E6008F075FE1E4BB2
:10961C0000200021C3E90001013CE4B20326FF2C29
:10962C000DD11A4A1A48002103B0BDE8F04000F0F1
:10963C0001BA02F059FB0028DDD003B0F0BD9DF853
:10964C00063015F834008DF8046005EBC40223F0E5
:10965C0007038DF8063001A993788DF805303A464A
:10966C0002F084FB013CE4B20028D8D0E5E70720E7
:10967C00E3E700BF481D0020381D0020241D0020FA
:10968C0075940100281D0020301D002095950100C7
:10969C006824020070B5084D084E00242B789C42BB
:1096AC0001D3002070BD3368012113F8340002F09F
:1096BC00D5FB0134F2E700BF241D0020481D00201B
:1096CC001FB50021039001AA44F20100CDE901115C
:1096DC0000F004F805B05DF804FB000072B6094B0D
:1096EC00D3F8F020D20700D500BEBFF34F8FD96856
:1096FC00054A01F4E0610A43DA60BFF34F8F00BF03
:10970C00FDE700BF00ED00E00400FA054B1C30B58E
:10971C00DB00044612F003009BB20DD1074D2A600A
:10972C001A44074B1A60074B1870074B1870074BFD
:10973C001C80074B198030BD0720FCE7541D00200E
:10974C00501D00204C1D00205C1D0020581D0020C9
:10975C005A1D00202DE9F743DFF8A880B8F8003037
:10976C008B4206460D46174647D300240DF10700E1
:10977C008DF8074000F0AAFA234B244A24481B78A2
:10978C00008892F800C084455FFA8CF138BF4C1CFD
:10979C00DBB238BFE4B2A34228D014781178CBB234
:1097AC00884286BF0133DBB2002313709DF807009B
:1097BC0000F0B0FA4FF6FF739C4220D0154B1B689B
:1097CC0043F8347003EBC4099EB195B1124BB8F851
:1097DC0000001B682A46314604FB003008F063FD8C
:1097EC00A9F80450002003B0BDE8F0834FF6FF74D5
:1097FC00DCE70020A9F80400F5E70920F3E70420D2
:10980C00F1E700BF581D00205C1D00204C1D0020FE
:10981C005A1D0020541D0020501D002070B5104C06
:10982C00104D22782B789A4200D170BD0E480F4A09
:10983C002378126806880E4802EBC301006852F8C0
:10984C003320898803FB060090470A49227809884F
:10985C00D3B2914286BF0133DBB200232370E0E721
:10986C005C1D00204C1D0020581D0020541D0020A4
:10987C00501D00205A1D002010B5D0E90243D1E93B
:10988C000202A04272EB03032CBF0120002010BD8A
:10989C00D0E900301847000008B50A4800F053FB27
:1098AC00094AD2E90031C018084BD3E9002341F131
:1098BC000001904271EB030303D210F1807041F16F
:1098CC00000108BD781A0020681D0020E01D002052
:1098DC0037B505460C460A4801A901F0F4FA60B107
:1098EC000570446001A9064801F017FB18B1054842
:1098FC0000F02EFB002003B030BD0420FBE700BFBE
:10990C00CC1D0020781A00207FB52E4B1D78044604
:10991C001DB90025284604B070BD0028F9D0FFF70A
:10992C00BBFFD4E902239042994143D3002302A800
:10993C008DF8083000F0CAF923692BB94FF0FF32CB
:10994C004FF0FF33C4E902239DF8080000F0E2F960
:10995C00636902930821A3691B4A03930DEB010071
:10996C00FFF7F8FE08B1FFF7ABFE00260DF107007C
:10997C008DF8076000F0AAF92369BBB1D4E9021293
:10998C00B2F1FF3F08BFB1F1FF3F11D05B1842F1BC
:10999C000002C4E902329DF8070000F0BBF9002D6B
:1099AC00B8D00A48214601F0D5FDB3E71D46F2E7D1
:1099BC003546F0E7B3F1FF3F08BFB2F1FF3FA8D047
:1099CC00EFE700BF701D00209D980100702402007D
:1099DC0013B5114B114918680190082310485822EF
:1099EC0001F03CFA044698B90E4A0F4801A900F060
:1099FC00B3F9044660B90C48012100F087FA012341
:109A0C000A4A0948194600F0E9F9094B01221A7073
:109A1C00204602B010BD00BF6C240200741D002053
:109A2C00CC1D00201D9B0100781A0020FFFF7F0039
:109A3C00701D002030B56AB103684FF0FF344FF051
:109A4C00FF355A614A1E5142C3E902455141196121
:109A5C00002030BD0720FCE7F7B5044600250DF1CA
:109A6C00070017460E468DF8075000F02FF9D4E981
:109A7C000223B3F1FF3F08BFB2F1FF3F07D1FFF75D
:109A8C000BFF301841F10001C4E9020101259DF8DA
:109A9C00070000F03FF955B12369A76103B12661B6
:109AAC002146002003B0BDE8F040FFF711BF284667
:109ABC0003B0F0BD37B5054600240DF107008DF855
:109ACC00074000F003F9D5E90223B3F1FF3F08BFCB
:109ADC00B2F1FF3F06D04FF0FF324FF0FF33C5E934
:109AEC00022301249DF8070000F014F934B1294633
:109AFC00012003B0BDE83040FFF7EABE204603B0BA
:109B0C0030BD0000014800F01EBA00BF781A0020DA
:109B1C002DE9F743064600F001FA40B1634AD2E959
:109B2C00003113F1807341F10001C2E900310021D1
:109B3C00304600F002FA38B15D4C236823B120683E
:109B4C00FFF7E2FE002323600121304600F0F5F917
:109B5C0020B1FFF7A1FE574BC3E900015648544F03
:109B6C0001A901F0EAF94FF0FF344FF0FF35A0B92D
:109B7C00DFF848814E4D404601F002FD002800F010
:109B8C008680D0E90223B3F1FF3F08BFB2F1FF3F5B
:109B9C0033D1404601F0EEFCEDE70378012B21D0E8
:109BAC00022B09D1DFF81481404601F0E3FC0028B8
:109BBC0077D0C0E90245F7E75BB94168D1E90223E8
:109BCC00B3F1FF3F08BFB2F1FF3F02D03B4801F0B9
:109BDC00C1FC01A9384801F0DBF901A9364801F0B4
:109BEC00ACF9C4E741683B68994202D100233B6061
:109BFC00EFE7324801F0C7FCEBE7296891B129681F
:109C0C00D1E9020182428B412FD22B68D3E9022386
:109C1C00B3F1FF3F08BFB2F1FF3F03D029684046C4
:109C2C0001F098FC404601F0A5FCD0E9024907463A
:109C3C00FFF732FE201A69EB0109012879F10003C4
:109C4C0018DBB0F5350F13D3FFF75CFF1C4A024449
:109C5C001C484FF49603002100F0E0F890B92B68F3
:109C6C0013B9304600F0B2F82F6003B0BDE8F083B2
:109C7C002246EDE71348002100F055F93846FFF76E
:109C8C0043FE01E00D28F9D000232B6073E7084B4D
:109C9C001B68002BE9D1304603B0BDE8F04300F05F
:109CAC0099B8094B01221A7093E700BF681D002078
:109CBC00E81D0020E01D0020CC1D002070240200B7
:109CCC00FFFFB400781A0020701D002070B5EFF370
:109CDC00108672B60C4A946801239CB993600B4BA6
:109CEC000B4DD3F8801029401160C3F88050D3F885
:109CFC00841051604FF0FF32C3F88420047006B911
:109D0C0062B670BD0370FAE7EC1D002000E100E0C4
:109D1C00FC06FFBD084B9A6810B55AB150B9EFF369
:109D2C00108172B6054A1C6814605C6854609860B7
:109D3C0001B962B610BD00BFEC1D002000E100E0CF
:109D4C000346405882B028B100225A505B58019308
:109D5C00019B012002B0704770B5184C4379184D27
:109D6C0044F8232005EBC3031B792BBB03680A883B
:109D7C00C3F8082590F904408B7802795B01002C1C
:109D8C00DBB214DB0F490E1986F80033012364098A
:109D9C0002F01F0203FA02F241F82420437905EB8A
:109DAC00C302012145F833001171002070BD064932
:109DBC0002F00F028B54F1E70820F7E7001E002099
:109DCC00F81D002000E100E014ED00E00368012222
:109DDC001A607047036801225A60704773B501F12D
:109DEC005005AD000068ADB24FF480348C400026B5
:109DFC00C0F80843C0F84843465101F5A8714559CD
:109E0C00019522F07F42019D40F82120C0F8444387
:109E1C000BB1C0F8044302B070BD00002DE9F74F40
:109E2C000D4622F07F4402684FF4803705F150064E
:109E3C008F408046B60002EB8500C2F84873B6B27C
:109E4C00C2F80873D2F8041599464FF0000BD0F8FD
:109E5C004035C0F8401542F806B05B1A9259009292
:109E6C0023F07F43012B009A4FEA850A0CD1264B35
:109E7C004FF4806043F001039847D8F8003043F862
:109E8C0006B09B590193019BD8F80010D1F80465DA
:109E9C00C1F84473A31B23F07F43012B1CD11A4B35
:109EAC0005F5A875013443F0010341F825404FF442
:109EBC0080609847D8F80030D3F804359E4209D119
:109ECC00D8F800300020C3F84473C3F8047303B00F
:109EDC00BDE8F08F0D20FAE78A44C9F1FF13CAF8E8
:109EEC004045D1F80405221A013A22F07F4203F5CD
:109EFC007F439342EED3002AE2D10134CAF84045A5
:109F0C00D1F804359842DAE7802402000368022273
:109F1C00C3F8442309B1C3F80423704700684FF415
:109F2C008271FFF70DBF4FF4803303FA01F1036820
:109F3C00C3F84813C3F80813704750318900006800
:109F4C0089B2FFF7FDBE0368D3F804057047000023
:109F5C0090F90430002B09DB5A09012103F01F038F
:109F6C0001FA03F34032024941F82230704700BF36
:109F7C0000E100E0024B034A1B681068184700BF61
:109F8C00001E0020F81D002070B5064E054600246A
:109F9C0056F8043B0BB1284698470134042CF7D1F2
:109FAC0070BD00BF101E00204388033300EB8303F9
:109FBC0099420BD382884FF6FF739A4208D00388DC
:109FCC0033B18068431C5842584170470220704797
:109FDC0001207047033080B240F2FE33984230B516
:109FEC001FD8134B1A783AB91C895D892C44044448
:109FFC00A4B2B4F5806F0AD91A7DAAB99A8BDC8BFE
:10A00C002244024492B2B2F5806F0DD801220A802C
:10A01C001446142202FB04335A8910445881002040
:10A02C0030BD48F20860FBE748F20660F8E700BF75
:10A03C00441E00200B4A0C495388142000FB0311CA
:10A04C00CB6833B90420496810700122074801F02D
:10A05C0096B807490523137002238B8001220968E7
:10A06C000023F3E7281E0020441E0020401A002085
:10A07C000C1F002007B5002305490093054A096809
:10A08C000548082301F04DF803B05DF804FB00BF50
:10A09C000C1F002094240200401A002007B5002356
:10A0AC0001460093034A0448082301F03AF803B030
:10A0BC005DF804FB8C240200401A002013B5002329
:10A0CC000C4600930146084A0848042301F029F87D
:10A0DC0038B9074B142101FB043101230B7402B076
:10A0EC0010BD48F20D60FAE788240200401A0020E7
:10A0FC00441E002037B50A480A4B42689C881968F0
:10A10C0053880325033305709BB2002000909B00FD
:10A11C0001EB8401044801F004F803B030BD00BF2A
:10A12C00281E00200C1F0020401A002010B50146EC
:10A13C00044800F0C8FE1C220446002108F0DCF89C
:10A14C00204610BDF81E002068B10268084B9A42E8
:10A15C0009D14068074B984207D00133984214BF8D
:10A16C00032001207047032070470020704700BF78
:10A17C00DEC0ADDEFE011EF12DE9F0410D460223DD
:10A18C00154F2B80164600F5805100F108044FF056
:10A19C0001088C420ED2236801330BD02046FFF706
:10A1AC0003FF48B10EB186F80080022809D14FF4A4
:10A1BC0080632B80BDE8F081A3683A68934200D994
:10A1CC003B602B886288033313442B8063880333F2
:10A1DC0004EB8304DDE700BF3C1E002038B5144BB4
:10A1EC0014220D4602FB00335C682B6804F5805189
:10A1FC00A3B15C88033403EB84048C4215D223682E
:10A20C00013312D02046FFF7CFFE012808D00228D8
:10A21C000BD00028F1D12C60012038BD0834ECE7BC
:10A22C006388033304EB8304E7E70020F5E700BF02
:10A23C00441E0020426873B504460D466AB3234B96
:10A24C00D9688A4229D31B699A4226D812F0030393
:10A25C0023D11F490089098988421ED12068916841
:10A26C0088421AD11B4841688A4203D901F58051B2
:10A27C008A420DD381698A420CD901F580518A42F8
:10A28C0008D201222A80B3FA83F0400902B070BDD3
:10A29C001A46F7E748F20963F5E700262E80019687
:10A2AC00288801A9FFF79AFF30B92B8801339BB29C
:10A2BC00012B2B80F3D9E9E7019B22689968914225
:10A2CC00EED16360024B1B892381DFE7401A00202B
:10A2DC00281E0020441E00202DE9F8431C461D4B6F
:10A2EC001B7806460F46154673B382B37CB3DFF872
:10A2FC0068804FF01409A388012B02D948F2096039
:10A30C0020E009FB03F318F803302BB9A088214691
:10A31C00FFF764FF20B92060A3880133A380EAE72C
:10A32C0023681EB1998832889142EFD11FB11988E8
:10A33C003A889142EAD19A68C5E90023074B1B89F8
:10A34C002B810020BDE8F88348F20160FAE748F25F
:10A35C000460F7E7201E0020441E0020281E002069
:10A36C0008B5074B5888191DFFF738FF18B1BDE821
:10A37C000840FFF7BFBEBDE80840FFF75BBE00BF5B
:10A38C00281E00202DE9F0479F4FDFF8808288B00F
:10A39C0006463B6823B99E48414600F0CEFD386026
:10A3AC003D6829784B1E052B07D8DFE813F02000F9
:10A3BC0074007400060106015D0148F20E6414225B
:10A3CC00002103A807F098FF41F61D539C4208BFDB
:10A3DC0000243B6804941A78023A042A00F2FC81A7
:10A3EC00DFE812F0DD01E9010B0213021A022EB1B3
:10A3FC00884B00225A604FF40644E0E72B79032B7C
:10A40C001CD8DFE803F014022A35834A1378022B98
:10A41C001AD0137D022B4FF0010317D114214B439B
:10A42C00D1180020D0544868FFF738FE03E0012310
:10A43C002B71FFF71FFE002800F0B980754B00222E
:10A44C005A6048F20D64BAE70023E7E7714A1370CB
:10A45C000023536041F61D54B1E770497048002346
:10A46C0002222B718A800968012200F088FEE2E743
:10A47C006C4B694C5B88694A14214B43E1180026EC
:10A48C002E714D6810681560958848600D81022109
:10A49C00E6549180C8E7B5F814A0AA7DDFF878914E
:10A4AC00AEB1022AEB8806D9142101FB0A91DA1C01
:10A4BC00088902440A81142202FB0A99C3F57F43DE
:10A4CC00B9F80A20FD331344A9F80A3093E7142392
:10A4DC0003FB0A9318895C6804EB8004062A69D88C
:10A4EC00DFE802F0274E36441D5A040041F61D5495
:10A4FC00AA7DEB88022A06D9142101FB0A91DA1CE9
:10A50C00088902440A81142202FB0A99C3F57F438D
:10A51C00B9F80A20FD331344A9F80A304FE7424832
:10A52C00424900234360AB690360FFF783FE0028B8
:10A53C005BD00223AB75002300930423EA18214659
:10A54C00374800F0EEFD002831D048F20D64CFE71B
:10A55C002B69002B14BF03230123AB75002300933D
:10A56C0005F10C02042304F10801E9E70123AB75A2
:10A57C000022EB8800922A699B0004F10C01DFE7B2
:10A58C0003290CBF05230623AB750023009304237A
:10A59C0005F10802E118D3E70623AB75234B1988A4
:10A5AC00214B5868FFF78AFD04460028A0D108B05B
:10A5BC00BDE8F08748F20E649AE7002E7FF41BAFDB
:10A5CC002B79012B34D0022B3FF444AF002B7FF4BA
:10A5DC00F4AE02232B710DF10A01EB68039303A86F
:10A5EC00CDE90466FFF726FE10B948F20964E6E6E9
:10A5FC000498BDF80A108388EB8003882B81FFF741
:10A60C005DFD044629E000BF401E0020381E0020DE
:10A61C00F81E0020201E0020441E00200C1F0020CD
:10A62C00401A0020281E0020041E0020181F0020A5
:10A63C00DFF8EC9103AA4B463146A81DFFF74CFE00
:10A64C00044670B9B9F804100498FFF737FD0446B6
:10A65C0048F209639C423FF4FDAE002C7FF4AFAE90
:10A66C00A5E7C9E90066F3E7002E7FF4C4AE6D4B95
:10A67C001A7BBAB11E731A78013A062A3FF69DAEC0
:10A68C0001A151F822F000BF3FA7010065A701000E
:10A69C0083A7010089A70100C7A301008FA70100B0
:10A6AC00A1A701001A78072AE5D801A151F822F0D8
:10A6BC00DDA6010083A6010083A6010003A701000B
:10A6CC0017A701003BA701003BA70100FFA6010053
:10A6DC001A89554901321A8100225A801A730A7854
:10A6EC00B2FA82F252099A720A7DB2FA82F25209D5
:10A6FC00DA72012207E04D4958688A884088033293
:10A70C0002448A8002221A70B5E75C88464A47499F
:10A71C00142505FB04220868546850608888108151
:10A72C0002200C608880002111740622EBE70722BE
:10A73C00E9E79A7A32B9DA7A8AB900221A705A8021
:10A74C005A6087E6384900229A72CA68002AF2D108
:10A75C00097C0029EFD05A80FFF702FE51E7002256
:10A76C00DA72314A116A0029E7D192F82420002AC2
:10A77C00E3D00122EFE7FFF7BDFC42E7FFF75AFCFD
:10A78C003FE75A88284B142101FB02335868FFF726
:10A79C0085FC36E700225A60FFF76CFC31E701229A
:10A7AC008DF80C201A89ADF818209A88DB68ADF862
:10A7BC001A20059310E002228DF80C201A89ADF8AE
:10A7CC0018209A88ADF81A20DA689B7D05929A1F9A
:10A7DC00534253418DF81C3003A8FFF7D5FB0026DC
:10A7EC00414613483E6000F0D3FB1248012100F0B3
:10A7FC007DFC00287FF4CDADD9E603228DF80C202A
:10A80C00DA88ADF818201A89D0E704228DF80C20CC
:10A81C00DB88ADF81830DFE705238DF80C30DBE76B
:10A82C001C1F0020281E0020441E00200C1F00208E
:10A83C00F81E0020081F00204068FFF7A3BD000091
:10A84C0008B50548012100F039FC18B9BDE80840ED
:10A85C00FFF798BD08BD00BF081F00202DE9F3418C
:10A86C009846374B1B7806460D46002B5CD00029CA
:10A87C005DD009884FF6FF7399425BD06B88002B33
:10A88C0058D06B689B0758D14AB92F890DF102013A
:10A89C003846FFF79FFB30B102B0BDE8F08113885A
:10A8AC005788ADF8023001A8FFF740FC044660B9A8
:10A8BC00BDF80220234B142101FB023358890338C5
:10A8CC00C01B588148F20760E6E780F8008000233F
:10A8DC008375BDF8023083826B68036101211A48CD
:10A8EC0000F0F8FB2B882381B8F1030F6B88A38051
:10A8FC0004BF0423A3754FF0000508BF3368E06064
:10A90C0008BFA3611148E780658101A900F005FB30
:10A91C0036B1E36833600E4B75601B89B5723381B9
:10A92C00FFF78EFF0020B7E748F20160B4E748F26A
:10A93C000460B1E748F20360AEE748F20260ABE7AF
:10A94C00201E0020441E00203C1E0020F81E00206B
:10A95C00281E002008B5034607480268042A08D0C0
:10A96C000168064A42F82130012100F0B3FB0020B7
:10A97C0008BD48F20B60FBE7141F0020101E0020DE
:10A98C002DE9F04FDFF8048289B01422002103A8CE
:10A99C0007F0B2FC98F8003003F0FF0200923BB1D4
:10A9AC0003A8FFF7F1FA0027384609B0BDE8F08F8D
:10A9BC0008F1040000F0A6FB0028F4D1009BDFF89E
:10A9CC00D0A1D3F8F83F581C08BF4FF010234FF01C
:10A9DC00805208BF5B691269591C04BF3023534372
:10A9EC00CAF810306B49A3F5405300225046CAF800
:10A9FC000C3000F08AFB07460028D5D11C23664991
:10AA0C006648DFF89CB18C2200F028FA0323B94683
:10AA1C003D4601933C46DAF80C604E443046FFF755
:10AA2C0093FB012867D0032817D000283DD15D493E
:10AA3C004FF0140C0CFB04FC01EB0C0201F80C00A5
:10AA4C0056600CF110020CF1080C0A4430466144BB
:10AA5C00FFF792FB45F002054AE03268531C02D026
:10AA6C00514B9A4239D1321D06F580511068013094
:10AA7C0033D104329142F9D1DBF800203AB90222E9
:10AA8C000123CBF80060ABF8042000930BE01422F8
:10AA9C006243444B022099189854444A4E605480A7
:10AAAC0001340881A4B245F0010509F58059B9F5C6
:10AABC00405FB0D1019B012B98BF0025EDB2022D58
:10AACC0003D0062D36D0002D3ED1002388F800305F
:10AADC0048F20A67C8F8043066E7019B31495A1EF0
:10AAEC0093B2142262438818019346600320885461
:10AAFC000134A4B2D9E7009B6BB12A4B14226243F8
:10AB0C00991802209854DBF800204A60274A0881E3
:10AB1C0054800134A4B200222549CBF800603046A1
:10AB2C00FFF72AFBBBF80420022A0CBF04220822E0
:10AB3C001543BAE7012388F8003003A80023C8F8AE
:10AB4C000430FFF721FA2FE702A8FFF7EFFAC8B19C
:10AB5C000123013D03700A2D09D8DFE805F0060832
:10AB6C000608070807080F110F000023037102A93C
:10AB7C000A4800F0D2F9FFF763FE15E70323F5E767
:10AB8C000223F3E748F207670EE700BF201E002000
:10AB9C00401A0020A82402006C1E0020F81E002081
:10ABAC000C1F0020441E0020DEC0ADDE281E00203D
:10ABBC00101F002073B50D460446C8B1C1B10DF18C
:10ABCC000601FFF737FBB0B1BDF806300B486668DD
:10ABDC00142202FB030001210C3000F07BFA6368A5
:10ABEC002E600C336B600123A372002002B070BD89
:10ABFC0048F20460FAE748F20960F7E7441E0020C7
:10AC0C0013B50446A8B10DF10601FFF713FB98B17B
:10AC1C00BDF806200B4B142101FB0233DA6872B12C
:10AC2C00A27A62B1DA680020013ADA60A07202B04E
:10AC3C0010BD48F20460FAE748F20960F7E748F201
:10AC4C000560F4E7441E002002230022FFF706BE35
:10AC5C0018B103230022FFF701BE48F204607047CD
:10AC6C00114B1B7813B50446ABB14FF6FF739842EA
:10AC7C0014D001A8FFF75AFA98B1052303700123E9
:10AC8C000371C48001A9094800F047F9FFF7D8FD0A
:10AC9C00002002B010BD48F20160FAE748F20360F0
:10ACAC00F7E748F20760F4E7201E0020F81E0020AA
:10ACBC000F4B1B7807B5A3B101A8FFF737FA98B172
:10ACCC000623037001A90B4800F027F90A4B1A78E8
:10ACDC000AB101221A73FFF7B3FD002003B05DF82F
:10ACEC0004FB48F20160F9E748F20760F6E700BFA1
:10ACFC00201E0020F81E0020281E002007B5ADF8ED
:10AD0C000600ADF804100DF1060001A9FFF7E4FAF6
:10AD1C0003B05DF804FB07B51346ADF806000A4610
:10AD2C0000200DF10601FFF7D7FA03B05DF804FB24
:10AD3C0007B51346ADF806000A460DF106000021D2
:10AD4C00FFF7CAFA03B05DF804FB20B119B1036830
:10AD5C000B600020704748F2046070472DE9F84FF3
:10AD6C003C4B1B780446002B6DD000286ED0DFF8CE
:10AD7C00E8901222002107F0BFFA032323804FF042
:10AD8C00000A4F4614264FF00108D9F80410B9F800
:10AD9C000AB0B9F808500846FFF7D6F9032808BFDF
:10ADAC002388628804BF03F1FF33238006FB0A73F8
:10ADBC005D44DB681344638023899B446389A4F856
:10ADCC0008B0ADB22B446381C5F58065A389ADB2E3
:10ADDC00AB4238BFA58101F1080501F58051A942AC
:10ADEC0029D92B68013326D02846FFF7DDF8012836
:10ADFC000AD0022815D00028F1D1A3880133A380F2
:10AE0C000AE04FF0010AC0E7E3880133E380E389ED
:10AE1C006A8803331344E3816B88033305EB8305A2
:10AE2C00DDE7E38884F810804D1BE189013301EBE9
:10AE3C00A501E380E18109F11409BAF1000FE0D01A
:10AE4C000020BDE8F88F48F20160FAE748F2046090
:10AE5C00F7E700BF201E0020441E002030B5054639
:10AE6C0059B1B2FBF3F403FB1424A0B238B9C5E911
:10AE7C000010A860AA81EB8130BD0E20FCE70920F0
:10AE8C00FAE782B050E8022FC188B2EB324F4FF094
:10AE9C00000317BF92B241EA014142EA014104E0CA
:10AEAC004268B2EB324F08BF012340E80212002A7D
:10AEBC00E8D18DF807309DF80730002B0CBF11201E
:10AECC00002002B0704737B550E8013F9DB2C489ED
:10AEDC0025448489A54228BF2D1B0489A54202BFA5
:10AEEC00BFF32F8F002207E0C5EA030540E80154A9
:10AEFC00002CE9D14FF001028DF803200193019A47
:10AF0C000A609DF8031001F0FF0321B1006810FAEC
:10AF1C0082F003B030BD1846FBE70A884B889A4292
:10AF2C0009D150E8012FC2EA024240E80123002B6C
:10AF3C00F7D1012070470020704737B550E8023F29
:10AF4C001FFAA3F5C488A54202BFBFF32F8F0022BE
:10AF5C000DE0C48925448489A54228BF2D1BC3EA72
:10AF6C00054540E80254002CE8D14FF001028DF861
:10AF7C0003200193019A0A609DF8031001F0FF036E
:10AF8C0021B1006800EB124003B030BD1846FBE75E
:10AF9C000A884B889A4209D150E8022FC2EA224211
:10AFAC0040E80223002BF7D10120704700207047A6
:10AFBC0001F01F024B090121914000EB830000F0CE
:10AFCC0065B84B0910B501F01F040121A14000EB3D
:10AFDC00830000F04FF8E04000F0010010BD01F0DC
:10AFEC001F0301229A404B0900EB8300D14300F070
:10AFFC0059B84B0901F01F0150F82300C84000F06C
:10B00C00010070472DE9F0474F1E7F0980460E4620
:10B01C000137002558F8254008EB8509E44394FADC
:10B02C00A4F4B4FA84F44FEA451A202C06D1013565
:10B03C00AF42EFD834462046BDE8F0875444A642D0
:10B04C00F5D921464046FFF7BCFF0028F3D0D9F8CC
:10B05C000040E44394FAA4F4B4FA84F4E5E710B5A0
:10B06C00034653E8000F0A4643E8002494F0000F0F
:10B07C00F7D110BD10B5034653E8000F40EA0102AA
:10B08C0043E8002494F0000FF6D110BD10B5034630
:10B09C0053E8002F42EA010043E8000494F0000F4B
:10B0AC00F6D110BD10B5034653E8002F02EA01009B
:10B0BC0043E8000494F0000FF6D110BD10B5034620
:10B0CC0053E8000F00EB010243E8002494F0000F5A
:10B0DC00F6D110BD10B5034653E8002F02EB01006A
:10B0EC0043E8000494F0000FF6D110BD10B50346F0
:10B0FC0053E8002FA2EB010043E8000494F0000F8A
:10B10C00F6D110BD0121FFF7B5BF0B4610B41146A7
:10B11C0020B11BB1036010BC1B6818470E2010BC7B
:10B12C0070472DE9F04308B302B3D0F800E0BEF14C
:10B13C00000F1ED0FBB14768D7F80490B3FBF9F7AA
:10B14C0009FB1737BFB942EA010C1CF0030F14D1ED
:10B15C00C768B94211D305694C1E1C44AC420CD8CB
:10B16C00DEF80C40A446BDE8F04360470E20BDE875
:10B17C00F0830820FBE70920F9E71020F7E7F0B58A
:10B18C00D8B1D0F800C0BCF1000F18D0CAB14768D4
:10B19C00D7F800E00EF1FF370F4214D1C768B9425F
:10B1AC0011D305694C1E0EFB0244AC420BD8DCF8E3
:10B1BC001040A446BDE8F04060470E20F0BD0820CA
:10B1CC00FCE70920FAE71020F8E729DF704728DFB1
:10B1DC00704770B503689E6886B004460D466EB124
:10B1EC0014220021684607F087F8A3680593237999
:10B1FC0001952BB1012B0DD06846B04706B070BD40
:10B20C0001238DF8003023690293E368039363698B
:10B21C000493F1E702238DF80030E3681B030293DB
:10B22C00F5E708467047002070470000024B187A7B
:10B23C00003818BF01207047C01F0020034B187A3C
:10B24C000122B0FA80F05A7440097047C01F0020E8
:10B25C0008B510461A4607F026F8002008BD000075
:10B26C0008B514220021044807F046F80348FFF7FC
:10B27C0008FE002008BD00BFC01F0020B01F00202A
:10B28C0010B5094C094B43602046FFF73BFF40B912
:10B29C0006F0A0FE064920741C2306488C22FFF7FA
:10B2AC00DDFD002010BD00BFC01F00209C2402004B
:10B2BC00241F0020B01F002038B5234D234C2B7ABF
:10B2CC003BB923492348FFF738FE206008B9686072
:10B2DC0038BD022324682B72237973B1012B24D03F
:10B2EC0020460321FFF775FF00232B726B60184972
:10B2FC001848BDE83840FFF74BBED4E90523D21AF5
:10B30C00B2F5805FD4E9031028BF4FF48052920845
:10B31C00012A38BF012219441844FFF756FF50B1D7
:10B32C001128DDD101232B72D2E7D4E90303184491
:10B33C00FFF74DFFF3E72B7C002BC9D1BDE838405C
:10B34C00022000F009B800BFC01F0020D81F002049
:10B35C00D41F0020B01F002038B5234C237A002BBB
:10B36C0041D0022B09D1032830D0204B00221B687E
:10B37C00E2601A793AB1012A22D0637C7BBBBDE82A
:10B38C003840FFF799BFD3E905128D1AB5F5805FE8
:10B39C0094BF521902F580529A619142EDD1022864
:10B3AC004FF0000308BF19462372104B18BF0D2134
:10B3BC001868FFF70EFF0E490E48FFF7E9FDDCE7B2
:10B3CC001A6901321A615B699A42E7E7E368013353
:10B3DC00082B01D8E360D0E70023E360DFE7BDE88A
:10B3EC00384006F0E7BD38BDC01F0020D81F002034
:10B3FC00D41F0020B01F0020831E012B01D8FFF7A3
:10B40C00ABBF704700F0FD03012B08D1044B0022A9
:10B41C005A74421E504250411874FFF74DBF70478A
:10B42C00C01F002010B5064C201DFFF76BFE28B97D
:10B43C00637C1BB9BDE81040FFF73EBF10BD00BFD9
:10B44C00C01F00202DE9F34180460D46104801A98C
:10B45C0016461F46FFF737FD0446B0B118220021EF
:10B46C00043006F049FF2D0B0123237101A9084874
:10B47C00C4F80080A760E5606661FFF74EFDFFF73A
:10B48C00D1FF002002B0BDE8F0810420FAE700BF34
:10B49C00B01F00202DE9F34180460F460F4801A94B
:10B4AC0016461D46FFF70FFD0446A8B118220021D1
:10B4BC00043006F021FF089BA36001A9C4E90367CF
:10B4CC000648C4F800806561FFF727FDFFF7AAFF67
:10B4DC00002002B0BDE8F0810420FAE7B01F002084
:10B4EC0041DF7047064B10B500241C70054B1C60E7
:10B4FC00BFF35F8F0449054800F016F8204610BDD5
:10B50C00E41F0020E81F0020C8240200DC1F0020DC
:10B51C0008B506F05FFD18B1BDE80840FFF7E0BFC5
:10B52C0020BF40BF20BF08BD0B684A6843609342F0
:10B53C0008BF0023016008BF43607047436843B1F4
:10B54C000268916852680B449342436004BF002325
:10B55C004360704770B5446806460D46206818B1C4
:10B56C00B3682946984718B923682B60256070BDCD
:10B57C002468F3E74368186808B102681A607047DA
:10B58C004368186870474368186800B97047884268
:10B59C0003D102681A600120704703460068F4E783
:10B5AC000B7B23B14B6803600023037170470B685E
:10B5BC0003600123F9E703684A68896810B5D41A57
:10B5CC008C428BBF5B1800230360026098BF037131
:10B5DC0010BD03680A68896810B59C1A8C428BBF31
:10B5EC005B1A01230360026098BF037110BD0379DD
:10B5FC0010B504461BB1FFF7DEFF206810BDFFF746
:10B60C00E8FFFAE7BFF34F8F0549064BCA6802F40F
:10B61C00E0621343CB60BFF34F8F00BFFDE700BF69
:10B62C0000ED00E00400FA054FF08053D3F8300130
:10B63C00421C04BF4FF0704393F8E00F831F584235
:10B64C00584170474FF0704393F8E02F062A09D108
:10B65C00D3F8E83FC3F30313033B042B02D8024A8D
:10B66C00D05C704700207047E32402004FF08053F9
:10B67C00D3F83001421C04BF4FF0704393F8E00F35
:10B68C00062804D0A0F10A03584258417047012003
:10B69C0070470000024AD2F80034002BFBD07047F0
:10B6AC0000E0014010B5FFF7BFFF40B14FF08053F1
:10B6BC009C4AD3F82433C3F30423C2F84035FFF774
:10B6CC00C1FF10B1984B994A5A67FFF7CFFF48B1A9
:10B6DC004FF080534FF08042D3F84432C3F34233DF
:10B6EC00C2F83C35FFF7AEFF30B1914AD2F8FC30CE
:10B6FC0023F08073C2F8FC30FFF7B8FF40B14FF075
:10B70C0080430022C3F80C21C3F81021C3F838255C
:10B71C00FFF798FF20B14FF080430322C3F8A02518
:10B72C00FFF790FF60B1834B0522C3F8102601226E
:10B73C00C3F888260022C3F818263F22C3F8142623
:10B74C004FF08053D3F83021511C09BF4FF0704398
:10B75C00D3F8343193F8E02FD3F8E83F08BFC3F3A4
:10B76C000313062A4ED1033B042B03D8724AD35C35
:10B77C00002B49D04FF08052704BD2F80414C3F810
:10B78C002015D2F80814C3F82415D2F80C14C3F8F9
:10B79C002815D2F81014C3F82C15D2F81414C3F8C9
:10B7AC003015D2F81814C3F83415D2F81C14C3F899
:10B7BC004015D2F82014C3F84415D2F82414C3F859
:10B7CC004815D2F82814C3F84C15D2F82C14C3F829
:10B7DC005015D2F83014C3F85415D2F83414C3F8F9
:10B7EC006015D2F83814C3F86415D2F83C14C3F8B9
:10B7FC006815D2F84014C3F86C15D2F84424C3F879
:10B80C00702501E00A2AB5D0FFF70EFF48B14FF0C2
:10B81C0080534FF08042D3F8583203F04F03C2F8F4
:10B82C00E43EFFF723FF48B14FF08043D3F80024E8
:10B83C00D20744BF6FF00102C3F800244FF08053CD
:10B84C00D3F83021062A0ED1D3F83431033B042B24
:10B85C0002D83B4AD35CBBB13A4AD2F83C3743F4EA
:10B86C008063C2F83C374FF08053D3F830210A2A5A
:10B87C000AD1D3F834313BB14FF08042D2F8E43ED8
:10B88C0043F00F03C2F8E43E4FF08053D3F830215D
:10B89C00062A0FD1D3F83431033B042B02D82A4AA1
:10B8AC00D35C3BB14FF01023D3F808224FF0804308
:10B8BC00C3F858254FF01021D1F80032002B03DBD0
:10B8CC00D1F80432002B17DA204901234FF0102055
:10B8DC00C1F804351524FFF7DDFEC0F80042FFF770
:10B8EC00D9FEC0F80442FFF7D5FE0023C1F8043599
:10B8FC00FFF7D0FEFFF786FED1F80C32DB070DD533
:10B90C0012480123C0F804350024FFF7C3FEC1F828
:10B91C000C42FFF7BFFEC0F80445E9E70C4B0D4A9B
:10B92C001A6010BD0030014000C007400DF0ADBAE8
:10B93C0000ED00E000500040D424020000C00040A4
:10B94C00D924020000100040DE24020000E0014077
:10B95C00801A00200090D003054A4FF0A043105CE1
:10B96C00D3F8043523FA00F0C04300F0010070470F
:10B97C00EC240200044B1A5C012393404FF0A042CC
:10B98C00C2F80C35704700BFEC240200044B1A5C63
:10B99C00012393404FF0A042C2F80835704700BF16
:10B9AC00EC24020008B50020FFF7F0FF0120FFF7A0
:10B9BC00EDFF0220FFF7EAFFBDE808400320FFF788
:10B9CC00E5BF08B50020FFF7D5FF0120FFF7D2FF38
:10B9DC000220FFF7CFFFBDE808400320FFF7CABFE6
:10B9EC00074A4FF0A041105CD1F804350122824087
:10B9FC0022EA03001340C1F80805C1F80C35704762
:10BA0C00EC240200054A4FF0A043105CD3F810352B
:10BA1C0023FA00F0C04300F001007047E824020054
:10BA2C000D2809D00E2809D00F2809D010280CBFDA
:10BA3C0003204FF0FF307047002070470120704703
:10BA4C0002207047014B185C704700BFE8240200CD
:10BA5C00C20708B501460CD54FF0A0430322C3F82A
:10BA6C004427C3F84827C3F84C27C3F85027FFF7DF
:10BA7C0099FF8B070AD54FF0A0430C22C3F834274B
:10BA8C00C3F83827C3F83C27C3F8402708BD00008B
:10BA9C0038B5074C051E04F1080318BF1C46236873
:10BAAC002BB11A6822605B6828469847F7E738BDC7
:10BABC00F41F002020B9054B01225A70FFF7E8BF94
:10BACC00012802D1014A9070F8E77047EC1F002062
:10BADC0020B9034B01225A70FFF7DABF704700BF41
:10BAEC00EC1F002038B50E4C2378B3B90D486360B9
:10BAFC00A3602361E36000F075F8054606F06AFA6E
:10BB0C0008B900F07BF801232370074BD3F80034FD
:10BB1C000BB10123A370284638BD8525F5E700BF7E
:10BB2C00EC1F0020C1BA01000000014037B50D4CDC
:10BB3C0000230DF107008DF80730FEF7C7F8E36816
:10BB4C00013BE360E36833B9074BD3F8005415B9F4
:10BB5C0000F066F8A5709DF80700FEF7DBF803B05F
:10BB6C0030BD00BFEC1F002000000140012813B5C0
:10BB7C000CD0032820D038B9134B0122C3F88020F5
:10BB8C00BFF34F8FBFF36F8F02B010BD0F4C00236C
:10BB9C000DF107008DF80730FEF798F823780BB9F4
:10BBAC00FFF7A0FFE3689DF807000133E360012372
:10BBBC00A370FEF7AFF8E7E700F020F802B0BDE89D
:10BBCC001040FFF7B3BF00BF00E100E0EC1F002006
:10BBDC0000F18040002382B0036003680193019B55
:10BBEC0002B07047044B0246187918B91A6001224A
:10BBFC009A8070478520704700200020074B1A68F8
:10BC0C00D20704D4C02283F8002301221A604FF01B
:10BC1C0080430122C3F81825704700BF00E100E003
:10BC2C004FF0804208B50223C2F808334FF48270FB
:10BC3C00FFF7CEFF0123D360D2F81834DB03FBD41B
:10BC4C0008BD00004FF0804110B5D1F8003163B150
:10BC5C004FF48070FFF7BCFF0D4B58790122C1F8EF
:10BC6C00082310B95A711B6898474FF08042D2F8DC
:10BC7C00043163B14FF48270FFF7AAFF0223C2F8BC
:10BC8C000833034BBDE810401B680120184710BD5A
:10BC9C000020002000F1804000F5C040002382B05D
:10BCAC00036003680193019B02B07047800000F1B0
:10BCBC00A040D0F8002722F44032C0F80027D0F87A
:10BCCC00003743EA0143C0F800377047054B4FF08B
:10BCDC00FF32072843F8202084BFC01880F8482082
:10BCEC00704700BF0820002010B5184991F8583053
:10BCFC0053BB4FF0FF3222FA03F0C00748BFC818FD
:10BD0C0003F1010348BF80F83020202BF3D100242D
:10BD1C00E0B20134FFF7DAFF0C2CF9D10C4B002206
:10BD2C00C0204A6583F80603402018604FF4BE70AB
:10BD3C00FFF7B0FF074B4FF00040C3F8040301239B
:10BD4C0081F85830104610BD0820FCE70820002070
:10BD5C0000E100E000600040034B93F8580000380D
:10BD6C0018BF0120704700BF08200020F0B5394EE5
:10BD7C00331893F93030002B69DA8D78C5F3400510
:10BD8C00002D0BBF082300230C240824A34201D14F
:10BD9C000420F0BD56F82370013743D137185CB23C
:10BDAC0046F8232087F8304015B9F21882F848007D
:10BDBC008A78550716D4D70736D5820002F1A042EF
:10BDCC00D2F8005725F00205C2F80057224FC508DB
:10BDDC0000F0070C012202FA0CF217F805C042EA37
:10BDEC000C027A558A780D7812F0020225D09B004D
:10BDFC0003F1804303F5C0430002D3F8102522F46D
:10BE0C00473222F44072C3F810252D04D3F81025C4
:10BE1C0000F4F85005F4403528431043C3F81005DE
:10BE2C000020B6E70133B1E74D7800F5E0724FF032
:10BE3C00A047AD0047F82250C8E7083C46FA84F406
:10BE4C0094F8500040EA851584F85050E8E7082033
:10BE5C009FE700BF082000205C20002038B5204C54
:10BE6C00251895F93020072A18DD083A44FA82F48F
:10BE7C0094F850309B09032B0BD14FF0A043D3F80F
:10BE8C001015C14001F001010231BDE83840FFF747
:10BE9C000DBF012B0CBF02210321F6E7D3B2072BF8
:10BEAC001DD8930003F1804303F5C043D3F810056C
:10BEBC0040F00100C3F8100502F1400040B28000D0
:10BECC0080B2FFF7E7FE51B195F9303054F82330CA
:10BEDC002BB1012303FA02F2024BC3F8042338BD41
:10BEEC0008200020006000404FF0A043D3F810352C
:10BEFC0023FA00F000F00100704700002DE9F74F25
:10BF0C0000244E4D01944FF48072012102F18043C4
:10BF1C0003F5C04390B21B68012B06D1D5F804334E
:10BF2C000B4202D0FFF7B6FE0C430432B2F5907F01
:10BF3C004FEA4101EAD1414BD3F87C31012B0CD1B2
:10BF4C004FF4BE70FFF7A6FE4FF0A04344F0004440
:10BF5C00D3F820250192C3F82025E3B2D3B1384F92
:10BF6C0001260025344210D0AB0003F1804303F5C9
:10BF7C00C043D3F81005D3F8101557F8253023B16A
:10BF8C00C1F30141C0F3042098470135082D4FEA55
:10BF9C004606E7D1002C48DA294D4FF0A048294E2F
:10BFAC004FF00009012716F9013B5A1C31D0C3F39D
:10BFBC00C20202A90A44DCB212F8042C03F03F0AB4
:10BFCC0003F0070307FA03F31A4222D00AF5E073D1
:10BFDC00504658F82330C3F3014BBBF1020F0CBF92
:10BFEC0003210221FFF762FE07FA0AF3C8F8203595
:10BFFC0005EB0A0393F9303055F823304BB1A10906
:10C00C00032904D0BBF1020F12D1012901D15046F2
:10C01C00984709F10109B9F1040FC4D1D8F82035BA
:10C02C000193C8F82035002BB9D103B0BDE8F08FCF
:10C03C00BBF1030FEDD10229E8E700BF006000401F
:10C04C000820002058200020014B1B68184700BF17
:10C05C00642000200220FFF7C3BC00002DE9F0474C
:10C06C0080460D46FFF7DCFC0328044610D8012D52
:10C07C0010D0022D30D05DB91A48FDF71BFD1A4BBC
:10C08C0004EB440213449D78184B1B5DAB4219D052
:10C09C00BDE8F087144E00EB4003F218F55C5378C2
:10C0AC00470053B1DFF848900E484A464FF48041A0
:10C0BC00FDF7D2FC08B989F8008027443E440B4BAD
:10C0CC00B2781A55002DE3D00A4B1B68002BDFD039
:10C0DC002846BDE8F047184700EB400402480444EA
:10C0EC006578EFE7A81A00206E2000208920002038
:10C0FC006C2000208420002000780221FFF7AEBFC6
:10C10C0008B5094B1B7853B10020FFF73FFC012009
:10C11C00FFF73CFCBDE808400320FFF737BCBDE847
:10C12C000840FFF73FBC00BF6D200020F8B57A4CEB
:10C13C00237805461BB100232370FFF7E1FF172D71
:10C14C0000F28780DFE805F00C1717425364757F07
:10C15C00878C878C949999999999C3C8D0D8E3E323
:10C16C00FFF7CEFF6D48FDF7A5FC6D4B0022044692
:10C17C001A702046F8BD0020FFF7EEFBF0B100204E
:10C18C00FFF704FC022D0CBF4FF4E1644FF47A640A
:10C19C00634B1D7000254FF400464FF47A7029460E
:10C1AC004FF4FA620023E4FB060105F0DDFF2A469A
:10C1BC000146BDE8F8405948FDF74EBCFFF7DAFBE5
:10C1CC00022D0CBFC8244FF4C874E1E70020FFF720
:10C1DC00C3FB40B10020FFF7D9FB4FF44874504B20
:10C1EC0003221A70D6E7FFF7C5FBC824F7E7002037
:10C1FC00FFF7B2FB38B10020FFF7C8FB4FF47A64AD
:10C20C00474B0422EDE7FFF7B5FB4FF4C874F7E793
:10C21C000020FFF7A1FB48B10020FFF7B7FB404B14
:10C22C0005221A7040F6CD410022C2E7FFF7A2FBAF
:10C23C00F5E70020FFF7D4FB394B06221A700022D9
:10C24C0040F26661B5E70020FFF794FB344B072200
:10C25C001A7000248DE701202070FFF7C1FBEEE778
:10C26C0001202070FFF7BCFB00224FF40051A0E727
:10C27C00FFF7A7FB2A4B0C22EAE72A482A4EFDF7C8
:10C28C0019FCD5F1110504461CD0D8B9012D13D0D9
:10C29C00C820454321464FF400474FF47A704FF4C1
:10C2AC00FA620023C5FB070105F05EFF224601463A
:10C2BC001C48FDF7D1FB04460220FFF75BFB012372
:10C2CC00337056E70220FFF761FB0023F8E7FFF716
:10C2DC0017FF134B1222BBE7FFF712FF0020FFF7EB
:10C2EC0049FB0F4B1322B3E7FFF70AFF0120FFF7BF
:10C2FC0041FB0B4B1422ABE7FFF702FF0020FFF7CB
:10C30C0039FB0120FFF736FB054B1522A0E7FFF7A1
:10C31C0058FB034B1D709CE780200020C81A00209E
:10C32C0088200020881A00206D200020044B1B68F8
:10C33C00DB0703D5034B1878FFF7F8BE704700BF37
:10C34C007C2000208820002010B5002914BF032475
:10C35C000024FFF777FB800000F1A040D0F8002705
:10C36C0022F44032C0F80027D0F8003743EA0443E7
:10C37C00C0F80037002010BD032801D8FFF742BBDE
:10C38C0000207047044B1B6813F0010301D0FFF72A
:10C39C00CDBE1846704700BF7C20002038B51C4B22
:10C3AC0018601C4B10F00204054619601AD01A4B89
:10C3BC001A480E221A700F22DA7010229A7111226A
:10C3CC005A72042140F23332FDF70CF9044648B995
:10C3DC00FDF760F9044628B90146114A1148FDF7EA
:10C3EC0029FB0446EB0711D50120FFF731FB6CB993
:10C3FC0021460D4A0D48FDF71DFB044630B9BDE83A
:10C40C0038400B4A0B480121FDF714BB204638BDC0
:10C41C007C200020842000206E200020F0240200CC
:10C42C0005C101001425020039C3010018250200C2
:10C43C0061C0010010250200032811D8012A0AD17D
:10C44C0001290FD100F10E02D2B20D4B00EB4000CE
:10C45C001A54002070470129F7D0022904D049B1A1
:10C46C00072070470022F8E7054B00EB400018440A
:10C47C004270EEE7024B00EB400018448270E8E794
:10C48C006E200020032802D80121FFF75DBF062093
:10C49C00704708B5012202210020FFF7CDFF08B13B
:10C4AC00072810D1072202210120FFF7C5FF08B190
:10C4BC00072808D100210A220846FFF7BDFF10B15A
:10C4CC00072808BF002008BD0388102B10B502D028
:10C4DC00112B1ED010BD1A4C2168B1B9012208468F
:10C4EC00FFF7AAFF08B1072824D107220221012057
:10C4FC00FFF7A2FF08B107281CD10422022100205B
:10C50C00FFF79AFF08B1072814D123680133236081
:10C51C00E0E70B4A1368013B1360002BDAD1FFF7FD
:10C52C00B8FF0028D6D0074B1B68002BD2D0BDE833
:10C53C0010401847034B1B68002BE6D09847E4E7E4
:10C54C00942000209020002008B50020FFF79AFFCF
:10C55C0008B1062806D10120FFF794FF10B1062878
:10C56C0008BF002008BD00000D4B10B518600C462C
:10C57C0029B10120FFF700FF40B102232370094BC2
:10C58C001B6853B9BDE81040FFF783BFFFF7F4FEFB
:10C59C0008B10B23F2E72070F1E7002010BD00BFBB
:10C5AC00902000209420002076DF704778DF7047C1
:10C5BC007ADF70477CDF70478FDF704733DF70475F
:10C5CC00FDF77EB808B50C490C48FFF710F84FF68C
:10C5DC00FE72C1B20A4804F0D1FC132807D943F209
:10C5EC000143984207D0BDE80840FDF769B8054BF8
:10C5FC00C340DB07F7D508BDA4220020B4220020DD
:10C60C009022002001810A0008B50020FFF7BAFE35
:10C61C0008B1FDF755F8FFF797FF08B1FDF750F893
:10C62C00FFF7CCFF18B1BDE80840FDF749B808BDCD
:10C63C002DE9F043074685B016461C46CD18A2EBF3
:10C64C0003084FF0000902ABA01C4246294613FA1E
:10C65C0080F0CDE9029905F026FE0120FFF78CFE53
:10C66C0028B19DF8083043F002038DF808300F4ACA
:10C67C000F4B11781B8899B90093082202AB3846EE
:10C68C0005F0D6FA38B90134A4B2A64205F1010579
:10C69C0008F1FF38D7D20C9B1C8005B0BDE8F083A5
:10C6AC0002AA0821384605F022FBEBE7F022002015
:10C6BC001C1B00207FB508220346019201A94FF6EE
:10C6CC00FF7202A803F012FA08B1FCF7F9FF019906
:10C6DC0002A803F0E3F908B1FCF7F2FF07B05DF82C
:10C6EC0004FB000000B5B3B0082834D8DFE800F034
:10C6FC001405050E1012121936000520FFF742FE24
:10C70C0048B333B05DF804EBFCF7DABF0220F5E771
:10C71C000420F3E70320F1E733B05DF804EBFFF7F7
:10C72C0073BF0823CDE9023312AA03AB02A904A8F4
:10C73C0003F09EF908B1FCF7C3FF0220FFF7BAFF24
:10C74C00039B0093029A114812AB04A900F0F6FF68
:10C75C0008B1FCF7B5FF33B05DF804FB0C4B18883F
:10C76C004FF6FF739842F6D012A903F063FA05282E
:10C77C00F1D008B1FCF7A4FF0620FFF79BFF0DF1E9
:10C78C005901024800F0C7FFE2E700BF98210020E2
:10C79C00F22200207FB5082301934FF6FF7201238C
:10C7AC0001A902A803F0A2F908B1FCF789FF0199CD
:10C7BC0002A803F053F908B1FCF782FF07B05DF84B
:10C7CC0004FB000008B5FFF7E5FF0548032100F066
:10C7DC006EFE18B1BDE80840FCF772BF08BD00BF83
:10C7EC009821002010B5044603F034FC204603F0D9
:10C7FC0034FD204603F03AFC2378092B0BD00D2B8B
:10C80C0005D0032B02D1094BA2881A8010BDBDE8BC
:10C81C001040FFF7D7BF237CDB07F7D5237A072B14
:10C82C00F4D1BDE81040FFF7B5BF00BFF2220020E5
:10C83C00F0B51D4F85B084B20DF10E030093054683
:10C84C000023224638460E46FFF7F2FE13281FD16E
:10C85C00BDF80EC0644519D3144B93F83E40062C1A
:10C86C0014D093F83D200C2151430132D2B2581808
:10C87C00052AC0E9016704F1010408BF002203F88E
:10C88C0001C0457083F83E4083F83D2005B0F0BDF3
:10C89C0030F00802FAD01128F8D043F2014290424D
:10C8AC00F4D0FCF70DFFF1E7201B002048210020FD
:10C8BC00043810B50A283AD8DFE800F00A393916DE
:10C8CC003939063939392000BDE81040FFF79CBED4
:10C8DC00174B13211888FFF767FE30F0080326D09A
:10C8EC00BDE81040FCF7ECBE114B1A884FF6FF73F5
:10C8FC009A421CD10F4800F032FFEEE70C4B1A881D
:10C90C004FF6FF739A4212D00B4C01202168FFF7AF
:10C91C008FFF2368094A0133236013780133DBB29C
:10C92C00062B137001BF064B23600023137010BD40
:10C93C001C1B002098210020B81C0020082300207C
:10C94C00B01C00201FB50B78052B2BD0062B2ED03E
:10C95C00042B2AD18B79022B27D1CB792BBB0DF150
:10C96C000F0201921A4A1B481288009219460122A2
:10C97C0005F0FCF908B1FCF7A3FE174C9DF80F303D
:10C98C00227803F00203AAB97BB11020FFF7FAFC5E
:10C99C0008B1FCF795FE11490620FFF749FF01236A
:10C9AC00237002E00E4B01221A7004B010BD0C4B28
:10C9BC000022F9E7002BF8D11120FFF7E3FC08B1B6
:10C9CC00FCF77EFE07490620FFF732FF0023E7E75E
:10C9DC001C1B0020201B0020BC220020161B00204A
:10C9EC00F0220020101B00207FB5194C94F83E302B
:10C9FC00B3B1B8B194F83C500C235D4366190DF1FA
:10CA0C000E030093D6E90110635D7278FFF710FEF8
:10CA1C00132807D1BDF80E3072789A4202D36355B1
:10CA2C0004B070BD94F83C300C2202FB0342002190
:10CA3C005160013394F83E20DBB2013A052B84F8A7
:10CA4C003C3084F83E2008BF84F83C10E8E700BF77
:10CA5C004821002037B505883B2D044641D007D826
:10CA6C00112D22D0212D2ED0102D0BD003B030BD86
:10CA7C00562D36D0572DF9D1012003B0BDE83040EA
:10CA8C00FFF7B2BF0720FFF77DFC08B1FCF718FEDB
:10CA9C00164BA1881648198002F03CFA0028E5D004
:10CAAC0003B0BDE83040FCF70BBE0020FFF79CFF45
:10CABC000E4B4FF6FF721A800E4B002228461A704E
:10CACC00FFF760FCEAE7002380888DF8043001A9A9
:10CADC008DF80530FFF770FD0028C7D0FCF7F0FD8E
:10CAEC00C4E7A0881321FFF75FFDD7E71C1B0020CC
:10CAFC00F4220020BC220020FCF7E2BDFCF7E0BDD4
:10CB0C00FCF7DEBD2DE98048AFB0FCF761FF08B142
:10CB1C00FCF7D6FDBD4ABE480121FCF78BFF08B1DE
:10CB2C00FCF7CEFDBB490320FFF738FC08B1FCF73E
:10CB3C00C7FD03A90020FFF717FD08B1FCF7C0FDE6
:10CB4C009DF80C80FEF7CEFC08B1FCF7B9FD05F0A2
:10CB5C00C3F908B1FCF7B4FD002303A9012003932A
:10CB6C0005F094FA08B1FCF7ABFD03A805F0D0FA78
:10CB7C0008B1FCF7A5FDA84A0A210820FCF7C6FD60
:10CB8C0008B1FCF79DFD01AD1123A4498DF80430CB
:10CB9C000F222846FFF70EFD08B1FCF791FD40F27D
:10CBAC00C130FFF703FD08B1FCF78AFD0623ADF891
:10CBBC000C301822ADF8103003A82B23ADF80E2042
:10CBCC00ADF81230FFF7F4FC08B1FCF779FD94488E
:10CBDC00002102F0FBF808B1FCF772FDA422002141
:10CBEC0003A805F089FB02238DF80C3040F2016399
:10CBFC00ADF80E3001232820ADF81C308DF88530AF
:10CC0C008DF8863040F6B833CDE9250340F2011398
:10CC1C00ADF888304FF4486444F25063CDE92743B3
:10CC2C00804B814A2C938148814B089203A92D9308
:10CC3C0000F0CDFB08B1FCF743FD7C48012100F06E
:10CC4C00C3FB7C4B7C48039303A902F051F908B158
:10CC5C00FCF736FD41F61513ADF806304EF6EE63D3
:10CC6C000224ADF8083040220123002103A8ADF8BE
:10CC7C000A308DF8044005F03FFB03A86F4901F022
:10CC8C006FF803A811958DF8484004F007FA08B125
:10CC9C00FCF716FD00240123CDE903448DF8103078
:10CCAC0003F1023361336648059403A9069304F03B
:10CCBC00F1F808B1FCF704FD624DDFF88C91634E7E
:10CCCC002C60012740F2022A6C60C9F800403460E5
:10CCDC00C9F804407460082302242B804FF0030B26
:10CCEC000021EF70A5F804A0AC71402205A8A9F8AA
:10CCFC00007089F80340A9F804A0348086F803B0CA
:10CD0C00A6F804A005F0F8FA514B0393514B049389
:10CD1C004C23ADF83030504B0B9350488DF81470B9
:10CD2C0040F2011303A98DF8167006958DF81C704E
:10CD3C00CDF820908DF824700A96ADF83C308DF823
:10CD4C003FB08DF838408DF840408DF84E40ADF82E
:10CD5C0050A08DF85240ADF848A08DF84A4004F030
:10CD6C0089FD08B1FCF7ACFC3D493E4851226423D7
:10CD7C00C1E9002301238B600B73FEF711FC00212A
:10CD8C00182203A805F0B8FA4FF4F0234FF4A031A1
:10CD9C00CDE9041303238DF8183003A8324B099303
:10CDAC0000F0FCFD08B1FCF78BFC304B00229A879D
:10CDBC005A601A61DA619A625A6383F83E2002F073
:10CDCC00E7FD08B1FCF77CFC31238DF80C30072310
:10CDDC008DF80D3010238DF80E3003A803238DF839
:10CDEC000F308DF8103002F021FE08B1FCF768FC12
:10CDFC001F4802F003FE08B1FCF762FC1D4800223C
:10CE0C004FF40041FCF728FE36E000BFD1C501000D
:10CE1C0040250200BDC80100982000201C250200FE
:10CE2C00C0220020F1C60100E81A00209821002041
:10CE3C0009CB01000DCB0100F42200202C250200AF
:10CE4C009022002090210020002300208821002027
:10CE5C0051C90100CDC50100BC1C0020201B0020C5
:10CE6C00A4220020B422002005CB01004821002080
:10CE7C00F1C70100F01A002008B1FCF721FCB8F151
:10CE8C00020F09D102F0ECFE08B1FCF719FCFCF71B
:10CE9C00C5FCFEF73DFBFAE7FFF794FCF7E700BF94
:10CEAC006DDF704779DF70477DDF704764DF704757
:10CEBC002DE9F04F85B000250E9CBDF83CB0B4F8C0
:10CECC0000A00191074690461E46A9463A884A455D
:10CEDC000DDC45B12388013BA3EB0A039BB2FF2B6E
:10CEEC003AD806F80A30002005B0BDE8F08F7A6811
:10CEFC0052F82900039000220DF10B0103A8FFF753
:10CF0C00D5FF0028F0D19DF80B20424521D1228875
:10CF1C00002D14BF0020022002EB080101445945EA
:10CF2C001ADC3DB9013292B2019B2280B3542288A3
:10CF3C000132228022880DF10B01324403A8FFF745
:10CF4C00B5FF0028D0D121889DF80B200A442280FF
:10CF5C00012509F10109B9E70C20C5E72DE9F341D9
:10CF6C00089FBDF824801546CDE9007802220446BE
:10CF7C001E46FFF79DFF50B9334610222946204626
:10CF8C00CDE9087802B0BDE8F041FFF791BF02B0DF
:10CF9C00BDE8F0812DE9F04F00231788138090F83D
:10CFAC002D3085B006460D4614465BB3082F01D8CC
:10CFBC000C2028E102A8FFF773FF002840F0238122
:10CFCC002388DDF809100822EA54238801339BB228
:10CFDC001B222380EA54238801339BB2EA18238056
:10CFEC00E950BDF80D30938023889DF80820063356
:10CFFC009BB212F0FE0218BF01222380EA54238850
:10D00C0001332380B378FBB123880433BB42CFD8E0
:10D01C0002A8FFF747FF002840F0F5802388032281
:10D02C00EA54238801339BB219222380EA542388C3
:10D03C00BDF8082001339BB2E9182380EA54120A88
:10D04C004A70238802332380F2789AB12388D91C42
:10D05C00B942ADD80221E954238801339BB2012196
:10D06C002380E95423880B449BB22380EA54238801
:10D07C000B4423807268AAB12388D91CB94297D873
:10D08C00022192F90020E954238801339BB20A2132
:10D09C002380E954238801339BB22380EA542388EC
:10D0AC00013323803389002B40F0A180338A5BB19C
:10D0BC00CDE900472B460722032106F11000FFF7AC
:10D0CC004DFF002840F09F80338B5BB1CDE90047CA
:10D0DC002B461522142106F11800FFF73FFF0028FC
:10D0EC0040F09180326A002A40F09080D6F824807B
:10D0FC00B8F1000F30D0B8F804302188981C8A1C85
:10D10C000244BA423FF654AFFE283FF651AF033308
:10D11C006B54238801339BB2FF222380EA5423886B
:10D12C0001339BB22380B8F80020EA54E918120AA4
:10D13C004A702088023080B22080B8F804205AB19E
:10D14C00D8F8081000296BD0284405F0ACF82388D7
:10D15C00B8F804201344238096F82C30002B40F0B0
:10D16C009880307800284ED03388012B58D02288F4
:10D17C0002F1020CBC453FF61BAF012805D17378B8
:10D18C00023313449F42FFF413AF023FBF1ABFB2E6
:10D19C0002A905EB0C00ADF80870FFF785FE90BBFB
:10D1AC003178BDF80830022900F0B98072789A42C3
:10D1BC0002D39F4280F0B180012940F0B2809742A7
:10D1CC0093B2C0F0AE80ADF808300821BDF808303D
:10D1DC00FE2B3FF6EDAE22880133AB542288013290
:10D1EC0092B22280A9542288134423800BE0CDE90B
:10D1FC0000472B460622022106F10800FFF7AEFE7F
:10D20C0000283FF453AF05B0BDE8F08FB4F800C070
:10D21C000CF10603BB423FF6CBAE1188052901D8B1
:10D22C000720F0E76FF4486E01EB0E039BB24FF250
:10D23C007D3E7345F4D95388052BF1D96FF44860C2
:10D24C00181880B27045EBD94FF6FF70814201D0AF
:10D25C009942E5D8052305F80C30238801339BB29D
:10D26C0012212380E954238801339BB22380118837
:10D27C00E954E818090A4170238802339BB22380D1
:10D28C005288EA54E918120A4A7023880233238020
:10D29C002CE7B36A002BC3D04FF000084FF00C0AF8
:10D2AC004FF0160BB16A5FFA88F20AFB02F201EB3F
:10D2BC000209B9F80430981CFE283FF679AE208894
:10D2CC0003332B54238801339BB2238005F803B01E
:10D2DC00238801339BB223808A5AEA54E918120A34
:10D2EC004A702088023080B22080B9F804205AB1EC
:10D2FC00D9F80810002993D0284404F0D4FF2388CF
:10D30C00B9F804201344238096F82C2008F1010866
:10D31C005FFA88F39A42C5D823E7092156E79F4262
:10D32C00FBD2ADF8087050E730B5C8B1F2B10024AB
:10D33C00651C8D4206DA1588A54212D805196D7840
:10D34C009D420ED1A14211D9005D48B1013880B285
:10D35C0030B10234A3B210FA84F4A14206DB13807C
:10D36C0030BD055D01352C44A4B2E1E70020F7E7A0
:10D37C0013B513460022ADF806200DF10602044643
:10D38C00FFF7D2FF10B1BDF80600204402B010BD6B
:10D39C0072DF704773DF704774DF704738B5012256
:10D3AC0004460D46B0F8D810D0F8D400FFF7E0FFD3
:10D3BC0000B1057004F13C0204F1D40104F15400F5
:10D3CC00BDE83840FFF7E4BF80F830107047F8B57F
:10D3DC0004460F46002966D0002864D091F87A30B4
:10D3EC001BB191F89830002B5FD1D7F8A030042BEB
:10D3FC005BD0D7F89C30042B57D04FF0000C84F83E
:10D40C0002C007F178060FCE251D0FC50FCE0FC534
:10D41C0096E8070085E8070084F830C0D7F8A430F8
:10D42C006363D7F8A830A36304F1D4024FF6FF73FB
:10D43C00C4F8EAC0A4F8E830C4F8E420C4F8EDC09D
:10D44C0022780AB984F85430224604F155011F257C
:10D45C00C4F8D410384622F8D85FFFF79BFD08BB00
:10D46C00224604F19301C4F8DC1007F13C0022F8C9
:10D47C00E05FFFF78FFDA8B9A369A4F848304FF41B
:10D48C0080730125A4F8503063692064014684F848
:10D49C003C50636404F13C0204F15400FFF778FF44
:10D4AC0000B92570F8BD0E20FCE70720FAE7F8B5A7
:10D4BC00077804460D46002F00F0F6800023C0F8D4
:10D4CC00EA30C0F8ED30C388817000F1EA060BB188
:10D4DC00012903D0E37943B1022D06D1636BABB1C3
:10D4EC00012284F8F1200820984704F1EB0304F1A1
:10D4FC00F10113F8012B12B99942FAD117466B1EA0
:10D50C00032B4ED8DFE803F0050B0F1284F8F13033
:10D51C00EBE7A3791BB194F8243003B95FB9E37935
:10D52C000BB1002F3FD1237A002B3ED1637A002B15
:10D53C000CBF00250425636BA570002B37D0033D71
:10D54C00012D34D8627992B394F8F2207ABB84F826
:10D55C00F420012284F8F3200720984704F13C05BD
:10D56C0018220021284604F0C7FEE26A531E01214E
:10D57C00022B94F8243084F83C1028BF0A4684F817
:10D58C00512033B1A36A5A1E022A28BF0B4684F8D5
:10D59C005230A378042B1CD8DFE803F06D0D233335
:10D5AC0053000025C7E70225C5E70325C3E7002381
:10D5BC0084F8F330D2E7012384F831300023C4E936
:10D5CC001063C4F8E430022384F83C308023A4F8C0
:10D5DC004830A378002B52D1636B002B60D1002014
:10D5EC005DE0022384F83130032384F83C30236956
:10D5FC00A4F848300023C4F8E430E368266463647C
:10D60C00E7E763696364A369A4F848306379B3B14D
:10D61C0094F8F2309BB994F8F43083B1022384F877
:10D62C00503004212046FFF7B9FE0028D1D1052344
:10D63C0084F8313004F1D403C4F8E430C9E703238F
:10D64C00F6E7E3696364236AA4F84830637983B12D
:10D65C0094F8F2306BB994F8F43053B1022384F897
:10D66C00503004212046FFF799FE0028B1D1062343
:10D67C00DEE70423DCE7002384F83130A9E7D4F893
:10D68C00E4102A4604F15400FFF782FE38B994F8EE
:10D69C00301094F85400FFF77DFE00289CD0F8BDA4
:10D6AC0094F8310098479AE70820F8E70388112B83
:10D6BC0010B50C460AD0262B1FD0102B05D1C37BDE
:10D6CC00012B02D18388A1F8E83010BD0022838899
:10D6DC0081F8F220B1F8E8209A42F6D10B79002BB0
:10D6EC00F3D101212046FFF7E2FE0028EDD0A36B19
:10D6FC00002BEAD0BDE810401847037A013B012B00
:10D70C00E3D8897805230131B1FBF3F303EB8303F1
:10D71C00C91AC9B2E6E790F8F1306BB1002380F872
:10D72C00F1300A68C0F8EA208A88A0F8EE208A79DD
:10D73C0080F8F020184670470820704790F8F310D6
:10D74C00034651B1009900200A4314BF012202463E
:10D75C0083F8F30083F8F42070470820704738B53D
:10D76C00044690F85400FFF717FE012384F8F230BA
:10D77C00002384F8F43084F8503006212046FFF75B
:10D78C000DFE054638B9A1782046FFF790FE10B182
:10D79C00A36B03B19847284638BD75DF704776DF19
:10D7AC0070477ADF70477BDF70470000034B1A88A5
:10D7BC0082420CBF18460020704700BF282300206F
:10D7CC00024B9B6903B11847704700BF0C23002024
:10D7DC0073B585B22846FFF7E9FF044638B3174EF8
:10D7EC00027A337B9A420CD200F10A012846FFF7E9
:10D7FC00D4FFF0B111281AD002B0BDE87040FFF789
:10D80C00DFBF00230372337C43B13B212846FFF773
:10D81C00C6FF30F0080301D0FFF7D2FF736933B1B4
:10D82C0000228DF80420ADF8065001A8984702B0EC
:10D83C0070BD237A01332372F9E700BF0C2300205B
:10D84C0013B50B46497A02460E4871B9D0E901105E
:10D85C001C7A002C18BF01465868FCF7FDF878B10B
:10D86C0002B0BDE81040FFF7ABBF0021197243694D
:10D87C0033B101218DF80410ADF8062001A89847AA
:10D88C0002B010BD0C2300204B8802889A4212D89B
:10D89C0042889A420FD380888B8840F2F3118842D9
:10D8AC0094BF021A421A9A4205D80844984234BFCF
:10D8BC000020012070470020704700000388122BC5
:10D8CC0070B5014659D004D8102B1ED0112B44D062
:10D8DC0070BD502BFCD12F4BC288DB899A42F7D1FB
:10D8EC00038A022BF4D186883046FFF75FFF05468A
:10D8FC000028EDD001F1120000F028FA38BB68685E
:10D90C00FCF7D8F80028E3D009E0C37B012BDFD16A
:10D91C004FF6FF70FFF74AFF054620B90420BDE81B
:10D92C007040FFF74DBF1C4A8E880680002303729F
:10D93C001368C0F80A305368C0F80E3010310A3042
:10D94C00FFF7A2FF134B6872DB89002BC0D129466D
:10D95C003046BDE87040FFF773BF8088FFF726FFA5
:10D96C0004460028B4D04068FCF7A4F808B1FFF7CF
:10D97C0027FF4FF6FF732380AAE786883046FFF710
:10D98C0015FF05460028A3D008310A30FFF77CFFAD
:10D99C006872DCE70C2300203C230020F8B5064617
:10D9AC0048B305460FCD154F3C460FC495E807000C
:10D9BC0084E807003068124C3C60B0B1FFF7F1FE10
:10D9CC00C0B9326813682360536863600D480E4A0F
:10D9DC004FF6FF7303800D4B40F8043F0021FCF71A
:10D9EC0029F8002818BF032004E02046FFF7DBFECF
:10D9FC000028EBD0F8BD0E20FCE700BF0C23002064
:10DA0C003C23002028230020DDD7010048230020E0
:10DA1C00F7B5174601900E4691B1019C6CB10025EB
:10DA2C002C46294601A8FDF7E4FA18B13946A8B2EC
:10DA3C00B04701340135142DF3D1204603B0F0BDAD
:10DA4C000C46FAE70AB1FDF7B3BAFDF7C8BA73B5DD
:10DA5C000191019C06466CB100252C46294601A873
:10DA6C00FDF7C7FA18B106EB440301349D8001356C
:10DA7C00142DF3D13046346002B070BD2DE9F04363
:10DA8C0003888488103B8DB00A2B1ED8DFE803F086
:10DA9C0006361D1D1D1D1D1D1D5B3D002E4FBB683B
:10DAAC00DB43009379686846FDF7FCFA009901A8FE
:10DABC00FFF7CDFF0DF108080026019B9E4207D30E
:10DACC00132C12D90420FBF7FBFD0DB0BDE8F0833D
:10DADC0038F8029B00250135494607EB8500FDF718
:10DAEC007EFA1E2DF7D10136E7E721461B48FDF7DC
:10DAFC005FFA1B482146FDF75BFAE6E7174821461B
:10DB0C000DB0BDE8F043FDF76ABA027A15483F2A1A
:10DB1C004FEA1215214694BF00220122FFF792FF13
:10DB2C00022D94BF002201220F482146FFF78AFFE5
:10DB3C00012D0E4894BF0022012221460DB0BDE8F4
:10DB4C00F043FFF77FBF037A002BBED1427A054822
:10DB5C00C2F3C0022146F1E76823002070230020A5
:10DB6C006C230020802300207C23002078230020BD
:10DB7C001328014602D80248FDF73BBA0020704733
:10DB8C006C230020FFF7F4BF10B50446FFF7F0FF3D
:10DB9C0038B104482146FDF72CFA002814BF0220A6
:10DBAC00012010BD7023002010B50446FFF7E0FFE4
:10DBBC0028B121460248BDE81040FDF71ABA10BD45
:10DBCC007823002010B50446FFF7D2FF28B1214678
:10DBDC000248BDE81040FDF70CBA10BD7C230020B4
:10DBEC0010B50446FFF7C4FF28B121460248BDE832
:10DBFC001040FDF7FEB910BD8023002010B5034B7B
:10DC0C0004465968FFF723FF204610BD6823002007
:10DC1C0010B50446FFF7ACFF002814BF20461420B3
:10DC2C0010BD000008B518210248FDF7EBF9C0B291
:10DC3C0008BD00BF6823002070B50A4E054630466B
:10DC4C000C46FDF7D6F958B12846FFF791FF38B1CD
:10DC5C000734294606EB8400BDE87040FDF7C9B9CE
:10DC6C00002070BD68230020F8B50B4F05463846E0
:10DC7C000C461646FDF7BDF960B12846FFF778FF54
:10DC8C0040B107343246294607EB8400BDE8F84022
:10DC9C00FFF7D8BEF8BD00BF68230020F8B50A4DC9
:10DCAC0004460E46014628461746FDF7A2F948B130
:10DCBC00063405EB84043A4660683146BDE8F8400A
:10DCCC00FFF7A6BEF8BD00BF6823002070B505465F
:10DCDC00164608460AB90E2070BD00231360002DAD
:10DCEC00F9D02B68002BF6D0EB8813F003040ED17F
:10DCFC00FFF78EFFC0B214280BD02B7983420AD9C0
:10DD0C00EA882B6800FB023030602046E4E70720ED
:10DD1C00E2E70520E0E70420DEE7AADF7047ABDF8F
:10DD2C007047002301380B70042806D8DFE800F098
:10DD3C000306080A0C0011230B7070472123FBE724
:10DD4C003123F9E71223F7E72223F5E7008800F0E7
:10DD5C00010070470B7803704B78437002207047BA
:10DD6C0038B5044608460D4604F0F9FA6560208083
:10DD7C0038BDF0B58B7891B00C46012B38BF012320
:10DD8C0000278DF80E3005460B88607CADF80C3002
:10DD9C006946ADF800708DF80270FFF7C2FFA07CE9
:10DDAC000DF10101FFF7BDFF1646237BE27B217DC0
:10DDBC0043EAC203227C43EA02139DF80220B942D3
:10DDCC0022F0190203F0190314BF0221012113439D
:10DDDC0061F342031C22394609A88DF8023004F085
:10DDEC008BFA637B13F0300F14D00DF10901E07C3A
:10DDFC00ADF808708DF80A70FFF793FF11238DF8BA
:10DE0C0008309DF80A30012102AA61F342038DF813
:10DE1C000A300E92637B8DF82430A37B8DF825306D
:10DE2C000023CDE90633089303AB0493A388ADF824
:10DE3C001C30A368CDF814D01BB1E288ADF81820C3
:10DE4C000893A36973B301A90022ADF804208A706A
:10DE5C001A88ADF82C205A88ADF82E205A680D91EE
:10DE6C00187B0A92FFF75DFFA3690DF10501587B42
:10DE7C00FFF757FFA3699A7A197A41EAC201DA7A55
:10DE8C009B7B41EA02119DF80620002B01F0190141
:10DE9C0022F0190214BF02230123114363F3420140
:10DEAC008DF80610E36903B10C93334604AA09A953
:10DEBC002846FFF732FF11B0F0BDF0B50C4689B023
:10DECC0016461022054600210DEB020004F014FA50
:10DEDC00A378A079012B38BF01238DF80A3001AF4C
:10DEEC002388ADF80830394602AB0393FFF719FFCE
:10DEFC00E0790DF10501FFF714FFE2786379217ADF
:10DF0C00049743EAC203227943EA02139DF80620E0
:10DF1C00002922F0190203F0190314BF0221012178
:10DF2C00134361F342038DF806306389ADF8143066
:10DF3C00A389ADF81630E389ADF818303246236961
:10DF4C00079303A92846FFF7EAFE09B0F0BDA0DF4E
:10DF5C007047A1DF7047ADDF7047B3DF7047B4DFA8
:10DF6C00704710B50446408800F00CFDA080204698
:10DF7C00BDE8104001F006BD30B587B005460C4633
:10DF8C001422002101A804F0B7F9082301A88DF888
:10DF9C000430ADF806500394FFF7E3FF07B030BD33
:10DFAC0030B587B005461422002101A804F0A4F96D
:10DFBC004FF6FF739D42ADF8065023D0284600F073
:10DFCC0087FB1128044617D007D860B10B2811D055
:10DFDC0021462846FFF7D0FF03E043F202039842A4
:10DFEC00F6D1002209E00F2301A88DF80430FFF7C9
:10DFFC00B8FFF6E71023F7E70122034B2846197800
:10E00C00FFF732FE07B030BDEB230020FFF7C8BF8F
:10E01C00024B034918780022FFF740BEED23002085
:10E02C0031E001002DE9F047DFF8008188B098F865
:10E03C0000100546FFF700FE0646002873D128465F
:10E04C0000F098FB0828014622D006D888B1062893
:10E05C004BD02846FFF790FF09E043F202039842A9
:10E06C0005D043F20143984259D01128F1D1012433
:10E07C0046E03146142203A804F03EF9112303A80C
:10E08C008DF80C30ADF80E500126FFF76AFFEEE765
:10E09C000DF10600FFF761FF344601274FF0020A2D
:10E0AC000DF10809BDF80630BB421ED900224946C5
:10E0BC003846CDE903A9FFF752FFB0B9BDF80830D7
:10E0CC003CB942F605241B1B5C425C410137BFB2D4
:10E0DC00E8E742F602129342F8D101AB03AA3946A3
:10E0EC0028460493FFF737FF30B1284600F04AFC6E
:10E0FC0000F05AFB002403E0BDF80430002BF4D0F0
:10E10C000B4B224619782846FFF7AEFD98F8001005
:10E11C003246284608B0BDE8F047FFF7A5BD2846B3
:10E12C00FFF73EFFA3E708B0BDE8F087EE23002021
:10E13C00ED23002013B5044600F024FC00236A46AE
:10E14C00092101F049F8052805D1044B0122197861
:10E15C002046FFF789FD02B010BD00BFE923002067
:10E16C0008B5084B084918780022FFF797FD0246BE
:10E17C0030B9064B06491878BDE80840FFF78EBD4C
:10E18C0008BD00BFEC230020DDE10100E9230020E5
:10E19C00A1E1010037B542F6A623ADF800300A4BD9
:10E1AC00044618680190012501AA69462046ADF87D
:10E1BC000250FFF7CCFE28B9044B2A4619782046AA
:10E1CC00FFF752FD03B030BD44250200E8230020C8
:10E1DC0030B5012187B005461D48FCF740FF0446C9
:10E1EC00BFF35F8F70BB284600F00AFA1128014676
:10E1FC001DD007D840B30B2817D02846FFF7BCFE1C
:10E20C00002412E0862803D043F202039842F3E77D
:10E21C001422214601A804F06FF8072301A88DF8F9
:10E22C000430ADF80650FFF79CFE224600E00122B8
:10E23C00084B28461978FFF717FD1CB9BFF35F8F01
:10E24C00034B1C6007B030BD01240246F0E700BF51
:10E25C00E4230020EC23002038B503780446A3B94E
:10E26C004088FFF79DFE6588284600F071FA28B1BA
:10E27C00064B012219782846FFF7F6FC6088FFF759
:10E28C0059FFBDE83840FFF76BBF38BDED230020C8
:10E29C0037B50378092B044630D1427A72BB057A24
:10E2AC00072D1BD0082D2ED0012D27D180886A4632
:10E2BC00294601F0C1F908BB019B1B78F3B1A0887A
:10E2CC0000F08EFB4FF6FF73984217D0124B2A4684
:10E2DC001978FFF7C9FCFFF79BFE0FE0808800F070
:10E2EC007FFB4FF6FF739842044607D00B4B01227D
:10E2FC001978FFF7B9FC2046FFF71CFF03B0BDE807
:10E30C003040FFF72DBF064B19680129F6D1BFF33A
:10E31C005F8F1A60F2E700BFED230020EC23002092
:10E32C00E42300202DE9F843FFF77CFCDFF878901C
:10E33C00DFF8788089F80000FFF774FC88F800009B
:10E34C00FFF770FC1A4F1B4E3870FFF76BFC3070E8
:10E35C00FFF768FC184D194C2870FFF763FC207010
:10E36C00FFF760FC164B187099F80030182B18D07A
:10E37C0098F80030182B14D03B78182B11D0337828
:10E38C00182B0ED02B78182B0BD02378182B08D0E9
:10E39C00182806D00B4B00201860BFF35F8FBDE828
:10E3AC00F8830320FBE700BFEC230020EB230020C5
:10E3BC00ED230020EE230020E9230020E823002099
:10E3CC00EA230020E423002073B50D4B0024CDE993
:10E3DC0000340C4B0E46224619780546FFF744FCD8
:10E3EC00094A0A4B2846A64208BF1346019300F07F
:10E3FC00C9FA2246694600F05BFF02B070BD00BF4F
:10E40C0001000900E9230020482502004C250200E8
:10E41C0070B503888488502B86B0054638D00ED84A
:10E42C00352B48D0362B63D03F4B4049187800220F
:10E43C00FFF734FC06B0BDE87040FFF7E9BD522B86
:10E44C0022D0542BF0D11422002101A803F054FF48
:10E45C00122320468DF80430ADF8064000F092FAF5
:10E46C00ADF8080000F0A0F9314B204619780022D5
:10E47C00FFF7FAFB2F4B204619780022FFF7F4FB2D
:10E48C0001A8FFF76EFDCFE72046FFF789FDCBE72C
:10E49C00037B012BC8D1827A012AC5D1018942F6AE
:10E4AC0002139942C0D1244B20461978FFF7DCFBAC
:10E4BC00FFF756FEB8E7214E20463178FFF7BCFB3C
:10E4CC000028B1D0002231782046FFF7CDFBEA8836
:10E4DC003ABBAE89012E24D1E9892046FFF739FDDC
:10E4EC00F8B9174B324619782046FFF7BDFB9BE76E
:10E4FC00134E20463178FFF79FFB002894D03178DB
:10E50C0000222046FFF7B0FBE98851B9EB89012BBB
:10E51C0003D1297C003918BF01212046FFF754FF95
:10E52C0082E70021F9E700BFEB23002019E001008E
:10E53C00EE230020ED230020EC230020E823002014
:10E54C00EA230020AFDF7047B1DF7047B2DF7047BE
:10E55C00B3DF704710B50446808800F041FA608044
:10E56C002046BDE8104001F00FBA0000F0B5184B82
:10E57C00184D93E8030089B001AE86E803004FF60E
:10E58C00FF772888B8421CD00022314600F090FE5C
:10E59C000446C0B11422002103A803F0ADFE2B8861
:10E5AC00ADF81030112C0CD0862C0CBF072308238F
:10E5BC0003A80EBF8DF80C308DF80C300594FFF7C6
:10E5CC00C9FF09B0F0BD288800F0CFFE2880D8E73D
:10E5DC0050250200F0230020044B1A884FF6FF73DD
:10E5EC009A4201D0FFF7C2BF704700BFF023002052
:10E5FC00024B4FF6FF721A8000207047F023002068
:10E60C002DE9F04F85B0814600F0BCF94FF6FF7351
:10E61C009842064659D001274FF0030B3A466B46F9
:10E62C000821304601F00CF80137BFB2054600282E
:10E63C0046D1DDF804A0D046032348F806BB0AF106
:10E64C00040241464846FFF781FF044638BB02AA44
:10E65C000821304600F0F0FF30B105280FD003241C
:10E66C00204605B0BDE8F08F0399BAF804308A88CB
:10E67C009A4204D10631404603F0DDFD30B13246FA
:10E68C000821304601F067F80446E9E708213046D6
:10E69C0001F038F800280CBF0B240324E0E70C2809
:10E6AC000CD0052800D12C460821304601F02AF860
:10E6BC00002818BF0324002DB0D1D1E70125F3E7C2
:10E6CC00072814BF04460C24CAE743F20204C7E728
:10E6DC002DE9F341074600F055F94FF6FF739842C8
:10E6EC0018D10024032526464FF001082B4622465C
:10E6FC0031463846FFF728FF042821D0082825D0BA
:10E70C000B281ED115F002030FD196B9ACB902B08B
:10E71C00BDE8F0816A46082100F08EFF0028E0D1A8
:10E72C00019B9C881D689E1DDEE701254FF00008AB
:10E73C00DCE703251C461E46F8E703253446F5E7BF
:10E74C001120B8F1000F08BF0B20E0E70020F8E71C
:10E75C001FB50DF10703039300F014F902AA012170
:10E76C0000F06AFF20B9039B187805B05DF804FB34
:10E77C000020FAE770B505460A48FFF7E9FE70B9C4
:10E78C00084C43F2030621884FF6FF722846FFF728
:10E79C00D9FEB04204D1238801332380F3E7032050
:10E7AC0070BD00BFF223002013B5074A044692E85F
:10E7BC0003006B4683E8030000221946204600F054
:10E7CC0077FD02B010BD00BF582502006EDF704708
:10E7DC006FDF704746DF70472DE9F04F9BB01D4649
:10E7EC005023259F01908A4603931646BAB1C5B1B2
:10E7FC0000232B604FF00108249A00239AB1AFB18B
:10E80C003B604FF001090DF1180B0493CDF814B0D7
:10E81C00002454450CD100201BB0BDE8F08F90466D
:10E82C00EAE7A846E8E7DDF89090ECE7B946EAE7B6
:10E83C0050220021584603F05FFD019803AB30F8DD
:10E84C00140004AA072100F0C7FC20F002000528E0
:10E85C00E2D09DF82930032B26D8B8F1000F0ED04A
:10E86C00C4EBC402B318DDF82910B150BDF82D204B
:10E87C009A809DF82F209A712B6801332B60B9F187
:10E88C00000F0FD0249A0DF1190302EB04120DF1B5
:10E89C00290153F8040B42F8040B8B42F9D13B6865
:10E8AC0001333B600134B4E743F20220B4E7421E6B
:10E8BC0000F10F0312F8010F10B99A42FAD1704708
:10E8CC000120704708B570B171B103780A785340D4
:10E8DC0013F0FE0F08D106220131013003F0ABFC1E
:10E8EC00B0FA80F0400908BD0020FCE72DE9F047A4
:10E8FC0000F101084F1C06460D4600F1110901F10B
:10E90C00110A10223946404603F095FC0446D0B952
:10E91C004046FFF7CCFF18B13846FFF7C8FF044656
:10E92C0051464846FFF7CEFF737C03F0FC03042BE3
:10E93C0005D06B7C03F0FC03042B18BF044604F0D9
:10E94C000100BDE8F0870024EAE77FB505460E46D6
:10E95C0000F078FC02AA0DF10601072000F07AFC09
:10E96C0010B94FF6FF7409E0BDF80640B442F1D07F
:10E97C0003992846FFF7BAFF0028EBD0204604B0D5
:10E98C0070BD0000132810B5044602D94FF6FF7075
:10E99C0010BDFFF7EDF80028F8D00A20014B4443D6
:10E9AC00185BF5E7F4230020132838B505460C4610
:10E9BC0002D943F2020038BDFFF7DAF80028F8D08C
:10E9CC00064B0A2000FB0530D0F802302360C388C8
:10E9DC00A380037AA3710020EDE700BFF42300208D
:10E9EC004FF6FF7398422DE9F04105460CD00C4FC1
:10E9FC0000244FF00A0808FB04F3A6B2DB5BAB4221
:10EA0C0005D00134142CF6D14FF6FF7604E03046D5
:10EA1C00FFF7AEF80028F4D03046BDE8F08100BF17
:10EA2C00F4230020038843B9821C0A3012F8013BFE
:10EA3C001BB98242FAD1184670470120704710B5B5
:10EA4C000446FFF7EFFF58B122880B889A4208D191
:10EA5C0008220231A01C03F0EEFBB0FA80F0400952
:10EA6C0010BD0020FCE730B585B0044600F0EAFB91
:10EA7C0002AA0DF10601072000F0ECFB10B94FF6CD
:10EA8C00FF700FE0039D204605F14601FFF7D7FF0D
:10EA9C0030B905F12A012046FFF7D1FF0028E7D055
:10EAAC00BDF8060005B030BD13289FBF0A2358439C
:10EABC00014B1952704700BFF423002038B50546AE
:10EACC00FFF78EFF0446284600F026FE38B9132CBB
