:1000000000800020750300005D03000085220000D1
:1000100061030000630300006503000000000000AE
:100020000000000000000000000000006703000066
:1000300069030000000000006B0300006D03000076
:100040002D6400006F0300003D6400006F0300009A
:100050006F030000000000002961000000000000A4
:100060006F0300006F0300006F0300006F030000C8
:100070006F0300006F0300006F0300006F030000B8
:100080006F030000712200006F0300006F03000087
:100090006F0300006F0300006F0300006F03000098
:1000A0006F0300006F0300006F03000000000000FA
:1000B0000000000000000000000000000000000040
:1000C0000000000000000000000000000000000030
:1000D0000000000000000000000000002984000073
:1000E0000000000000000000000000000000000010
:1000F0000000000000000000000000000000000000
:1001000000000000000000000000000000000000EF
:1001100000000000000000000000000000000000DF
:1001200000000000000000000000000000000000CF
:1001300000000000000000000000000000000000BF
:1001400000000000000000000000000000000000AF
:10015000000000000000000000000000000000009F
:10016000000000000000000000000000000000008F
:10017000000000000000000000000000000000007F
:10018000000000000000000000000000000000006F
:10019000000000000000000000000000000000005F
:1001A000000000000000000000000000000000004F
:1001B000000000000000000000000000000000003F
:1001C000000000000000000000000000000000002F
:1001D000000000000000000000000000000000001F
:1001E000000000000000000000000000000000000F
:1001F00000000000000000000000000000000000FF
:10020000354936480A1A02D0072291438D463449AF
:1002100034480A1A06D00722914381F30988022242
:1002200082F3148830483149314A00F044F83148AB
:100230003149324A00F03FF831483249324A00F041
:100240003AF832483249334A00F035F832483349F7
:10025000334A00F030F833483349344A00F02BF881
:1002600033483449344A00F026F8344834490022EF
:1002700000F02CF833483449002200F027F83348C6
:100280003349091A082902DB002202604160314A21
:1002900090471F481F49884205D00268043003B4C4
:1002A000904703BCF7E700208646EC46002000217B
:1002B000294A9047FEE7884207D0521A05D00378B2
:1002C00001300B700131013AF9D17047884202D0F8
:1002D00002700130FAE770470080002000700020B3
:1002E00000800020008000202CD10000D8000020D9
:1002F00000020020BC030000BC030000D4A30000E7
:100300002CD10000D8000020D800002018A6000042
:1003100018A6000018A6000018A6000018A60000E5
:1003200018A6000018A6000018A600002CD1000096
:1003300054D2000000020020000200200002002031
:10034000BC0F0020BC0F0020BC0F0020BC0F002001
:10035000BC1F00208B03000031920000FEE7FEE787
:10036000FEE7FEE7FEE7FEE7FEE7FEE7FEE7FEE765
:1003700000F002B8FFF7FCBF0B484FF007018843BD
:1003800085460A488047FFF73BBF094809490A4AA2
:10039000884207D0521A05D0037801300B70013122
:1003A000013AF9D17047000000800020E595000077
:0C03B00040A5000000000020D800002044
:1003BC00F0B595B01D46164608460C4604F055FFA0
:1003CC001A9B0D93CDE9086500252B46082205A93B
:1003DC0020460A958DF82C500C9504F06DFF079B68
:1003EC000293069B03939DF814308DF8115003F083
:1003FC000302012A1DD1BDF81420059DC3F3C203CD
:10040C00C2F383168DF81030B20008230EA92046D3
:10041C0004F052FFC5F3952508AB0093324602ABAE
:10042C000EA9284600F0FCFE204604F022FF15B071
:10043C00F0BD022AF8D1BDF81650C3F3C203C5F3C0
:10044C0089158DF810300827082D2E4628BF082650
:10045C003B4632460EA9204604F02EFFAD1B08ABDE
:10046C0002AA31460EA8374400F03EFF002DEBD116
:10047C00DAE70000014B01221A707047410200209C
:10048C007047000070B50F4D06460FCD88B06C4616
:10049C000FC495E80F00002E84E80F000A4A0B48A1
:1004AC004FF0060308BF00226946009305F0B2FB2B
:1004BC0018B1074A432101F00FFA064B1E7008B021
:1004CC0070BD00BF68A6000081040000D8000020A9
:1004DC0018A600000002002007B5044B0093044A44
:1004EC004023FFF765FF03B05DF804FB0105000036
:1004FC000102002038B50E480E4C0F4D002323701E
:10050C000378EB5CD2B273B1043006F0CBFD18B1BA
:10051C000A4A532101F0E0F9094B1A7812B12378F9
:10052C00002BFBD038BD0C3006F046FAEFE700BFCD
:10053C00D800002041020020BC08002018A60000B2
:10054C000002002008B50848084A0378D35C3BB188
:10055C00043006F017FDBDE808400020FFF792BFFD
:10056C000C3006F0BFF9F6E7D8000020BC080020DC
:10057C0000230428CB604B6098BF044B044A98BFFF
:10058C0053F820308A600B60704700BF24AB00002A
:10059C0000AB0000CB6800225A717047C368DB685F
:1005AC0000225A717047CB6801225A717047C36898
:1005BC00DB6801225A7170470D4A8A6070B50D4A8A
:1005CC000D4C0023121BCB604B600B6012091D46B7
:1005DC009A4207D0E6683679FF2E05D0854202D1C3
:1005EC00A3680B6070BD013501331034F0E700BF18
:1005FC0038AB0000ACA400008CA400002DE9F3473C
:10060C008368D3F84831C3F340059B07074606D5EA
:10061C000022114602B0BDE8F04703F073BE144E41
:10062C00144CDFF85480DFF85490DFF854A0A41B6E
:10063C002409A54202D102B0BDE8F087F168B36885
:10064C000A79FF2A07D10F4A0821384602F0C0FD6B
:10065C0001351036EDE74879002814BF414649466C
:10066C00CDE9001238465246082102F0B1FDEFE701
:10067C008CA40000ACA4000094A600009CA6000072
:10068C00C4A60000A5A600002DE9F74F154D164C89
:10069C0052F804AC0193641B06468846174624099D
:1006AC004FF000094C4508D1104A53460221304600
:1006BC0003B0BDE8F04F02F08BBDA968504609F0BD
:1006CC002FFBAB46103548B9DDF804C03B4642461B
:1006DC005946304603B0BDE8F04F604709F10109B7
:1006EC00E0E700BF8CA40000ACA40000E5A600006D
:1006FC00014BFFF7C9BF00BFDD0A0000014BFFF73C
:10070C00C3BF00BFA1050000014BFFF7BDBF00BF79
:10071C00B3050000014BFFF7B7BF00BFB90B0000DA
:10072C000378024613F0040006D003F003000128FE
:10073C0003D0022809D0012070470B6812880233BD
:10074C00C2F3831213440B6070470B685288023358
:10075C0003EB92130B60EEE72DE9F04FDFF818A1D5
:10076C000F4685B00446861C0020154601F09AFB06
:10077C00DAF804203A60DAF8083003F580739B1A33
:10078C000AF21C470AF583690AF21448B34219D3DA
:10079C000020002D6CD004F00F039B0143F00503E7
:1007AC0063F30F00DAF80430DAB2033233444AF858
:1007BC0022000020CAF8043001F084FB012005B0AF
:1007CC00BDE8F08F0121384601F0E9FE484601F002
:1007DC0001FF404601F0FEFEDAF808000090C0B2BE
:1007EC0003300AEB80006946FFF79AFF009B8346B3
:1007FC00B8B9DAB20AEB8202D16801919A1C0133C2
:10080C00DBB20AEB83030092D86801F00303012BDF
:10081C0026D0022B07D019494FF4C27001F0F0FD1D
:10082C000BE0D8B2DCE7BDF80630C3F38913033311
:10083C004FEA104B02EB93030093404601F0CDFEC0
:10084C0010B1009BCAF808305946384601F0A7FE93
:10085C00DAF80830DAF8042003F580739B1A95E770
:10086C00BDF80430C3F383134FEA104B1344E3E792
:10087C00A40544F0060095E714030020FBA6000035
:10088C00012907B5034604D08168D1F848118907BE
:10089C0007D500221146184603B05DF804EB03F0AF
:1008AC0031BD53680193054B00931368044A022130
:1008BC0002F08EFC03B05DF804FB00BF50A70000F3
:1008CC0046A700008368D3F848319B0703D5002264
:1008DC00114603F017BD024A022102F079BC00BF99
:1008EC0065A70000FFF7EEBF30B50446084681B19E
:1008FC00094B0A4A0A49D21AD20800239A4201D15A
:10090C00052006E031F823502068854202D123608F
:10091C00002030BD0133F1E7D4A300008CA400000B
:10092C00000000202DE9F84F1E4B1F4800221A70C2
:10093C0004F054FC814690BB1C48DFF874801D4CBD
:10094C00DFF874A004F052FEA4EB0804E4084D4652
:10095C00A54208D10023194A19469C421AD022F804
:10096C0023100133F9E700273E4608EBC50BB542CF
:10097C0009D058F83610DBF80000142209F034F9CD
:10098C000028C8BF01370136B442F0D12AF82570CF
:10099C000135DDE70A48A200002109F06CF9484650
:1009AC00BDE8F88F1403002008A50000F4AA00008D
:1009BC00D4A300008CA40000000000200200002042
:1009CC005C00002007B5019001A8FFF78DFF30B93E
:1009DC00019A044B53F8320003B05DF804FB00207D
:1009EC00FAE700BFD4A30000002310B5CB604B6026
:1009FC00034B8B600C460121FFF7E4FF206010BD18
:100A0C0000AB0000094B013903EBC000032909D8E6
:100A1C00DFE801F00A0204060420704700797047F1
:100A2C00407970470020704702207047D4A3000023
:100A3C0030B5124C00EB400054F8215002FA00F390
:100A4C00072202FA00F06B400D4A03406B40C3F3DF
:100A5C00821044F8213002EB8101C3F3C2028242BE
:100A6C0038BF0246C3F34220824203F0070338BF6B
:100A7C000246934238BF13464B8030BD5C000020C9
:100A8C000000002013B50446019101A811468BB15A
:100A9C00FFF72AFF10B1002002B010BD019A0A4BDB
:100AAC0004EB440453F822300720A0401840E040E7
:100ABC00C0B2F1E7FFF718FF0028ECD1019A034B05
:100ACC0003EBC2039879E7E75C000020D4A3000095
:100ADC00294B2A4A2DE9F04F9B1A4FEAD30ACB68CF
:100AEC005B7985B005460E461BB9254A022102F0FA
:100AFC006FFB244B244ADFF894800821284602F02F
:100B0C0067FB234A0821284602F062FB0024544567
:100B1C0002D105B0BDE8F08FF36893F8049001237F
:100B2C001A4621464846FFF7ADFF0023074601222F
:100B3C0021464846FFF7A6FF01210328814683463C
:100B4C00204628BF4FF00309FFF73CFF5FFA89F9F5
:100B5C00104A58F82910034658F827000E4F0090F9
:100B6C00CB4598BF1746CDE901170C4A08212846FA
:100B7C0002F02EFB0134CAE78CA40000D4A30000C1
:100B8C0078A700008BA7000097A7000010AB00000F
:100B9C00B5A700002CB8000076A70000F2A7000053
:100BAC0013460A46C168FFF793BF00002DE9F74FC3
:100BBC00054699461646002A54D0D9F80070CB68E1
:100BCC004D4993F804A0384609F0AAF80446D8B960
:100BDC00012E07D1494A0221284603B0BDE8F04F47
:100BEC0002F0F6BAD9F80470DFF8148158F8041B37
:100BFC000A22384608F0F8FF002877D00134052C7B
:100C0C00F4D1404A3B4611E03F49384609F088F898
:100C1C00044648B9012E2ED04FF001083B4B3C4AFC
:100C2C009B1ADB0800934AE03A4A3B4602212846CD
:100C3C0003B0BDE8F04F02F0CBBA00231A463146A0
:100C4C005046FFF71FFFA0420FD200213046FFF79E
:100C5C00B9FE424603460221284602F0B9FA013693
:100C6C00BE42EAD103B0BDE8F08F22463146504671
:100C7C00FFF7DEFEF3E7254F254BDFF89C80FF1ACC
:100C8C00FF080026ECE700213846FFF79BFE2022E8
:100C9C00594608F0A9FF034608B1013714E0024693
:100CAC00019039465046FFF7EDFEA042019B16D34A
:100CBC00224639465046FFF7BBFE08F10108B04505
:100CCC00D0D259F828B00027009BBB42DBD159F891
:100CDC002830124A0221284602F07AFAEDE719462A
:100CEC003846FFF76FFE0C4A0346F3E7022EE4B2D8
:100CFC00C1D04FF0020891E708A800000FA800002F
:100D0C0010AB00007AA8000026A800008CA40000FC
:100D1C00D4A300002EA8000043A8000066A8000081
:100D2C0013460A46C168FFF741BF7047034BD3E92E
:100D3C000130C31A58425841704700BF14030020B9
:100D4C002DE9F04385B0FFF7F1FF0546002840F090
:100D5C000A81864CC4F81804BFF34F8FA368009324
:100D6C00DBB2033304EB83006946FFF7D9FC009B2D
:100D7C0018B1D4F81824002A63D0DAB2991C0133C4
:100D8C0004EB8202DBB204EB8303D268DB680293D0
:100D9C0002F00303022B019200915DD1BDF80630E5
:100DAC0073489DF80450C3F389184746502F28BF49
:100DBC00502707F1080167F38F13C1F30901ADF850
:100DCC00063004F023FAC5F3C2050646002800F0ED
:100DDC00B18004F04AFA0023082201A9304604F03D
:100DEC0057FA0099CB43DBB20133C9B20331B7EBED
:100DFC00830F4FEA830204EB81012AD95FFA82F94F
:100E0C000823A7EB0907304604F042FAFFB209F1B8
:100E1C000803584903F0FC033A46304604F038FA0C
:100E2C00009B08F1030803EB98030093D4F81834E3
:100E3C00002B49D1D4F81074DFF83C914FF007081F
:100E4C0067E062689A428BD8A260284605B0BDE87C
:100E5C00F08308233A46E0E7012B6BD1BDF8045030
:100E6C004348C5F38311062928BF062161F3891570
:100E7C00023101F00F018900ADF8045004F0C6F9FD
:100E8C00C5F3C2050646002854D004F0EEF9002341
:100E9C00082201A9304604F0FBF90027BDF8042014
:100EAC00C2F38312BB00974203F10803BED2009930
:100EBC004A1CC9B20331009204EB81010422304672
:100ECC0004F0E6F90137E9E7304604F0D2F9FFF710
:100EDC002DFF80F00105EDB2B7E7FB685A79B2B18E
:100EEC001B79BDF8081003EB430259F8211008FADE
:100EFC0002F3052D03EA010323FA02F308BF0325CD
:100F0C00AB4204D33B6831461B6838469847FB68B4
:100F1C001F68002FE1D1304604F0ABF9384600F0E1
:100F2C00C1FFD4F818340BB9009BA360002000F06B
:100F3C00C9FFCCE7D4F8104474B9104B5B88012B73
:100F4C00C5D90F4B0F481049C01AC008000440F017
:100F5C00020000F075F8BAE7236820469B689847B2
:100F6C00E3681C68E8E700256FE700BF1403002066
:100F7C0008A50000200300205C00002018000020C1
:100F8C00D4A3000004A4000097A800002DE9F347A7
:100F9C0004460F46914601A9012218461E46FFF74A
:100FAC00DBFBDFF8888068B3019D0023A81CB342EB
:100FBC0003EB000132D11E48002101F0B5FA80F399
:100FCC00100A1C4B1C4A4FEA14499B1AB9EBD30F5D
:100FDC0004D31A4940F2A91001F012FA6B1CDBB2CF
:100FEC00E40008EB830304F0380449EA0A40EDB24C
:100FFC0044F00104D860033544EA861343EA87239E
:10100C0048F8253098F800301BB1FFF799FE0028FE
:10101C00FBD1FFF78AFE02B0BDE8F087C9B208EB3E
:10102C00810159F82320CA600133C0E71403002062
:10103C00300700208CA40000D4A30000FBA6000005
:10104C0000231A46FFF7A2BF07B50123019201AA9C
:10105C00FFF79CFF03B05DF804FB07B5CDE9002357
:10106C0002236A46FFF792FF03B05DF804FB1FB53D
:10107C00CDE90123069B039301AA0323FFF786FF07
:10108C0005B05DF804FB1FB5CDE90023069B029368
:10109C00079B03936A460423FFF778FF05B05DF8BE
:1010AC0004FB7FB5CDE90123089B0393099B0493B3
:1010BC000A9B059301AA0523FFF768FF07B05DF8AB
:1010CC0004FB00002DE9F84388461B49D1F8103485
:1010DC00054600241A468AB9EA681471A3B9C1F806
:1010EC0010541360154B164EF61AF608002703F130
:1010FC000709B7420DD12046BDE8F883D2681079B4
:10110C00A04212D01268E6E7DB68196811601D6016
:10111C00E8E719F83720EB6842453946187928BFBB
:10112C004246FFF785FC0137E3E701340A2CD1D1A5
:10113C004FF0FF34DFE700BF14030020D4A30000FE
:10114C008CA4000038B5084B0125D3F810441D7051
:10115C0004B938BDE3685D71236820465B68984725
:10116C00E3681C68F4E700BF14030020C38873B560
:10117C0004460D4633B1144A00921449144A2846C9
:10118C0003F0D4FD217A05291CD0637A4BB1A088D9
:10119C00FFF738FC0F4B104953F82020284603F07A
:1011AC00C5FD227A0D4BA08853F822600021FFF771
:1011BC0009FC0B4903463246284602B0BDE8704094
:1011CC0003F0B4BD02B070BDA0AC000088AC000050
:1011DC0080AC0000F8AC0000DEB800001CAD0000D4
:1011EC00A5AC000010B5037A052B0C460FD0437A42
:1011FC0023B1084A0849204603F098FD07492046C8
:10120C0003F094FD2046BDE8104003F07DBD002A9C
:10121C00F8D0F3E7A0AC0000DEB800000AB700007D
:10122C002DE9F04385B01F460C9D002395F80C90DA
:10123C002B7306460C46904629463846FFF796FF18
:10124C00B8F1060F09D8DFE808F00412181F28338C
:10125C0040003146284603F069FD002229463846F5
:10126C00FFF7C0FF85F80C9005B0BDE8F08322684D
:10127C003146284603F05AFDEFE7D4E90023314606
:10128C00284603F053FDE8E7A36800933146D4E900
:10129C000023284603F04AFDDFE7E3680193A368C7
:1012AC0000933146D4E90023284603F03FFDD4E7F0
:1012BC0023690293E3680193A36800933146D4E950
:1012CC000023284603F032FDC7E7636903932369C3
:1012DC000293E3680193A36800933146D4E9002399
:1012EC00284603F023FDB8E708292DE9F74F80467F
:1012FC000E4617461C463DD800251B7B2573214600
:10130C0010460193FFF732FFDFF888A0DFF888B0B2
:10131C00AE4232D918F805205946204603F006FD96
:10132C000135082DF4D11D49DFF874A0DFF874B035
:10133C00204603F0FBFC4FF000094E4524D918F869
:10134C0009507E2D1ED8284608F008FB002814BF33
:10135C002A462E225946204603F0E8FC09F10109E1
:10136C00B9F1080FE9D1012221463846FFF73AFFBF
:10137C00019B237303B0BDE8F08F5146204603F068
:10138C00D5FCCDE72E22E5E75146204603F0CEFCF6
:10139C00E4E700BFB5AC0000AFAC0000B9AC000096
:1013AC00B7AC0000BBAC000008B5430923D14FF02B
:1013BC008053D3F83021102A1BD1D3F83431032BAE
:1013CC0017D80E4AD15C0E4B0E4A002918BF134693
:1013DC0043F0407343F4605300F01F00C340DB073D
:1013EC0004D409494FF4F67001F00AF84FF0A0400C
:1013FC0008BD034BECE70023EEE700BF94AD000003
:10140C00FFC117703F8E16F030AD0000032810B5E9
:10141C00044603D907493A2000F0F2FF064B1C5D45
:10142C002046FFF7C1FFD0F80405E040C04300F0B0
:10143C00010010BD5EAD000098AD0000032810B592
:10144C00044603D90649412000F0DAFF054B1C5D28
:10145C002046FFF7A9FF0123A340C0F80C3510BDAF
:10146C005EAD000098AD0000032810B5044603D90A
:10147C000649472000F0C4FF054B1C5D2046FFF7D2
:10148C0093FF0123A340C0F8083510BD5EAD0000EA
:10149C0098AD000008B50020FFF7E6FF0120FFF72C
:1014AC00E3FF0220FFF7E0FFBDE808400320FFF751
:1014BC00DBBF08B50020FFF7C1FF0120FFF7BEFF1F
:1014CC000220FFF7BBFFBDE808400320FFF7B6BFC3
:1014DC00032810B5044603D90A495F2000F090FF99
:1014EC00094B1C5D2046FFF75FFF0122D0F8043545
:1014FC00A24022EA03011340C0F80815C0F80C35CD
:10150C0010BD00BF5EAD000098AD00000B2809D0E7
:10151C000C2809D0182809D019280CBF03204FF02B
:10152C00FF30704700207047012070470220704741
:10153C00C20738B5044616D50D20FFF735FF032535
:10154C00C0F834570E20FFF72FFFC0F838570F2084
:10155C00FFF72AFFC0F83C571020FFF725FFC0F813
:10156C004057FFF797FFA30714D50B20FFF71CFF7D
:10157C000C24C0F82C472046FFF716FFC0F8304764
:10158C001820FFF711FFC0F860471920FFF70CFF78
:10159C00C0F8644738BD0000C30710B507D4F0236A
:1015AC00054A4008145C23401943115410BD09012D
:1015BC00C9B20F23F4E700BFE0070020034B044837
:1015CC0019680022490800F0F3BA00BFD0070020C8
:1015DC00F800002038B50B4B1C780B4B02461968F1
:1015EC0000239C4205DC8820084900F009FF0020FC
:1015FC0038BD11F83350954201EBC300F8D00133DC
:10160C00EFE700BFCC070020F00700209CAD0000E6
:10161C0070B504460D46FFF7DDFF30B1436823B1CA
:10162C0029462046BDE87040184770BD10B5C0B2C1
:10163C00FFF7D0FF0446007804F05AFD63785A1E79
:10164C0053425341834208D1044BD3E90023134343
:10165C0003D1BDE81040FFF7B1BF10BDD807002083
:10166C0038B5334A43080446D35CC2074CBF1B0948
:10167C0003F00F030D46042B59D8DFE803F00322C7
:10168C002A363900002952D00121FFF785FF0020AE
:10169C0000F008FC0120A4F12003C4F12001254A2C
:1016AC0020FA01F100FA03F30B43A040D2E9004108
:1016BC0020430B43C2E90003BDE83840002000F092
:1016CC0001BC002918BF02212046BDE83840FFF7B5
:1016DC0063BF41B10321FFF75FFF20460121BDE845
:1016EC003840FFF795BF0121EEE701BB0421EBE782
:1016FC0009B10321E8E7FFF74FFF29462046FFF722
:10170C0087FF284600F0CEFB0120A4F12003C4F192
:10171C002001084A20FA01F100FA03F30B43A04020
:10172C00D2E9004124EA000021EA0303C2E738BDF4
:10173C00E0070020D80700202DE9F041124E134F8E
:10174C0000243378A34208DC114BD3E90023134364
:10175C0018D0BDE8F041FFF731BF3D6805EBC40878
:10176C0015F8340004F0C4FC98F801305A1E5342AA
:10177C005341181A4142414115F83400FFF770FFEC
:10178C000134DEE7BDE8F081CC070020F007002033
:10179C00D8070020092AF7B505460C4616463ED94F
:1017AC0004F0B2FBE8B11F4B1F481D601F4B204FCC
:1017BC001C70204B002110221E6008F05CFA1E4B9E
:1017CC0000200021C3E90001013CE4B20326FF2CF8
:1017DC000DD11A4A1A48002103B0BDE8F04000F0C0
:1017EC00C5B904F05BFB0028DDD003B0F0BD9DF85B
:1017FC00063015F834008DF8046005EBC40223F0B4
:10180C0007038DF8063001A993788DF805303A4618
:10181C0004F084FB013CE4B20028D8D0E5E70720B3
:10182C00E3E700BFF0070020E0070020CC07002012
:10183C0039160000D0070020D807002045170000FB
:10184C0010AE000070B50B4D2B6823B90A4940F25D
:10185C00351000F0D5FD094E00243378A34201D891
:10186C00002070BD2B68012113F8340004F0E2FB5A
:10187C000134F2E7F00700209CAD0000CC070020FB
:10188C0082B001238DF807309DF80730114B18609A
:10189C00596044F2010188429A6012D044F202016C
:1018AC00884206D1DA60DA6812689A61DA6852689E
:1018BC00DA6172B69DF80730002BFBD162B602B02C
:1018CC0070471A611A6992685A611A6912689A61AA
:1018DC001A69ECE7F407002000B583B00290009180
:1018EC00019244F2010071466A4600F003F803B01D
:1018FC0000BD00002DE9F043064685B00F461546A5
:10190C0072B6FFF71FFCFFF71BFA0028FBD1DFF8BC
:10191C00AC8044F201029642B8F802301ED044F278
:10192C00020296423CD15BB1254B26482649C01A8F
:10193C00C0080004D5E9003240F00100FFF78DFB30
:10194C00224BD3F8F030DB0700D500BE2A463946CF
:10195C00304605B0BDE8F043FFF792BF002BEFD047
:10196C00174BD5F80890174C4846E41AE40804F0D5
:10197C000BF82A680297019224046A68009244F0DA
:10198C000104034612494A462046FFF78AFBB8F881
:10199C000230002BD4D00F492046FFF751FBCFE784
:1019AC00002BCDD00648074B0B491B1ADB081B0438
:1019BC003A4643F00100FFF747FBC1E7180000204F
:1019CC00D4A3000004A4000014AE000000ED00E05D
:1019DC002EAE000054AE000068AE000010B5D0E989
:1019EC000243D1E90202A04272EB03032CBF012097
:1019FC00002010BD08B50A4800F01DFC094AD2E9C8
:101A0C000031C018084BD3E9002341F1000190428A
:101A1C0071EB030303D210F1807041F1000108BD9A
:101A2C002C010020180800208008002037B505463E
:101A3C000C460A4801A900F002FD60B10570446033
:101A4C0001A9064800F025FD18B1054800F0F8FB87
:101A5C00002003B030BD0420FBE700BF18010020BC
:101A6C002C010020436970B504461BB92349A520FD
:101A7C0000F0C6FC224B1E7816B90026304670BD0D
:101A8C00FFF7B8FFD4E90223904299412FD30020ED
:101A9C0000F008FA23692BB94FF0FF324FF0FF33F7
:101AAC00C4E90223002000F00DFAD4E90530984770
:101ABC00002000F0F7F925696DB1D4E90212B2F1FA
:101ACC00FF3F08BFB1F1FF3F0FD0691842F1000290
:101ADC00C4E902123546002000F0F4F9002DCCD0F8
:101AEC000848214603F0DEFEC8E70025F3E7B3F112
:101AFC00FF3F08BFB2F1FF3FBFD0F1E780AE00005F
:101B0C0020080020E4AE000013B5114B11491868F1
:101B1C00019008231048582200F07EFC044698B926
:101B2C000E4A0F4801A900F015FA044660B90C489A
:101B3C00012100F067FB01230A4A0948194600F00D
:101B4C00B5FA094B01221A70204602B010BD00BF35
:101B5C00E0AE00002408002018010020811C0000C9
:101B6C002C010020FFFF7F002008002070B50C46E0
:101B7C001546064620B90D4940F25A2000F040FCAB
:101B8C0035B940F25B20094900F03AFC072070BDE2
:101B9C00621E336854424FF0FF304FF0FF31544116
:101BAC00C3E902015D611C610020F0E780AE00001A
:101BBC00F8B50D461746044620B9154940F26B207E
:101BCC0000F01EFC002000F06DF9D4E90223B3F103
:101BDC00FF3F08BFB2F1FF3F15D1FFF70BFF2818ED
:101BEC0041F10001C4E902010126002000F06AF96C
:101BFC005EB12369A76103B1256121460020BDE8D0
:101C0C00F840FFF713BF0026EFE73046F8BD00BFE2
:101C1C0080AE000038B5044620B9124940F293203A
:101C2C0000F0EEFB002000F03DF9D4E90223B3F103
:101C3C00FF3F08BFB2F1FF3F10D04FF0FF324FF023
:101C4C00FF33C4E902230125002000F03BF93DB12C
:101C5C0021460120BDE83840FFF7E8BE0025F3E738
:101C6C00284638BD80AE0000014800F0E4BA00BF41
:101C7C002C0100202DE9F743044600F0C7FA40B1CF
:101C8C006F4AD2E9003113F1807341F10001C2E9CE
:101C9C0000310021204600F0C3FAD0B1694E336800
:101CAC00BBB1204600F0C7FA00210546204600F0E3
:101CBC00BCFA2D1A25F07F45B5F5960F04D3624971
:101CCC0040F2411000F09CFB3068FFF7CBFE002384
:101CDC0033600121204600F0A3FA20B1FFF78AFE01
:101CEC005A4BC3E900015A48564D01A900F0E1FBDB
:101CFC004FF0FF364FF0FF37A0B9DFF85881514E47
:101D0C00404603F0FBFD002800F08B80D0E9022355
:101D1C00B3F1FF3F08BFB2F1FF3F33D1404603F0B0
:101D2C00DDFDEDE70378012B21D0022B09D1DFF883
:101D3C002481404603F0D2FD00287CD0C0E9026724
:101D4C00F7E75BB94168D1E90223B3F1FF3F08BF64
:101D5C00B2F1FF3F02D03F4803F0A4FD01A93C487B
:101D6C0000F0D2FB01A93A4800F0A3FBC4E741689C
:101D7C002B68994202D100232B60EFE7354803F022
:101D8C00C9FDEBE7316891B13168D1E902018242BA
:101D9C008B412FD23368D3E90223B3F1FF3F08BF45
:101DAC00B2F1FF3F03D03168404603F07BFD404663
:101DBC0003F094FDD0E902590746FFF71BFE281AE1
:101DCC0069EB0109012879F1000318DBB0F5350F37
:101DDC0013D3FFF749FF204A024420484FF49603DF
:101DEC00002100F091F9A0B9336813B9204600F036
:101DFC0041F9376003B0BDE8F0832A46EDE7174898
:101E0C00002100F007FA3846FFF72CFE0023336060
:101E1C0076E70D28F7D00C494FF4867000F0F0FAF5
:101E2C00F4E7084B1B68002BE4D1204603B0BDE857
:101E3C00F04300F02DB90A4B01221A708EE700BF57
:101E4C00180800208808002080AE000080080020C0
:101E5C0018010020E4AE0000FFFFB4002C010020AC
:101E6C002008002072B6024A1368013313607047D1
:101E7C008C080020034A1368013B136003B962B657
:101E8C00704700BF8C080020EFF30583C3F30803F1
:101E9C002BB9EFF31480C04300F001007047012010
:101EAC007047000008B5FFF7EFFF012803D0044985
:101EBC00432000F0A5FABDE80840FFF7D3BF00BFF0
:101ECC00F0AE000008B5FFF7DFFF012803D004498E
:101EDC00512000F095FABDE80840FFF7CBBF00BFDA
:101EEC00F0AE000038B50C46054618B90449B320CD
:101EFC0000F086FA2B68C3F84843C3F8084338BD92
:101F0C0039AF000070B50C461646054618B90549A0
:101F1C00A92000F075FA2B68C3F844430EB1C3F83E
:101F2C00044370BD39AF000037B50C46054618B9EF
:101F3C000749BA2000F064FA2B68185928B100221E
:101F4C001A511B590193019B012003B030BD00BFF6
:101F5C0039AF00002DE9F8430E461546044618B972
:101F6C003849552000F04CFA1EB93649562000F07D
:101F7C0047FA1DB93349572000F042FA6379324AC7
:101F8C00DFF8C88042F8235008EBC303304F1B79AD
:101F9C007BB17B88012B09D92E482F4B2F49C01AB6
:101FAC00C008000440F00200FFF74AF80820BDE822
:101FBC00F8833588D4F80090B5F5805F04D32849B0
:101FCC004FF4BE7000F01CFAC9F80855B67894F9B5
:101FDC000450072E03D923496B2000F011FA002D71
:101FEC00B6BF214B05F1604505F00F054FEA4616CB
:101FFC00F6B2AABF05F561455E5585F8006394F904
:10200C000430002B08DB0122590903F01F0302FAEC
:10201C0003F3164A42F82130637908EBC30248F8FF
:10202C0033407B880121022B117109D909480A4BD5
:10203C000F49C01AC008000440F00300FFF700F875
:10204C000020B4E739AF0000980800209008002069
:10205C002000002014A40000D4A3000079AF0000DD
:10206C009BAF0000C8AF000014ED00E000E100E001
:10207C00F7AF000010B5044618B90449872000F0EA
:10208C00BFF9236801221A6010BD00BF39AF0000F0
:10209C0010B5044618B904498D2000F0B1F9236835
:1020AC0001225A6010BD00BF39AF00002DE9F34189
:1020BC000C4616461F46804618B91249962000F069
:1020CC009FF904F150018900D8F8002089B24FF42F
:1020DC008035A5400023C2F80853C2F8485353502A
:1020EC0004F5A8745358019326F07F46019B42F8DF
:1020FC002460C2F844530FB1C2F8045302B0BDE8D7
:10210C00F08100BF39AF00002DE9F74F0D461446A2
:10211C009846074618B93949CD2000F071F94FF4AB
:10212C00803909FA05F949463846FFF7DBFE3A686B
:10213C0005F1500602EB8500B600B6B2D2F80415D4
:10214C00D0F84035C0F840154FF0000B42F806B0FF
:10215C005B1A9259009223F07F43012B009A24F0D2
:10216C007F444FEA850A0BD1254B4FF4806043F036
:10217C00010398473B6843F806B09B590193019BB8
:10218C003868D0F80465C0F84493A31B23F07F4350
:10219C00012B1AD11A4B05F5A875013440F82540CE
:1021AC0043F001034FF4806098473B68D3F8043543
:1021BC009E4208D1384601224946FFF7A3FE002073
:1021CC0003B0BDE8F08F0D20FAE700EB0A03621EA6
:1021DC00C3F84045D0F80415C8F1FF18521A22F084
:1021EC007F4208F57F489045EDD3002AE2D10134B7
:1021FC00C3F84045D0F804359942DAE739AF00000E
:10220C0010B000000A460221FFF77CBE4FF4827129
:10221C00FFF78ABE4FF4803303FA01F1FFF762BE79
:10222C005031890089B2FFF77FBE036801F5A871B0
:10223C0053F8210070470368D3F804057047000079
:10224C0090F90430002B09DB5A09012103F01F031C
:10225C0001FA03F34032024941F82230704700BFC3
:10226C0000E100E0024B034A1B681068184700BFEE
:10227C0098080020900800201EF0040F1CBFEFF3FC
:10228C0009800AE0EFF308800549064A884201D824
:10229C00904202D88D464FF00000034B18470000C7
:1022AC000080002000700020DD220000BFF34F8F63
:1022BC000549064BCA6802F4E0621343CB60BFF3D6
:1022CC004F8F00BFFDE700BF00ED00E00400FA05F2
:1022DC002DE9F74F0546FEF735FFFEF731FD0028D7
:1022EC00FBD13A4C3A483B4B3B4E9F6A7388241ABD
:1022FC00E408240444F00104002D5FD0D3B1AA6992
:10230C0036492046FEF7A0FE73889BB1EB6801931B
:10231C00AB6800933249D5E900232046FEF7B3FEA3
:10232C0073883BB1EB6900932E49D5E90423204611
:10233C00FEF79DFE274BDB6A980705D573881BB10A
:10234C0029492046FEF77CFEDFF8A0A0DFF8A0B0FC
:10235C004FF000084FF0010909FA08F33B4208D08E
:10236C005AF828202AB173881BB159462046FEF72B
:10237C006BFE08F10108B8F11A0FEDD1390607D53B
:10238C0073882BB1134B1B495A6B2046FEF75CFE2E
:10239C003A0407D573882BB10E4B17499A6B20461C
:1023AC00FEF752FE0B4BD3F8F030DB0700D500BE26
:1023BC002846FFF77BFF03B0BDE8F08F002BB9D0A8
:1023CC000E492046FEF73CFEB4E700BF6CA40000AB
:1023DC00D4A3000000ED00E04C00002016B000007B
:1023EC002BB0000060B00000BBB0000004B60000D1
:1023FC00FFB000000AB100002AB1000088B0000054
:10240C0007B5CDE900016A46002144F20200FFF74E
:10241C0071FA03B05DF804FB30B5054659B1B2FB57
:10242C00F3F403FB1424A0B238B9C5E90010A8607A
:10243C00AA81EB8130BD0E20FCE70920FAE737B505
:10244C0050E8013F9DB2C48925448489A54228BF28
:10245C002D1B0489A54202BFBFF32F8F002207E07A
:10246C00C5EA030540E80154002CE9D14FF0010204
:10247C008DF803200193019A0A609DF8031001F076
:10248C00FF0321B1006810FA82F003B030BD18468A
:10249C00FBE70A884B889A4209D150E8012FC2EA1F
:1024AC00024240E80123002BF7D1012070470020A5
:1024BC00704737B550E8023F1FFAA3F5C488A54210
:1024CC0002BFBFF32F8F00220DE0C48925448489FD
:1024DC00A54228BF2D1BC3EA054540E80254002C39
:1024EC00E8D14FF001028DF803200193019A0A60A4
:1024FC009DF8031001F0FF0321B1006800EB1240BE
:10250C0003B030BD1846FBE70A884B889A4209D1C4
:10251C0050E8022FC2EA224240E80223002BF7D1F6
:10252C00012070470020704710B5034653E8000F98
:10253C000A4643E8002494F0000FF7D110BD10B503
:10254C00034653E8000F40EA010243E8002494F0EC
:10255C00000FF6D110BD10B5034653E8002F42EA28
:10256C00010043E8000494F0000FF6D110BD10B543
:10257C00034653E8000F00EA010243E8002494F0FC
:10258C00000FF6D110BD10B5034653E8002F02EA38
:10259C00010043E8000494F0000FF6D110BD10B513
:1025AC00034653E8002F02EB010043E8000494F0CB
:1025BC00000FF6D110BD10B5034653E8002FA2EB67
:1025CC00010043E8000494F0000FF6D110BD012186
:1025DC00FFF7B5BF0121FFF7BEBF0021FFF7C7BF53
:1025EC000021FFF7D0BF00002DE9F0478368D3F836
:1025FC004831C3F340059B0788B0074606D5002237
:10260C00114608B0BDE8F04701F07CBE012906D99F
:10261C001E4A022108B0BDE8F04700F0D9BD1C4CA1
:10262C001C4EDFF874A04FF06408A946361B1C231F
:10263C00B6FBF3F6AE4204F11C0402D108B0BDE8BF
:10264C00F08754F81C0C54E90623017900689A1A97
:10265C001B1ADBB2039308FB03F3B3FBF2F3CDE9D4
:10266C00019334F8043C0093CDE9061254F8083C6D
:10267C0011FB08F13846B1FBF2F1CDE904215246C9
:10268C00082100F0A5FD0135D4E700BF6CB60000B1
:10269C0008A5000040A500007FB6000010B5044658
:1026AC00002834D003681BB91A49FF20FFF7A8FE95
:1026BC00636823B917494FF48070FFF7A1FEA36834
:1026CC0023B9144940F20110FFF79AFEE36823B9CD
:1026DC0010494FF48170FFF793FE238B23B90D49FA
:1026EC0040F20310FFF78CFED4E9012321689B1AFA
:1026FC00DBB20A60013BDBB2FF2B226802D1002067
:10270C00107110BD1168481C10600B70F2E70E20A0
:10271C00F7E700BF0DB7000038B5044620B91149E2
:10272C004FF49270FFF76CFE0020FFF7BBFB2268A2
:10273C0063681168994213D9481E106011F8013C66
:10274C00E568218B01FB0355A36811791B1ADBB2D9
:10275C00994200D213710020FFF7B4FB284638BD14
:10276C000025F8E70DB7000038B50C46054620B932
:10277C000E4940F24710FFF743FE24B90B494FF4C2
:10278C00A470FFF73DFE0020FFF78CFB2A6813684E
:10279C00591C1160E968641A298BB4FBF1F41C70A4
:1027AC00BDE838400020FFF78DBB00BF0DB700001F
:1027BC00436810B59C686068036801219B68984762
:1027CC00A36810B903221A7010BD0422FBE70000A5
:1027DC0038B505460C4621B9064940F63120FFF7BD
:1027EC000FFE35B1A268B2F8483143F02003A2F8CD
:1027FC00483138BDD4B7000038B50D46044620B971
:10280C00084940F62520FFF7FBFD25B9054940F6A0
:10281C002620FFF7F5FD29682068BDE8384007F051
:10282C007FBA00BFD4B700002DE9F843089F0646D5
:10283C001D4610460C46F1B9194E1A4A921BB0EBC4
:10284C00D20F4FEAD20905D2174F043607EB800797
:10285C00A14502D100232B6009E056F8348038687A
:10286C00D8F8001007F05CFA18B9C5F80080BDE87C
:10287C00F8830134ECE7002EECD03278736832B177
:10288C00394698473B68002BE4D02F60EFE70201F4
:10289C0003EB00109B58002BDCD02860E7E700BF4F
:1028AC00ACA40000ECA40000B80000207FB5836845
:1028BC00D3F840610546EEB10023092201A9304648
:1028CC0002F0FAFCAB68029AC3F8402100242346BC
:1028DC00092201A93046CDE901448DF80C4002F0E3
:1028EC00D7FC304602F07CFCAB68D3F8400118B939
:1028FC00C3F83C0104B070BD234601A9092202F0C3
:10290C00DBFCA8680194D0F840012346092201A9F8
:10291C0002F0BEFCEEE7000010B5044620B90949F0
:10292C004FF4ED70FFF76CFD236923B905494FF4A3
:10293C00ED70FFF765FD2069034A0449BDE81040BE
:10294C0002F0F4B9D4B7000064BC0000DEB800009B
:10295C0010B5044620B909494FF4EA70FFF750FD51
:10296C00236923B905494FF4EA70FFF749FD206943
:10297C00034A0449BDE8104002F0D8B9D4B70000AE
:10298C0060BC0000DEB8000010B5044620B909494F
:10299C004FF4F070FFF734FD236923B905494FF468
:1029AC00F070FFF72DFD2069034A0449BDE8104083
:1029BC0002F0BCB9D4B7000078BC0000DEB800004F
:1029CC0008B107F0D4B9704710B584680068FFF7F8
:1029DC00F7FFE37F1844637EB0FBF3F203FB1200B6
:1029EC00B0FA80F0400910BD10B584680068FFF79C
:1029FC00E7FFE37F627EA07653FA80F3B3FBF2F13C
:102A0C0002FB113301332375A37F53FA80F001319C
:102A1C00B0FBF2F302FB1300A1750130591C607579
:102A2C00E17504F1140010BD10B584680068FFF75F
:102A3C00C7FFA37F1844637EB0FBF3F203FB1200C5
:102A4C00B0FA80F0400910BD07B58368DA7E8A427F
:102A5C001ED01B228DF800205B228DF80120312224
:102A6C008DF802203B228DF8032033228DF80420B0
:102A7C0001F12F028DF805206D22D9768DF80620F4
:102A8C0000228DF80720044900696A4602F04EF9CD
:102A9C0003B05DF804FB00BFDEB800000A4609B1C4
:102AAC00FFF7D2BF8168CA760069024A024902F078
:102ABC003DB900BF67BC0000DEB8000007B58368F5
:102ACC001A7F8A4218D01B228DF800205B228DF8C9
:102ADC00012034228DF8022001F12F028DF8032001
:102AEC006D2219778DF8042000228DF805200449F9
:102AFC0000696A4602F01AF903B05DF804FB00BFE6
:102B0C00DEB800002DE9F047002506460F461446B6
:102B1C000560207840B106F01CFFA0B1002304F83A
:102B2C00013B33680B2BF4D933680C2B04D958496F
:102B3C0040F22A50FFF764FC3368002247F8232048
:102B4C002846BDE8F08733685A1C326047F82340AA
:102B5C00054694F80080B8F1000FE2D0002D40F04B
:102B6C008280B8F1270F06D0B8F15C0F00F083809B
:102B7C00B8F1220F6FD12046FFF722FF611C0246ED
:102B8C00204606F0F0FE4546E3E72046FFF718FF27
:102B9C00611C0246204606F0E6FE0025D9E73028E7
:102BAC0025D102234FF00008E05CA0F13001C9B23E
:102BBC0007295FFA83F917D8013341EAC801052BBD
:102BCC005FFA81F8F0D199462046FFF7F9FE09F13A
:102BDC00FF3AA244821CA2EB09025146204606F0A1
:102BEC00C2FE04F8018BB4E7B9F1020FECD17828DE
:102BFC0037D102214FF00008635CA3F13002D2B24E
:102C0C00092AC8B214D842EA081303295FFA83F8D8
:102C1C000CD14FF0040A2046FFF7D2FE0AF1FF391F
:102C2C00A144821CA2EB0A024946D7E70321E3E741
:102C3C00A3F16102052A03D8573B43EA0813E4E7E2
:102C4C00A3F14102052A01D8373BF6E7022808D048
:102C5C004FF0030ADFE7404606F07BFE00287FF4C6
:102C6C0060AF013475E7A8458FD0B8F15C0FF8D18F
:102C7C006078854293D12046FFF7A2FE04F101084B
:102C8C0002464146204606F06EFE444661E700BF10
:102C9C00D4B7000070B50D461646044620B90B4952
:102CAC0040F22310FFF7ACFB636823B907494FF4DC
:102CBC009270FFF7A5FB606803681C6929463346D0
:102CCC00A4460122BDE87040604700BFD4B70000A5
:102CDC002DE9F7430E461446054600B119B91D49B6
:102CEC00F420FFF78DFB6B681B681BB91949F520A5
:102CFC00FFF786FBDFF85C80002714B903B0BDE852
:102D0C00F083686803682246D3F80C90F11901AB84
:102D1C00C84718B14146FF20FFF772FB019B9C424C
:102D2C0004D241464FF48070FFF76AFB019B1F44AD
:102D3C00E41A002BE1D1AB681A78032ADDD0D3F862
:102D4C0048219206FBD5B3F848216FF34512A3F83E
:102D5C004821D2E7D4B700000A46014901F0E6BF8A
:102D6C0012B8000011B10069FFF7F6BF7047000000
:102D7C00014901F0DBBF00BF2BB800000A4619B1B6
:102D8C000249006901F0D2BF704700BF18B80000BB
:102D9C000A4619B10249006901F0C8BF704700BF6B
:102DAC001EB8000038B50546FFF71EFE8379027881
:102DBC00817801339A42044601D1012913D00129AB
:102DCC0004D90139C9B22846FFF7D8FF2378A17975
:102DDC008B4209D9013B591AC9B22846FFF7D8FFD3
:102DEC00AB680022DA7738BD0131C91AC9B228465E
:102DFC00FFF7B8FFF4E7F8B50546FFF7F5FD877860
:102E0C00C67804462846FFF7DFFD18B92846FFF7B9
:102E1C000BFE10B12869FFF7ABFFB74208D1617800
:102E2C002378C91A2846C9B2BDE8F840FFF7B0BFED
:102E3C00A378E178C91AC9B22846FFF79FFF237817
:102E4C0061788B42EDD9591A2846C9B2BDE8F840D1
:102E5C00FFF788BF2DE9F04F044685B00E4690462B
:102E6C000025705D06F075FD20BB5FFA88FA3046D0
:102E7C00FFF7A6FDA3685B7E401BA3EB080B584530
:102E8C0006EB050918D94A46002712F8011B0393D3
:102E9C0008460292019106F05CFDDDE9022318B1AF
:102EAC0001990A2931D0BB4608EB07018B422BD97B
:102EBC000137EAE70135D4E74B460027B84217D073
:102ECC0013F8012B0A2A05EB070A1BD1206901F024
:102EDC001BFF49463A462046FFF7FAFE2069FFF7EA
:102EEC0047FF5FFA88F120460AF10105FFF73AFF28
:102EFC002069711901F01AFF206905B0BDE8F04F87
:102F0C00FFF736BF0137D9E75F46206901F0FCFEB9
:102F1C003A4649462046FFF7DBFE3D44705D06F01D
:102F2C0018FD38B92069FFF723FF51462046FFF7FB
:102F3C0019FF9CE70135F1E7F7B505468068404E6F
:102F4C00002480222146A0308DF8034006F093FE29
:102F5C003C49286901F0EAFE286901F0D5FE4FF4DE
:102F6C007A7746F0010601AA0DF103012846FFF716
:102F7C0091FE019B5BB94FF6C010B047019A002A35
:102F8C00F1D17B1E9FB2002FEDD10D2035E09DF8C5
:102F9C000330AA681B2B47D092F8A0101B29EDD147
:102FAC00522B41D11444002384F8A03092F8A11084
:102FBC005B291FD102F1A20602211D4616F8010B56
:102FCC004C1C3B28E1B264B219D1002C1FDB01F17F
:102FDC00A0041444002314F8010BD0B9FA2B28BF19
:102FEC00FA23FA2D13752B4628BFFA23937582F812
:102FFC00A00002E082F8A0300B2003B0F0BD05EB7E
:10300C00850300EB4303303B80299DB2D6D10C20C5
:10301C00F3E703EB830300EB43004E1C303883B221
:10302C003006F1B2F3D4D6E711190134E4B2092C0D
:10303C0081F8A030A2D9002382F8A0300420DCE76C
:10304C0090BC00007FBC000038B50546FFF7CCFCF7
:10305C00027843789A4204468378C27801D193422D
:10306C0013D09A4205D9D21A0B492869D2B201F071
:10307C005DFE237861788B4208D9591AC9B228466B
:10308C00FFF786FEAB689A7FDA7738BDC91AC9B2EA
:10309C002846FFF767FEF5E724B800002DE9F84F46
:1030AC000D4616469946044648B9424940F6A420B6
:1030BC00FFF7A6F93F4940F64720FFF7A1F9A368AF
:1030CC001BB163680BB1236823B93A4940F6482019
:1030DC00FFF796F9E36860685B68374A9C600368A1
:1030EC0029461F682346B847054600284FD1636917
:1030FC0023B9304940F65720FFF782F9606902F096
:10310C006DF80546002842D101464FF4A672A0681E
:10311C00DFF8A8A006F0AFFDA168B1F8483143F084
:10312C002003A1F84831B1F8483166F38203A1F8C5
:10313C004831B1F84831224E43F00803A1F8483128
:10314C0001230B7045F218030B831E4B1949A3EB9B
:10315C0006084FEAD80B2F465F451BD1B8F1070F75
:10316C0005D9194B15480422394606F018FCB9F15B
:10317C00000F0CD09DF82810E068FDF7A3FF002885
:10318C00A1BFE368DB6801225A71B8BF0425284649
:10319C00BDE8F88F73681B6823B940F67420FFF7FD
:1031AC002FF9044973681B684AF8043B0137083649
:1031BC00D2E700BFD4B70000DD270000B800002024
:1031CC00ACA40000ECA4000005280000FFF780BDB3
:1031DC000CB4F7B5089F04460E4627B91F4940F6B4
:1031EC006130FFF70DF924B91C4940F66230FFF746
:1031FC0007F9A3681BB163680BB1236823B917499E
:10320C0040F66330FFF7FCF809AB0193A368D3F8E1
:10321C00482152071BD5DA7EB24218D0B3F81B50A6
:10322C0031462046FFF73AFC206901AA394601F0E5
:10323C0019FEE9B22046FFF731FC290A02D02046DC
:10324C00FFF73CFC03B0BDE8F04002B070472069CA
:10325C0001AA394601F006FEF4E700BFD4B700001E
:10326C0082680021D18382F820100368014A03216F
:10327C00FFF7AEBFDEB8000070B5044620B91849A0
:10328C0040F6FA20FFF7BCF8A3681BB163680BB1DA
:10329C00236823B9124940F6FB20FFF7B1F8A36865
:1032AC001E78012E1AD16068036800219B6898472C
:1032BC00054688B908212046FFF7C6FB3146204653
:1032CC00FFF7FCFB2069074901F030FDA3680222DF
:1032DC001A702046FFF7C4FF284670BD0825FBE78F
:1032EC00D4B700002AB80000F8B5044615460F46BE
:1032FC0021B9224940F25360FFF782F8A068867F1B
:10330C0073197F2B38DC002D36D0C37FF61A03F1EE
:10331C0020012B442033F6B20144721C184406F0F1
:10332C0022FBA068C37F20332A463946184406F096
:10333C001AFBA76807F12000FFF742FBFB7F104A3E
:10334C00B87720333B4420460821FFF741FFA368A0
:10335C00DA7F1544DD772046FFF736FB18B9204697
:10336C00FFF762FB10B12069FFF702FD26B1204682
:10337C00BDE8F840FFF73FBDF8BD00BFD4B7000073
:10338C00DEB800002DE9F04104468068D0F84861B1
:10339C00827FC37FC6F30008D51A16F001060F46CC
:1033AC00EDB23CD17E2A3ED83DB103F12001213350
:1033BC0001442A46184406F0D6FAA368DA7F1A4468
:1033CC0082F82070002E6AD19A7F0132D2B29A779D
:1033DC00134483F82080002D6AD02046FFF704FBAD
:1033EC008278C3789A4220D1A268D37F20331344C9
:1033FC0008212046314AFFF7EBFEA91BC9B2204633
:10340C00FFF7C6FCA268D37F0133D3772046FFF7C2
:10341C00DBFAF0B12069BDE8F041FFF7A9BC7E2AC8
:10342C00CBD9002DC9D1BDE8F0812046FFF774FA45
:10343C00A268D37F203313440821204A2046FFF78B
:10344C00C7FE2046FFF7A0FA20690121FFF784FC94
:10345C00D8E72046FFF7E8FA0028E4D02046FFF72B
:10346C00C3FAC2788378013AD21A12F0FF020546E9
:10347C0003D01349206901F059FC2069FFF778FC4F
:10348C00E978AB78C91A2046C9B2FFF777FC2978DE
:10349C0001392046C9B2BDE8F041FFF763BC002DED
:1034AC009BD1987F0130C0B29877034483F82050A9
:1034BC00044920693A4601F039FCA3E7DEB8000064
:1034CC0024B80000BBAC0000F0B5836885B00025C3
:1034DC00CDE90155D3F844218DF80C5004460E4625
:1034EC00002944D1002A3DD0FFF75CFCA06833468C
:1034FC00D0F84401092201A901F0DEFEA668029B66
:10350C00B57FC6F84431002B50D106F1A0073846E0
:10351C00FFF756FA40B3394606F1200006F0DEFB01
:10352C00A0682030FFF74CFA8DF80C009DF80C3099
:10353C00A268AB42D377937702D22046FFF708FA02
:10354C00A3682C4A204620330821FFF741FE204671
:10355C00FFF73AFA18B92046FFF766FA10B120695E
:10356C00FFF706FC05B0F0BD86F82000D8E7D3F8CD
:10357C0040119142F6D0D3F83C31002BF2D0FFF73A
:10358C0011FCA668D6F8440138BB06F12007384672
:10359C00FFF716FAD6F83C31C6F8443110F0FF05A7
:1035AC0018D0394606F1A00006F098FBA06801A9D6
:1035BC00D0F844010023092201F07EFEA0689DF89A
:1035CC000C2000F120010923D0F84401013201F054
:1035DC0073FEABE786F8A050E8E72B46092201A959
:1035EC0001F06AFEA368019A9DF80C50C3F84421BF
:1035FC00DCE700BFDEB8000038B504468068C37F46
:10360C00857FED1A15F0FF0542D003F1210120331F
:10361C0001442A46184406F0A6F9A268937F013BA0
:10362C0093772046FFF7E0F98278C3789A421BD152
:10363C00A268D37F203313440821164A2046FFF793
:10364C00C7FD236923B9144940F28F40FEF7D8FE19
:10365C0020691049114A01F069FB691E2046C9B264
:10366C00BDE83840FFF794BB2046FFF755F92046DC
:10367C00FFF76EF9A268D37F203313442046054A26
:10368C000821FFF7A5FD2046BDE83840FFF77CB9BF
:10369C0038BD00BFDEB80000D4B7000074BC000019
:1036AC002DE9F041C3685B6890B004460D4618687C
:1036BC00002203A901F0CEFE002840F08A808DB1D3
:1036CC00039801F0D6FDA268D2F838310133C2F864
:1036DC00383103F00703012B04D00125284610B024
:1036EC00BDE8F0812046FFF77FF981780129064675
:1036FC0004D90139C9B22046FFF740FB31780129C2
:10370C0004D90139C9B22046FFF742FB2046FFF726
:10371C001FF92DB1304A02212046FFF759FDDDE794
:10372C0000230822039804A901F0C6FD069B079309
:10373C00059B08939DF810308DF8255003F003027B
:10374C00012A25D1BDF81020049E0398C3F3C203AF
:10375C00C2F383178DF82430BA0008230AA901F0AC
:10376C00ABFDC6F39526236900933A4607AB0AA92D
:10377C003046FDF755FD039801F07BFDE3685B686F
:10378C000022186803A901F065FE0028C8D0A4E740
:10379C00022AF0D1BDF81260C3F3C203C6F3891636
:1037AC008DF824304FF00808082E374628BF08271C
:1037BC00434603983A460AA901F07EFDF61B23699D
:1037CC0007AA39460AA8B844FDF78EFD002EEBD1A6
:1037DC00D1E7002582E700BF2DB800004368012126
:1037EC009868FFF75DBFF7B547680191BD68AB6896
:1037FC001E78042E0ED0386801A901F0A3FD0446F2
:10380C0050B9019801F031FD032E03D12146284611
:10381C00FFF746FF03B0F0BDF11E18BF012128468B
:10382C00FFF73EFFE7E700002DE9F04F8346A7B016
:10383C0020B9BD4940F62B30FEF7E2FDDBF808302D
:10384C002BB1DBF8043013B1DBF8003023B9B649E7
:10385C0040F62C30FEF7D4FDDBF80800102100F503
:10386C00A470FEF778FEDBF808301B78022B7BD1B6
:10387C0000230D930DAA0DF133015846FFF70AFAF8
:10388C000D9B002B55D09DF93330002BF2DB01F052
:10389C0027FDDBF808406378012B00F06584022BD0
:1038AC0000F06984002B40F021859DF833500D2DDC
:1038BC001FD00A2D1DD0B4F8482163F38D12A4F843
:1038CC004821092D00F0F88100F2E581002DD1D0BE
:1038DC00082D00F0CC83284606F040F80028C9D00B
:1038EC00D4F848311E07C3F3C00040F12B8429469D
:1038FC0023E3D4F8483113F47F5F05D0D4F8483172
:10390C00C3F387139D42DCD1B4F84831A67F65F32D
:10391C008D13A4F84831B6BBC4F84461DBF8100031
:10392C00FFF726FADBF8083002221A705846FFF728
:10393C0097FC00215846FFF7B3FEA8B1DBF8003026
:10394C007A4A03215846FFF743FCDBF80830D3F8DA
:10395C004821120708D55846744A20330821FFF72E
:10396C0037FC5846FFF747FADBF8100001F0CCF9AA
:10397C00DBF808006FF0100100F5A47027B0BDE86B
:10398C00F04FFEF700BE94F82030002B65D1DBF829
:10399C00085005F12000FFF713F8002610F0FF0483
:1039AC00C5F8446124D0D5F83C01002800F095807E
:1039BC003346092219A901F07FFC9DF86C309C421A
:1039CC0040F08B80DBF80800092300F1A001621C99
:1039DC00D0F83C0101F070FCDBF8085005F1A001B7
:1039EC0005F1200006F09CF9002874D185F8A000A0
:1039FC005846FFF729FB5846FEF7E6FF18B9DBF8E7
:103A0C001000FFF7B5F9DBF8082019A9203210A82F
:103A1C00FFF778F8109A0346002A3FF47FAF00288E
:103A2C0040F0B080424E434DDDF86480AD1BED0894
:103A3C000446A54240F0AC803F4B00933F4A4346BE
:103A4C0002215846FFF7C4FB6CE70135B5F5807FC2
:103A5C0004D1002384F8203099E700256319EFB2D4
:103A6C0093F8200005F075FF0028EED16FB104F13A
:103A7C002000721C521B411905F075FFDBF8082061
:103A8C00937FDB1BDBB29377D377DBF80860B57FD2
:103A9C0005F11F073744BA465FFA87F9534603937B
:103AAC00187805F056FF5FFA8AF8A9EB0804039B17
:103ABC00E4B20AF1FF3A0028F0D19F423FF467AF1D
:103ACC002C1BA8EB090334442B44DBB284F82000F4
:103ADC00B377F3775BE785F8A060082604F10A0555
:103AEC00DBF81400294601F091FB0446002843D072
:103AFC00DBF80830D3F83C0110BBC3E94F44CDE9E7
:103B0C0019009B7F8DF86C3019A9204600230922DF
:103B1C0001F0BEFBDBF808108A7F0923013220314B
:103B2C00204601F0B5FB63E7D4B70000DEB8000017
:103B3C00ACA40000ECA400006FB800003BB900007E
:103B4C000023092219A901F0B7FBDBF808001A942D
:103B5C0000230922D0F83C0119A901F099FB00239C
:103B6C001A93DBF80830D3F83C2119929A7F8DF820
:103B7C006C20C3F83C41C7E75846FEF797FE013E60
:103B8C00AED135E7914A02215846FFF721FBC9E631
:103B9C0073684046196806F0C3F83746083618B102
:103BAC000134A542BFF445AF3B7823B1884940F6B8
:103BBC00A510FEF725FCDBF80800002110220430CC
:103BCC00119106F058F87C68E36833B194E80F0063
:103BDC00DBF80850043585E80F00D4F80890DFF8BE
:103BEC00F4A119AE4FF0000801250027109BAB4241
:103BFC0012D974685146204606F092F820B17649E5
:103C0C00204606F08DF8E8B9DBF80820B2F8483108
:103C1C0043F00203A2F84831DBF808301B69002B93
:103C2C0033D0109919AA02EB8802A1EB080158466F
:103C3C009847DBF80830B3F848216FF34102A3F83A
:103C4C0048216FE615AB0093484611AB3A4629461E
:103C5C00FEF7EAFD781CDFD0119C002CDCD021682B
:103C6C00706806F05DF801370028BFD1E3683BB1FE
:103C7C0094E80F00DBF80870043787E80F00A846BB
:103C8C00D4F8089001350436AFE7544A022158465F
:103C9C00FFF79EFACDE71B2D0BD07F2D7FF41BAECB
:103CAC00D4F848311F077FF5E5AD5846FFF7A4FC63
:103CBC00E0E501236370DDE5D4F8483119077FF5A1
:103CCC00D9ADA37FC3F17F0313F0FF0305933FF43A
:103CDC00D1ADE27F04F1200104F1A00005F0A2FFB8
:103CEC00DBF80850EB7F2B440024D87F83F8A040EE
:103CFC0005F02FFE031B18BF012305F1A00206904F
:103D0C00C5F8444119A90EA80793FEF7FBFE1998B4
:103D1C00FEF756FECDE90F44C3B203932546274662
:103D2C000494A24626460E9B2BB1079A013B1344E2
:103D3C00AB4200F29780069B002B3DD126AB03EBE8
:103D4C00850353F8340CFEF73BFEC3B2039326AB4A
:103D5C0003EB85034FF000090A9309F10103089363
:103D6C0011AB00934A460FAB29463846FEF75CFD73
:103D7C000F9B002B5FD0D3F800800A9B039A53F85B
:103D8C00340C414605F030FF0990B8B9049B01335F
:103D9C0004934046109B0B93FEF712FE0B9B5FFAAD
:103DAC0080F8EBB9039B059AA8EB03039A4201DD5B
:103DBC00DBB20593CA4631E00023C7E7A046DDF825
:103DCC0020904446C9E74E46F9E700BF5BB80000B7
:103DDC00D4B7000083B8000086B800008DB800008E
:103DEC00A045059B38BFA0465FFA88F8B3B115AB68
:103DFC000093324610AB38462946FEF715FD0F9B53
:103E0C00099E1868109B1C68039A9119F3B2425CC6
:103E1C00FAB9059A9A4228BF1A4605920F9B10933D
:103E2C00089B002BCFD1BD4A04215846FFF7D0F98F
:103E3C0044464FF0FF36002F40D00F9B002B3DD057
:103E4C000E9B079A0135EDB213449D42FFF46BAF04
:103E5C0034E0615C9142DCD10136B6F5807FD3D180
:103E6C00FF23D6E726AB03EB85034FF0000808933E
:103E7C0011AB009342460FAB29463846FEF7D4FCF3
:103E8C00B8F1FF3F05D1A54A04215846FFF7A0F928
:103E9C00F0E4DDF83C90B9F1000F3FF4EBAC089B7B
:103EAC00D9F8001053F8340C05F03AFF08F101086A
:103EBC000028DDD1D9F80870002FC1D1049B002B4C
:103ECC003FF4D8AC012B5AD13B783BB111AB0093EA
:103EDC00324610AB29463846FEF7A6FC109B1C68F0
:103EEC002046FEF76DFD039B984205D01946059AB6
:103EFC0021445846FFF7F8F9DBF80840E57F6319D1
:103F0C0093F8200005F025FDD8B9D4F84831DA072C
:103F1C0012D5B4F8483160F30003A4F848312021DD
:103F2C005846FFF72FFADBF80820B2F8483143F077
:103F3C000103A2F848319DE420215846FFF722FAEC
:103F4C0098E4A37FAB427FF695AC5846FEF74CFD48
:103F5C00DBF808208478D37F0133D3775846FEF7FB
:103F6C0043FD8378A34205D1DBF810000121FEF755
:103F7C00F3FE7FE4DBF81000FEF7FAFE7AE4DBF8E0
:103F8C000830674E00225A7726AB03EB8503079364
:103F9C000AF10103069311AB5246009329460FAB6D
:103FAC003846FEF741FC0F9B039AD3F800A0079B01
:103FBC00514653F8340C05F017FE98BB049B304661
:103FCC00013B0493FEF7FCFCDBF80830089393F8F4
:103FDC00199004EB0008A9EB00095046FEF7F0FC21
:103FEC00089B5A7F5FFA88F8511CB9FBF8F95FFA05
:103FFC0089F95977B2FBF9F309FB1322A8EB0008F6
:10400C00D2B25FFA88F882B9464ACDF800A033469E
:10401C0007215846FFF7DCF841465846FEF7A2FE4A
:10402C00049B4BB1DDF818A0B2E73F4A5346072179
:10403C005846FFF7CDF8EFE7DBF800303B4A58461F
:10404C000321FFF7C5F8DBF80830374A2033082185
:10405C005846FFF7BDF85846FEF7CDFE109B059A63
:10406C001968039B58461944FFF73EF902E4D4F84B
:10407C0048311B077FF5FEABA67F002E3FF4FAAB51
:10408C00E07F00283FF4F6AB361A00F12001F6B2BF
:10409C001F30721C2144204405F065FCDBF808300D
:1040AC00DA7F013ADA779A7F013A9A77002E41D07B
:1040BC002A461F49DBF8100000F038FE5846FEF780
:1040CC0093FC8278C3789A4212D1DBF80820D37F14
:1040DC00203313442946144A5846FFF779F85846BA
:1040EC00FEF736FC31465846FEF752FEFFF7C2BBD0
:1040FC005846FEF711FC5846FEF72AFCDBF8082060
:10410C00D37F203313445846074A2946FFF760F8FB
:10411C005846FEF739FCFFF7ADBB00BFABB800004B
:10412C00B6AC0000D7B80000DEB80000DDB8000067
:10413C00BBAC00006E4A6F49DBF8100000F0F6FDD6
:10414C00FFF798BBA27F7E2A3FF694ABE17F4B1C16
:10415C00DBB2E37721442344013281F8205083F809
:10416C002000A277FFF786BB9DF833305B2B40F025
:10417C00BD8002239EE500236370D4F848311907F3
:10418C007FF5D7AB9DF83330313B1B2B3FF672AB31
:10419C0001A252F823F000BFC5420000D342000038
:1041AC00F3420000B7420000813800008138000063
:1041BC00813800008138000081380000813800000F
:1041CC0081380000813800008138000081380000FF
:1041DC0081380000813800001542000021420000A7
:1041EC00254200007342000081380000BB420000F1
:1041FC0081380000C942000081380000813800007D
:10420C0081380000D742000001215846FFF75CF9C5
:10421C00FFF730BB0021F8E75846FEF7E5FB0378C3
:10422C0042789A42044604D18178C27891423FF494
:10423C0021AB62799A4210D12F49DBF81000012290
:10424C0000F074FD61795846FEF7A2FDDBF80820FA
:10425C00D37F0133D377FFF70DBBDBF810000121BF
:10426C00FEF77AFDF2E75846FEF7BEFB837902783B
:10427C0001339A42044603D18378012B3FF4FAAA06
:10428C00012ADBF810000BD11C4900F04FFD6179BD
:10429C005846FEF767FDDBF80820D37F013BD9E7D2
:1042AC001749012200F042FDF5E7032363705846DD
:1042BC00FEF7CAFEFFF7DEBA032363705846FEF71B
:1042CC0071FDFFF7D7BA03236370D4F84831B4F803
:1042DC00482103F0010383F0010363F30002A4F807
:1042EC004821FFF7C7BA03236370D9E40023E1E444
:1042FC007BBC0000DEB8000024B8000018B8000039
:10430C001EB800002DE9F04F0D468BB01746044641
:10431C0020B9744940F6E230FEF772F8A3681BB17D
:10432C0063680BB1236823B96E4940F6E330FEF79E
:10433C0067F8A3686C4A009208216C4A5B682046B7
:10434C00FEF746FFA6687068FEF73AFBB168C21C20
:10435C0092B211B12046FEF77DFD654A0021204640
:10436C00FEF736FF002F3DD0002D3BD04FF00C0A4E
:10437C00A9460AFB075A0826D9F80400FEF720FBC9
:10438C008046D9F80000FEF71BFB4044B04209F10F
:10439C000C0988BF86B2CA45EED106F10408554B0C
:1043AC00554A00931FFA88F806F1070908212046A0
:1043BC0043461FFA89F9FEF70BFF50494A4620463F
:1043CC00FEF748FD2DB1DFF830B14FF0000ABA45C9
:1043DC000AD1A368D3F80C80B8F1000F3ED10BB012
:1043EC00BDE8F08F0826D8E7D5E9002373B32AB3CC
:1043FC000192434A00920821424A2046FEF7E8FE09
:10440C006868FEF7DDFA03902868FEF7D9FA039B7B
:10441C00B11CC91A091AC9B22046FEF7A3FC3A49C5
:10442C0020693A2200F082FCA96899B14A462046DC
:10443C00FEF710FD0AF1010A0C35C8E7009343465C
:10444C005A4608212046FEF7C3FEEDE7002AEBD0C2
:10445C000092F4E72069FEF78BFCEBE70022059253
:10446C00174606AE009605AB0121404602F1010944
:10447C00FEF7DAF9059D3DB12868FEF7A1FAB842BE
:10448C0000D987B24A46EDE7B9F1010FA7D01F4A10
:10449C00DFF864A029462046FEF79AFE2A46BD1C8A
:1044AC00ADB205AB00960121404602F10109FEF7C1
:1044BC00BBF9059B002B92D01B68009308212B465F
:1044CC0052462046FEF784FE059B596831B17A1D91
:1044DC0092B22046FEF7BEFC4A46E2E72069FEF7A0
:1044EC0047FCF9E7D4B7000084BC0000D8B8000042
:1044FC00E1B8000096BC0000EBB80000F3B8000077
:10450C0008BE000006B90000BBAC00000FB90000EB
:10451C0038B50D46044620B91B4940F65F50FDF7EF
:10452C006FFFA3681BB163680BB1236823B91649ED
:10453C004FF45660FDF764FF022D0BD1A368D3F83E
:10454C0048319B0706D5002220461146BDE838406D
:10455C00FFF7D8BE236923B90B4940F66850FDF725
:10456C004FFF0A4A0A49206900F0E0FB236923B98E
:10457C00054940F66950FDF743FF2069054A044997
:10458C00BDE8384000F0D2BBD4B7000070BC0000CE
:10459C00DEB800006BBC000038B50D46044620B9EF
:1045AC00134940F66E50FDF72BFFA3681BB16368EF
:1045BC000BB1236823B90E4940F66F50FDF720FF6D
:1045CC00012D06D0022D0BD1A368D3F848319B07DF
:1045DC0006D5002220461146BDE83840FFF792BEB2
:1045EC002046044ABDE838400221FEF7F1BD00BF69
:1045FC00D4B700008DB8000038B58368D3F84821D3
:10460C00C2F3400592070C4606D500221146FFF76F
:10461C0079FE2C46204638BD0029FBD05B68024A47
:10462C000221FEF7D5FDF5E71DB9000073B50E4666
:10463C001546044620B9164940F68F50FDF7E0FEAA
:10464C00A3681BB163680BB1236823B910494FF4FD
:10465C005960FDF7D5FE012E07D1002211462046E8
:10466C0002B0BDE87040FFF74DBEB11E18BF01216E
:10467C002046FFF7C1FF48B96B680193054B0093C7
:10468C00054A2B6802212046FEF7A2FD02B070BD40
:10469C00D4B7000050A7000038B90000012907B5B5
:1046AC0006D10022114603B05DF804EBFFF72ABED9
:1046BC0002290AD153680193084B00931368084AE6
:1046CC00FEF786FD03B05DF804FB8CBF01210021D1
:1046DC0003B05DF804EBFFF78FBF00BF50A70000DD
:1046EC0038B90000013910B518BF01210446FFF795
:1046FC0083FFA8B924B90B4940F62160FDF780FE71
:10470C00236923B9074940F62160FDF779FE064A73
:10471C000649206900F00AFBA36845F218021A83C7
:10472C0010BD00BFD4B700005ABC0000DEB80000BA
:10473C00F7B50E461546044620B92D4940F62860BB
:10474C00FDF75EFEA3681BB163680BB1236823B948
:10475C00274940F62960FDF753FE012E34D120463F
:10476C00A568FEF7E9FB18BBA36820691F7D9E7D39
:10477C00FA21FEF7F1FA20691E49FA2200F0D6FA66
:10478C002046FEF7D9FB98B9A368197D6976A36812
:10479C00C91B9B7D2B762046C9B2FEF7F9FA297E00
:1047AC00891BC9B2204603B0BDE8F040FEF7E6BA5B
:1047BC00A36845F218021A830F4A0421204603B05D
:1047CC00BDE8F040FEF704BD022E94BF002101218C
:1047DC002046FFF711FF48B96B680193074B009314
:1047EC002B68074A02212046FEF7F2FC03B0F0BD0D
:1047FC00D4B7000024B8000041B9000050A7000055
:10480C0038B900002DE9F0410D4686B0044620B9B8
:10481C00214940F6C750FDF7F3FDA3681BB163684F
:10482C000BB1236823B91C4940F6C850FDF7E8FDCD
:10483C00691E18BF01212046FFF7DEFE054638BB76
:10484C00A368DFF85880D3F84061EEB1082D1BD077
:10485C0030460023092203A900F02EFD9DF81420F8
:10486C00A168304609230132A03100F025FDA36870
:10487C00049EA03300936F1C2B4642460021204619
:10488C00FEF7A6FC3D46E0E7A368002283F8A020D3
:10489C0006B0BDE8F08100BFD4B700007BB90000C2
:1048AC00013910B518BF01210446FFF7A5FE30B938
:1048BC00A368B3F8482160F38202A3F8482110BD25
:1048CC00013910B518BF01210446FFF795FE30B928
:1048DC00A268B2F8483143F00403A2F8483110BD85
:1048EC00013910B518BF01210446FFF785FE30B918
:1048FC00A368B3F8482160F3C302A3F8482110BDA4
:10490C00013910B518BF01210446FFF775FE30B907
:10491C00A268B2F8483143F00803A2F8483110BD40
:10492C00022973B50D4694BF002101210446164699
:10493C00FFF762FE014658B9022D0BD17368019343
:10494C000C4B00930C4A336829462046FEF740FC7A
:10495C0002B070BDA368094AD3F8483113F0080FB0
:10496C00074B18BF1346074A204602B0BDE87040FB
:10497C00FEF72EBC50A7000038B90000DAB10000D9
:10498C0085B9000089B90000013910B518BF0121A3
:10499C000446FFF731FE48B9A368C3F83801E36851
:1049AC005B68BDE81040186800F012BE10BD000036
:1049BC007FB5013918BF01210446FFF71DFE0546DE
:1049CC00B8B9E3685B681E68304600F091FDB268C8
:1049DC00A168C3B2CDE9013264204343B3FBF2F3C7
:1049EC00DBB20093D1F83831034A29462046FEF752
:1049FC00EFFB04B070BD00BF9AB90000F8B50546D6
:104A0C000E4617461C461BB90549F820FDF7F8FC65
:104A1C00E868276022463146BDE8F84000F0E2BE67
:104A2C000BBE000010B4064C0378E35C1BB110BC49
:104A3C00043002F037BB10BC0C3001F0BDBF00BF1E
:104A4C00BC0800204069054A0378D35C13B10430DC
:104A5C0002F036BC0C3002F0B7B800BFBC08002026
:104A6C000378044AD35C13B1043002F08BBA0C30D7
:104A7C0001F038BFBC08002010B504464069FFF7B0
:104A8C00EFFFA368BDE810401868FDF7C3B800003D
:104A9C0037B5FF23009305460123C0686A4601A978
:104AAC0000F0AEFD044650B112494020FDF7A8FCC1
:104ABC00204603B030BD0C3001F0ECFF0DE0009C43
:104ACC00002CF5D0686901990378E2B20A4CE35CDA
:104ADC00002BF0D0043002F05DFB04460028E7D137
:104AEC00AB682A46186840F26661FDF761F8044627
:104AFC00DEE700BF0BBE0000BC08002038B54368E1
:104B0C0093F8283004460D460BB383681868FDF7FC
:104B1C0081F830F008030ED175B16069FFF7A0FF82
:104B2C00616860690022083101F074F868B9636843
:104B3C00012283F8292038BD636893F8283043B1EB
:104B4C002046BDE83840FFF7A3BF0620F3E7002955
:104B5C00E3D1064AA0680021FDF708F8636801223A
:104B6C0083F828200028EBD0E5E700BF514A00006D
:104B7C0037B5FF2301930378012B05460C4641D032
:104B8C00022B2AD0002B57D1017A206900F078FE35
:104B9C0018B12B497920FDF733FCFF2301932069D1
:104BAC00012301AA694600F0D7FD18B124497C20E5
:104BBC00FDF726FC019A4AB100996069D2B2FFF761
:104BCC0031FF18B11E498120FDF71AFC63680120E2
:104BDC00D3E90021904703B030BD017AE06800F0C2
:104BEC0053FD30F0040303D015495F20FDF708FC9A
:104BFC002046FFF74DFF0028EDD011496120FDF74D
:104C0C00FFFBE8E7017AE06800F03EFD30F00403BA
:104C1C0003D00B496720FDF7F3FB2B7A23B16368B4
:104C2C000020D3E9002190472046FFF731FF0028F0
:104C3C00D1D003497320E2E701498B20DFE700BFA5
:104C4C000BBE0000F7B505460E4617461C4623B9A9
:104C5C001A494FF48670FDF7D3FB2760224628696A
:104C6C00314600F029FD044608BB6869144A0378F4
:104C7C00D35CFBB1043002F009FAC0B9FF230193F5
:104C8C002869012301AA694600F066FD78B99DF8F0
:104C9C00042000996869FFF7C5FE6B6893F829300A
:104CAC00044623B118B90199286900F0E9FD2046A2
:104CBC0003B0F0BD0C3001F073FEDEE70BBE00005C
:104CCC00BC08002038B504464068C0E90023002326
:104CDC00038501F120020B46083053F8045B40F8C1
:104CEC00045B9342F9D1074A60690C6100F092FFB2
:104CFC00054628B9E06800F079FC206900F076FCE4
:104D0C00284638BD7D4B000010B5044618B906493D
:104D1C003120FDF775FBA2682AB16369216820690F
:104D2C0098470023A36010BD70BE00000EB433B5CD
:104D3C00059D044618B911494220FDF761FB6369D2
:104D4C001BB90E494320FDF75BFB23681BB90B49CC
:104D5C004420FDF755FB63681BB908494520FDF756
:104D6C004FFB35B106AB01AA29462046019300F052
:104D7C0079F802B0BDE8304003B0704770BE000057
:104D8C000A2938B504460D4602D10D21FFF7F8FF6C
:104D9C00A3682268591CA160D554D4E901329A4207
:104DAC0004D32046BDE83840FFF7AEBF38BD000045
:104DBC002DE9F84F9846DDE90A43154682460F4621
:104DCC000A464FF00109AA420FD2C14538BFC1466D
:104DDC0013F0010B01D16CB900240126B8F1010FBD
:104DEC001BD908F1FF386E43F8E709F10109B2FB52
:104DFC00F5F2E8E79B070ED5B8F1000F0CBF302693
:104E0C002026A145E9D2013C31465046FFF7B8FFB8
:104E1C00002CF6D1E0E72026F3E7B7FBF6F39D4232
:104E2C00E1D9DFF83C80B7FBF6F3504618F80310D5
:104E3C0006FB1377FFF7A4FF3346AB42B6FBF5F640
:104E4C00F1D2BBF1000F02D00CB1A14501D3BDE8EA
:104E5C00F88F20215046013CFFF792FFF4E700BF8A
:104E6C00EBBE00002DE9F74F88461746054620B9E2
:104E7C00AF4940F25220FDF7C3FA6B6923B9AC4934
:104E8C004FF41570FDF7BCFA2B6823B9A84940F212
:104E9C005520FDF7B5FA6B6823B9A54940F25620A9
:104EAC00FDF7AEFAB8F1000F00F03E8118F8011BC7
:104EBC0049B92B7B002B00F03781284603B0BDE8A5
:104ECC00F04FFFF721BF252940F0B780002698F856
:104EDC0000302D2B424608F1010823D0302B24D072
:104EEC002B2B25D000242A2B02F1010123D13B6866
:104EFC001A1D1B683A601C440A4613782E2B26D1C7
:104F0C0001324FF0000A104610F8011BA1F1300CD1
:104F1C00BCF1090F1DD80A2303FB0A13A3F1300AB5
:104F2C000246F0E746F00106D1E746F00206CEE76E
:104F3C0046F00406CBE711F8013CA3F13000092838
:104F4C00DBD80A2202FB0434303C0A46CBE74FF094
:104F5C00000A12F8011B01F0FB0068289046F8D0FB
:104F6C00782909D86F290CD8632962D022D8252931
:104F7C0063D0582900F0888098F80030002B95D128
:104F8C0097E770390829F7D801A353F821F000BF2F
:104F9C000F510000854F0000854F0000A550000008
:104FAC00854F000083500000854F0000854F0000A6
:104FBC0095500000642901D06929DDD13A68D2F8F6
:104FCC000090111D89EAE9723960A2EBE9724FF089
:104FDC00010B092A35DCD34538BFD3462CB1B9F1C6
:104FEC00000F01DB720700D5013CB30702D5BAF103
:104FFC00000F03D0F00701D44CBB0024B9F1000F13
:10500C002DDAC9F100092D212846FFF7B9FE06F06B
:10501C000302022A04D1BAF1000F01D11CBB0024F7
:10502C00CDE9004653460A2249462846FFF7C0FE02
:10503C00A2E73B681A1D19783A602846FFF7A0FED4
:10504C009AE70A230BF1010BB2FBF3F2C1E7A3457C
:10505C00D4D220212846013CFFF792FECCE7710701
:10506C00D5D52B21D0E7A345DAD230212846013CF7
:10507C00FFF786FED2E73968CDE900460A1D3A6093
:10508C0053460A220968D0E739680A1D3A60CDE90F
:10509C00004653461022F5E73B681A1D3A6016F09D
:1050AC000106D3F8009024D1B9F1000F03D0484683
:1050BC0004F05DFE0646B4421DD809F1FF3919F81B
:1050CC00011F00293FF458AF2846FFF759FEF6E7B9
:1050DC0028460136FFF754FE19F806100029F7D1BF
:1050EC00A642BFF449AF20212846013CFFF748FEF9
:1050FC00F6E70026F0E720212846013CFFF740FEAA
:10510C00D9E73B681A1D3A60302128461C68FFF726
:10511C0037FE78212846FFF733FE00220823CDE91D
:10512C0000322146102280E703B0BDE8F08F00BFAB
:10513C00AABE00002DE9F74F99469DF83030009338
:10514C0088469346064618B92349B620FDF758F908
:10515C00F28871794A43043A4A4505D81E490192AE
:10516C00C420FDF74DF9019ADBF80070B6F806A0E3
:10517C0007EB0901914209F1040488BFA2EB09076E
:10518C00B4FBFAF5CBF800700AFB154445B9AAEB51
:10519C00040BBB4528BFBB462FB903B0BDE8F08F4D
:1051AC003668013DF2E7009B043408EB05003444FB
:1051BC005A466BB12146A7EB0B0704F033FDBA45F9
:1051CC005D443668D3464FF0000428BFBB46E3E786
:1051DC0001462046EFE700BFFBBE0000FDF75EBABC
:1051EC00F8B546790146721E0546002393422D6898
:1051FC0003D30024A64202D8F8BD0133F6E70F68AA
:10520C002846FDF7B1FA01343946F3E72DE9F843A6
:10521C00068BCD1C0746FDF77FFA043E3544044649
:10522C00B5FBF6F5F0B14FF48073EDB28380C68018
:10523C00013D076081464FF00008A84512D2384660
:10524C00FDF76AFA064648B163790133637108F1D8
:10525C000108C9F8000007608146EEE72046FFF719
:10526C00BFFF34462046BDE8F88301210430FDF72A
:10527C0096B910B5012104460430FDF79CF9C0B273
:10528C0020B92046BDE81040FFF7AABF10BD0000B2
:10529C001FB5144603920022009203AAFFF74AFF9F
:1052AC00039BA34203D00349F620FDF7A9F804B0F1
:1052BC0010BD00BFFBBE00001FB5144603920122B7
:1052CC00009203AAFFF736FF039BA34204D00349C5
:1052DC004FF48070FDF794F804B010BDFBBE0000D5
:1052EC007047026813685268934291BFD01A806865
:1052FC000130801888BFC01A7047000038B50C46C2
:10530C00054618B904498320FDF77AF8AB68A34227
:10531C008CBF601C002038BD48BF000038B5044667
:10532C0018B907499820FDF76BF8236820461D68CB
:10533C005968FFF7E3FF431B5842584138BD00BF83
:10534C0048BF00002DE9F0410D46044618B92C4920
:10535C00A320FDF755F81DB92949A420FDF750F8F5
:10536C000020FCF79FFD2046FFF7D8FF074610B141
:10537C00237C002B3DD1D4F800802046D8F8046063
:10538C00D8F80410FFF7BAFFC8F804002FB127684B
:10539C0020463968FFF7B2FF3860E2686068531E38
:1053AC00072B20D8DFE803F004101F141F1F1F1851
:1053BC002B7883552046FFF794FF23689A68824226
:1053CC0000D29860002415E02B8820F81630F1E705
:1053DC002B6840F82630EDE7D5E9002300EBC6003A
:1053EC00C0E90023E6E7294602FB060004F01AFC9C
:1053FC00E0E704240020FCF765FD2046BDE8F081C1
:10540C0048BF000010B5044620B9084940F21E20E0
:10541C00FCF7F6FF0020FCF745FD2046FFF761FF87
:10542C0004460020FCF74EFD204610BD48BF00008E
:10543C0010B5044620B9064940F22B20FCF7E0FFDA
:10544C00236818685B68C31A5842584110BD00BFE6
:10545C0048BF00002DE9F0410C469046054618B9AE
:10546C002249E720FCF7CCFF1CB92049E820FCF7C7
:10547C00C7FF0020FCF716FD2846FFF7D9FF0028D0
:10548C0032D12F683E68B8F1000F04D13968284634
:10549C00FFF734FF3860EA686968531E072B1DD884
:1054AC00DFE803F0040D1C111C1C1C158B5D237014
:1054BC0000240020FCF706FD2046BDE8F08131F801
:1054CC0016302380F4E751F826302360F0E701EB27
:1054DC00C601D1E90023C4E90023E9E706FB021168
:1054EC00204604F09FFBE3E70524E2E748BF0000F9
:1054FC0010B5044620B9044940F23920FCF780FF6E
:10550C002368986810BD00BF48BF00002DE9F04F1C
:10551C008368D3F84831C3F340059B078BB006462C
:10552C0006D5002211460BB0BDE8F04FFEF7EABEDF
:10553C00012906D9204A02210BB0BDE8F04FFDF736
:10554C0047BE1E4C1E4B1F4FDFF87C901B1B1C22B2
:10555C00B3FBF2F8A84502D10BB0BDE8F08FE368BD
:10556C00D4F808A009932046FFF7C2FF83462046D3
:10557C00FFF748FF94F810E0144A642303FB00F192
:10558C00BEF1000F08BF3A4603FB0BF3B3FBFAF373
:10559C00CDE9043BB1FBFAF1099B0191CDE906A2DF
:1055AC00CDE9020A00934A46636908213046FDF7AB
:1055BC000FFE01351C34CDE76CB60000ECA40000E6
:1055CC0008A500008ABF00009FBF000093BF000029
:1055DC0010B5044620B9044940F23F20FCF710FFF7
:1055EC00236800229A6010BD48BF00008368002227
:1055FC005A60C3E904229A60DA601A6070470000AE
:10560C002DE9F041064617461D46884619B91D4935
:10561C003B20FCF7F5FE1FB91A493C20FCF7F0FEC5
:10562C0085B9B0687368D0E9031403F1010C0A1B47
:10563C0062450ED100243C6015B3FCF7D1FF00206D
:10564C00BDE8F081B068FCF7C2FF0028E9D011205A
:10565C00F6E701EA030223409A4238BF64443B68F0
:10566C002CBFACEB0204641A9C4228BF1C46336866
:10567C003C601344C8F80030C3681C44C460DEE7C7
:10568C002846DDE774C00000034680685B688268CA
:10569C0010B50469013323449B1A8B4209D311447E
:1056AC00C0E90211FCF799FF002814BF0020082064
:1056BC0010BD0420FCE700002DE9F84F054691468B
:1056CC000F4619B923497220FCF79AFEB9F1000F65
:1056DC0003D120497320FCF793FEA868FCF777FFF1
:1056EC00824698BBD5E90142136901341C44936886
:1056FC00E41AD9F800309C4228BF1C46C9F8004077
:10570C006B68966803F101081E40A8EB060B5C451C
:10571C000AD92868394630445A4604F083FAA6EB75
:10572C00080634445F4456462868224639463044BD
:10573C0004F078FAA868D9F8002083681344C0E90B
:10574C000233FCF74DFF5046BDE8F88F4FF0110ABD
:10575C00F9E700BF74C000002DE9F041054614467E
:10576C0098460E4619B91E499320FCF749FE1CB900
:10577C001B499420FCF744FEB8F1000F0ED1A86829
:10578C00816842698F1A11D12760B8F1000F02D0DD
:10579C000430FCF725FF3846BDE8F081A8680430DA
:1057AC00FCF715FF0028EAD01127F4E76B68D4F852
:1057BC0000C01A4019408A420BD2674500D22760BC
:1057CC002B681A44326043692268134443610027F2
:1057DC00E1E701339B1A634538BF2360F0E700BF54
:1057EC0074C000002DE9F843064690460F4619B9DF
:1057FC002249C220FCF704FEB8F1000F03D11F4967
:10580C00C320FCF7FDFDB0680430FCF7E0FE8146D8
:10581C0088BBB26813699568ED1AD8F800309D42C0
:10582C0028BF1D46C8F80050736811699468194068
:10583C001C40A14228BF5C1C641AA54208D93368DD
:10584C0038461944224604F0EDF92D1B274400215B
:10585C0033682A461944384604F0E4F9B068D8F89D
:10586C00002003691344C0E904330430FCF7B8FE8C
:10587C004846BDE8F8834FF01109F9E774C0000001
:10588C00806808B582680369D21A8A4207D3194422
:10589C00C0E904110430FCF7A3FE002008BD04206D
:1058AC00FCE7000070B50C46064618B90A493A20C8
:1058BC00FCF7A6FD1CB908493B20FCF7A1FD756857
:1058CC00286818B1B3682146984718B92B6823602B
:1058DC002C6070BD2D68F3E7BAC0000010B504460B
:1058EC0018B905495120FCF78BFD6368186808B19D
:1058FC0002681A6010BD00BFBAC0000010B50446A3
:10590C0018B903495D20FCF77BFD6368186810BD6E
:10591C00BAC0000038B50C46054618B90A496920CA
:10592C00FCF76EFD1CB908496A20FCF769FD6B6831
:10593C00186820B1A04203D102681A60012038BD5A
:10594C0003460068F5E700BFBAC0000010B50D496A
:10595C00A1F58C72914201D800200FE08C1AE30F54
:10596C0003EBE4035B1002EBC30452F833308342C5
:10597C0005D802D204F10802ECE7606810BD21469C
:10598C00E8E700BFC8C5000008B5FFF7DFFF024B12
:10599C00002808BF184608BD9CC4000038B5074C49
:1059AC00051E04F1080318BF1C4623682BB11A68A6
:1059BC0022605B6828469847F7E738BDA4080020AA
:1059CC0020B9054B01225A70FFF7E8BF012802D11C
:1059DC00014A9070F8E770479C08002038B50C4CD1
:1059EC0023789BB90B486360A3602361E36000F0EC
:1059FC0065F9054600F076F901232370064BD3F8C0
:105A0C0000340BB10123A370284638BD8525F5E77A
:105A1C009C080020CD5900000000014038B51A4CFC
:105A2C00237805461BB91949F620FCF7E9FCA37845
:105A3C0003F0FF00ABB115B16B6801209847002053
:105A4C00FCF730FAE36800200133E360FCF73AFA24
:105A5C00E368C3B9BDE838400C494FF48970FCF7D2
:105A6C00CFBCFCF71FFA25B1226913463BB92A605B
:105A7C002561E368002BE5D100F056F9E2E79D4281
:105A8C00F7D01B68F2E738BD9C080020C8C50000A1
:105A9C0008B5074B1B7823B9064940F22510FCF7D3
:105AAC00AFFC4FF08043D3F81804C0F3004008BD9E
:105ABC009C080020C8C5000038B51B4C237805464F
:105ACC0023B91A4940F23310FCF79AFC637803F0BF
