:020000021000EC
:1090000000800020759301005D9301005F930100D3
:10901000619301006393010065930100000000006B
:109020000000000000000000000000006793010045
:1090300069930100000000006B9301006D93010033
:109040002DCD01006F93010079D101006F930100D4
:109050006F930100000000002DD00100000000000F
:109060006F9301006F9301006F9301006F930100F4
:109070006F9301006F9301006F9301006F930100E4
:109080006F9301003DA901006F9301006F930100F0
:109090006F9301006F930100554702006F93010029
:1090A0006F9301006F9301006F93010000000000B7
:1090B00000000000000000000000000000000000B0
:1090C00000000000000000000000000000000000A0
:1090D0000000000000000000000000006F9301008D
:1090E0000000000000000000000000000000000080
:1090F0000000000000000000000000000000000070
:10910000000000000000000000000000000000005F
:10911000000000000000000000000000000000004F
:10912000000000000000000000000000000000003F
:10913000000000000000000000000000000000002F
:10914000000000000000000000000000000000001F
:10915000000000000000000000000000000000000F
:1091600000000000000000000000000000000000FF
:1091700000000000000000000000000000000000EF
:1091800000000000000000000000000000000000DF
:1091900000000000000000000000000000000000CF
:1091A00000000000000000000000000000000000BF
:1091B00000000000000000000000000000000000AF
:1091C000000000000000000000000000000000009F
:1091D000000000000000000000000000000000008F
:1091E000000000000000000000000000000000007F
:1091F000000000000000000000000000000000006F
:10920000354936480A1A02D0072291438D4634491F
:1092100034480A1A06D00722914381F309880222B2
:1092200082F3148830483149314A00F044F831481B
:109230003149324A00F03FF831483249324A00F0B1
:109240003AF832483249334A00F035F83248334967
:10925000334A00F030F833483349344A00F02BF8F1
:1092600033483449344A00F026F83448344900225F
:1092700000F02CF833483449002200F027F8334836
:109280003349091A082902DB002202604160314A91
:1092900090471F481F49884205D00268043003B434
:1092A000904703BCF7E700208646EC4600200021EB
:1092B000294A9047FEE7884207D0521A05D0037822
:1092C00001300B700131013AF9D17047884202D068
:1092D00002700130FAE77047008000200070002023
:1092E000008000200080002070740200541A0020CA
:1092F000501D0020BC930100BC930100FC4C0200F7
:1093000070740200541A0020541A00208C4E02007F
:109310008C4E02008C4E02008C4E02008C4E0200DD
:109320008C4E02008C4E02008C4E020070740200C3
:109330006C770200501D0020501D0020501D0020A1
:10934000BA2D0020BC2D0020BC2D0020BC2D0020FB
:10935000BC3D00208B93010021E70100FEE7FEE702
:10936000FEE7FEE7FEE7FEE7FEE7FEE7FEE7FEE7D5
:1093700000F002B8FFF7FCBF0B484FF0070188432D
:1093800085460A488047FFF73BBF094809490A4A12
:10939000884207D0521A05D0037801300B70013192
:1093A000013AF9D17047000000800020DDC70100BC
:0C93B000784E0200401A0020541A0020E1
:1093BC00F0B595B01D46164608460C4603F008F964
:1093CC001A9B0D93CDE9086500252B46082205A9AB
:1093DC0020460A958DF82C500C9503F015F9079B37
:1093EC000293069B03939DF814308DF8115003F0F3
:1093FC000302012A1DD1BDF81420059DC3F3C2033D
:10940C00C2F383168DF81030B20008230EA9204643
:10941C0003F0FAF8C5F3952508AB0093324602AB7E
:10942C000EA9284600F0C0FB204603F0D5F815B075
:10943C00F0BD022AF8D1BDF81650C3F3C203C5F330
:10944C0089158DF810300827082D2E4628BF0826C0
:10945C003B4632460EA9204603F0D6F8AD1B08ABAE
:10946C0002AA31460EA8374400F002FC002DEBD1C5
:10947C00DAE70000014B01221A707047911D0020A1
:10948C007047000070B50E4D06460FCD88B06C4687
:10949C000FC495E80F00002E84E80F00094A0A4813
:1094AC004FF0060308BF00226946009303F0C0FB8F
:1094BC0008B100F0ADFD054B1E7008B070BD00BFCB
:1094CC008C4E020081940100541A0020501D002083
:1094DC0007B5044B0093044A4023FFF769FF03B020
:1094EC005DF804FBF9940100511D002038B50D48BE
:1094FC000D4C0E4D002323700378EB5CD2B263B19C
:10950C00043004F0C1FA08B100F082FD084B1A785F
:10951C0012B12378002BFBD038BD0C3004F062F86C
:10952C00F1E700BF541A0020911D002000260020F6
:10953C00501D002008B50848084A0378D35C3BB19D
:10954C00043004F005FABDE808400020FFF79ABF8C
:10955C000C3003F0D1FFF6E7541A0020002600204F
:10956C000120FFF78FBF000008B5FFF7F9FF044893
:10957C00042100F089FA034B01225A7108BD00BF87
:10958C00684E0200681A00200378024613F00400AB
:10959C0006D003F00300012803D0022809D00120D3
:1095AC0070470B6812880233C2F3831213440B60AA
:1095BC0070470B685288023303EB92130B60EEE793
:1095CC002DE9F04FDFF81CA187B00F4600230446AD
:1095DC00861C0DF1070015468DF8073001F03CF89C
:1095EC00DAF804203A60DAF8083003F580739B1A35
:1095FC000AF21C470AF583690AF21448B3421AD3DB
:10960C000020002D69D004F00F039B0143F00503EB
:10961C0063F30F00DAF80430DAB2033233444AF859
:10962C0022009DF80700CAF8043001F039F8012037
:10963C0007B0BDE8F08F0121384602F035FA4846F4
:10964C0002F04DFA404602F04AFADAF808000290AD
:10965C00C0B203300AEB800002A9FFF795FF029B12
:10966C0030BBDAB20AEB8202D16803919A1C013347
:10967C00DBB20AEB83030292D3F80CB001F00303C4
:10968C00012B22D0022B15D08346404602F02AFA39
:10969C0010B1029BCAF808305946384602F004FA59
:1096AC00DAF80830DAF8042003F580739B1AA5E782
:1096BC00D8B2CEE7BDF80E30C3F3891303334FEAAB
:1096CC001B4B02EB93030293DFE7BDF80C30C3F3A3
:1096DC0083134FEA1B4B1344F5E7A40544F0060033
:1096EC0098E700BF641E0020064B074810B5002207
:1096FC001A7002F026FF044610B9044802F0B2FFBB
:10970C00204610BD641E0020844D0200E04E020075
:10971C0030B50A4C71B10A4A0A49121BD20800230F
:10972C009A4201D1002030BD31F82350854202D03D
:10973C000133F5E7034654F83300F4E7984D020083
:10974C00684E0200541A0020094B013903EBC0008B
:10975C00032909D8DFE801F00A0204060420704747
:10976C00007970474079704700207047022070479D
:10977C00984D020070470000034BD3E90130C31A27
:10978C0058425841704700BF641E00202DE9F0413B
:10979C0086B0FFF7F1FF0546002840F0ED80774CCE
:1097AC00C4F81804BFF34F8FA3680293DBB20333E2
:1097BC0004EB830002A9FFF7E7FE029B18B1D4F873
:1097CC001824002A5AD0DAB2991C013304EB820215
:1097DC00DBB204EB8303D268DB68049302F003036F
:1097EC00022B0392029154D1BDF80E306448C3F39E
:1097FC008917502F3E4628BF502606F1080166F304
:10980C008F13C1F30901ADF80E3002F0B2FE05461C
:10981C00002800F09C8002F0DBFE0023082203A944
:10982C00284602F0E7FE0299CB43DBB20133C9B202
:10983C000331B6EB830F4FEA830204EB810125D988
:10984C005FFA82F80823A6EB0806284602F0D2FE3F
:10985C00F6B208F108034B4903F0FC0332462846E4
:10986C0002F0C8FE029B033703EB97070297D4F86C
:10987C001834002B43D1D4F8106453E062689A4238
:10988C0094D8A260284606B0BDE8F0810823324681
:10989C00E5E7012B5BD1BDF80C303948C3F38311DC
:1098AC00062928BF062161F38913023101F00F014B
:1098BC008900ADF80C3002F05CFE0546002846D05D
:1098CC0002F086FE0023082203A9284602F092FE2D
:1098DC000026BDF80C20C2F38312B300964203F1AC
:1098EC000803C4D202994A1CC9B20331029204EB98
:1098FC0081010422284602F07DFE0136E9E7284664
:10990C0002F06AFEFFF738FF80F00105EDB2B9E70F
:10991C00F3685B7923B1336829461B683046984756
:10992C00F3681E68002EF3D1284602F055FE0DF1A7
:10993C0007008DF8076000F08FFED4F818340BB9CF
:10994C00029BA3609DF8070000F0AAFEDAE7D4F8AA
:10995C00104454B90C4B0D480D49C01AC0080004F2
:10996C0040F0020000F05EF8CCE7236820469B68CC
:10997C009847E3681C68ECE7002583E7641E002029
:10998C00844D0200701E0020984D0200C04D020054
:10999C00C94E02002DE9F34704460E46924601A932
:1099AC00012218469946FFF70BFE1C4F10B3019D80
:1099BC004FF00008AA1CC84508EB020125D1184835
:1099CC00002102F02AF880F31000000440EA144051
:1099DC00E4006B1C04F03804DBB2EDB244F001047B
:1099EC0007EB8303033544EA881444EA8624D860E1
:1099FC0047F825403B781BB1FFF7C8FE0028FBD188
:109A0C00FFF7B8FE02B0BDE8F087C9B207EB8101E1
:109A1C005AF82830CB6008F10108CCE7641E00200E
:109A2C008022002000231A46FFF7B4BF07B501239C
:109A3C00019201AAFFF7AEFF03B05DF804FB07B576
:109A4C00CDE9002302236A46FFF7A4FF03B05DF8BB
:109A5C0004FB1FB5CDE90123069B039301AA032345
:109A6C00FFF798FF05B05DF804FB1FB5CDE90023A7
:109A7C00069B0293079B03936A460423FFF78AFF16
:109A8C0005B05DF804FB000030B50F4CD4F8102481
:109A9C0003460020114631B9D96808714AB9C4F897
:109AAC0010340A6030BDC9680D79854206D009684A
:109ABC00F1E7D26814680C601360F3E701300A28F0
:109ACC00E8D14FF0FF30EDE7641E002038B5084BAD
:109ADC000125D3F810441D7004B938BDE3685D71DD
:109AEC00236820465B689847E3681C68F4E700BF6E
:109AFC00641E0020C38873B504460D4633B1144A66
:109B0C0000921449144A284602F04FF8217A05298C
:109B1C001CD0637A4BB1A088FFF716FE0F4B10498F
:109B2C0053F82020284602F040F8227A0D4BA088EA
:109B3C0053F822600021FFF7EBFD0B490346324638
:109B4C00284602B0BDE8704002F02FB802B070BDDC
:109B5C000C4F0200F44E0200EC4E0200784F020053
:109B6C008B6702009C4F0200114F020010B5037A64
:109B7C00052B0C460FD0437A23B1084A08492046DE
:109B8C0002F013F80749204602F00FF82046BDE812
:109B9C00104001F0FFBF002AF8D0F3E70C4F020091
:109BAC008B670200094F02002DE9F04385B01F4678
:109BBC000C9D002395F80C902B7306460C46904692
:109BCC0029463846FFF796FFB8F1060F09D8DFE8AB
:109BDC0008F00412181F283340003146284601F0C3
:109BEC00E4FF002229463846FFF7C0FF85F80C90A9
:109BFC0005B0BDE8F08322683146284601F0D5FF58
:109C0C00EFE7D4E900233146284601F0CEFFE8E720
:109C1C00A36800933146D4E90023284601F0C5FF20
:109C2C00DFE7E3680193A36800933146D4E900238E
:109C3C00284601F0BAFFD4E723690293E368019345
:109C4C00A36800933146D4E90023284601F0ADFF08
:109C5C00C7E76369039323690293E3680193A368DD
:109C6C0000933146D4E90023284601F09EFFB8E763
:109C7C0008292DE9F74F80460E4617461C463DD85D
:109C8C0000251B7B2573214610460193FFF732FFFD
:109C9C00DFF888A0DFF888B0AE4232D918F805207A
:109CAC005946204601F081FF0135082DF4D11D499C
:109CBC00DFF874A0DFF874B0204601F076FF4FF0A7
:109CCC0000094E4524D918F809507E2D1ED8284677
:109CDC000AF044FF002814BF2A462E22594620467B
:109CEC0001F063FF09F10109B9F1080FE9D1012273
:109CFC0021463846FFF73AFF019B237303B0BDE8BA
:109D0C00F08F5146204601F050FFCDE72E22E5E7BB
:109D1C005146204601F049FFE4E700BF214F020005
:109D2C001B4F0200254F0200234F0200274F020059
:109D3C00C30710B507D4F023054A4008145C234030
:109D4C001943115410BD0901C9B20F23F4E700BF28
:109D5C003023002030B5094B1C78094B024619689A
:109D6C0000239C4201DC002030BD11F83350954299
:109D7C0001EBC300F8D00133F3E700BF1C23002034
:109D8C004023002070B504460D46FFF7E3FF30B1C9
:109D9C00436823B129462046BDE87040184770BD82
:109DAC00034B044819680022490800F01BBB00BF94
:109DBC0020230020701A002010B5C0B2FFF7CAFF94
:109DCC000446007803F022F963785A1E534253413B
:109DDC00834208D1044BD3E90023134303D1BDE8DC
:109DEC001040FFF7DDBF10BD2823002037B5430816
:109DFC00374AD35CC2074CBF1B0903F00F03044660
:109E0C000D46042B25D8DFE803F003262F3C400039
:109E1C00F9B10121FFF78CFF00230DF107008DF83C
:109E2C00073000F019FC0120A4F12003C4F120013B
:109E3C00284A20FA01F100FA03F30B43A040D2E9BF
:109E4C00004120430B43C2E900039DF8070000F0DA
:109E5C0027FC03B030BD002918BF0221204603B0F7
:109E6C00BDE83040FFF764BF49B10321FFF760FF45
:109E7C000121204603B0BDE83040FFF783BF01212C
:109E8C00ECE70029E5D10421E8E709B10321E5E776
:109E9C00FFF74EFF29462046FFF774FF0DF1070030
:109EAC008DF8075000F0D8FB0120A4F12003C4F179
:109EBC002001084A20FA01F100FA03F30B43A040F9
:109ECC00D2E9004124EA000021EA0303BBE700BF0A
:109EDC0030230020282300202DE9F041124E134F8F
:109EEC0000243378A34208DC114BD3E9002313433D
:109EFC0018D0BDE8F041FFF753BF3D6805EBC4082F
:109F0C0015F8340003F082F898F801305A1E5342C9
:109F1C005341181A4142414115F83400FFF766FFCE
:109F2C000134DEE7BDE8F0811C2300204023002033
:109F3C0028230020092AF7B505460C4616463ED9BB
:109F4C0002F09CFFE8B11F4B1F481D601F4B204FB8
:109F5C001C70204B002110221E600AF065FE1E4B67
:109F6C0000200021C3E90001013CE4B20326FF2CD0
:109F7C000DD11A4A1A48002103B0BDE8F04000F098
:109F8C001FBA02F045FF0028DDD003B0F0BD9DF8EC
:109F9C00063015F834008DF8046005EBC40223F08C
:109FAC0007038DF8063001A993788DF805303A46F1
:109FBC0002F06EFF013CE4B20028D8D0E5E70720A0
:109FCC00E3E700BF40230020302300201C230020A7
:109FDC00C59D01002023002028230020E59E0100C0
:109FEC00BC4F020070B5084D084E00242B789C42E3
:109FFC0001D3002070BD3368012113F8340002F046
:10A00C00BFFF0134F2E700BF1C23002040230020D7
:10A01C001FB50021039001AA44F20100CDE9011102
:10A02C0000F004F805B05DF804FB000038B572B61A
:10A03C00FFF74CFDFFF7AAFB0028FBD1104B114C8E
:10A04C00114D1249E41AE408240444F00100FFF70E
:10A05C00E9FCD5F8F030DB0700D500BE0C4944F024
:10A06C000200FFF7DFFCBFF34F8FEA68094B02F4E5
:10A07C00E0621343EB60BFF34F8F00BFFDE700BFFF
:10A08C00984D0200C04D020000ED00E0C04F0200F0
:10A09C00CC4F02000400FA054B1C30B5DB00044623
:10A0AC0012F003009BB20DD1074D2A601A44074BE6
:10A0BC001A60074B1870074B1870074B1C80074B26
:10A0CC00198030BD0720FCE74C23002048230020DA
:10A0DC00442300205423002050230020522300202E
:10A0EC002DE9F743DFF8A880B8F800308B4206461C
:10A0FC000D46174647D300240DF107008DF8074095
:10A10C0000F0AAFA234B244A24481B78008892F8C2
:10A11C0000C084455FFA8CF138BF4C1CDBB238BFF1
:10A12C00E4B2A34228D014781178CBB2884286BF0F
:10A13C000133DBB2002313709DF8070000F0B0FA76
:10A14C004FF6FF739C4220D0154B1B6843F83470BC
:10A15C0003EBC4099EB195B1124BB8F800001B6813
:10A16C002A46314604FB00300AF035FDA9F80450AC
:10A17C00002003B0BDE8F0834FF6FF74DCE700204D
:10A18C00A9F80400F5E70920F3E70420F1E700BF84
:10A19C00502300205423002044230020522300206D
:10A1AC004C2300204823002070B5104C104D227811
:10A1BC002B789A4200D170BD0E480F4A2378126852
:10A1CC0006880E4802EBC301006852F833208988D8
:10A1DC0003FB060090470A4922780988D3B29142C2
:10A1EC0086BF0133DBB200232370E0E75423002049
:10A1FC0044230020502300204C230020482300201F
:10A20C005223002010B5D0E90243D1E90202A0424A
:10A21C0072EB03032CBF0120002010BDD0E90030ED
:10A22C001847000008B50A4800F06BFB094AD2E950
:10A23C000031C018084BD3E9002341F100019042D2
:10A24C0071EB030303D210F1807041F1000108BDE2
:10A25C00901A002060230020D823002037B5054633
:10A26C000C460A4801A901F00CFB60B10570446072
:10A27C0001A9064801F02FFB18B1054800F046FB78
:10A28C00002003B030BD0420FBE700BFC423002036
:10A29C00901A00207FB52E4B1D7804461DB9002561
:10A2AC00284604B070BD0028F9D0FFF7BBFFD4E9F5
:10A2BC0002239042994143D3002302A88DF8083021
:10A2CC0000F0CAF923692BB94FF0FF324FF0FF337E
:10A2DC00C4E902239DF8080000F0E2F963690293D7
:10A2EC000821A3691B4A03930DEB0100FFF7F8FE4D
:10A2FC0008B1FFF78DFE00260DF107008DF8076001
:10A30C0000F0AAF92369BBB1D4E90212B2F1FF3F04
:10A31C0008BFB1F1FF3F11D05B1842F10002C4E954
:10A32C0002329DF8070000F0BBF9002DB8D00A48A6
:10A33C00214602F0B6F9B3E71D46F2E73546F0E7E1
:10A34C00B3F1FF3F08BFB2F1FF3FA8D0EFE700BF6A
:10A35C006823002029A20100E84F020013B5114B1D
:10A36C0011491868019008231048582201F054FA3A
:10A37C00044698B90E4A0F4801A900F0B3F90446F7
:10A38C0060B90C48012100F09FFA01230A4A0948E0
:10A39C00194600F001FA094B01221A70204602B04E
:10A3AC0010BD00BFE44F02006C230020C42300202A
:10A3BC00A9A40100901A0020FFFF7F006823002051
:10A3CC0030B56AB103684FF0FF344FF0FF355A6176
:10A3DC004A1E5142C3E9024551411961002030BD6A
:10A3EC000720FCE7F7B5044600250DF107001746DA
:10A3FC000E468DF8075000F02FF9D4E90223B3F183
:10A40C00FF3F08BFB2F1FF3F07D1FFF70BFF30183A
:10A41C0041F10001C4E9020101259DF8070000F09B
:10A42C003FF955B12369A76103B12661214600208C
:10A43C0003B0BDE8F040FFF711BF284603B0F0BDF4
:10A44C0037B5054600240DF107008DF8074000F0E4
:10A45C0003F9D5E90223B3F1FF3F08BFB2F1FF3F87
:10A46C0006D04FF0FF324FF0FF33C5E90223012431
:10A47C009DF8070000F014F934B12946012003B00F
:10A48C00BDE83040FFF7EABE204603B030BD000007
:10A49C00014800F036BA00BF901A00202DE9F743AE
:10A4AC00064600F019FA40B1634AD2E9003113F1C3
:10A4BC00807341F10001C2E900310021304600F007
:10A4CC001AFA38B15D4C236823B12068FFF7E2FE1D
:10A4DC00002323600121304600F00DFA20B1FFF774
:10A4EC00A1FE574BC3E900015648544F01A901F096
:10A4FC0002FA4FF0FF344FF0FF35A0B9DFF8488176
:10A50C004E4D404602F0E3F8002800F08680D0E97A
:10A51C000223B3F1FF3F08BFB2F1FF3F33D14046F6
:10A52C0002F0CFF8EDE70378012B21D0022B09D1F3
:10A53C00DFF81481404602F0C4F8002877D0C0E957
:10A54C000245F7E75BB94168D1E90223B3F1FF3F5C
:10A55C0008BFB2F1FF3F02D03B4802F0A2F801A9BC
:10A56C00384801F0F3F901A9364801F0C4F9C4E701
:10A57C0041683B68994202D100233B60EFE73248C7
:10A58C0002F0A8F8EBE7296891B12968D1E902013A
:10A59C0082428B412FD22B68D3E90223B3F1FF3FC8
:10A5AC0008BFB2F1FF3F03D02968404602F079F8AA
:10A5BC00404602F086F8D0E902490746FFF732FE22
:10A5CC00201A69EB0109012879F1000318DBB0F5B9
:10A5DC00350F13D3FFF75CFF1C4A02441C484FF4A1
:10A5EC009603002100F0F8F890B92B6813B93046A7
:10A5FC0000F0CAF82F6003B0BDE8F0832246EDE707
:10A60C001348002100F06DF93846FFF743FE01E0D6
:10A61C000D28F9D000232B6073E7084B1B68002B27
:10A62C00E9D1304603B0BDE8F04300F0B1B8094BB6
:10A63C0001221A7093E700BF60230020E023002062
:10A64C00D8230020C4230020E84F0200FFFFB400F1
:10A65C00901A00206823002070B5EFF3108672B6B4
:10A66C000C4A946801239CB993600B4B0B4DD3F8A7
:10A67C00801029401160C3F88050D3F884105160C9
:10A68C004FF0FF32C3F88420047006B962B670BD77
:10A69C000370FAE7E423002000E100E0FC06FFBDB4
:10A6AC00084B9A6810B55AB150B9EFF3108172B6D5
:10A6BC00054A1C6814605C685460986001B962B605
:10A6CC0010BD00BFE423002000E100E00346405829
:10A6DC0082B028B100225A505B580193019B012093
:10A6EC0002B07047F8B5204B4479204E43F8242033
:10A6FC001F4A204B06EBC4049B1A2279DB081B046F
:10A70C0032B143F002001C49FFF78CF90820F8BD68
:10A71C0002680C88C2F8084590F904508A780479CC
:10A72C005201002DD2B219DB14494F1987F80023BE
:10A73C0001226D0904F01F0402FA04F441F82540CB
:10A74C00427906EBC201012446F832000C7143F049
:10A75C0003000B49FFF766F90020D8E7094904F01C
:10A76C000F040A55ECE700BFF8230020F02300206B
:10A77C00984D0200D04D0200F44F020000E100E0C1
:10A78C001650020014ED00E0036801221A607047B5
:10A79C00036801225A60704773B501F15005AD0092
:10A7AC000068ADB24FF480348C400026C0F80843EA
:10A7BC00C0F84843465101F5A8714559019522F05E
:10A7CC007F42019D40F82120C0F844430BB1C0F8F2
:10A7DC00044302B070BD00002DE9F74F0D4622F086
:10A7EC007F4402684FF4803705F150068F40804655
:10A7FC00B60002EB8500C2F84873B6B2C2F8087313
:10A80C00D2F8041599464FF0000BD0F84035C0F83B
:10A81C00401542F806B05B1A9259009223F07F4320
:10A82C00012B009A4FEA850A0CD1264B4FF480601D
:10A83C0043F001039847D8F8003043F806B09B5911
:10A84C000193019BD8F80010D1F80465C1F844734A
:10A85C00A31B23F07F43012B1CD11A4B05F5A875C4
:10A86C00013443F0010341F825404FF480609847D0
:10A87C00D8F80030D3F804359E4209D1D8F800300E
:10A88C000020C3F84473C3F8047303B0BDE8F08F21
:10A89C000D20FAE78A44C9F1FF13CAF84045D1F8F4
:10A8AC000405221A013A22F07F4203F57F439342BA
:10A8BC00EED3002AE2D10134CAF84045D1F8043570
:10A8CC009842DAE73050020003680222C3F84423AE
:10A8DC0009B1C3F80423704700684FF48271FFF785
:10A8EC00F5BE4FF4803303FA01F10368C3F8481343
:10A8FC00C3F80813704750318900006889B2FFF71C
:10A90C00E5BE0368D3F804057047000090F90430E5
:10A91C00002B09DB5A09012103F01F0301FA03F391
:10A92C004032024941F82230704700BF00E100E09C
:10A93C00024B034A1B681068184700BFF82300201D
:10A94C00F023002070B5064E0546002456F8043B53
:10A95C000BB1284698470134042CF7D170BD00BFC9
:10A96C00082400204388033300EB830399420BD364
:10A97C0082884FF6FF739A4208D0038833B18068FF
:10A98C00431C5842584170470220704701207047C1
:10A99C00033080B240F2FE33984230B51FD8134BCF
:10A9AC001A783AB91C895D892C440444A4B2B4F5D4
:10A9BC00806F0AD91A7DAAB99A8BDC8B2244024487
:10A9CC0092B2B2F5806F0DD801220A80144614227F
:10A9DC0002FB04335A8910445881002030BD48F2E0
:10A9EC000860FBE748F20660F8E700BF3C24002053
:10A9FC000B4A0C495388142000FB0311CB6833B964
:10AA0C000420496810700122074801F063BB074914
:10AA1C000523137002238B80012209680023F3E7BE
:10AA2C00202400203C240020401A00200425002073
:10AA3C0007B5002305490093054A09680548082312
:10AA4C0001F0AEFA03B05DF804FB00BF0425002052
:10AA5C0044500200401A002007B500230146009321
:10AA6C00034A0448082301F09BFA03B05DF804FB89
:10AA7C003C500200401A002013B500230C460093F2
:10AA8C000146084A0848042301F08AFA38B9074BF2
:10AA9C00142101FB043101230B7402B010BD48F2E8
:10AAAC000D60FAE738500200401A00203C240020C8
:10AABC0037B50A480A4B42689C88196853880325A5
:10AACC00033305709BB2002000909B0001EB8401C6
:10AADC00044801F065FA03B030BD00BF202400200B
:10AAEC0004250020401A002010B50146044800F04F
:10AAFC00C8FE1C22044600210AF096F8204610BD20
:10AB0C00F024002068B10268084B9A4209D14068D1
:10AB1C00074B984207D00133984214BF0320012001
:10AB2C007047032070470020704700BFDEC0ADDEC9
:10AB3C00FE011EF12DE9F0410D460223154F2B802D
:10AB4C00164600F5805100F108044FF001088C42C4
:10AB5C000ED2236801330BD02046FFF703FF48B118
:10AB6C000EB186F80080022809D14FF480632B8047
:10AB7C00BDE8F081A3683A68934200D93B602B880A
:10AB8C006288033313442B806388033304EB830400
:10AB9C00DDE700BF3424002038B5144B14220D46D9
:10ABAC0002FB00335C682B6804F58051A3B15C8810
:10ABBC00033403EB84048C4215D22368013312D086
:10ABCC002046FFF7CFFE012808D002280BD0002822
:10ABDC00F1D12C60012038BD0834ECE763880333D5
:10ABEC0004EB8304E7E70020F5E700BF3C240020DA
:10ABFC00426873B504460D466AB3234BD9688A4242
:10AC0C0029D31B699A4226D812F0030323D11F497A
:10AC1C000089098988421ED12068916888421AD11E
:10AC2C001B4841688A4203D901F580518A420DD3F1
:10AC3C0081698A420CD901F580518A4208D20122DD
:10AC4C002A80B3FA83F0400902B070BD1A46F7E7C8
:10AC5C0048F20963F5E700262E800196288801A9A1
:10AC6C00FFF79AFF30B92B8801339BB2012B2B8055
:10AC7C00F3D9E9E7019B226899689142EED16360B0
:10AC8C00024B1B892381DFE7401A0020202400207F
:10AC9C003C2400202DE9F8431C461D4B1B7806462E
:10ACAC000F46154673B382B37CB3DFF868804FF060
:10ACBC001409A388012B02D948F2096020E009FB92
:10ACCC0003F318F803302BB9A0882146FFF764FF73
:10ACDC0020B92060A3880133A380EAE723681EB162
:10ACEC00998832889142EFD11FB119883A889142E4
:10ACFC00EAD19A68C5E90023074B1B892B810020F8
:10AD0C00BDE8F88348F20160FAE748F20460F7E71F
:10AD1C00182400203C2400202024002008B5074BD8
:10AD2C005888191DFFF738FF18B1BDE80840FFF728
:10AD3C00BFBEBDE80840FFF75BBE00BF202400206B
:10AD4C002DE9F0479F4FDFF8808288B006463B68BC
:10AD5C0023B99E48414600F0CEFD38603D68297805
:10AD6C004B1E052B07D8DFE813F02000740074008D
:10AD7C00060106015D0148F20E641422002103A8AD
:10AD8C0009F052FF41F61D539C4208BF00243B685A
:10AD9C0004941A78023A042A00F2FC81DFE812F0DB
:10ADAC00DD01E9010B0213021A022EB1884B0022BD
:10ADBC005A604FF40644E0E72B79032B1CD8DFE8EC
:10ADCC0003F014022A35834A1378022B1AD0137D10
:10ADDC00022B4FF0010317D114214B43D118002043
:10ADEC00D0544868FFF738FE03E001232B71FFF7BE
:10ADFC001FFE002800F0B980754B00225A6048F203
:10AE0C000D64BAE70023E7E7714A1370002353601F
:10AE1C0041F61D54B1E770497048002302222B7192
:10AE2C008A800968012201F055F9E2E76C4B694C04
:10AE3C005B88694A14214B43E11800262E714D683A
:10AE4C0010681560958848600D810221E654918048
:10AE5C00C8E7B5F814A0AA7DDFF87891AEB1022A44
:10AE6C00EB8806D9142101FB0A91DA1C08890244EB
:10AE7C000A81142202FB0A99C3F57F43B9F80A2010
:10AE8C00FD331344A9F80A3093E7142303FB0A9308
:10AE9C0018895C6804EB8004062A69D8DFE802F0A4
:10AEAC00274E36441D5A040041F61D54AA7DEB88EA
:10AEBC00022A06D9142101FB0A91DA1C08890244E2
:10AECC000A81142202FB0A99C3F57F43B9F80A20C0
:10AEDC00FD331344A9F80A304FE742484249002396
:10AEEC004360AB690360FFF783FE00285BD002234D
:10AEFC00AB75002300930423EA182146374801F070
:10AF0C004FF8002831D048F20D64CFE72B69002BA5
:10AF1C0014BF03230123AB750023009305F10C022E
:10AF2C00042304F10801E9E70123AB750022EB8847
:10AF3C0000922A699B0004F10C01DFE703290CBF86
:10AF4C0005230623AB7500230093042305F10802A7
:10AF5C00E118D3E70623AB75234B1988214B5868AE
:10AF6C00FFF78AFD04460028A0D108B0BDE8F087A1
:10AF7C0048F20E649AE7002E7FF41BAF2B79012B5D
:10AF8C0034D0022B3FF444AF002B7FF4F4AE0223F9
:10AF9C002B710DF10A01EB68039303A8CDE904664C
:10AFAC00FFF726FE10B948F20964E6E60498BDF8EE
:10AFBC000A108388EB8003882B81FFF75DFD044624
:10AFCC0029E000BF3824002030240020F024002089
:10AFDC00182400203C24002004250020401A0020C6
:10AFEC0020240020FC23002010250020DFF8EC9109
:10AFFC0003AA4B463146A81DFFF74CFE044670B918
:10B00C00B9F804100498FFF737FD044648F20963B9
:10B01C009C423FF4FDAE002C7FF4AFAEA5E7C9E92E
:10B02C000066F3E7002E7FF4C4AE6D4B1A7BBAB109
:10B03C001E731A78013A062A3FF69DAE01A151F80B
:10B04C0022F000BFFBB0010021B101003FB10100B3
:10B05C0045B1010083AD01004BB101005DB10100B0
:10B06C001A78072AE5D801A151F822F099B001000D
:10B07C003FB001003FB00100BFB00100D3B00100F0
:10B08C00F7B00100F7B00100BBB001001A895549B7
:10B09C0001321A8100225A801A730A78B2FA82F2AB
:10B0AC0052099A720A7DB2FA82F25209DA720122BC
:10B0BC0007E04D4958688A884088033202448A80E8
:10B0CC0002221A70B5E75C88464A4749142505FBED
:10B0DC0004220868546850608888108102200C6033
:10B0EC008880002111740622EBE70722E9E79A7A9F
:10B0FC0032B9DA7A8AB900221A705A805A6087E615
:10B10C00384900229A72CA68002AF2D1097C0029B7
:10B11C00EFD05A80FFF702FE51E70022DA72314A73
:10B12C00116A0029E7D192F82420002AE3D00122E9
:10B13C00EFE7FFF7BDFC42E7FFF75AFC3FE75A8801
:10B14C00284B142101FB02335868FFF785FC36E7C6
:10B15C0000225A60FFF76CFC31E701228DF80C20BD
:10B16C001A89ADF818209A88DB68ADF81A20059377
:10B17C0010E002228DF80C201A89ADF818209A885C
:10B18C00ADF81A20DA689B7D05929A1F5342534101
:10B19C008DF81C3003A8FFF7D5FB00264146134859
:10B1AC003E6000F0D3FB1248012100F089FC00281E
:10B1BC007FF4CDADD9E603228DF80C20DA88ADF8FA
:10B1CC0018201A89D0E704228DF80C20DB88ADF802
:10B1DC001830DFE705238DF80C30DBE71425002051
:10B1EC00202400203C24002004250020F0240020F2
:10B1FC00002500204068FFF7A3BD000008B50548F6
:10B20C00012100F045FC18B9BDE80840FFF798BDD6
:10B21C0008BD00BF002500202DE9F3419846374BAF
:10B22C001B7806460D46002B5CD000295DD00988A2
:10B23C004FF6FF7399425BD06B88002B58D06B682C
:10B24C009B0758D14AB92F890DF102013846FFF7F7
:10B25C009FFB30B102B0BDE8F08113885788ADF880
:10B26C00023001A8FFF740FC044660B9BDF802208B
:10B27C00234B142101FB023358890338C01B58811E
:10B28C0048F20760E6E780F8008000238375BDF87C
:10B29C00023083826B68036101211A4800F004FCC0
:10B2AC002B882381B8F1030F6B88A38004BF042380
:10B2BC00A3754FF0000508BF3368E06008BFA361B9
:10B2CC001148E780658101A900F005FB36B1E36800
:10B2DC0033600E4B75601B89B5723381FFF78EFF9F
:10B2EC000020B7E748F20160B4E748F20460B1E728
:10B2FC0048F20360AEE748F20260ABE71824002086
:10B30C003C24002034240020F024002020240020A1
:10B31C0008B5034607480268042A08D00168064AA3
:10B32C0042F82130012100F0BFFB002008BD48F29B
:10B33C000B60FBE70C250020082400202DE9F04FC2
:10B34C00DFF8048289B01422002103A809F06CFCF8
:10B35C0098F8003003F0FF0200923BB103A8FFF70E
:10B36C00F1FA0027384609B0BDE8F08F08F1040067
:10B37C0000F0B2FB0028F4D1009BDFF8D0A1D3F889
:10B38C00F83F5C1C08BF4FF010234FF0805208BFF1
:10B39C005B6911695269581C08BF02FB01F3CAF8BA
:10B3AC0010306B49A3F5405300225046CAF80C30BC
:10B3BC0000F0C4FD07460028D4D11C23654966481B
:10B3CC00DFF898B18C2200F027FA0323B9463D46EA
:10B3DC0001933C46DAF80C604E443046FFF792FB82
:10B3EC00012867D0032817D000283DD15C494FF0C5
:10B3FC00140C0CFB04FC01EB0C0201F80C00566065
:10B40C000CF110020CF1080C0A4430466144FFF7B1
:10B41C0091FB45F002054AE03268531C02D0514BB7
:10B42C009A4239D1321D06F580511068013033D162
:10B43C0004329142F9D1DBF800203AB902220123FF
:10B44C00CBF80060ABF8042000930BE014226243AD
:10B45C00434B022099189854434A4E60548001344F
:10B46C000881A4B245F0010509F58059B9F5405F92
:10B47C00B0D1019B012B98BF0025EDB2022D03D05A
:10B48C00062D36D0002D3ED1002388F8003048F22E
:10B49C000A67C8F8043065E7019B31495A1E93B21C
:10B4AC0014226243881801934660032088540134A7
:10B4BC00A4B2D9E7009B6BB1294B142262439918B3
:10B4CC0002209854DBF800204A60274A08815480F7
:10B4DC000134A4B200222549CBF800603046FFF7B6
:10B4EC0029FBBBF80420022A0CBF042208221543B6
:10B4FC00BAE7012388F8003003A80023C8F8043009
:10B50C00FFF720FA2EE702A8FFF7EEFAC8B10123E5
:10B51C00013D03700A2D09D8DFE805F0060806087E
:10B52C00070807080F110F000023037102A90A482E
:10B53C0000F0D1F9FFF762FE14E70323F5E70223CD
:10B54C00F3E748F207670DE718240020401A0020A3
:10B55C003852020064240020F0240020042500202E
:10B56C003C240020DEC0ADDE202400200825002075
:10B57C0073B50D460446C8B1C1B10DF10601FFF714
:10B58C0037FBB0B1BDF806300B486668142202FBDD
:10B59C00030001210C3000F087FA63682E600C3335
:10B5AC006B600123A372002002B070BD48F20460EE
:10B5BC00FAE748F20960F7E73C24002013B504468B
:10B5CC00A8B10DF10601FFF713FB98B1BDF80620E9
:10B5DC000B4B142101FB0233DA6872B1A27A62B10F
:10B5EC00DA680020013ADA60A07202B010BD48F2AD
:10B5FC000460FAE748F20960F7E748F20560F4E7FF
:10B60C003C24002002230022FFF706BE18B10323BE
:10B61C000022FFF701BE48F204607047114B1B7803
:10B62C0013B50446ABB14FF6FF73984214D001A882
:10B63C00FFF75AFA98B10523037001230371C480F4
:10B64C0001A9094800F047F9FFF7D8FD002002B026
:10B65C0010BD48F20160FAE748F20360F7E748F2E0
:10B66C000760F4E718240020F02400200F4B1B780F
:10B67C0007B5A3B101A8FFF737FA98B106230370F9
:10B68C0001A90B4800F027F90A4B1A780AB10122DC
:10B69C001A73FFF7B3FD002003B05DF804FB48F20A
:10B6AC000160F9E748F20760F6E700BF18240020B4
:10B6BC00F02400202024002007B5ADF80600ADF8DA
:10B6CC0004100DF1060001A9FFF7E4FA03B05DF8D0
:10B6DC0004FB07B51346ADF806000A4600200DF131
:10B6EC000601FFF7D7FA03B05DF804FB07B5134664
:10B6FC00ADF806000A460DF106000021FFF7CAFA64
:10B70C0003B05DF804FB20B119B103680B60002095
:10B71C00704748F2046070472DE9F84F3C4B1B789A
:10B72C000446002B6DD000286ED0DFF8E890122272
:10B73C00002109F079FA032323804FF0000A4F46C9
:10B74C0014264FF00108D9F80410B9F80AB0B9F86A
:10B75C0008500846FFF7D6F9032808BF23886288EB
:10B76C0004BF03F1FF33238006FB0A735D44DB68DF
:10B77C001344638023899B446389A4F808B0ADB259
:10B78C002B446381C5F58065A389ADB2AB4238BF4C
:10B79C00A58101F1080501F58051A94229D92B6831
:10B7AC00013326D02846FFF7DDF801280AD00228FD
:10B7BC0015D00028F1D1A3880133A3800AE04FF003
:10B7CC00010AC0E7E3880133E380E3896A88033325
:10B7DC001344E3816B88033305EB8305DDE7E388D2
:10B7EC0084F810804D1BE189013301EBA501E38046
:10B7FC00E18109F11409BAF1000FE0D00020BDE895
:10B80C00F88F48F20160FAE748F20460F7E700BFEE
:10B81C00182400203C24002030B5054659B1B2FB59
:10B82C00F3F403FB1424A0B238B9C5E90010A860E6
:10B83C00AA81EB8130BD0E20FCE70920FAE782B02B
:10B84C0050E8022FC188B2EB324F4FF0000317BF04
:10B85C0092B241EA014142EA014104E04268B2EB92
:10B86C00324F08BF012340E80212002AE8D18DF8BC
:10B87C0007309DF80730002B0CBF1120002002B0C0
:10B88C00704737B550E8013F9DB2C489254484897F
:10B89C00A54228BF2D1B0489A54202BFBFF32F8FE1
:10B8AC00002207E0C5EA030540E80154002CE9D169
:10B8BC004FF001028DF803200193019A0A609DF864
:10B8CC00031001F0FF0321B1006810FA82F003B0FD
:10B8DC0030BD1846FBE70A884B889A4209D150E8DC
:10B8EC00012FC2EA024240E80123002BF7D10120CC
:10B8FC0070470020704737B550E8023F1FFAA3F598
:10B90C00C488A54202BFBFF32F8F00220DE0C4896B
:10B91C0025448489A54228BF2D1BC3EA054540E870
:10B92C000254002CE8D14FF001028DF80320019352
:10B93C00019A0A609DF8031001F0FF0321B1006821
:10B94C0000EB124003B030BD1846FBE70A884B8869
:10B95C009A4209D150E8022FC2EA224240E802235F
:10B96C00002BF7D1012070470020704701F01F0217
:10B97C004B090121914000EB830000F065B84B09A5
:10B98C0010B501F01F040121A14000EB830000F071
:10B99C004FF8E04000F0010010BD01F01F03012240
:10B9AC009A404B0900EB8300D14300F065B84B097A
:10B9BC0001F01F0150F82300C84000F0010070474F
:10B9CC002DE9F0474F1E7F0980460E4601370025B2
:10B9DC0058F8254008EB8509E44394FAA4F4B4FA2A
:10B9EC0084F44FEA451A202C06D10135AF42EFD82A
:10B9FC0034462046BDE8F0875444A642F5D921468A
:10BA0C004046FFF7BCFF0028F3D0D9F80040E443D0
:10BA1C0094FAA4F4B4FA84F4E5E710B5034653E8B9
:10BA2C00000F0A4643E8002494F0000FF7D110BD34
:10BA3C0010B5034653E8000F40EA010243E8002426
:10BA4C0094F0000FF6D110BD10B5034653E8002F4B
:10BA5C0042EA010043E8000494F0000FF6D110BD57
:10BA6C0010B5034653E8000F00EA010243E8002436
:10BA7C0094F0000FF6D110BD10B5034653E8002F1B
:10BA8C0002EA010043E8000494F0000FF6D110BD67
:10BA9C0010B5034653E8000F00EB010243E8002405
:10BAAC0094F0000FF6D110BD10B5034653E8002FEB
:10BABC0002EB010043E8000494F0000FF6D110BD36
:10BACC0010B5034653E8002FA2EB010043E8000435
:10BADC0094F0000FF6D110BD0121FFF7A9BF012191
:10BAEC00FFF7B2BF0021FFF7BBBF10B590B1D0E993
:10BAFC00012301689B1ADBB20A60013BDBB2FF2B0E
:10BB0C00026802D10020107110BD11684C1C146029
:10BB1C000B70F2E70E20F7E737B5054600240DF160
:10BB2C0007008DF80740FEF797FD2A686B681168CF
:10BB3C0099420ED9481E106011F8013CEC68298A14
:10BB4C0001FB0344AB6811791B1ADBB2994238BF75
:10BB5C0013719DF80700FEF7A3FD204603B030BD1E
:10BB6C0037B5054600230DF107000C468DF807305C
:10BB7C00FEF772FD2A681368591C1160E968641A93
:10BB8C00298AB4FBF1F41C709DF80700FEF788FDC0
:10BB9C0003B030BD826810B504462AB14369016810
:10BBAC00006998470023A36010BD0EB403B5039938
:10BBBC0021B104AB01AA019300F076F802B05DF854
:10BBCC0004EB03B070470A2938B504460D4602D180
:10BBDC000D21FFF7F8FFA3682268591CA160D5540A
:10BBEC00D4E901329A4204D32046BDE83840FFF72D
:10BBFC00D1BF38BD2DE9F84F9846DDE90A4315460B
:10BC0C0082460F460A464FF00109AA420FD2C1459F
:10BC1C0038BFC14613F0010B01D16CB900240126C9
:10BC2C00B8F1010F1BD908F1FF386E43F8E709F1A1
:10BC3C000109B2FBF5F2E8E79B070ED5B8F1000F4E
:10BC4C000CBF30262026A145E9D2013C3146504696
:10BC5C00FFF7B9FF002CF6D1E0E72026F3E7B7FB9E
:10BC6C00F6F39D42E1D9DFF83C80B7FBF6F3504682
:10BC7C0018F8031006FB1377FFF7A5FF3346AB420A
:10BC8C00B6FBF5F6F1D2BBF1000F02D00CB1A14519
:10BC9C0001D3BDE8F88F20215046013CFFF793FFFC
:10BCAC00F4E700BF4C5002002DE9F74F054617464C
:10BCBC008846002900F03E8118F8011B49B92B7BFE
:10BCCC00002B00F03781284603B0BDE8F04FFFF79A
:10BCDC0061BF252940F0B780002698F800302D2B45
:10BCEC00424608F1010823D0302B24D02B2B25D031
:10BCFC0000242A2B02F1010123D13B681A1D1B6879
:10BD0C003A601C440A4613782E2B26D101324FF090
:10BD1C00000A104610F8011BA1F1300CBCF1090F00
:10BD2C001DD80A2303FB0A13A3F1300A0246F0E7DD
:10BD3C0046F00106D1E746F00206CEE746F00406CF
:10BD4C00CBE711F8013CA3F130000928DBD80A221B
:10BD5C0002FB0434303C0A46CBE74FF0000A12F8E1
:10BD6C00011B01F0FB0068289046F8D0782909D80F
:10BD7C006F290CD8632962D022D8252963D0582981
:10BD8C0000F0888098F80030002B95D197E7703937
:10BD9C000829F7D801A353F821F000BF1BBF0100FD
:10BDAC0091BD010091BD0100B1BE010091BD01002A
:10BDBC008FBE010091BD010091BD0100A1BE01002B
:10BDCC00642901D06929DDD13A68D2F80090111D9F
:10BDDC0089EAE9723960A2EBE9724FF0010B092A8A
:10BDEC0035DCD34538BFD3462CB1B9F1000F01DB9C
:10BDFC00720700D5013CB30702D5BAF1000F03D08E
:10BE0C00F00701D44CBB0024B9F1000F2DDAC9F1B5
:10BE1C0000092D212846FFF7D6FE06F00302022A60
:10BE2C0004D1BAF1000F01D11CBB0024CDE90046AE
:10BE3C0053460A2249462846FFF7DCFEA2E73B6838
:10BE4C001A1D19783A602846FFF7BDFE9AE70A23B7
:10BE5C000BF1010BB2FBF3F2C1E7A345D4D22021C5
:10BE6C002846013CFFF7AFFECCE77107D5D52B2157
:10BE7C00D0E7A345DAD230212846013CFFF7A3FED8
:10BE8C00D2E73968CDE900460A1D3A6053460A22CA
:10BE9C000968D0E739680A1D3A60CDE90046534677
:10BEAC001022F5E73B681A1D3A6016F00106D3F82C
:10BEBC00009024D1B9F1000F03D0484608F0E7FEFA
:10BECC000646B4421DD809F1FF3919F8011F0029A3
:10BEDC003FF458AF2846FFF776FEF6E728460136C2
:10BEEC00FFF771FE19F806100029F7D1A642BFF42E
:10BEFC0049AF20212846013CFFF765FEF6E70026F6
:10BF0C00F0E720212846013CFFF75DFED9E73B68AE
:10BF1C001A1D3A60302128461C68FFF754FE782120
:10BF2C002846FFF750FE00220823CDE900322146B7
:10BF3C00102280E703B0BDE8F08F00BF13B50B46AD
:10BF4C00114680B9104B1148114AC01A0E23C00873
:10BF5C000093104B0004104940F00100FDF779FDEF
:10BF6C000E2002B010BD4BB9074B08480B4AC01A43
:10BF7C00C0080E2300930004064BECE703601B681B
:10BF8C0002B0BDE810401847984D0200F04D020079
:10BF9C005C500200185202006150020090500200E6
:10BFAC002DE9F743DDF8288088B93E4B3E483F4ADF
:10BFBC00C01AC0080E243E4B009400043D4940F0CA
:10BFCC000100FDF746FD204603B0BDE8F0834AB9F9
:10BFDC00344B3548384AC01AC0080E24344B0094F0
:10BFEC000004EBE7D0F800E0BEF1000F09D12D4BB7
:10BFFC002D48324AC01AC00808242D4B0094000466
:10C00C00DCE74BB9274B28482D4AC01AC008092435
:10C01C00274B00940004D1E74768D7F80490B3FB92
:10C02C00F9F709FB17374FB11E4B1F48254AC01AA9
:10C03C00C00809241E4B00940004BFE78F0709D0E9
:10C04C00184B1948204AC01AC0081024184B0094E9
:10C05C000004B3E712F0030F09D0124B12481B4A2D
:10C06C00C01AC0081024124B00940004A6E7C7683D
:10C07C00B9420DD305694C1E1C44AC4208D8CDF80E
:10C08C002880DEF80C40A44603B0BDE8F0436047BE
:10C09C00044B05480E4AC01AC0081024044B0094E7
:10C0AC0000048BE7984D0200F04D02005C5002003A
:10C0BC000552020061500200DE5002008A5002005C
:10C0CC009D500200E45002000E5102002651020065
:10C0DC0049510200F7B580B92A4B2B482B4AC01A9C
:10C0EC00C0080E242A4B009400042A4940F0010099
:10C0FC00FDF7AFFC204603B0F0BDD0F800C0BCF19A
:10C10C00000F09D11F4B2048234AC01AC00808242D
:10C11C001F4B00940004E8E74AB91A4B1A481F4A0F
:10C12C00C01AC00809241A4B00940004DDE74768C4
:10C13C00D7F800E00EF1FF370F4209D0114B12482F
:10C14C00174AC01AC0081024114B00940004CCE705
:10C15C00C768B9420CD305694C1E0EFB0244AC42B5
:10C16C0006D8DCF81040A44603B0BDE8F0406047A8
:10C17C00044B05480B4AC01AC0081024044B009409
:10C18C000004B2E7984D0200F04D02005C50020032
:10C19C00F2510200615002008A5002009D500200D0
:10C1AC00705102009651020029DF704728DF70475A
:10C1BC0070B503689E6886B004460D466EB11422B5
:10C1CC000021684608F030FDA3680593237901959A
:10C1DC002BB1012B0DD06846B04706B070BD0123C2
:10C1EC008DF8003023690293E36803936369049329
:10C1FC00F1E702238DF80030E3681B030293F5E7A7
:10C20C000846704700207047024B187A003818BF58
:10C21C0001207047B8250020034B187A0122B0FA90
:10C22C0080F05A7440097047B825002008B51046B4
:10C23C001A4608F0D0FC002008BD000008B51422F6
:10C24C000021044808F0F0FC0348FFF7F8FA00203E
:10C25C0008BD00BFB8250020A825002010B5094C4A
:10C26C00094B43602046FFF737FC40B908F050FA01
:10C27C00064920741C2306488C22FFF7CDFA0020B7
:10C28C0010BD00BFB82500202C5202001C25002038
:10C29C00A825002038B5234D234C2B7A3BB92349D4
:10C2AC002348FFF728FB206008B9686038BD0223DB
:10C2BC0024682B72237973B1012B24D020460321DF
:10C2CC00FFF776FF00232B726B6018491848BDE806
:10C2DC003840FFF73BBBD4E90523D21AB2F5805F97
:10C2EC00D4E9031028BF4FF480529208012A38BFBA
:10C2FC00012219441844FFF757FF50B11128DDD122
:10C30C0001232B72D2E7D4E903031844FFF74EFF45
:10C31C00F3E72B7C002BC9D1BDE83840022000F09C
:10C32C0009B800BFB8250020D0250020CC2500205E
:10C33C00A825002038B5234C237A002B41D0022BA2
:10C34C0009D1032830D0204B00221B68E2601A79F7
:10C35C003AB1012A22D0637C7BBBBDE83840FFF7A1
:10C36C0099BFD3E905128D1AB5F5805F94BF5219A8
:10C37C0002F580529A619142EDD102284FF00003F0
:10C38C0008BF19462372104B18BF0D211868FFF710
:10C39C000FFF0E490E48FFF7D9FADCE71A69013294
:10C3AC001A615B699A42E7E7E3680133082B01D80D
:10C3BC00E360D0E70023E360DFE7BDE8384008F036
:10C3CC0097B938BDB8250020D0250020CC250020F9
:10C3DC00A8250020831E012B01D8FFF7ABBF7047A7
:10C3EC0000F0FD03012B08D1044B00225A74421EAD
:10C3FC00504250411874FFF74DBF7047B8250020CC
:10C40C0010B5064C201DFFF767FB28B9637C1BB9E0
:10C41C00BDE81040FFF73EBF10BD00BFB82500209F
:10C42C002DE9F34180460D46104801A916461F46DA
:10C43C00FFF727FA0446B0B118220021043008F0A7
:10C44C00F3FB2D0B0123237101A90848C4F80080CC
:10C45C00A760E5606661FFF73EFAFFF7D1FF0020A9
:10C46C0002B0BDE8F0810420FAE700BFA825002047
:10C47C002DE9F34180460F460F4801A916461D468B
:10C48C00FFF7FFF90446A8B118220021043008F088
:10C49C00CBFB089BA36001A9C4E903670648C4F859
:10C4AC0000806561FFF717FAFFF7AAFF002002B0C2
:10C4BC00BDE8F0810420FAE7A82500202DE9F84F0B
:10C4CC00B0F806A04579D2F800B09DF828900AFB88
:10C4DC0005F5043D88460BEB0301A94203F1040466
:10C4EC0088BFA5EB030BB4FBFAF607460AFB164410
:10C4FC00C2F800B04EB9AAEB04055D4528BF5D46F5
:10C50C00BBF1000F04D1BDE8F88F3F68013EF1E7A5
:10C51C00043408EB06003C442A46B9F1000F0DD058
:10C52C002146ABEB050B08F056FBDA452E443F6871
:10C53C0055464FF0000428BF5D46E1E70146204612
:10C54C00EFE7FFF7D2BAF8B546790146721E0546F9
:10C55C00002393422D6803D30024A64202D8F8BDD1
:10C56C000133F6E70F682846FFF7FAFA013439462B
:10C57C00F3E72DE9F843068ACD1C0746FFF7CCFA02
:10C58C00043E35440446B5FBF6F5F0B14FF4807328
:10C59C00EDB28380C680013D076081464FF00008F4
:10C5AC00A84512D23846FFF7B7FA064648B1637968
:10C5BC000133637108F10108C9F800000760814676
:10C5CC00EEE72046FFF7BFFF34462046BDE8F88370
:10C5DC0001210430FFF768BA10B50121044604307C
:10C5EC00FFF76EFAC0B220B92046BDE81040FFF745
:10C5FC00AABF10BD1FB503920022009203AAFFF739
:10C60C005DFF05B05DF804FB1FB50392012200929B
:10C61C0003AAFFF753FF05B05DF804FB41DF704739
:10C62C00064B10B500241C70054B1C60BFF35F8FCC
:10C63C000449054800F01FF8204610BDDC250020F9
:10C64C00E025002064520200D425002008B508F033
:10C65C005FF818B1BDE80840FFF7E0BF20BF40BF4E
:10C66C0020BF08BD836800225A60C3E904229A6087
:10C67C00DA601A6070470B684A684360934208BFDF
:10C68C000023016008BF43607047436843B10268F0
:10C69C00916852680B449342436004BF002343608B
:10C6AC00704770B5446806460D46206818B1B368EB
:10C6BC002946984718B923682B60256070BD2468FB
:10C6CC00F3E74368186808B102681A60704743685A
:10C6DC00186870474368186800B97047884203D1DE
:10C6EC0002681A600120704703460068F4E70000F6
:10C6FC0010B50D49A1F59472914201D800200FE0BC
:10C70C008C1AE30F03EBE4035B1002EBC30452F847
:10C71C003330834205D802D204F10802ECE760689A
:10C72C0010BD2146E8E700BF7057020008B5FFF7BF
:10C73C00DFFF024B002808BF184608BD3356020025
:10C74C000B7B23B14B6803600023037170470B68AC
:10C75C0003600123F9E703684A68896810B5D41AA5
:10C76C008C428BBF5B1800230360026098BF03717F
:10C77C0010BD03680A68896810B59C1A8C428BBF7F
:10C78C005B1A01230360026098BF037110BD03792B
:10C79C0010B504461BB1FFF7DEFF206810BDFFF794
:10C7AC00E8FFFAE74FF08053D3F830010D2804D09E
:10C7BC00A0F1100358425841704701207047000007
:10C7CC00024AD2F80034002BFBD0704700E0014045
:10C7DC0010B5FFF7E7FF40B14FF080430022C3F8DC
:10C7EC000C21C3F81021C3F83825FFF7DBFF002814
:10C7FC0046D04FF080524E4BD2F80414C3F820159B
:10C80C00D2F80814C3F82415D2F80C14C3F8281560
:10C81C00D2F81014C3F82C15D2F81414C3F8301530
:10C82C00D2F81814C3F83415D2F81C14C3F84015F8
:10C83C00D2F82014C3F84415D2F82414C3F84815C0
:10C84C00D2F82814C3F84C15D2F82C14C3F8501590
:10C85C00D2F83014C3F85415D2F83414C3F8601558
:10C86C00D2F83814C3F86415D2F83C14C3F8681520
:10C87C00D2F84014C3F86C15D2F84424C3F87025D0
:10C88C00FFF790FF48B14FF08043D3F80024D20754
:10C89C0044BF6FF00102C3F800244FF08053D3E97A
:10C8AC004C230D2A39D1022B02D8224AD35C3BB13E
:10C8BC004FF01023D3F808224FF08043C3F85825CB
:10C8CC004FF01023D3F80022002A03DBD3F80432F4
:10C8DC00002B28DA184901234FF01020C1F8043539
:10C8EC001224FFF76DFFC0F80042FFF769FFC0F894
:10C8FC000442FFF765FF0023C1F80435FFF760FF22
:10C90C00BFF34F8F0D490E4BCA6802F4E06213431C
:10C91C00CB60BFF34F8F00BFFDE7102AD0D1032BA4
:10C92C00C6D8084AC2E7084B084A1A6010BD00BFB7
:10C93C0000C000407057020000E0014000ED00E034
:10C94C000400FA0573570200981A00200090D003D7
:10C95C00054A4FF0A043105CD3F8043523FA00F0DD
:10C96C00C04300F0010070477B570200044B1A5C77
:10C97C00012393404FF0A042C2F80C35704700BF22
:10C98C007B570200044B1A5C012393404FF0A042EA
:10C99C00C2F80835704700BF7B57020008B500206D
:10C9AC00FFF7F0FF0120FFF7EDFF0220FFF7EAFF92
:10C9BC00BDE808400320FFF7E5BF08B50020FFF7EE
:10C9CC00D5FF0120FFF7D2FF0220FFF7CFFFBDE814
:10C9DC0008400320FFF7CABF074A4FF0A041105C84
:10C9EC00D1F804350122824022EA03001340C1F839
:10C9FC000805C1F80C3570477B570200054A4FF00B
:10CA0C00A043105CD3F8103523FA00F0C04300F0BB
:10CA1C0001007047775702000B2809D00C2809D069
:10CA2C00182809D019280CBF03204FF0FF3070478D
:10CA3C00002070470120704702207047014B185CA2
:10CA4C00704700BF77570200C20708B501460CD5E6
:10CA5C004FF0A0430322C3F83427C3F83827C3F898
:10CA6C003C27C3F84027FFF799FF8B070AD54FF0F7
:10CA7C00A0430C22C3F82C27C3F83027C3F8602737
:10CA8C00C3F8642708BD000038B5074C051E04F137
:10CA9C00080318BF1C4623682BB11A6822605B6818
:10CAAC0028469847F7E738BDEC25002020B9054B00
:10CABC0001225A70FFF7E8BF012802D1014A907099
:10CACC00F8E77047E425002020B9034B01225A7087
:10CADC00FFF7DABF704700BFE425002038B50E4CD5
:10CAEC002378B3B90D486360A3602361E36000F061
:10CAFC00E7F8054607F00CFE08B900F0EDF8012345
:10CB0C002370074BD3F800340BB10123A3702846D4
:10CB1C0038BD8525F5E700BFE4250020B9CA010022
:10CB2C000000014037B50D4C00230DF107008DF8C6
:10CB3C000730FDF791FDE368013BE360E36833B92F
:10CB4C00074BD3F8005415B900F0D8F8A5709DF830
:10CB5C000700FDF7A5FD03B030BD00BFE4250020A4
:10CB6C0000000140012813B50CD0032820D038B99F
:10CB7C00134B0122C3F88020BFF34F8FBFF36F8F8D
:10CB8C0002B010BD0F4C00230DF107008DF80730DB
:10CB9C00FDF762FD23780BB9FFF7A0FFE3689DF862
:10CBAC0007000133E3600123A370FDF779FDE7E78C
:10CBBC0000F092F802B0BDE81040FFF7B3BF00BF21
:10CBCC0000E100E0E42500201FB503788DF800306B
:10CBDC004368019383688DF80830C368054A039352
:10CBEC00054B684653F8213052F82110984705B090
:10CBFC005DF804FBF8250020FC2500201FB5037808
:10CC0C008DF800304368019383688DF80830C36851
:10CC1C00054A0393054B684653F8213052F821100E
:10CC2C00984705B05DF804FBF8250020FC25002092
:10CC3C00F0B5194B90F800C091F81DE043F82C208A
:10CC4C00164B16460A6943F82C20154B03F80CE0DA
:10CC5C000C4607460FCC89B06D460FC594E80F0003
:10CC6C0085E80F00CDF810C0BEF1000F09D0002EE2
:10CC7C000C4A694608BF3246381D00F0A7FD09B0C2
:10CC8C00F0BD002E084A694608BF324607F10C0079
:10CC9C0000F07EFBF3E700BFFC250020F825002008
:10CCAC0000260020D5CB010009CC010000F180400A
:10CCBC00002382B0036003680193019B02B07047AC
:10CCCC00044B0246187918B91A6001221A71704780
:10CCDC008520704704260020074B1A68D20704D41D
:10CCEC00C02283F8002301221A604FF080430122F6
:10CCFC00C3F81825704700BF00E100E04FF08042F8
:10CD0C0008B50223C2F808334FF48270FFF7CEFF48
:10CD1C000123D360D2F81834DB03FBD408BD000028
:10CD2C004FF0804210B5D2F8003153B14FF48070FF
:10CD3C00FFF7BCFF0123C2F808330B4B00201B6824
:10CD4C0098474FF08042D2F8043163B14FF48270AF
:10CD5C00FFF7ACFF0223C2F80833034BBDE81040C9
:10CD6C001B680120184710BD0426002000F18040EC
:10CD7C0000F5C040002382B0036003680193019B5F
:10CD8C0002B07047800000F1A040D0F8002722F4D8
:10CD9C004032C0F80027D0F8003743EA0143C0F80E
:10CDAC000037704743091DD14FF08053D3F8302121
:10CDBC00102A15D1D3F83431032B11D80A4AD15C7F
:10CDCC000A4B0B4A002918BF134643F0407343F437
:10CDDC00605300F01F0023FA00F000F001007047D0
:10CDEC00024BF2E70023F4E792570200FFC11770E1
:10CDFC003F8E16F0054B4FF0FF32072843F82020EA
:10CE0C0084BFC01880F84820704700BF0C26002053
:10CE1C0070B5174D95F858403CBBFF262046FFF7E0
:10CE2C00C1FF10B12B1983F830600134202CF5D1DF
:10CE3C000021C8B20131FFF7DDFF0C29F9D10D4BF0
:10CE4C000022C0216A6583F80613402119604FF453
:10CE5C00BE70FFF78BFF084B4FF00041C3F8041373
:10CE6C00012385F85830104670BD0820FCE700BF40
:10CE7C000C26002000E100E000600040034B93F81A
:10CE8C005800003818BF0120704700BF0C26002046
:10CE9C00F0B5394E331893F93030002B69DA8D78B0
:10CEAC00C5F34005002D0BBF082300230C240824D8
:10CEBC00A34201D10420F0BD56F82370013743D1B1
:10CECC0037185CB246F8232087F8304015B9F218B1
:10CEDC0082F848008A78550716D4D70736D58200D1
:10CEEC0002F1A042D2F8005725F00205C2F8005713
:10CEFC00224FC50800F0070C012202FA0CF217F8B9
:10CF0C0005C042EA0C027A558A780D7812F00202BA
:10CF1C0025D09B0003F1804303F5C0430002D3F8F6
:10CF2C00102522F4473222F44072C3F810252D0448
:10CF3C00D3F8102500F4F85005F44035284310437D
:10CF4C00C3F810050020B6E70133B1E74D7800F5C2
:10CF5C00E0724FF0A047AD0047F82250C8E7083CFC
:10CF6C0046FA84F494F8500040EA851584F8505041
:10CF7C00E8E708209FE700BF0C2600206026002071
:10CF8C0038B5204C251895F93020072A18DD083AB9
:10CF9C0044FA82F494F850309B09032B0BD14FF0D8
:10CFAC00A043D3F81015C14001F001010231BDE8D6
:10CFBC003840FFF7E7BE012B0CBF02210321F6E737
:10CFCC00D3B2072B1DD8930003F1804303F5C04364
:10CFDC00D3F8100540F00100C3F8100502F1400031
:10CFEC0040B2800080B2FFF7C1FE51B195F93030EC
:10CFFC0054F823302BB1012303FA02F2024BC3F88D
:10D00C00042338BD0C260020006000404FF0A043E4
:10D01C00D3F8103523FA00F000F00100704700003F
:10D02C002DE9F74F00244E4D01944FF480720121ED
:10D03C0002F1804303F5C04390B21B68012B06D16B
:10D04C00D5F804330B4202D0FFF790FE0C430432A8
:10D05C00B2F5907F4FEA4101EAD1414BD3F87C31D4
:10D06C00012B0CD14FF4BE70FFF780FE4FF0A043A4
:10D07C0044F00044D3F820250192C3F82025E3B2F4
:10D08C00D3B1384F00250126344210D0AB0003F148
:10D09C00804303F5C043D3F81005D3F8101557F8A7
:10D0AC00253023B1C1F30141C0F304209847013569
:10D0BC00082D4FEA4606E7D1002C48DA294D4FF0EF
:10D0CC00A048294E4FF00009012716F9013B5A1CC4
:10D0DC0031D0C3F3C20202A90A44DCB212F8042C08
:10D0EC0003F03F0A03F0070307FA03F31A4222D0B6
:10D0FC000AF5E073504658F82330C3F3014BBBF1EB
:10D10C00020F0CBF03210221FFF73CFE07FA0AF3C2
:10D11C00C8F8203505EB0A0393F9303055F8233065
:10D12C004BB1A109032904D0BBF1020F12D1012983
:10D13C0001D15046984709F10109B9F1040FC4D146
:10D14C00D8F820350193C8F82035002BB9D103B09D
:10D15C00BDE8F08FBBF1030FEDD10229E8E700BF6A
:10D16C00006000400C2600205C260020014B1B6850
:10D17C00184700BF682600200E4B984237B50C4666
:10D18C0002D0002003B030BD00230DF107008DF854
:10D19C000730FDF761FA084B1D7915B901221C60A7
:10D1AC001A719DF80700FDF77BFA002DE9D01120CC
:10D1BC00E8E700BF0020004068260020034B98429F
:10D1CC0001BF034B00221A601A7170470020004007
:10D1DC00682600200023435082B043580193019BE2
:10D1EC0002B070470A4610B54FF48E71FFF7F2FF8C
:10D1FC00136A9168C95C136A01331362C0F81C1579
:10D20C0010BD8B690A4610B54FF4847123B9FFF732
:10D21C00E1FFD0F8183510BDFFF7DCFF536AD16879
:10D22C00D0F81805C854536A01335362F3E7000071
:10D23C001FB501238DF80030044BCDE90110D3E963
:10D24C0000126846904705B05DF804FB702600207C
:10D25C0030B54D4DD5F804339A0585B051D5D5F878
:10D26C002431002B4DD04FF492712846FFF7B2FFBA
:10D27C004FF40173C5F80833444B93F829200AB9CD
:10D28C0001226A60404902228DF80020D1F88024E6
:10D29C00C1F8802403929A690292DA680192002202
:10D2AC00C3E906226846D3E9001290473648D0F805
:10D2BC001C315BB1354A5169136A99424DD992F8C8
:10D2CC002830002B49D11146FFF78CFF2E48D0F89F
:10D2DC004431002B56D04FF4A271FFF77BFF2B4B40
:10D2EC0093F829200AB1012202609A69002A49D0D8
:10D2FC00586AD96800229A6105B0BDE83040FFF742
:10D30C0097BFD5F804335B07D0D5D5F80831002B7F
:10D31C00CCD01E4C1C482146FFF773FF636AA269F0
:10D32C009A42C3D1E369E1684BB1A3612369E3601D
:10D33C000023606AE3616362FFF77AFFB6E794F853
:10D34C0029300BB901236B600F4B4FF40172C3F8FA
:10D35C0008230023606AA361EEE70B484FF48E713B
:10D36C00FFF738FF5369002BB0D0516902910023AD
:10D37C0091688DF80030019153616846D2E9001331
:10D38C009847A3E705B030BD002000407026002070
:10D39C002DE9F843534D90F804802C2303FB0853DC
:10D3AC00064693F82A300C469146002B40F09680A6
:10D3BC004D490068FFF7E0FE0746002840F09080DA
:10D3CC0022683068511C0BD04FF0A04101239340D0
:10D3DC00C1F8083502F5E0734FF0030C41F823C097
:10D3EC0061684B1C1FBF01F5E0734FF0A04C4FF070
:10D3FC00000E4CF823E0A369C0F8243594F814C04F
:10D40C00637DBCF1010F4CEA0303C0F86C35C0F826
:10D41C001415C0F80C251DD1A268531C1FBF02F5B2
:10D42C00E0734FF0A0414FF0000C41F823C0E368CB
:10D43C00591C0BD04FF0A04C01219940CCF8081589
:10D44C0003F5E0714FF0030E4CF821E0C0F80835FD
:10D45C00C0F810252C2202FB08F2AB18C3F804907C
:10D46C002369AB50B9F1000F20D04FF48E71247F9B
:10D47C00FFF7B0FE4FF4A2713068FFF7ABFE3268D5
:10D48C001A4BC2F80433130B42F307326101002A22
:10D49C00C9B21EDB1648841884F800130121520906
:10D4AC0003F01F0301FA03F340F82230336804221F
:10D4BC00C3F800252C2303FB08530022C3E90622E2
:10D4CC0083F829205A61012283F82A203846BDE8C6
:10D4DC00F883084A03F00F03D154E7E70827F5E770
:10D4EC001127F3E7702600205DD2010080000200B6
:10D4FC0000E100E014ED00E0F8B503680579304C6C
:10D50C000022C3F800252C2202FB05425268A2B16E
:10D51C002C4AC3F808231A0B43F30733002B0CDBFC
:10D52C0002F01F015B0901228A402033264941F891
:10D53C002320BFF34F8FBFF36F8F0068D0F80C65BB
:10D54C00D0F81415D0F80835D0F810254FF0FF3767
:10D55C00BE42C0F8147518BF06F5E076C0F80C751D
:10D56C00C0F80875C0F810751EBF4FF0A0474FF0FB
:10D57C00020C47F826C04E1C1FBF4FF0A04601F509
:10D58C00E071022746F82170511C1FBF4FF0A041DB
:10D59C0002F5E072022641F822605A1C1FBF03F507
:10D5AC00E0734FF0A042022142F82310FFF706FE71
:10D5BC002C2303FB0544002384F82A306360F8BD58
:10D5CC00702600208402020000E100E00279044B86
:10D5DC002C2101FB02335869003818BF0120704719
:10D5EC00702600202DE9F84F064690F804808946F5
:10D5FC009246FFF7EBFF044600283CD1204F2C2528
:10D60C0008FB057B4FF48E71CBF814A0CBF8089077
:10D61C00CBF820008BF828003068FFF7DBFD306872
:10D62C00012383605946FFF7DDFDDBF804305D46CE
:10D63C001BBB3068DBF814402B6A9C4211D8336852
:10D64C00D3F81C21002AFBD00122DA6000202C2305
:10D65C0003FB087700237B61BDE8F88F95F8283031
:10D66C003BB9D0F81C31002BF8D05946FFF7BAFD66
:10D67C00E2E70F20EBE71120EEE72046ECE700BFD6
:10D68C00702600200023435082B043580193019B25
:10D69C0002B070471FB501238DF80030044BCDE963
:10D6AC000110D3E900126846904705B05DF804FB01
:10D6BC009C2600207FB5434AD2F82461002E60D00E
:10D6CC0010464FF49271FFF7DDFF02238DF8003006
:10D6DC00D2F88034C2F880340393D2F83C350293EC
:10D6EC00394BDA6801920022C3E906226846D3E975
:10D6FC00001290473348D0F8443173B14FF4A27103
:10D70C00FFF7C0FF304B9A693AB10022C3E90622F9
:10D71C00D968D0F83C05FFF7BDFF2A48D0F8203176
:10D72C00ABB14FF49071FFF7ADFF0123C360264BF3
:10D73C005A6962B1D0F84C150291002299688DF8A3
:10D74C00002001915A616846D3E9001290471D48A8
:10D75C00D0F858319BB14FF4AC71FFF793FF1A4BD3
:10D76C005A6962B1D0F84C150291002299688DF873
:10D77C00002001915A616846D3E90012904704B029
:10D78C0070BDD2F81031002BB4D04FF48871104614
:10D79C00FFF778FF0C4BD2F83C0599698842A9D168
:10D7AC00DC69D96864B1D2F8005225F02005C2F8C2
:10D7BC0000521A699C61DA60DE61FFF76BFF99E732
:10D7CC009C61FAE7002000409C2600202DE9F843DC
:10D7DC005A4E90F80480242303FB0863044693F804
:10D7EC0020300D469146002B40F0A3805449006830
:10D7FC00FFF7C2FC0746002840F09D802A6820688D
:10D80C00511C0BD04FF0A04101239340C1F80835B7
:10D81C0002F5E0734FF0030C41F823C069684B1C10
:10D82C001FBF01F5E0734FF0A04C4FF0000E4CF809
:10D83C0023E0AB69C0F8243595F814C06B7DBCF1BE
:10D84C00010F4CEA0303C0F86C35C0F80C25C0F886
:10D85C0014151DD1AA68531C1FBF02F5E0734FF0BD
:10D86C00A0414FF0000C41F823C0EB68591C0BD0C1
:10D87C004FF0A04C01219940CCF8081503F5E0714C
:10D88C004FF0030E4CF821E0C0F80835C0F8102515
:10D89C00242202FB08F2B318C3F804902B69B3508E
:10D8AC00B9F1000F2FD04FF488712A7FFFF7EAFEF1
:10D8BC0020684FF49071FFF7E5FE20684FF49271E9
:10D8CC00FFF7E0FE20684FF4A271FFF7DBFE4FF488
:10D8DC00AC712068FFF7D6FE23681A49C3F804130D
:10D8EC00190B43F307335201002BD2B21CDB164841
:10D8FC00C51885F8002301225B0901F01F0102FA0B
:10D90C0001F140F8231023680822C3F800252423D2
:10D91C0003FB08660023C6E906337361012386F80E
:10D92C0020303846BDE8F883084B01F00F015A54FB
:10D93C00E9E70827F5E71127F3E700BF9C2600204D
:10D94C00C1D601001003420000E100E014ED00E03C
:10D95C00F8B5444C0579242303FB054302465B6868
:10D96C000068ABB1404BC0F8083340F30733002BD1
:10D97C004FEA10310CDB01F01F065B090121B140AD
:10D98C0020333A4E46F82310BFF34F8FBFF36F8FFF
:10D99C00D0F8003223F02003C0F80032242303FB1C
:10D9AC0005439B692BB14FF4A271FFF76BFE01236A
:10D9BC0043604FF4AC71FFF765FE0123C360242371
:10D9CC0003FB0543D0F858110029FBD0996919B114
:10D9DC00D0F844110029F5D00023C0F800351368A5
:10D9EC00D3F80C75D3F81465D3F80825D3F81015B3
:10D9FC004FF0FF3C6745C3F80CC518BF07F5E0773F
:10DA0C00C3F814C5C3F808C5C3F810C51EBF4FF042
:10DA1C00A0434FF0020C43F827C0771C1FBF4FF0F8
:10DA2C00A04306F5E076022743F826704E1C1FBF74
:10DA3C0001F5E0714FF0A043022643F82160531C1E
:10DA4C001FBF4FF0A04302F5E072022143F82210F1
:10DA5C00FFF7B4FB242303FB0544002384F8203098
:10DA6C006360F8BD9C2600201003420000E100E03A
:10DA7C000279044B242101FB02335869003818BF8A
:10DA8C00012070479C26002001F06043B3F1005F39
:10DA9C002DE9F0470646884692463BD190F8049013
:10DAAC00FFF7E6FF0446002836D11D4F30682425C9
:10DABC0005FB09754FF49071C5F814A0C5F80880E2
:10DACC00FFF7E0FD4FF4AC713068FFF7DBFD336816
:10DADC006A69A968C3F84415C3F8482501229A60FD
:10DAEC006A68DAB9D3F82021D3F858011AB900289A
:10DAFC00F8D00F2007E00028FBD10122DA60D3F820
:10DB0C005821002AFBD0242303FB097700237B61D7
:10DB1C00BDE8F0871020FBE71120F9E72046F7E776
:10DB2C009C2600200220FEF757BF00002DE9F0478D
:10DB3C0080460D46FEF770FF0328044610D8012DD1
:10DB4C0010D0022D30D05DB91A48FCF779FC1A4B75
:10DB5C0004EB440213449D78184B1B5DAB4219D067
:10DB6C00BDE8F087144E00EB4003F218F55C5378D7
:10DB7C00470053B1DFF848900E484A464FF48041B5
:10DB8C00FCF730FC08B989F8008027443E440B4B65
:10DB9C00B2781A55002DE3D00A4B1B68002BDFD04E
:10DBAC002846BDE8F047184700EB400402480444FF
:10DBBC006578EFE7C01A0020C2260020DD26002081
:10DBCC00C0260020D826002000780221FFF7AEBF27
:10DBDC0008B5094B1B7853B10020FEF7D3FE01208A
:10DBEC00FEF7D0FEBDE808400320FEF7CBBEBDE833
:10DBFC000840FEF7D3BE00BFC1260020F8B57A4C12
:10DC0C00237805461BB100232370FFF7E1FF172D86
:10DC1C0000F28780DFE805F00C1717425364757F1C
:10DC2C00878C878C949999999999C3C8D0D8E3E338
:10DC3C00FFF7CEFF6D48FCF703FC6D4B002204464A
:10DC4C001A702046F8BD0020FEF782FEF0B10020CD
:10DC5C00FEF798FE022D0CBF4FF4E1644FF47A648A
:10DC6C00634B1D7000254FF400464FF47A70294623
:10DC7C004FF4FA620023E4FB060106F0AFFE2A46DD
:10DC8C000146BDE8F8405948FCF7ACBBFEF76EFE08
:10DC9C00022D0CBFC8244FF4C874E1E70020FEF736
:10DCAC0057FE40B10020FEF76DFE4FF44874504B08
:10DCBC0003221A70D6E7FEF759FEC824F7E70020B6
:10DCCC00FEF746FE38B10020FEF75CFE4FF47A6496
:10DCDC00474B0422EDE7FEF749FE4FF4C874F7E713
:10DCEC000020FEF735FE48B10020FEF74BFE404BFE
:10DCFC0005221A7040F6CD410022C2E7FEF736FE2F
:10DD0C00F5E70020FEF768FE394B06221A70002258
:10DD1C0040F26661B5E70020FEF728FE344B07227F
:10DD2C001A7000248DE701202070FEF755FEEEE7F7
:10DD3C0001202070FEF750FE00224FF40051A0E7A6
:10DD4C00FEF73BFE2A4B0C22EAE72A482A4EFCF748
:10DD5C0077FBD5F1110504461CD0D8B9012D13D091
:10DD6C00C820454321464FF400474FF47A704FF4D6
:10DD7C00FA620023C5FB070106F030FE224601467D
:10DD8C001C48FCF72FFB04460220FEF7EFFD012395
:10DD9C00337056E70220FEF7F5FD0023F8E7FFF796
:10DDAC0017FF134B1222BBE7FFF712FF0020FEF701
:10DDBC00DDFD0F4B1322B3E7FFF70AFF0120FEF73F
:10DDCC00D5FD0B4B1422ABE7FFF702FF0020FEF74B
:10DDDC00CDFD0120FEF7CAFD054B1522A0E7FEF78D
:10DDEC00ECFD034B1D709CE7D4260020E01A0020AC
:10DDFC00DC260020A01A0020C1260020044B1B6842
:10DE0C00DB0703D5034B1878FFF7F8BE704700BF4C
:10DE1C00D0260020DC26002010B5002914BF0324D6
:10DE2C000024FEF70BFE800000F1A040D0F8002784
:10DE3C0022F44032C0F80027D0F8003743EA0443FC
:10DE4C00C0F80037002010BD032801D8FEF7D6BD5E
:10DE5C0000207047044B1B6813F0010301D0FFF73F
:10DE6C00CDBE1846704700BFD026002038B51C4BDD
:10DE7C0018601C4B10F00204054619601AD01A4B9E
:10DE8C001A480E221A700F22DA7010229A7111227F
:10DE9C005A72042140F23332FCF74CF8044648B96C
:10DEAC00FCF7A0F8044628B90146114A1148FCF7C2
:10DEBC0087FA0446EB0711D50120FEF7C5FD6CB9B6
:10DECC0021460D4A0D48FCF77BFA044630B9BDE8F3
:10DEDC0038400B4A0B480121FCF772BA204638BD7A
:10DEEC00D0260020D8260020C2260020A8570200E9
:10DEFC00D5DB0100CC57020009DE0100D05702002F
:10DF0C0031DB0100C8570200032811D8012A0AD1BD
:10DF1C0001290FD100F10E02D2B20D4B00EB4000E3
:10DF2C001A54002070470129F7D0022904D049B1B6
:10DF3C00072070470022F8E7054B00EB400018441F
:10DF4C004270EEE7024B00EB400018448270E8E7A9
:10DF5C00C2260020032802D80121FFF75DBF06204E
:10DF6C00704708B5012202210020FFF7CDFF08B150
:10DF7C00072810D1072202210120FFF7C5FF08B1A5
:10DF8C00072808D100210A220846FFF7BDFF10B16F
:10DF9C00072808BF002008BD0388102B10B502D03D
:10DFAC00112B1ED010BD1A4C2168B1B901220846A4
:10DFBC00FFF7AAFF08B1072824D10722022101206C
:10DFCC00FFF7A2FF08B107281CD104220221002070
:10DFDC00FFF79AFF08B1072814D123680133236097
:10DFEC00E0E70B4A1368013B1360002BDAD1FFF713
:10DFFC00B8FF0028D6D0074B1B68002BD2D0BDE849
:10E00C0010401847034B1B68002BE6D09847E4E7F9
:10E01C00E8260020E426002008B50020FFF79AFF30
:10E02C0008B1062806D10120FFF794FF10B106288D
:10E03C0008BF002008BD00000D4B10B518600C4641
:10E04C0029B10120FFF700FF40B102232370094BD7
:10E05C001B6853B9BDE81040FFF783BFFFF7F4FE10
:10E06C0008B10B23F2E72070F1E7002010BD00BFD0
:10E07C00E4260020E826002076DF704778DF704722
:10E08C007ADF70477CDF70478FDF704733DF704774
:10E09C00FBF7BEBF08B50C490C48FEF778FB4FF6F2
:10E0AC00FE72C1B20A4805F007FB132807D943F2E8
:10E0BC000143984207D0BDE80840FBF7A9BF054BC8
:10E0CC00C340DB07F7D508BDF8280020082900203D
:10E0DC00E428002001810A0008B50020FFF7BAFEF1
:10E0EC0008B1FBF795FFFFF797FF08B1FBF790FF1F
:10E0FC00FFF7CCFF18B1BDE80840FBF789BF08BD9E
:10E10C002DE9F043074685B016461C46CD18A2EB08
:10E11C0003084FF0000902ABA01C4246294613FA33
:10E12C0080F0CDE9029906F056FD0120FFF78CFE38
:10E13C0028B19DF8083043F002038DF808300F4ADF
:10E14C000F4B11781B8899B90093082202AB384603
:10E15C0006F00CF938B90134A4B2A64205F1010558
:10E16C0008F1FF38D7D20C9B1C8005B0BDE8F083BA
:10E17C0002AA0821384606F058F9EBE7442900209A
:10E18C00341B00207FB508220346019201A94FF6EB
:10E19C00FF7202A803F064FD08B1FBF739FF019987
:10E1AC0002A803F035FD08B1FBF732FF07B05DF8AC
:10E1BC0004FB000000B5B3B008286BD8DFE800F012
:10E1CC004B0519202C3844506D003F483F4B4049BB
:10E1DC00C01AC008000440F00300FBF723FC052024
:10E1EC00FFF738FE002855D033B05DF804EBFBF791
:10E1FC000FBF3548354B3749C01AC0080004EAE751
:10E20C00324B31483449C01AC008000440F00300B6
:10E21C00FBF708FC0220E3E72C4B2B482F49C01AD4
:10E22C00C008000440F00300FBF7FCFB0420D7E718
:10E23C002548264B2A49C01AC008000440F00300A8
:10E24C00FBF7F0FB0320CBE71F48204B2549C01AF6
:10E25C00C0080004F2E733B05DF804EBFFF73CBFF5
:10E26C000823CDE9023312AA03AB02A904A803F0D8
:10E27C00B9FC08B1FBF7CCFE0220FFF783FF039B30
:10E28C000093029A184812AB04A901F083F808B164
:10E29C00FBF7BEFE33B05DF804FB144B18884FF649
:10E2AC00FF739842F6D012A903F07EFD0528F1D039
:10E2BC0008B1FBF7ADFE0620FFF764FF0DF1590125
:10E2CC00094801F054F8E2E7C04D0200984D0200F5
:10E2DC00D4570200DE570200F45702000658020021
:10E2EC001858020039580200EC270020462900205B
:10E2FC007FB5082301934FF6FF72012301A902A8F1
:10E30C0003F0AEFC08B1FBF783FE0B4B0B48019AF4
:10E31C000B49C01AC008000440F003000823013266
:10E32C00FBF78DFB019902A803F052FC08B1FBF737
:10E33C006FFE07B05DF804FB984D0200C04D020063
:10E34C005A58020008B5FFF7D3FF0548032100F027
:10E35C00DAFE18B1BDE80840FBF75ABE08BD00BF95
:10E36C00EC27002010B5044604F0EAF9204604F02E
:10E37C000BFA204603F0A4FF2378092B0BD00D2BAE
:10E38C0005D0032B02D10E4BA2881A8010BDBDE81C
:10E39C001040FFF7D7BF237CDB07F7D5237A072B79
:10E3AC00F4D1084B08480949C01AC008000440F0D1
:10E3BC000300FBF737FBBDE81040FFF799BF00BF28
:10E3CC0046290020984D0200C04D020087580200DB
:10E3DC00F0B51D4F85B084B20DF10E0300930546C8
:10E3EC000023224638460E46FFF78AFE13281FD11B
:10E3FC00BDF80EC0644519D3144B93F83E40062C5F
:10E40C0014D093F83D200C2151430132D2B258184C
:10E41C00052AC0E9016704F1010408BF002203F8D2
:10E42C0001C0457083F83E4083F83D2005B0F0BD37
:10E43C0030F00802FAD01128F8D043F20142904291
:10E44C00F4D0FBF7E5FDF1E7381B00209C270020FA
:10E45C00043810B50A283AD8DFE800F00A39391622
:10E46C003939063939392000BDE81040FFF734BE80
:10E47C00174B13211888FFF7FFFD30F0080326D047
:10E48C00BDE81040FBF7C4BD114B1A884FF6FF7363
:10E49C009A421CD10F4800F08EFFEEE70C4B1A8805
:10E4AC004FF6FF739A4212D00B4C01202168FFF7F4
:10E4BC008FFF2368094A0133236013780133DBB2E1
:10E4CC00062B137001BF064B23600023137010BD85
:10E4DC00341B0020EC270020D01C00205C290020DD
:10E4EC00C81C00201FB50B78052B35D0062B38D057
:10E4FC00042B34D18B79022B31D1CB797BBB0DF131
:10E50C000F020192244A25481288009219460122D2
:10E51C0005F0CAFF08B1FBF77BFD214C9DF80F30CD
:10E52C00227803F00203FAB9CBB11E4B1E481F49E7
:10E53C00C01AC008000440F00300FBF773FA102067
:10E54C00FFF788FC08B1FBF763FD19490620FFF7BC
:10E55C003FFF0123237002E0164B01221A7004B016
:10E56C0010BD144B0022F9E7002BF8D10D4B0E48CF
:10E57C001149C01AC008000440F00300FBF752FA1E
:10E58C001120FFF767FC08B1FBF742FD0B49062091
:10E59C00FFF71EFF0023DDE7341B0020381B002093
:10E5AC0010290020984D0200C04D0200BB580200FB
:10E5BC002E1B002044290020D3580200281B0020C9
:10E5CC007FB5194C94F83E30B3B1B8B194F83C50C7
:10E5DC000C235D4366190DF10E030093D6E901106F
:10E5EC00635D7278FFF78CFD132807D1BDF80E30F0
:10E5FC0072789A4202D3635504B070BD94F83C30E3
:10E60C000C2202FB034200215160013394F83E209E
:10E61C00DBB2013A052B84F83C3084F83E2008BF6D
:10E62C0084F83C10E8E700BF9C27002037B505882C
:10E63C003B2D044655D007D8112D2CD0212D42D07E
:10E64C00102D0BD003B030BD562D4AD0572DF9D11B
:10E65C00012003B0BDE83040FFF7B2BF234B244884
:10E66C002449C01AC008000440F00300FBF7DAF993
:10E67C000720FFF7EFFB08B1FBF7CAFC1E4BA18884
:10E68C001E48198002F0EEFB0028DBD003B0BDE879
:10E69C003040FBF7BDBC154B15481949C01AC008D2
:10E6AC00000440F00300FBF7BDF90020FFF788FFE2
:10E6BC00114B4FF6FF721A80124B002228461A702B
:10E6CC00FFF7C8FBE0E7002380888DF8043001A930
:10E6DC008DF80530FFF7D8FC0028B3D0FBF798FC79
:10E6EC00B0E7A0881321FFF7C7FCCDE7984D0200D7
:10E6FC00C04D0200EC580200341B002048290020B9
:10E70C00F658020010290020FBF782BCFBF780BCF6
:10E71C00FBF77EBC2DE980484FF48041AFB0002060
:10E72C00FAF7E2FF08B1FBF773FCFAF71DFFFBF7F2
:10E73C0015FE08B1FBF76CFCBB4ABC480121FBF78A
:10E74C003FFE08B1FBF764FCB9490320FFF78EFBD1
:10E75C0008B1FBF75DFC03A90020FFF76DFC08B1C5
:10E76C00FBF756FC9DF80C50FDF75AFF08B1FBF770
:10E77C004FFC05F04FFF08B1FBF74AFC002303A93F
:10E78C000120039306F020F808B1FBF741FC03A825
:10E79C0006F0B8F808B1FBF73BFCA64A0A210820A2
:10E7AC00FBF77AFC08B1FBF733FC01AE1123A2494D
:10E7BC008DF804300F223046FFF764FC08B1FBF7EC
:10E7CC0027FC40F2C130FFF759FC08B1FBF720FCE5
:10E7DC000623ADF80C301822ADF8103003A82B230B
:10E7EC00ADF80E20ADF81230FFF74AFC08B1FBF77C
:10E7FC000FFC9248002102F059FA08B1FBF708FC13
:10E80C00A422002103A806F00FFA02238DF80C3085
:10E81C0040F20163ADF80E3001232820ADF81C3016
:10E82C008DF885308DF8863040F6B833CDE9250368
:10E83C0040F20113ADF888304FF4486444F2506351
:10E84C00CDE927437E4B7F4A2C937F487F4B089220
:10E85C0003A92D9300F0E7FB08B1FBF7D9FB7A482D
:10E86C00012100F0DDFB7A4B7A48039303A902F0F7
:10E87C00E7FA08B1FBF7CCFB41F61513ADF80630FF
:10E88C004EF6EE630224ADF808304022012300213D
:10E89C0003A8ADF80A308DF8044006F0C5F903A8BA
:10E8AC006D4901F089F803A811968DF8484004F0E1
:10E8BC0093FF08B1FBF7ACFB00240123CDE9034423
:10E8CC008DF8103003F1023361336448059403A9C9
:10E8DC00069304F07DFE08B1FBF79AFB604EDFF85F
:10E8EC008491614F34604FF0010840F2022A746049
:10E8FC00C9F800403C60C9F804407C60082302243D
:10E90C0033804FF0030B002186F80380A6F804A097
:10E91C00B471402205A8A9F8008089F80340A9F831
:10E92C0004A03C8087F803B0A7F804A006F07CF99B
:10E93C004E4B03934E4B04934C23ADF830304D4B60
:10E94C000B934D488DF8148040F2011303A98DF8F8
:10E95C00168006968DF81C80CDF820908DF82480BA
:10E96C000A97ADF83C308DF83FB08DF838408DF8F3
:10E97C0040408DF84E40ADF850A08DF85240ADF8A7
:10E98C0048A08DF84A4005F013FB08B1FBF740FB9B
:10E99C003A493B4851226423C1E9002301238B608F
:10E9AC000B73FDF7CDFE0021182203A806F03CF9ED
:10E9BC004FF4F0234FF4A031CDE9041303238DF869
:10E9CC00183003A82F4B099300F014FE08B1FBF785
:10E9DC001FFB2D4B00229A875A601A61DA619A62EA
:10E9EC005A6383F83E2003F03BF808B1FBF710FBA9
:10E9FC0031238DF80C3007238DF80D3010238DF852
:10EA0C000E3003A803238DF80F308DF8103003F06F
:10EA1C00C7F808B1FBF7FCFA1C4803F0A9F808B1D9
:10EA2C00FBF7F6FA1A4B35E0A1E00100545902004D
:10EA3C005DE40100EC26002003590200142900209B
:10EA4C00C1E10100001B0020EC27002019E70100A8
:10EA5C001DE701004829002013590200E42800207A
:10EA6C00E427002054290020DC270020F1E40100D9
:10EA7C009DE00100D41C0020381B0020F828002049
:10EA8C000829002015E701009C27002071E30100F4
:10EA9C00984D0200144C1549E41AE408240444F07F
:10EAAC0003042046FAF7BEFF114800224FF4004140
:10EABC00FBF798FC08B1FBF7ABFA022D11D10D490D
:10EACC002046FAF7AFFF03F085F908B1FBF7A0FA7F
