:1000000000000420750300005D030000593A000061
:1000100061030000630300006503000000000000AE
:100020000000000000000000000000006703000066
:1000300069030000000000006B0300006D03000076
:10004000157300006F030000257300006F030000AC
:100050006F0300006F030000617000006F03000079
:100060006F0300006F0300006F0300006F030000C8
:100070006F0300006F0300006F0300006F030000B8
:100080006F030000453A00006F0300006F0300009B
:100090006F0300006F0300006F0300006F03000098
:1000A0006F0300006F0300006F0300006F03000088
:1000B0006F0300006F03000000000000000000005C
:1000C0006F0300006F0300006F0300006F03000068
:1000D0006F0300006F0300006F030000858E0000B7
:1000E0006F0300006F0300006F03000000000000BA
:1000F000000000006F030000000000006F0300001C
:1001000000000000000000000000000000000000EF
:1001100000000000000000000000000000000000DF
:1001200000000000000000000000000000000000CF
:1001300000000000000000000000000000000000BF
:1001400000000000000000000000000000000000AF
:10015000000000000000000000000000000000009F
:10016000000000000000000000000000000000008F
:10017000000000000000000000000000000000007F
:10018000000000000000000000000000000000006F
:10019000000000000000000000000000000000005F
:1001A000000000000000000000000000000000004F
:1001B000000000000000000000000000000000003F
:1001C000000000000000000000000000000000002F
:1001D000000000000000000000000000000000001F
:1001E000000000000000000000000000000000000F
:1001F00000000000000000000000000000000000FF
:10020000354936480A1A02D0072291438D463449AF
:1002100034480A1A06D00722914381F30988022242
:1002200082F3148830483149314A00F044F83148AB
:100230003149324A00F03FF831483249324A00F041
:100240003AF832483249334A00F035F832483349F7
:10025000334A00F030F833483349344A00F02BF881
:1002600033483449344A00F026F8344834490022EF
:1002700000F02CF833483449002200F027F83348C6
:100280003349091A082902DB002202604160314A21
:1002900090471F481F49884205D00268043003B4C4
:1002A000904703BCF7E700208646EC46002000217B
:1002B000294A9047FEE7884207D0521A05D00378B2
:1002C00001300B700131013AF9D17047884202D0F8
:1002D00002700130FAE770470000042000E00320BC
:1002E0000000042000000420DCCE0000F800002004
:1002F00020020020D0030000D00300003CAF00002B
:10030000DCCE0000F8000020F8000020C0B10000A2
:10031000C0B10000C0B10000C0B10000C0B1000019
:10032000C0B10000C0B10000C0B10000DCCE0000D0
:1003300004D0000020020020200200202002002023
:100340007813002078130020781300207813002001
:10035000783300209D03000039970000FEE7FEE798
:10036000FEE7FEE7FEE7FEE7FEE7FEE7FEE7FEE765
:1003700000F002B8FFF7FCBF0F484FF007018843B9
:1003800085460E4880470E48016841F470010160BF
:10039000BFF34F8FBFF36F8FFFF732BF09480A4992
:1003A0000A4A884207D0521A05D0037801300B70F0
:1003B0000131013AF9D1704700000420C9990000C9
:1003C00088ED00E0C8B0000000000020F800002028
:1003D0007047000007B5044B0093044A402300F027
:1003E00030F803B05DF804FBF103000021020020A7
:1003F0002DE9F84388461446B2B10F4B0F4E032542
:10040000002743F00109224608EB0701002009F00C
:1004100087FA0744241A48B933782BB14FF47A404D
:10042000C847013D02D13570BDE8F8830123337020
:10043000002CE8D1F8E700BFC0B100002002002086
:100440007047F0B595B01D46164608460C4606F0B6
:1004500033F81A9B0D93CDE9086500252B46082239
:1004600005A920460A958DF82C500C9506F040F809
:10047000079B0293069B03939DF814308DF811504F
:1004800003F00302012A1DD1BDF81420059DC3F31A
:10049000C203C2F383168DF81030B20008230EA9F0
:1004A000204606F025F8C5F3952508AB00933246A3
:1004B00002AB0EA9284600F071FE204606F000F8B7
:1004C00015B0F0BD022AF8D1BDF81650C3F3C2032F
:1004D000C5F389158DF810300827082D2E4628BF42
:1004E00008263B4632460EA9204606F001F8AD1B11
:1004F00008AB02AA31460EA8374400F0B3FE002D27
:10050000EBD1DAE700230428CB604B6098BF044BA3
:10051000044A98BF53F820308A600B60704700BFD0
:100520002CB6000008B60000CB6800225A71704754
:10053000C368DB6800225A717047CB6801225A7188
:100540007047C368DB6801225A7170470D4A8A60A0
:1005500070B50D4A0D4C0023121BCB604B600B6035
:1005600012091D469A4207D0E6683679FF2E05D05B
:10057000854202D1A3680B6070BD01350133103490
:10058000F0E700BF40B6000034B0000014B0000037
:100590002DE9F3478368D3F84831C3F340059B073F
:1005A000074606D50022114602B0BDE8F04705F027
:1005B00021B9144E144CDFF85880DFF85890DFF85A
:1005C00058A0A41B2409A54202D102B0BDE8F087BF
:1005D000F168B3680A79FF2A07D10C4A0821384626
:1005E00004F0CAF801351036EDE74879002814BF49
:1005F00041464946CDE9001238465246082104F0EA
:10060000BBF8EFE714B0000034B00000F5B1000013
:10061000E4B10000ECB1000014B200002DE9F74F86
:10062000154D164C9946641B52F8043C0646884604
:10063000174624094FF0000B5C4507D1104A0221F0
:10064000304603B0BDE8F04F04F096B8A9680193B6
:10065000184609F001FEAA46019B103540B93B46F9
:10066000424651463046CC4603B0BDE8F04F6047A5
:100670000BF1010BE0E700BF14B0000034B0000044
:1006800035B20000014BFFF7C9BF00BF610A00008F
:10069000014BFFF7C3BF00BF29050000014BFFF767
:1006A000BDBF00BF3B050000014BFFF7B7BF00BF58
:1006B0003D0B0000037813F0040216D003F003038F
:1006C000012B03D0022B09D0012070470A68008853
:1006D0000232C0F3831002440A60F5E70B684288D7
:1006E000023303EB92130B60EEE7104670470000F5
:1006F0002DE9F04FDFF810A10F4685B00446861CA7
:100700000020154603F058F8DAF804203A60DAF8C9
:10071000083003F580739B1A0AF21C470AF58369B7
:100720000AF21448B34219D30020002D68D004F017
:100730000F039B0143F0050363F30F00DAF8043065
:10074000DAB2033233444AF822000020CAF80430F7
:1007500003F034F8012005B0BDE8F08F01213846E0
:1007600003F0FBFA484603F021FB404603F01EFB72
:10077000DAF808000090C0B203300AEB8000694646
:10078000FFF798FF009B30BBDAB20AEB8202D16818
:1007900001919A1C0133DBB20AEB83030092D3F878
:1007A0000CB001F00303012B22D0022B15D083469D
:1007B000404603F0FEFA10B1009BCAF808305946D3
:1007C000384603F0CAFADAF80830DAF8042003F5FC
:1007D00080739B1AA6E7D8B2CEE7BDF80630C3F304
:1007E000891303334FEA1B4B02EB93030093DFE7BC
:1007F000BDF80430C3F383134FEA1B4B1344F5E7F2
:10080000A40544F0060099E734030020012907B548
:10081000034604D08168D1F84811890707D5002222
:100820001146184603B05DF804EB04F0E3BF5368CB
:100830000193054B00931368044A022103F09CFFC7
:1008400003B05DF804FB00BF55B200004BB20000DE
:100850008368D3F848319B0703D50022114604F082
:10086000C9BF024A022103F087BF00BF6AB200007D
:10087000FFF7EEBF30B599B10A4B0B4A0B49D21ABC
:10088000D20800239A4201D1052006E031F8235016
:100890000468A54202D10360002030BD0133F1E7B6
:1008A0000846FAE73CAF000014B00000000000204A
:1008B0002DE9F84F1E4B1F4800221A7005F0B5FDB8
:1008C000814690BB1C48DFF880801C4CDFF87CA080
:1008D00005F03DFFA4EB0804E4084D46A54208D10D
:1008E0000023174A19469C421AD022F823100133DC
:1008F000F9E700273E4608EBC50BB54209D058F88A
:100900003610DBF80000142209F0F9FB0028C8BFFC
:1009100001370136B442F0D12AF825700135DDE700
:100920000848A200002109F042FC4846BDE8F88FC3
:100930003403002090B00000FCB5000014B00000AB
:10094000020000206C0000203CAF000000000020EE
:1009500007B5019001A8FFF78DFF30B9019A044B4C
:1009600053F8320003B05DF804FB0020FAE700BF43
:100970003CAF0000002310B5CB604B60034B8B6095
:100980000C460121FFF7E4FF206010BD08B600000F
:10099000094B013903EBC000032909D8DFE801F056
:1009A0000A020406042070470079704740797047B6
:1009B00000207047022070473CAF000030B5124C59
:1009C00000EB400054F8215002FA00F3072202FA2B
:1009D00000F06B400D4A03406B40C3F3821044F8B3
:1009E000213002EB8101C3F3C202824238BF0246CA
:1009F000C3F34220824203F0070338BF024693420A
:100A000038BF13464B8030BD6C0000200000002032
:100A100013B50446019101A8114693B1FFF72AFFCF
:100A200010B1002002B010BD01990B4A04EB440044
:100A300052F8212007238340134023FA00F0C0B26C
:100A4000F0E7FFF717FF0028EBD1019A034B03EB08
:100A5000C2039879E6E700BF6C0000203CAF0000BD
:100A6000294B2A4A2DE9F04F9B1A4FEAD30ACB684B
:100A70005B7985B005460E461BB9254A022103F075
:100A80007BFE244B244ADFF8A4800821284603F08B
:100A900073FE224A0821284603F06EFE00245445C6
:100AA00002D105B0BDE8F08FF36893F804900123FC
:100AB0001A4621464846FFF7ABFF002307460122AE
:100AC00021464846FFF7A4FF0121032881468346BB
:100AD000204628BF4FF00309FFF73AFF5FFA89F974
:100AE0000F4A58F82910034658F827000D4F009078
:100AF000CB4598BF1746CDE901170B4A0821284678
:100B000003F03AFE0134CAE714B000003CAF000025
:100B10007DB2000090B200009CB20000BAB20000AA
:100B2000CAC100007BB20000F7B2000018B6000096
:100B300013460A46C168FFF793BF00002DE9F04F46
:100B40002DED028B054683B09B461646002A5DD0EC
:100B5000DBF80070CB68554993F804A0384609F0DB
:100B60007BFB0446F0B9012E09D1514A02212846E7
:100B700003B0BDEC028BBDE8F04F03F0FDBDDBF828
:100B800004304C4F57F8041B00930A22184609F012
:100B9000B6FA002800F083800134052C009BF1D1C7
:100BA000454A15E04549384609F056FB044668B900
:100BB000012E36D04FF00108414B424AA3EB020907
:100BC0004FEAD9030093DFF808914FE03E4A3B46D5
:100BD0000221284603B0BDEC028BBDE8F04F03F0C4
:100BE000CBBD00231A4631465046FFF711FFA04205
:100BF00011D200213046FFF7ABFE424603460221E8
:100C0000284603F0B9FD0136BE42EAD103B0BDEC7F
:100C1000028BBDE8F08F224631465046FFF7CEFEEC
:100C2000F1E7274F274BDFF8A480FF1AFF080026C3
:100C3000EAE700213846FFF78BFE18EE101A202253
:100C400009F05DFA034608B1013716E0024601904B
:100C500039465046FFF7DCFEA042019B18D32246DE
:100C600039465046FFF7AAFE08F10108B045CDD23B
:100C70005BF8283008EE103A0027009BBB42D8D121
:100C80005BF828304A460221284603F075FDEBE761
:100C900019463846FFF75CFE0C4A0346F3E7022E7E
:100CA000E4B2BED04FF0020886E700BF0DB30000EB
:100CB00014B3000018B600007FB300002BB300008F
:100CC00014B000003CAF000033B3000048B3000094
:100CD0006BB3000013460A46C168FFF72FBF704789
:100CE000034BD3E90130C31A58425841704700BF43
:100CF000340300202DE9F04385B0FFF7F1FF0546EE
:100D0000002840F00A81864CC4F81804BFF34F8FC6
:100D1000A3680093DBB2033304EB83006946FFF75B
:100D2000C9FC009B18B1D4F81824002A63D0DAB2A9
:100D3000991C013304EB8202DBB204EB8303D2681B
:100D4000DB68029302F00303022B019200915DD154
:100D5000BDF8063073489DF80450C3F38918474620
:100D6000502F28BF502707F1080167F38F13C1F3F5
:100D70000901ADF8063005F070FBC5F3C205064663
:100D8000002800F0B18005F097FB0023082201A99C
:100D9000304605F0A3FB0099CB43DBB20133C9B267
:100DA0000331B7EB830F4FEA830204EB81012AD9A9
:100DB0005FFA82F90823A7EB0907304605F08EFB9E
:100DC000FFB209F10803584903F0FC033A463046E4
:100DD00005F084FB009B08F1030803EB98030093E4
:100DE000D4F81834002B49D1D4F81074DFF84C91A2
:100DF0004FF0070867E062689A428BD8A2602846E5
:100E000005B0BDE8F08308233A46E0E7012B6BD13B
:100E1000BDF804504348C5F38311062928BF0621B5
:100E200061F38915023101F00F018900ADF804501A
:100E300005F013FBC5F3C2050646002854D005F0A3
:100E40003BFB0023082201A9304605F047FB0027A1
:100E5000BDF80420C2F38312BB00974203F10803DC
:100E6000BED200994A1CC9B20331009204EB810141
:100E70000422304605F032FB0137E9E7304605F041
:100E80001FFBFFF72DFF80F00100C5B2B7E7FB683D
:100E90005A79B2B11B79BDF8081003EB430259F837
:100EA000211008FA02F3052D03EA010323FA02F3E5
:100EB00008BF0325AB4204D33B6831461B68384664
:100EC0009847FB681F68002FE1D1304605F0F8FA1B
:100ED000384602F071FCD4F818340BB9009BA360BB
:100EE000002002F06BFCCCE7D4F8104474B90F4B2F
:100EF0005B88012BC5D90E4B0E480F49C01AC0089C
:100F0000000440F0020000F063F8BAE723682046CE
:100F10009B689847E3681C68E8E700256FE700BF17
:100F20003403002090B0000040030020180000208F
:100F30003CAF00006CAF00009CB300006C000020D0
:100F40002DE9F34704460E46924601A901221846B0
:100F50009946FFF7CDFB1C4F10B3019D4FF00008E1
:100F6000AA1CC84508EB020125D11848002102F04F
:100F7000B9FE80F31000000440EA1440E4006B1C4A
:100F800004F03804DBB2EDB244F0010407EB830354
:100F9000033544EA881444EA8624D86047F825409B
:100FA0003B781BB1FFF7A6FE0028FBD1FFF797FEA9
:100FB00002B0BDE8F087C9B207EB81015AF82830CA
:100FC000CB6008F10108CCE7340300205007002073
:100FD00000231A46FFF7B4BF07B50123019201AA07
:100FE000FFF7AEFF03B05DF804FB07B5CDE90023C2
:100FF00002236A46FFF7A4FF03B05DF804FB1FB5A8
:10100000CDE90123069B039301AA0323FFF798FF71
:1010100005B05DF804FB1FB5CDE90023069B0293E4
:10102000079B03936A460423FFF78AFF05B05DF828
:1010300004FB00002DE9F84388461B49D1F8103421
:10104000054600241A468AB9EA681471A3B9C1F8A2
:1010500010541360154B164EF61AF608002703F1CC
:101060000709B7420DD12046BDE8F883D268107950
:10107000A04212D01268E6E7DB68196811601D60B3
:10108000E8E719F83720EB6842453946187928BF58
:101090004246FFF793FC0137E3E701340A2CD1D134
:1010A0004FF0FF34DFE700BF340300203CAF000007
:1010B00014B0000038B5084B0125D3F810441D705A
:1010C00004B938BDE3685D71236820465B689847C2
:1010D000E3681C68F4E700BF3403002030B5C38820
:1010E00085B004460D4633B1144A00921449154A9E
:1010F000284604F08EFF217A05291DD0637A4BB172
:10110000A088FFF745FC104B104953F820202846D3
:1011100004F07FFF227A0E4BA08853F8222003921E
:101120000021FFF715FC039A0A490346284605B03B
:10113000BDE8304004F06DBF05B030BDA8B7000079
:1011400090B7000088B70000FCB700007CC2000028
:1011500020B80000ADB7000007B503460846197A6D
:10116000052911D05B7A2BB1094A0A49019004F094
:1011700050FF01980849019004F04BFF019803B01B
:101180005DF804EB04F03ABF002AF8D0F2E700BFA4
:10119000A8B700007CC200002AC100002DE9F0437E
:1011A00085B01F460C9D002395F80C902B730646C6
:1011B0000C46904629463846FFF790FFB8F1060FD7
:1011C00009D8DFE808F00412181F28334000314620
:1011D000284604F01EFF002229463846FFF7BCFFD0
:1011E00085F80C9005B0BDE8F083226831462846AA
:1011F00004F00FFFEFE7D4E900233146284604F05E
:1012000008FFE8E7A36800933146D4E900232846A5
:1012100004F0FFFEDFE7E3680193A3680093314623
:10122000D4E90023284604F0F4FED4E723690293AE
:10123000E3680193A36800933146D4E9002328466C
:1012400004F0E7FEC7E76369039323690293E36849
:101250000193A36800933146D4E90023284604F0A3
:10126000D8FEB8E708292DE9F74F80460E46174605
:101270001C463DD800251B7B257321461046019353
:10128000FFF72CFFDFF88CA0DFF88CB0AE4232D92C
:1012900018F805205946204604F0BBFE0135082DFC
:1012A000F4D11B49DFF874A0DFF874B0204604F0D5
:1012B000B0FE4FF000094E4524D918F809507E2D94
:1012C0001ED8284608F0ACFD002814BF2A462E225E
:1012D0005946204604F09DFE09F10109B9F1080FB5
:1012E000E9D1012221463846FFF736FF019B2373DF
:1012F00003B0BDE8F08F5146204604F08AFECDE7EA
:101300002E22E5E75146204604F083FEE4E700BFC5
:10131000C1B70000BDB70000B7B70000BFB70000FD
:10132000EDCA0000074B1B5C1F2B8ABF064A4FF01B
:10133000A04203F01F03D2F80405D840C04300F0D8
:101340000100704734B8000000030050074B1B5CDD
:101350001F2B86BF064903F01F034FF0A041012257
:1013600002FA03F3C1F80C35704700BF34B800002F
:1013700000030050074B1B5C1F2B86BF064903F080
:101380001F034FF0A041012202FA03F3C1F8083510
:10139000704700BF34B800000003005008B50020BB
:1013A000FFF7E8FF0120FFF7E5FF0220FFF7E2FF6C
:1013B000BDE808400320FFF7DDBF08B50020FFF7B8
:1013C000C5FF0120FFF7C2FF0220FFF7BFFFBDE806
:1013D00008400320FFF7BABF0A4B185C1F288ABFDA
:1013E000094B4FF0A04300F01F00D3F80425012162
:1013F000814021EA02000A40C3F80805C3F80C2521
:10140000704700BF34B80000000300500B2809D01B
:101410000C2809D0182809D019280CBF03204FF038
:10142000FF3070470020704701207047022070474E
:10143000C20710B504460CD54FF0A0430322C3F8F1
:101440003427C3F83827C3F83C27C3F84027FFF7F1
:10145000A5FFA3070AD54FF0A0430C22C3F82C2701
:10146000C3F83027C3F86027C3F8642710BD000015
:10147000C30710B507D4F023054A4008145C234085
:101480001943115410BD0901C9B20F23F4E700BF7D
:101490000008002030B5094B1C78094B196800235F
:1014A0009C4202DC0022104630BD11F833508542C8
:1014B00001EBC302F7D00133F2E700BFEC070020D5
:1014C0002008002013B504460191FFF7E3FF38B16F
:1014D00043682BB10199204602B0BDE8104018477F
:1014E00002B010BD034B044819680022490800F0FF
:1014F0004DBA00BFF00700200001002010B5C0B2B7
:10150000FFF7C8FF0446007805F09CFD63785A1E7B
:1015100053425341834208D1044BD3E90023134380
:1015200003D1BDE81040FFF7DDBF10BDF807002074
:1015300038B5334A43080446D35CC2074CBF1B0985
:1015400003F00F030D46042B59D8DFE803F0032204
:101550002A363900002952D00121FFF789FF0020E7
:1015600002F02AF90120A4F12003C4F12001254A48
:1015700020FA01F100FA03F30B43A040D2E9004145
:1015800020430B43C2E90003BDE83840002002F0CD
:1015900015B9002918BF02212046BDE83840FFF7E1
:1015A00067BF41B10321FFF763FF20460121BDE87A
:1015B0003840FFF787BF0121EEE701BB0421EBE7CD
:1015C00009B10321E8E7FFF753FF29462046FFF75B
:1015D00079FF284602F0F0F80120A4F12003C4F1BD
:1015E0002001084A20FA01F100FA03F30B43A0405E
:1015F000D2E9004124EA000021EA0303C2E738BD32
:1016000000080020F80700202DE9F041124E134F8A
:1016100000243378A34208DC114BD3E900231343A1
:1016200018D0BDE8F041FFF75DBF3D6805EBC40889
:1016300015F8340005F006FD98F801305A1E5342A3
:101640005341181A4142414115F83400FFF770FF29
:101650000134DEE7BDE8F081EC070020200800201F
:10166000F8070020092AF7B505460C4616463ED96C
:1016700005F010FCE8B11F4B1F481D601F4B204FA9
:101680001C70204B002120221E6008F090FD1E4B94
:1016900000200021C3E90001013CE4B20326FF2C35
:1016A0000DD11A4A1A48002103B0BDE8F04000F0FD
:1016B0005BB905F0ABFB0028DDD003B0F0BD9DF8B1
:1016C000063015F834008DF8046005EBC40223F0F1
:1016D00007038DF8063001A993788DF805303A4656
:1016E00005F0E2FB013CE4B20028D8D0E5E7072092
:1016F000E3E700BF2008002000080020EC070020DE
:10170000FD140000F0070020F80700200916000073
:1017100068B8000070B5084D084E00242B789C4234
:1017200001D3002070BD3368012113F8340005F0A7
:101730003BFC0134F2E700BFEC070020200800204A
:101740001FB50021039001AA44F20100CDE9011167
:1017500000F004F805B05DF804FB000010B572B6A7
:10176000FFF7A8FCFFF7C6FA0028FBD1164C6388E8
:101770004BB11648164B1749C01AC008000440F078
:101780000100FFF725FC144BD3F8F030DB0700D540
:1017900000BE6388012B09D90C480D4B0F49C01AB4
:1017A000C008000440F00200FFF712FCBFF34F8FA7
:1017B00009490B4BCA6802F4E0621343CB60BFF3E4
:1017C0004F8F00BFFDE700BF180000206CAF000086
:1017D0003CAF00006CB8000000ED00E078B80000FD
:1017E0000400FA0510B5D0E90243D1E90202A04293
:1017F00072EB03032CBF0120002010BD08B50A487E
:1018000002F009F9094AD2E90031C018084BD3E9BE
:10181000002341F10001904271EB030303D210F168
:10182000807041F1000108BD34010020280800202B
:101830009008002037B505460C460A4801A902F079
:10184000DCF960B10570446001A9064802F0FFF9B7
:1018500018B1054802F0E4F8002003B030BD0420C0
:10186000FBE700BF2001002034010020234B70B5AE
:101870001E78044616B90026304670BD0028FAD0FE
:10188000FFF7BCFFD4E90223904299412FD30020F7
:1018900001F092FF23692BB94FF0FF324FF0FF3375
:1018A000C4E90223002001F089FFD4E905309847FC
:1018B000002001F081FF25696DB1D4E90212B2F177
:1018C000FF3F08BFB1F1FF3F0FD0691842F100029E
:1018D000C4E902123546002001F070FF002DCAD085
:1018E0000748214605F052F8C6E70025F3E7B3F1B3
:1018F000FF3F08BFB2F1FF3FBDD0F1E73008002045
:10190000A8B8000013B5114B1149186801900823BD
:101910001048582202F05EF9044698B90E4A0F4862
:1019200001A901F05BFF044660B90C48012102F0F7
:1019300055F801230A4A0948194601F0B7FF094B37
:1019400001221A70204602B010BD00BFA2B80000EC
:101950003408002020010020311A0000340100204A
:10196000FFFF7F003008002030B56AB103684FF0F8
:10197000FF344FF0FF355A614A1E5142C3E9024518
:1019800051411961002030BD0720FCE7F8B504463D
:10199000002017460D4601F00FFFD4E90223B3F1F2
:1019A000FF3F08BFB2F1FF3F15D1FFF727FF28180F
:1019B00041F10001C4E902010126002001F0FEFE10
:1019C0005EB12369A76103B1256121460020BDE80E
:1019D000F840FFF72FBF0026EFE73046F8BD38B5D7
:1019E0000446002001F0E8FED4E90223B3F1FF3FF2
:1019F00008BFB2F1FF3F1FBF4FF0FF324FF0FF3380
:101A0000C4E90223012508BF0025002001F0D6FE0D
:101A10002DB121460120BDE83840FFF70BBF284615
:101A200038BD0000014801F0F6BF00BF34010020BE
:101A30002DE9F743064601F0D9FF40B1624AD2E9E9
:101A4000003113F1807341F10001C2E9003100213E
:101A5000304601F0DAFF38B15C4C236823B12068CE
:101A6000FFF704FF002323600121304601F0CDFF82
:101A700020B1FFF7C3FE564BC3E900015548534C54
:101A800001A902F0F4F84FF0FF384FF0FF39A0B988
:101A9000DFF844814D4D404604F08EFF002800F0F1
:101AA0008580D0E90223B3F1FF3F08BFB2F1FF3FC9
:101AB00032D1404604F07AFFEDE70378012B20D0C5
:101AC000022B08D1444D284604F070FF002877D03F
:101AD000C0E90289F7E75BB94168D1E90223B3F1B4
:101AE000FF3F08BFB2F1FF3F02D03B4804F04EFF7A
:101AF00001A9384802F0E6F801A9364802F0B7F823
:101B0000C5E741682368994202D100232360EFE7CB
:101B1000314804F054FFEBE7296891B12968D1E915
:101B2000020182428B412FD22B68D3E90223B3F109
:101B3000FF3F08BFB2F1FF3F03D02968404604F0E1
:101B400025FF404604F032FFD0E902490746FFF77F
:101B500055FE201A69EB0109012879F1000318DB11
:101B6000B0F5350F13D3FFF75DFF1C4A02441C4844
:101B70004FF49603002101F0B9FE90B92B6813B918
:101B8000304601F08BFE2F6003B0BDE8F0832246A3
:101B9000EDE71348002101F02EFF3846FFF766FEFF
:101BA00001E00D28F9D000232B6074E7074B1B6878
:101BB000002BE9D1304603B0BDE8F04301F072BE1E
:101BC000084B01221A7093E728080020980800208B
:101BD0009008002020010020A8B80000FFFFB400FA
:101BE000340100203008002043681B6818470000BB
:101BF000024B5B6803B11847704700BFA008002084
:101C0000020600F00F034CBF02480348DB001844F3
:101C1000704700BFAC080020F408002008B5FFF7AB
:101C2000EFFF016009B14B681968416008BD000011
:101C3000024B0146D3E90002104700BFF408002020
:101C400038B5831EDBB2062B98BF1A4A1A4D98BFCF
:101C5000D25C2B78A3F10203DBB288BF0022062BF3
:101C60009ABF1449CB5C00239342044603D0B2B11F
:101C7000124804F023FF022C14D0A4F108004242C1
:101C800042412B78022B0FD0A3F108014B424B416C
:101C9000934202D052B106F067FE2C7038BD04F0BA
:101CA00037FFE8E70122ECE70123F1E706F052FEF7
:101CB000F3E700BFD2B800005C0A00203C0100201E
:101CC0000378052B37B504460BD12B4AD2F8843460
:101CD000D2F88024D2B222B9284ADBB2052B08BF41
:101CE0001446237813BB264B1D68C5B92846254DDD
:101CF00001F062FD2B6813B9234B62881A80012121
:101D0000204802F02AF8002001F058FD1F4B1B6804
:101D100013B10121204698472B6803B030BD2B68D2
:101D200060889B6898472B685D68DEE7184801A9C2
:101D300001F063FF05460028EFD023680360002010
:101D400001F03AFD104B0F481B88026801339B1AC3
:101D5000EB80002101F0C6FFA880002001F02EFDDD
:101D600001A90B4801F073FF084B1B680146002BCB
:101D7000D3D020469847D0E700700240ECB800006E
:101D8000500A0020580A00203C090020A00800202A
:101D900044010020FFF794BF012805D0022805D098
:101DA00030B90448FFF78CBF0348FBE70348F9E765
:101DB000704700BFE4B80000E0B80000E8B80000D9
:101DC0000148FFF77DBF00BFF0B800002DE9F04FDC
:101DD00087B000260546884691461F4602966B68E6
:101DE00000225C682946012302A8A047044638B9AE
:101DF0008DF8060004908246564503D8052028E059
:101E00000136ECE76B680DF10602D3F804B0294601
:101E1000012304A8D8476B680DF10702D3F804B07A
:101E20002946012304A8D8479DF8073043459DF86B
:101E3000063013D14C450FD1109A13603B7087F8D0
:101E400001806A68023B54682946BA1C04A8A0476E
:101E5000002007B0BDE8F08F0134E4B26A68023BAD
:101E6000D2F804B02946002204A8D8479DF80630CD
:101E70009A44C1E72DE9F743082305462D492E482A
:101E80004FF4847201F0A6FE002851D12B4806F0D1
:101E900081FD0446002847D1294B1870294B186052
:101EA000294B014618604822284808F080F9284844
:101EB0004822214608F07BF9264B8DB9C3E900552D
:101EC0001D72002004F038FE18B1852801D0FFF7FC
:101ED00037FC214F002697F8089007F1090810E019
:101EE00095E8070083E80700EBE7A3782344394629
:101EF000985CFFF793FE01356378EAB29342F4D819
:101F00000136F4B2A14504D904EB4404444400254D
:101F1000F2E70B2310488DF8043001A9FFF764FEA7
:101F2000044608B106F00CFC204603B0BDE8F0837F
:101F30000324F9E73E09002044010020951D00001C
:101F40005C0A0020480A00204C0A0020AC0800204F
:101F5000F4080020A008002024B9000010B506F005
:101F6000B5FC10B90823184610BD06F0B7FC0446AE
:101F70000028F7D1044804F0FAFD03460028F2D007
:101F8000FFF7DEFB2346EEE7DCB8000006F0E2BB1D
:101F900007F006B84FF08043D3F83824920702D5F3
:101FA0000348FFF78DBED3F83824D107F4D4704727
:101FB000F5B8000007B5822301A88DF80430FFF7BB
:101FC0007FFE03B05DF804FB2DE9F74300F1090142
:101FD00090F80890054600270E46FBB24B452AD2E2
:101FE00091F801800024E3B298450AD98B780A1948
:101FF0000134D05CFFF704FE0368002BF3D01120FE
:1020000028E001370331E8E7A27823442946985CA9
:10201000FFF704FE01376278FBB29A42F4D808F168
:1020200001082B7A5FFA88F4A34216D904EB440422
:1020300034440027EFE74FF00008F2E713681A680E
:10204000002AFBD11D6001A90B2328468DF804301E
:10205000FFF7CAFD03B0BDE8F083014BEFE700BF17
:10206000480A0020024B1878003818BF012070473A
:10207000540A0020030710B5044604D406F0A6FD58
:10208000204607F053F82046BDE8104006F0FABF9E
:1020900006F0C6BF014B1868704700BF480A002011
:1020A000F0B50A4B0246186878B1057A0023861D00
:1020B000DCB2A54201D80368F5E7013303EB43071F
:1020C000F75D9742F4D101B10C70F0BD480A0020D1
:1020D0001146FFF789BD08B500F00F03082B07D89C
:1020E000FFF78EFD006818B1BDE80840FFF77CBD22
:1020F000102008BD38B5054B05461C6804B938BD2D
:1021000029462046FFF770FD2368F6E7480A0020BD
:1021100038B5074B05461C680CB9062038BD294662
:102120002046FFF761FD0628F8D12368F3E700BFDA
:10213000480A002013B50446019106F071FC50B125
:10214000064B1B78022B06D10199204602B0BDE850
:10215000104006F075BC082002B010BD5C0A0020DB
:1021600013B50446019106F05BFC50B1064B1B7899
:10217000022B06D10199204602B0BDE8104006F0BE
:10218000D3BC082002B010BD5C0A0020F8B543683B
:102190009B6805460C46164613B92EB1072002E08F
:1021A00098470628F9D0F8BD2B7AA34213D90935F0
:1021B00004EB44042C446778F3B29F4201D800201A
:1021C000F1E762789A4208D9A219A378D05CFFF7A8
:1021D00051FF0136F0E77378FFDE00231B78FBE741
:1021E0004368DB6870B505460C4603B198472B7A07
:1021F000A34213D9093504EB44042C440025667826
:10220000EBB29E4200D870BD62789A4209D9621939
:10221000A378D05C06F004FF0135F1E700235B787A
:10222000FFDE00231B78FBE743681B6903B11847F7
:102230001846704770B5084B1C6804B970BD267A03
:102240000025E9B28E4201D82368F5E70022204636
:10225000FFF79CFF0135F4E7480A002070B5084BF2
:102260001C6804B970BD267A0025E9B28E4201D8F7
:102270002368F5E72046FFF7B3FF0135F5E700BF18
:10228000480A002038B503780F2B044610D9A3F173
:10229000800283F08003052B00D938BD052AFCD8C5
:1022A000DFE812F067002C00490073007E00E000B8
:1022B0000F2BF2D801A252F823F000BFC323000075
:1022C000F3230000532400001724000035240000ED
:1022D00065240000772400009B220000A124000058
:1022E000A5240000A92400009B2200009B220000DE
:1022F0009B2200009B2200006F2400006B48FFF728
:1023000097FC6A48FFF7F6FE0D20FFF771FCFFF718
:10231000A5FF00F06AFF664B1B6853B9654B187A3E
:1023200000F0010006F0AEFA0120BDE83840FFF7EA
:1023300087BC0120F4E7FFF791FF06F00FFE0020B5
:10234000FFF77EFC5C48FFF7D5FE5B48FFF770FCAB
:102350000E20FFF74DFC594B1B78023BDBB2062BDE
:102360009BD8574AD35C002B97D0BDE8384004F087
:10237000CFBB524B1B78062B05D003F0FD03052B7A
:102380008BD10220D1E70820CFE74C4B1B78032BE1
:1023900083D106F01FFE00283FF47FAF0420C4E77E
:1023A000464B1B78032B05D106F014FE10B1042018
:1023B000FFF746FC06F09CFA00283FF46EAF0620BB
:1023C000B3E73E4B1B78032B01D0082B02D13D48CD
:1023D000FFF758FF0020FFF70BFC354B1D68002D61
:1023E0003FF45BAF28462146FFF7FEFB2B685D6894
:1023F000F5E7FFF733FF00F0EFFE0220FFF720FCC8
:102400000120FFF7F5FB2046FFF712FC2046BDE850
:102410003840FFF76FBE294B1B78082B06D10220EE
:10242000FFF70EFC06F0AAFA0320EAE70520FFF703
:1024300007FCF9E70320FFF7DBFB2348FFF7F8FB76
:102440002148FFF757FE1D4B1B78062B99D107201B
:102450006BE70320FFF7F4FB0220FFF7C9FB2046E0
:10246000FFF748FE2046BDE83840FFF7E1BB0F20EC
:10247000FFF7BEFBCAE78078FFF7C2FB214643683F
:102480000068984700283FF408AFA07802073FF49F
:1024900004AF03073FF501AFBDE8384006F088BB45
:1024A0000820E5E70920E3E70A20E1E7F4B80000A7
:1024B0004C0A0020A0080020F3B800005C0A0020AD
:1024C000D2B80000F2B80000F1B8000073B5224E97
:1024D00000230193336823B92049214801F0C7FB49
:1024E00030603468ECB1A58885B1E388B3F5006F3E
:1024F00024BF0023E380E388ADF806305A1C013D79
:10250000E280A58001A8FFF7BDFE07E02046FFF7A7
:10251000B9FE1249124801F0D5FB3560012002B026
:1025200070BD104B18680028F9D0204601F044F91E
:102530000D4B0C481A88B2F5006F28BF1C801A8812
:10254000ADF80620511C1980012101F01EFC00206D
:1025500001F034F9D6E700BF600A00209C08002093
:1025600044010020580A00203C090020C36903B13F
:102570001847704703680022C3E91E22C3E92022DE
:102580001A845A62DA6203F134025A677047CA69E0
:102590009A4210B543600CD38C690460086F1844EC
:1025A0000867D01A1C44C86100388C6118BF01202C
:1025B00010BD01F1280202608B670020F8E758B9CE
:1025C0000B681A7B202A09D1D3F80E209A615A8A07
:1025D0009A831A7D9A7770470320704706207047C8
:1025E000F0B504680D7A002C00F08780A4F2133453
:1025F0007C2C00F222837C2C00F21F83DFE814F095
:1026000085008F009D00A900B500C100CD00D90054
:102610001D031D031D031D031D031D03EF00FB0010
:102620001D031D031D031D031801240132011D0399
:102630001D031D03450151017F011D031D031D03E2
:102640001D03670173017F011D031D031D031D038E
:102650001D031D038B011D031D031D031D039F018E
:10266000AB01B701C301CF011D031D03DB01E7016E
:10267000F301FF010B021D031D031C02280234029B
:1026800040021D031D034C025802640270027C02CA
:102690001D031D031D031D031D031D031D031D033A
:1026A0001D031D031D031D031D031D031D031D032A
:1026B0001D031D031D039B02A7021D031D031D0314
:1026C000C0021D031D031D031D03DD021D031D03A9
:1026D0001D031D03DD021D031D031D031D031D033B
:1026E0001D03E902F5021D031D031D031D03130352
:1026F0001D031D031D031D0313030824047123B9C7
:1027000040F2133303600120F0BD0AB10479147064
:102710000B24012B04710ED84FF44573F2E700240B
:102720000AB10679165501340E7D06719C4205D317
:1027300040F21533E6E70124F2E700240AB10679F6
:102740001655013402269C42067103D340F216331B
:10275000D8E700240AB106791655013402269C42B6
:10276000067103D340F21733CCE700240AB106798F
:102770001655013402269C42067103D34FF446736A
:10278000C0E700240AB10679165501344E7E067161
:102790009C4203D340F21933B4E700240AB106790E
:1027A0001655013400269C42067103D340F21A33B9
:1027B000A8E700240AB1067916559D4E002701347A
:1027C00037709B4E3678AE4202D340F29A3399E787
:1027D0000926A342067103D840F2213392E7002470
:1027E0000AB106791655013404269C42067103D3BA
:1027F00040F2223386E700240AB1067916558C4E42
:102800000F7A3678DFF82CC2B74204F1010440F2A7
:10281000188201F1090706EB460607EB060E9C42FB
:10282000BE5DCCF800E0067103D340F2273369E7C0
:1028300000240AB106791655013400269C4206711F
:1028400003D34FF44A735DE700240AB106791655A5
:10285000784E36680134767806719C4203D340F294
:1028600029334FE700240AB106791655714E0F7DC2
:1028700036683678B74204F101041ED102269C4224
:10288000067103D340F22D333CE700240AB10679E8
:102890001655013402269C42067103D340F22E33B2
:1028A00030E700240AB10679165501344E7E0671D0
:1028B0009C4225D340F22F3324E78F7DB74223D1AA
:1028C0000A269C42067103D34FF44D731AE7002485
:1028D0000AB106791655013400269C42067103D3CD
:1028E00040F235330EE700240AB10679165501345B
:1028F00000269C42067103D340F2363302E70024DF
:102900000AB10679165501340026A342067103D890
:1029100040F23D33F6E600240AB106791655454EDD
:102920000F7D36683678B74204F1010440F0E98043
:1029300005269C42067103D340F24233E2E60024AE
:102940000AB106791655013424269C42067103D338
:1029500040F24333D6E600240AB106791655013415
:1029600000269C42067103D34FF45173CAE600243B
:102970000AB106791655013410269C42067103D31C
:1029800040F24533BEE600240AB1067916550134FB
:1029900001269C42067103D340F24633B2E600247E
:1029A0000AB106791655013405269C42067103D3F7
:1029B00040F24933A6E600240AB1067916550134DF
:1029C00024269C42067103D340F24A339AE600243F
:1029D0000AB106791655013401269C42067103D3CB
:1029E00040F24B338EE600240AB1067916550134C5
:1029F00003269C42067103D34FF4537382E60024EE
:102A00000AB10679165501348E7D06719C4203D3B6
:102A100040F24D3376E600240AB1067916550134AA
:102A200004269C42067108D34FF454736AE600BF33
:102A3000650A0020680A002000240AB106791655AC
:102A4000013424269C42067103D340F2513359E6E7
:102A500000240AB106791655013402269C420671FB
:102A600003D340F252334DE600240AB106791655DD
:102A7000013402269C42067103D340F2533341E6EF
:102A800000240AB106791655013405269C420671C8
:102A900003D340F2563335E600240AB106791655C1
:102AA000013424269C42067103D340F2573329E6B1
:102AB00000240AB106791655013406269C42067197
:102AC00003D34FF456731DE600240AB10679165558
:102AD00001340E7D06719C4203D340F2593311E656
:102AE00000240AB10679165501348E7D06719C4288
:102AF00003D340F25A3305E600240AB1067916558D
:102B00000134534E36687778524E3770524E002754
:102B10003770514E37784F4E3678B74204D34F4F07
:102B20003E7801363E704CE60726A342067103D874
:102B300040F26E33E6E500240AB1067916550134F9
:102B400005269C42067103D340F26F33DAE5002478
:102B50000AB1067916553E4E3F4F36683F7896F8D3
:102B600001C0BC4504F1010470D996F802C03E448E
:102B70009C4216F80C60067103D340F27333C1E532
:102B800000240AB106791655314E0F7D3668367825
:102B9000B74204F1010406D103269C4206710DD30D
:102BA0004FF45E73AEE58F7DB7420BD102269C4297
:102BB000067103D340F27D33A4E500240AB10679FF
:102BC000165501344026A342067103D84FF46173B1
:102BD00098E500240AB106791655013400269C4276
:102BE000067103D340F285338CE500240AB10679DF
:102BF0001655174E0F7D36683678B74204F101043A
:102C000007D10E6A9C42367806710DD340F28A33A2
:102C100078E58F7DB7420BD100269C42067103D325
:102C200040F28F336EE500240AB10679165501345F
:102C3000094F3E7801363E706BE70023036018466B
:102C400062E50023CCF800301B78FFDE0023FBE7B1
:102C5000680A0020640A0020660A0020650A002035
:102C6000037A012B08D9427B012A00F10C0306D913
:102C7000827B13445878704700235B78FFDE002383
:102C80001B78FBE72DE9F0470B7888B005460E4628
:102C90000E2B1AD8DFE813F060003B0160006000E3
:102CA00019000F00A6001900190038011900600072
:102CB0006000600060004A78D1094FEA521335D0B5
:102CC00013F0030303D0012B21D006241BE002F0F4
:102CD0001F02012AF9D1B478062CF6D105A8039376
:102CE00000F0EAFC03AB0093F27831790346074623
:102CF0002846FFF76BF8052805D0039A3946701C63
:102D000000F08EFA0446204608B0BDE8F087B3789C
:102D1000212BDAD1B6F80720072AD6D10168701C1A
:102D2000183108B0BDE8F04700F07ABA012BCCD1D9
:102D3000B3780768202B11D0222BC6D1B6F8073004
:102D4000002BC2D13A8CB6F803303B8402F001026A
:102D500003F001018A4220D10024D4E7B6F80730FD
:102D6000072BB2D14FF4E462BA8100200E37CDE9CF
:102D70000573079000F020FD05A90020FFF7DAF9A0
:102D8000044630B9684B03A9CDE9033500F036FAA3
:102D90000446002000F012FDB5E78CB2C1F103013A
:102DA000C9B2FFF7E3FB002CD6D12B7A012B40F2FE
:102DB000B4806B7B05F10C02002B00F0B080AB7B84
:102DC000D05C06F021F82846FFF74AFF06F01CF811
:102DD00007F13403C7E91E44C7E920447C62FC6262
:102DE0007B6790E7037A002B00F09B80837A00F1E9
:102DF0000901002B00F09380C27AB3788A5C9A4272
:102E0000AAD01B06F77809D527B1032F14BF0324D6
:102E1000002478E70121FFF7A9FB9DE707F0FD03F8
:102E2000012B99D0002F76D10668FFF719FF3F4B91
:102E3000B46A059306F10C0381460693C4B9F36F97
:102E4000B467C6E91F43F36A63B1D6E90B0106F123
:102E5000240383E80300F46205A94846FFF780F9DC
:102E6000044600E0746200212846FFF77FFB4AE732
:102E7000D6F884A0706A544528BF544606F1340839
:102E80002246414607F06AF9F36F2344C6E91F73EF
:102E9000AAEB0403B367F36A444474672BB306F1E7
:102EA000240406F12C0898E8030084E80300B36FBB
:102EB000706AF7621BB9736A002BCDD116E0B26A53
:102EC000716F9A4214D807F049F9B36AB26FC6F825
:102ED0008030D21AB267726F1A4472670021284696
:102EE000FFF744FBF36A002BDDD173620024BAE7DD
:102EF0001A4607F033F9B26FB36AF2679B1AB362EE
:102F0000736A13447362D6E70321FFF72FFB284649
:102F1000FFF730FB20E70324F5E66378FFDE1B783C
:102F2000FCE75B78FAE700BFBF2500008F250000B3
:102F30001FB503681B8CDC0714D5037A012B13D94A
:102F4000437B00F10C0493B1837BE05C9306CDE9F5
:102F500001120CBF0123002301A90393FFF7EAF834
:102F600004B010BD0820FBE700235B78FFDE1B7870
:102F7000FCE70368D3F8800070470368986F7047D8
:102F8000F7B50468238CDB070F4616463BD5656A08
:102F9000002D32D1A16F91420ED3616F384607F0F8
:102FA000DDF8A36FC4F880609B1BA367636F334495
:102FB0006367284603B0F0BDC4E90972FFF750FE0D
:102FC000134B009304F10C030646019369B10A46C2
:102FD0003846616F07F0C2F8A36FA26AD21AA262E4
:102FE000626AC4E91E531A44626269463046FFF7BA
:102FF000B7F8002808BF9220DCE7E36A2BB9C4E9E0
:103000000B129220D6E70820D4E71120D2E700BFA8
:103010008F250000F0B506680C4685B005460020F7
:10302000174600F0C9FB202C35D8032C29D8631E85
:10303000012B2ED8718CA4B2002F2FD00C4342F25A
:10304000A103F38102220023B2827484338273824B
:10305000F482297A2A6821B3A97A05F1090411B307
:10306000E87A0E32205C019201A90A22CDE90223FE
:10307000FFF760F80446002000F0A0FB204605B0F2
:10308000F0BD221FD3B201229A40084B1340002BFF
:10309000D0D10624EFE7402CFBD1CBE721EA040492
:1030A000CDE74B78FFDE0B78FCE700BF1110001076
:1030B000002070472DE9F04F2DED028B4B6885B055
:1030C00080460C4601926BB90B681B681B684BB9B4
:1030D0008D683DB9C0E90055284605B0BDEC028BAE
:1030E000BDE8F08F05F060FD019BE7689F4228BFB7
:1030F0001F4604F110034FF0000A08EE103A814613
:10310000564601254FB3A3686168BB429B4628BF62
:10311000BB4629B35A4609EB060007F01FF8002307
:103120006360A268E368A2EB0B02A3EB0B03A2604F
:10313000E360A7EB0B075E440ABBBAF1000F03D0B4
:103140002268126812682260DBB12368DBB9636011
:103150001EB1019BB34288BF0025C8E90096BBE7BA
:10316000002BDED021684B6818EE100AD3F804A0BB
:1031700009EB06025B46D0474FF0010AD1E7002B6E
:10318000C0D10025BEE70023029321684B680022CE
:10319000D3F804B002A80123D84708B92061B1E7E9
:1031A000A3680133A360F0E7084B1A7882420CD081
:1031B000052818BF064A187018BF137805481CBFA9
:1031C00023F002031370FFF75DB87047780A002000
:1031D000940A002034B9000008B50020FEF74AFF29
:1031E000BDE808408020FEF745BF08B50020FEF787
:1031F0004FFFBDE808408020FEF74ABF38B50546BE
:103200000C4605F05FFDA84205BFD4E90001034B61
:103210001020C3E9000108BF002038BD980A002033
:103220007FB5C38893421E4628BF164693420D467B
:10323000144620D9802005F0EDFBB4FBF0F202FB30
:103240001044B4FA84F4640900200394CDE90156D3
:1032500000F0B2FA01A98020FEF76CFF044620B905
:1032600006498020FFF7CAFF0446002000F0A6FAB6
:10327000204604B070BD0024E6E700BF68B9000036
:103280002DE9F04F0B780E2B89B00D4613D8A3B162
:10329000013B0D2B11D8DFE813F012001A001600C5
:1032A00010002A00EE0110001000100010001A009B
:1032B000D801DC01EC01852B13D00624D5E10320D5
:1032C000FFF772FFF9E7A54800F073FD08B9002485
:1032D000CBE1A34B0122DA65BFF36F8FBFF34F8FB2
:1032E000F5E7A04B1B78032BE7D10420E8E7052383
:1032F0009D4D8DF814300DF1150005F077FC00237D
:103300002B609DF8153003F01F07032F00F2568144
:10331000DFE817F00400EF004B01370013F0600FF7
:10332000C3F341182DD1DB099DF8162000F09B80D6
:10333000062A0FD0082A00F0888012BB8B490B7038
:103340008B4B4A701B789A0744BF03230B700222F1
:1033500086490EE09DF81830022B16D0032B64D05E
:10336000012B0ED1BDF81B30002B00F06B81814981
:1033700012220DF11500FFF753FF0446062C40F012
:10338000258105A8FEF7C4FE0DE1BDF81B60002EE7
:1033900000F05881092E28BF0926FEF77BFE4FF06A
:1033A0000909044654BB714C73493246204606F065
:1033B000D5FE2771A4F80290FEF754FE18B1E37908
:1033C00043F02003E371FEF765FE6C4BC3E9000494
:1033D0009E60BDF81B20DA60002000F0EDF968491E
:1033E0008020FEF7BDFE044620B966498020FFF725
:1033F00005FF0446002000F0E1F9BFE7CDF80C809E
:103400004FF0000A63680022D3F804B0214601237C
:1034100003A8D84730B9237A1F442368D1441C68D5
:10342000FFB2BFE70AF1010AECE7BDF81B30002B41
:1034300000F00881BDF819109DF8170000F08CF914
:10344000014600289DD0027893E7464A1278052A63
:1034500003D1464A137001227AE7042A91D1434BE3
:1034600083F80080F7E7032A0FD0092A2BD0012A1E
:1034700087D1BDF81730012B83D1FEF7F3FD60B182
:103480003B4A137823F002030FE0BDF81730012BFD
:103490007FF477AFFEF7E6FD18B90F2405F008FCBE
:1034A000E3E0334A137843F0020313702B68002BD8
:1034B00000F0C88005F006FC044600287FF407AF42
:1034C00005F0B6FBD1E0274B1B78043B012B01D95B
:1034D0000824E3E79DF817302BB9FEF7BFFE042060
:1034E000FFF762FEE2E7012B56D1FEF7A3FE0520AF
:1034F000F6E79DF8190003A9FEF7D2FD064608B9C4
:103500001024CBE79DF80C1005AAFEF7E1FD062874
:1035100004465BD19DF8152012F0600FBED1114B0F
:103520009DF80C1018789DF81630D2092CD07BB17C
:103530000A2BB3D10528CBD130460192FEF774FE99
:103540000A49019A08700DF11500FFF769FE2AE09B
:103550000528BDD105490B800222F4E7A00A00200E
:1035600000700240780A0020980A0020A40A002077
:10357000940A002054B9000035B900007C0A0020EC
:1035800070B9000068B900000B2B87D105289FD1C6
:10359000BDF81730FF2B01D907247FE79DF81720CE
:1035A0003046FEF7F3FD044610E09DF819000307CE
:1035B00006D19DF8153013F0600F0BD006246DE78F
:1035C00005A9FEF788FD06280446F2D0002C3FF43A
:1035D0006DAF63E79DF81620344B9DF819401B78BA
:1035E000012A1DD0032A0CD0002AE7D1052B02D0D6
:1035F00027077FF46DAF204605F0E6FA2C490880D6
:10360000AAE72607DAD4BDF81720002AD6D120076A
:10361000D4D0052B7FF45CAF204605F0C9FA45E70E
:103620002107CBD4BDF81720002AC7D12207C5D067
:10363000052B7FF44DAF204605F0C8FA204605F073
:1036400075FD33E705F02AFB41E60020FFF7ACFDEE
:103650003DE64FF08043D3F8384414F0010401D024
:103660000220F3E70120FFF79FFD204609B0BDE8E7
:10367000F08F0120EAE7C87803283FF41EAE0D4E14
:1036800033688BB100227168326098470446002885
:103690007FF404AF336823B1AB78002B7FF417AE0F
:1036A0000EE705F0FBFAE0E70E24F7E6780A0020C3
:1036B000A40A0020980A002008B1402303600148B2
:1036C000704700BFA40A002070B54FF0805286B04A
:1036D000D2F8A830D2F8A42000926FEA83436FEAB0
:1036E00093430B4A0B4E9BB20D2102A806F0CBFC74
:1036F00002AD002402A806F0D6FD844201D306B034
:1037000070BD15F8013B06F8013B0134F2E700BF3C
:1037100078B90000E40A002010B50E4B53F82040A1
:1037200023780BB9A01C10BD0020FFF7C5FF013C9A
:1037300000235A1CA15C39B9DBB201335B00DBB258
:1037400043F440730380EEE7D3B220F8131013461E
:10375000EFE700BFD0B90000034608B9FFF7DCBFB0
:10376000012807D0022805D0032803D0042801D05F
:10377000052809D1054800EB4303587820B1044BD4
:1037800053F82030002BE9D100207047E8B9000041
:10379000D0B9000072B6024A136801331360704753
:1037A000F40A0020034A1368013B136003B962B6B0
:1037B000704700BFF40A0020FFF7ECBFFFF7F2BF2D
:1037C000435882B03BB10023435043580193019BBF
:1037D000012002B070471846FBE70000F8B5264C00
:1037E0004379264D44F8232005EBC303244E1B796F
:1037F00073B17388012B09D92248234B2349C01A7E
:10380000C008000440F00200FDF7E2FB0820F8BD0C
:1038100003680A88C3F8082590F904408B78027978
:103820005B01002CDBB221DB19490F1987F800334B
:103830000123640902F01F0203FA02F241F8242076
:10384000437905EBC30245F8330073880121022B4D
:10385000117109D90B480C4B0E49C01AC00800045D
:1038600040F00300FDF7B4FB0020D0E70A4902F066
:103870000F028B54E4E700BF000B0020F80A002081
:10388000200000207CAF00003CAF0000F4B9000035
:1038900000E100E016BA000014ED00E00368012228
:1038A0001A607047036801225A60704773B501F1CE
:1038B0005005AD000068ADB24FF480348C40002656
:1038C000C0F80843C0F84843465101F5A87145596E
:1038D000019522F07F42019D40F82120C0F8444329
:1038E0000BB1C0F8044302B070BD00002DE9F74FE2
:1038F0000D4622F07F4402684FF4803705F15006F0
:103900008F408046B60002EB8500C2F84873B6B21D
:10391000C2F80873D2F8041599464FF0000BD0F89E
:103920004035C0F8401542F806B05B1A9259009233
:1039300023F07F43012B009A4FEA850A0CD1264BD6
:103940004FF4806043F001039847D8F8003043F803
:1039500006B09B590193019BD8F80010D1F804657B
:10396000C1F84473A31B23F07F43012B1CD11A4BD6
:1039700005F5A875013443F0010341F825404FF4E3
:1039800080609847D8F80030D3F804359E4209D1BA
:10399000D8F800300020C3F84473C3F8047303B0B0
:1039A000BDE8F08F0D20FAE78A44C9F1FF13CAF889
:1039B0004045D1F80405221A013A22F07F4203F56E
:1039C0007F439342EED3002AE2D10134CAF8404546
:1039D000D1F804359842DAE730BA000003680222D1
:1039E000C3F8442309B1C3F80423704700684FF4B7
:1039F0008271FFF7E5BE4FF4803303FA01F10368EB
:103A0000C3F84813C3F808137047503189000068A1
:103A100089B2FFF7D5BE0368D3F8040570470000EC
:103A200090F90430002B09DB5A09012103F01F0330
:103A300001FA03F34032024941F82230704700BFD7
:103A400000E100E0024B034A1B681068184700BF02
:103A5000000B0020F80A00201EF0040F1CBFEFF33B
:103A600009800AE0EFF308800549064A884201D838
:103A7000904202D88D464FF00000034B18470000DB
:103A80000000042000E00320B13A0000BFF34F8F94
:103A90000549064BCA6802F4E0621343CB60BFF3EA
:103AA0004F8F00BFFDE700BF00ED00E00400FA0506
:103AB0002DE9F74F0546FDF7FDFAFDF71BF9002844
:103AC000FBD1374C3748384B384E9F6A7388241ADD
:103AD000E408240444F00104002D59D0D3B1AA69AC
:103AE00033492046FDF778FA73889BB1EB68019360
:103AF000AB6800932F49D5E900232046FDF78BFAE8
:103B000073883BB1EB6900932B49D5E90423204628
:103B1000FDF775FA244BDB6A990705D573881BB14D
:103B200026492046FDF754FADFF8A0A0DFF8A0B040
:103B30004FF000084FF0010909FA08F33B4208D0A2
:103B40005AF828202AB173881BB159462046FDF740
:103B500043FA08F10108B8F11A0FEDD13A0607D57A
:103B600073882BB1104B16495A6B2046FDF734FA77
:103B70003B0407D573882BB10B4B12499A6B204637
:103B8000FDF72AFA2846FFF781FF03B0BDE8F08F62
:103B9000002BBFD00C492046FDF71AFABAE700BF48
:103BA000F4AF00003CAF000000ED00E05C0000203E
:103BB00036BA00004BBA000080BA0000DBBA000041
:103BC0002ABB00004ABB0000A8BA000024C00000C5
:103BD0001FBB000010B561B1B2FBF3F403FB14246A
:103BE000A4B244B9C0E9001484608281C381204634
:103BF00010BD0E20FCE70920FAE737B550E8013F79
:103C00009DB2C48925448489A54228BF2D1B0489FF
:103C1000A54202BFBFF32F8F002207E0C5EA0305CC
:103C200040E80154002CE9D14FF001028DF8032047
:103C30000193019A0A609DF8031001F0FF0321B17E
:103C4000006810FA82F003B030BD1846FBE70A881E
:103C50004B889A4209D150E8012FC2EA024240E85B
:103C60000123002BF7D1012070470020704737B5A2
:103C700050E8023F1FFAA3F5C488A54202BFBFF374
:103C80002F8F00220DE0C48925448489A54228BFD6
:103C90002D1BC3EA054540E80254002CE8D14FF043
:103CA00001028DF803200193019A0A609DF8031028
:103CB00001F0FF0321B1006800EB124003B030BDFA
:103CC0001846FBE70A884B889A4209D150E8022F30
:103CD000C2EA224240E80223002BF7D101207047BC
:103CE0000020704710B5034653E8000F0A4643E82A
:103CF000002494F0000FF7D110BD10B5034653E82F
:103D0000000F40EA010243E8002494F0000FF6D1CE
:103D100010BD10B5034653E8002F42EA010043E806
:103D2000000494F0000FF6D110BD10B5034653E81F
:103D3000000F00EA010243E8002494F0000FF6D1DE
:103D400010BD10B5034653E8002F02EA010043E816
:103D5000000494F0000FF6D110BD10B5034653E8EF
:103D6000002F02EB010043E8000494F0000FF6D1AD
:103D700010BD10B5034653E8002FA2EB010043E845
:103D8000000494F0000FF6D110BD10B5034653E8BF
:103D9000002F8A422CBF501A104643E8000494F0CA
:103DA000000FF4D110BD0121FFF7A7BF0121FFF7DC
:103DB000B0BF0021FFF7B9BF0021FFF7C2BF00006D
:103DC0002DE9F0478368D3F84831C3F340059B07DA
:103DD00088B0074606D50022114608B0BDE8F04776
:103DE00001F008BD012906D91E4A022108B0BDE82C
:103DF000F04700F0C1BC1C4C1C4EDFF874A04FF023
:103E00006408A946361B1C23B6FBF3F6AE4204F148
:103E10001C0402D108B0BDE8F08754F81C0C54E92A
:103E20000623017900689A1A1B1ADBB2039308FB78
:103E300003F3B3FBF2F3CDE9019334F8043C0093B0
:103E4000CDE9061254F8083C11FB08F13846B1FBE5
:103E5000F2F1CDE904215246082100F08DFC013534
:103E6000D4E700BF8CC0000090B00000C8B00000D4
:103E70009FC0000010B590B1D0E9012301689B1AE2
:103E8000DBB20A60013BDBB2FF2B026802D10020EB
:103E9000107110BD11684C1C14600B70F2E70E20FD
:103EA000F7E738B504460020FFF786FC2268636810
:103EB0001168994213D9481E106011F8013CE56859
:103EC000218B01FB0355A36811791B1ADBB29942C0
:103ED00000D213710020FFF771FC284638BD002581
:103EE000F8E738B5054600200C46FFF765FC2A6860
:103EF0001368591C1160E968641A298BB4FBF1F44A
:103F00001C70BDE838400020FFF758BC30B18A680B
:103F1000B2F8483143F02003A2F8483170474368B3
:103F200010B59C686068036801219B689847A36886
:103F300010B903221A7010BD0422FBE7096800685B
:103F400006F08AB92DE9F843089E1D460C46F1B9E2
:103F5000194E1A49891BB2EBD10F4FEAD10905D28C
:103F6000174F043607EB8207A14502D100232B60CF
:103F700009E056F834803868D8F8001006F06CF97B
:103F800018B9C5F80080BDE8F8830134ECE70028D3
:103F9000ECD00178436839B1314610469847336810
:103FA000002BE3D02E60EEE7110103EB02125B5809
:103FB000002BDBD02A60E6E734B0000074B00000CC
:103FC000D800002030B583680546D3F8400187B09B
:103FD000E8B10023092203A9019002F089FAAB6835
:103FE000049AC3F840210024234601988DF8144018
:103FF000092203A9CDE9034402F070FA019802F006
:1040000016FAAB68D3F8400118B9C3F83C0107B001
:1040100030BD234603A9092202F06AFAA868039476
:10402000D0F840012346092203A902F057FAEEE72F
:1040300008B106F038B9704710B584680068FFF71A
:10404000F7FFE37F1844637EB0FBF3F203FB12003B
:10405000B0FA80F0400910BD10B584680068FFF721
:10406000E7FFE37F627EA07653FA80F3B3FBF2F1C1
:1040700002FB113301332375A37F53FA80F0013122
:10408000B0FBF2F302FB1300A1750130591C6075FF
:10409000E17504F1140010BD10B584680068FFF7E5
:1040A000C7FFA37F1844637EB0FBF3F203FB12004B
:1040B000B0FA80F0400910BD07B58368DA7E8A4205
:1040C0001ED01B228DF800205B228DF801203122AA
:1040D0008DF802203B228DF8032033228DF8042036
:1040E00001F12F028DF805206D22D9768DF806207A
:1040F00000228DF80720044900696A4601F089FF13
:1041000003B05DF804FB00BF7CC200000A4609B1A1
:10411000FFF7D2BF8168CA760069024A024901F0FE
:1041200078BF00BF05C600007CC2000007B58368E9
:104130001A7F8A4218D01B228DF800205B228DF84E
:10414000012034228DF8022001F12F028DF8032086
:104150006D2219778DF8042000228DF8052004497E
:1041600000696A4601F055FF03B05DF804FB00BF2B
:104170007CC200002DE9F743002506460F46144691
:104180000560207840B105F046FE68B1002304F8D0
:10419000013B33680B2BF4D933680022284647F8DB
:1041A000232003B0BDE8F08333685A1C326047F81F
:1041B0002340054694F80080B8F1000FE9D0002DA7
:1041C00077D1B8F1270F05D0B8F15C0F79D0B8F1ED
:1041D000220F66D12046FFF72BFF611C02462046C6
:1041E00005F023FE4546E5E72046FFF721FF611C69
:1041F0000246204605F019FE0025DBE7302826D1CF
:1042000002234FF00008E05CA0F13001C9B2072999
:104210005FFA83F918D8013341EAC801052B5FFA28
:1042200081F8F0D1994609F1FF31214420460191EE
:10423000FFF7FEFE0230A0EB09020199204605F0CF
:10424000F4FD04F8018BB5E7B9F1020FEBD1782842
:104250002DD102214FF00008635CA3F13002D2B2ED
:10426000092AC8B20AD842EA081303295FFA83F878
:1042700002D14FF00409D6E70321EDE7A3F1610273
:10428000052A03D8573B43EA0813EEE7A3F141029E
:10429000052A01D8373BF6E7022808D04FF003097A
:1042A000C1E7404605F0B7FD00287FF472AF013446
:1042B00080E7A84598D0B8F15C0FF8D160788542C6
:1042C0009CD12046FFF7B4FE04F1010802464146A6
:1042D000204605F0AAFD44466CE72DE9F34105466A
:1042E0000F461446002614B902B0BDE8F081686894
:1042F00003682246D3F80C80B91901ABC047019B73
:104300001E44E41A002BEED1AB681A78032AEAD0D7
:10431000D3F848219206FBD5B3F848216FF3451234
:10432000A3F84821DFE700000A46014901F071BE09
:10433000B0C1000011B10069FFF7F6BF704700007F
:10434000014901F066BE00BFC9C10000014A02492F
:1043500001F05FBE16C600007CC20000014A02499F
:1043600001F057BE02C600007CC20000014A0249AB
:1043700001F04FBEFEC500007CC200000A4619B124
:104380000249006901F045BE704700BFB6C1000098
:104390000A4619B10249006901F03BBE704700BFEF
:1043A000BCC1000038B50546FFF756FE8379027898
:1043B000817801339A42044601D1012913D00129A1
:1043C00004D90139C9B22846FFF7D8FF2378A1796B
:1043D0008B4209D9013B591AC9B22846FFF7D8FFC9
:1043E000AB680022DA7738BD0131C91AC9B2284654
:1043F000FFF7A0FFF4E7F8B50546FFF72DFE877835
:10440000C67804462846FFF717FE18B92846FFF776
:1044100043FE10B12869FFF793FFB74208D16178D6
:104420002378C91A2846C9B2BDE8F840FFF7B0BFE3
:10443000A378E178C91AC9B22846FFF79FFF23780D
:1044400061788B42EDD9591A2846C9B2BDE8F840C7
:10445000FFF770BF2DE9F04F044685B00E46904639
:104460000025705D05F0D7FC20BB5FFA88FA304666
:10447000FFF7DEFDA3685B7E401BA3EB080B5845EE
:1044800006EB050918D94A46002712F8011B0393C9
:1044900008460292019105F0BEFCDDE9022318B145
:1044A00001990A2931D0BB4608EB07018B422BD971
:1044B0000137EAE70135D4E74B460027B84217D069
:1044C00013F8012B0A2A05EB070A1BD1206901F01A
:1044D00095FD49463A462046FFF7FFFE2069FFF763
:1044E0002FFF5FFA88F120460AF10105FFF722FF4E
:1044F0002069711901F08DFD206905B0BDE8F04F0C
:10450000FFF71EBF0137D9E75F46206901F076FD4E
:104510003A4649462046FFF7E0FE3D44705D05F00F
:104520007AFC38B92069FFF70BFF51462046FFF7A8
:1045300001FF9CE70135F1E72DE9F341054680686D
:10454000424F002480222146A0308DF8034005F020
:104550002EFE3F49286901F05CFD286901F04EFDFF
:104560004FF47A7647F00107686803680122D3F8B0
:1045700010800DF1030101ABC047019B5BB94FF601
:10458000C010B847019B002BEED1013EB6B2002E01
:10459000EAD10D2035E09DF80330AA681B2B48D0E6
:1045A00092F8A0101B29EDD1522B42D114440023C4
:1045B00084F8A03092F8A1105B291FD102F1A20665
:1045C00002211D4616F8010B4C1C3B28E1B264B2D7
:1045D0001AD1002C20DB01F1A0041444002314F8AC
:1045E000010BD8B9FA2B28BFFA23FA2D13752B46E5
:1045F00028BFFA23937582F8A00002E082F8A03069
:104600000B2002B0BDE8F08105EB850300EB43030E
:10461000303B80299DB2D5D10C20F2E703EB830318
:1046200000EB43004E1C303883B23006F1B2F3D4B5
:10463000D5E711190134E4B2092C81F8A030A1D9D1
:10464000002382F8A0300420DBE700BF30C6000062
:104650001DC6000038B50546FFF7FEFC027843781A
:104660009A4204468378C27801D1934213D09A4289
:1046700005D9D21A0B492869D2B201F0CAFC2378B5
:1046800061788B4208D9591AC9B22846FFF780FED3
:10469000AB689A7FDA7738BDC91AC9B22846FFF7E6
:1046A00049FEF5E7C2C10000F8B51E46C3685B6865
:1046B000054698604068036817461C68284A2B46E0
:1046C000A0470446002842D1686901F0AEFE0446C6
:1046D00000283CD101464FF4A672A86805F067FD9A
:1046E000A9682048B1F848311F4A43F02003A1F8D7
:1046F0004831B1F8483167F38203A1F84831B1F885
:10470000483143F00803A1F8483101230B7045F20A
:1047100018030B83121A154B4FEAD20C21460430B2
:10472000614516D1072A04D9114B1048042205F01F
:1047300099FB66B19DF81810E868FCF77BFC00282F
:10474000A1BFEB68DB6801225A71B8BF0424204680
:10475000F8BD50F831703F6843F8047B0131DFE762
:104760000D3F000034B0000074B00000D8000020FD
:104770003D3F0000FFF7B1BD0CB473B506AB044676
:1047800053F8046B01938368D3F848516D0719D52A
:10479000DD7E8D4216D0B3F81B50FFF7B7FC2069C1
:1047A00001AA314601F0B4FCE9B22046FFF7AEFCA5
:1047B000290A02D02046FFF7B9FC02B0BDE87040DC
:1047C00002B07047206901AA314601F0A1FCF4E76C
:1047D00082680021D18382F820100368014A0321F6
:1047E000FFF7CABF7CC2000070B583681E78012E37
:1047F00004461AD14068036800219B689847054623
:1048000088B908212046FFF757FC31462046FFF7BC
:104810008DFC2069064901F0FCFBA36802221A7096
:104820002046FFF7D5FF284670BD0825FBE700BFEF
:10483000C8C10000F8B504468068867FB3187F2B96
:104840000F46154638DC002A36D0C37FF61A03F12E
:10485000200113442033F6B20144721C184405F0C1
:10486000E4FAA068C37F20332A463946184405F08D
:10487000DCFAA76807F12000FFF7DAFBFB7F0F4A9D
:10488000B87720333B4420460821FFF775FFA36823
:10489000DA7F1544DD772046FFF7CEFB18B92046B6
:1048A000FFF7FAFB10B12069FFF74AFD26B1204659
:1048B000BDE8F840FFF79FBDF8BD00BF7CC2000017
:1048C0002DE9F04104468068D0F84861827FC37FBB
:1048D000C6F30008D51A16F001060F46EDB23CD11A
:1048E0007E2A3ED83DB103F12001213301442A46FE
:1048F000184405F09AFAA368DA7F1A4482F8207007
:10490000002E6AD19A7F0132D2B29A77134483F88B
:104910002080002D6AD02046FFF79EFB8278C37866
:104920009A4220D1A268D37F203313440821204625
:10493000314AFFF721FFA91BC9B22046FFF728FD26
:10494000A268D37F0133D3772046FFF775FBF0B120
:104950002069BDE8F041FFF7F3BC7E2ACBD9002DDA
:10496000C9D1BDE8F0812069FFF7F8FCA268D37FC8
:10497000203313440821204A2046FFF7FDFE20691A
:10498000FFF7E4FC20690121FFF7CEFCD8E72046C1
:10499000FFF782FB0028E4D02046FFF75DFBC278DA
:1049A0008378013AD21A12F0FF02054603D0134968
:1049B000206901F02EFB2069FFF7C2FCE978AB7893
:1049C000C91A2046C9B2FFF7D9FC29780139204617
:1049D000C9B2BDE8F041FFF7ADBC002D9BD1987F77
:1049E0000130C0B29877034483F82050044920690D
:1049F0003A4601F00EFBA3E77CC20000C2C10000F2
:104A0000EDCA000070B5836886B00025CDE9035576
:104A1000D3F844218DF8145004460E46002945D1A0
:104A2000002A3ED0FFF7BEFCA0683346D0F8440110
:104A3000092203A901F05CFDA668049BB57FC6F8B6
:104A40004431002B52D106F1A00108460191FFF735
:104A5000EFFA019938B306F1200005F0DBFBA068FE
:104A60002030FFF7E5FA8DF814009DF81430A268A5
:104A7000AB42D377937702D22069FFF777FCA36824
:104A80002C4A204620330821FFF776FE2046FFF708
:104A9000D3FA18B92046FFF7FFFA10B12069FFF7E3
:104AA0004FFC06B070BD86F82000D8E7D3F840115F
:104AB0009142F6D0D3F83C31002BF2D0FFF772FCD4
:104AC000A668D6F8440140BB06F1200108460191D2
:104AD000FFF7AEFAD6F83C310199C6F8443110F030
:104AE000FF0517D006F1A00005F094FBA06803A90C
:104AF000D0F844010023092201F0FAFCA0689DF8D7
:104B0000142000F120010923D0F84401013201F002
:104B1000EFFCAAE786F8A050E8E72B46092203A994
:104B200001F0E6FCA368039A9DF81450C3F84421F1
:104B3000DCE700BF7CC2000038B504468068C37F54
:104B4000857FED1A15F0FF053BD003F121012033DD
:104B500001442A46184405F068F9A268937F013B96
:104B600093772046FFF778FA8278C3789A4214D177
:104B7000A268D37F203313442046124A0821FFF74E
:104B8000FBFD20690F49104A01F043FA691E2046D7
:104B9000C9B2BDE83840FFF7FBBB2069FFF7DEFB79
:104BA0002069FFF7E3FBA268D37F2033134420463C
:104BB000044A0821FFF7E0FD2069BDE83840FFF70F
:104BC000C5BB38BD7CC2000012C600002DE9F04113
:104BD000C3685B6890B004460D461868002203A9BC
:104BE00001F06FFD002840F08A808DB1039801F03C
:104BF00067FCA268D2F838310133C2F8383103F0CB
:104C00000703012B04D00125284610B0BDE8F08130
:104C10002046FFF721FA81780129064604D9013997
:104C2000C9B22046FFF7AAFB3178012904D901391E
:104C3000C9B22046FFF7ACFB2069FFF797FB2DB107
:104C4000304A02212046FFF797FDDDE700230822C6
:104C5000039804A901F04CFC069B0793059B08935D
:104C60009DF810308DF8255003F00302012A25D15C
:104C7000BDF81020049E0398C3F3C203C2F3831748
:104C80008DF82430BA0008230AA901F031FCC6F3DC
:104C90009526236900933A4607AB0AA93046FCF7EC
:104CA0007DFA039801F00CFCE3685B680022186849
:104CB00003A901F006FD0028C8D0A4E7022AF0D11C
:104CC000BDF81260C3F3C203C6F389168DF8243011
:104CD0004FF00808082E374628BF08274346039898
:104CE0003A460AA901F004FCF61B236907AA3946D3
:104CF0000AA8B844FCF7B6FA002EEBD1D1E700259C
:104D000082E700BFCBC10000436801219868FFF72C
:104D10005DBFF7B547680191BD68AB681E78042E8A
:104D20000ED0386801A901F006FC044650B901987C
:104D300001F0C2FB032E03D121462846FFF746FFB0
:104D400003B0F0BDF11E18BF01212846FFF73EFF5A
:104D5000E7E700002DE9F04F83468068A7B01021F7
:104D600000F5A470FEF7D5FFDBF808301B78022BA6
:104D70007ED100230D93DBF80400036801221C6937
:104D80000DF133010DABA0470D9B002B55D09DF9C4
:104D90003330002BEFDB01F0B5FBDBF80840637824
:104DA000012B00F04F84022B00F05384002B40F0C5
:104DB0001E859DF833500D2D1FD00A2D1DD0B4F83F
:104DC000482163F38D12A4F84821092D00F0F481E5
:104DD00000F2E181002DCED0082D00F0C0832846DE
:104DE00005F01EF80028C6D0D4F848311E07C3F3DA
:104DF000C00040F11584294614E3D4F8483113F477
:104E00007F5F05D0D4F84831C3F387139D42DCD1CE
:104E1000B4F84831A67F65F38D13A4F84831B6BBCA
:104E2000C4F84461DBF81000FFF78AFADBF80830B9
:104E300002221A705846FFF7CBFC00215846FFF7B4
:104E4000C5FEA8B1DBF80030B64A03215846FFF78B
:104E500093FCDBF80830D3F84821120708D55846F0
:104E6000B04A20330821FFF787FC5846FFF7C3FA02
:104E7000DBF8100001F0C2F8DBF808006FF0100159
:104E800000F5A47027B0BDE8F04FFEF75ABF94F8C4
:104E90002030002B61D1DBF8085005F12000FFF72E
:104EA000C7F8002610F0FF04C5F8446124D0D5F8F7
:104EB0003C01002800F091803346092219A901F035
:104EC00017FB9DF86C309C4240F08780DBF80800AF
:104ED000092300F1A001621CD0F83C0101F008FB9D
:104EE000DBF8085005F1A00105F1200005F0B4F948
:104EF000002870D185F8A0005846FFF7ABFB584654
:104F0000FFF79AF818B9DBF81000FFF719FADBF889
:104F1000082019A9203210A8FFF72CF9109B002BAC
:104F200080D0002840F0A2807F4E804D199BAD1BA1
:104F3000ED080446A54240F0A0807D4A009202217F
:104F40007C4A5846FFF718FC70E70135B5F5807FBD
:104F500004D1002384F820309DE700256319EFB2C7
:104F600093F8200004F057FF0028EED16FB104F150
:104F70002000721C521B411904F057FFDBF8082077
:104F8000937FDB1BDBB29377D377DBF80860B57FC9
:104F900005F11F073744BA465FFA87F95346029373
:104FA000187804F038FF5FFA8AF8A9EB0804029B2E
:104FB000E4B20AF1FF3A0028F0D19F423FF46BAF10
:104FC0002C1BA8EB090334442B44DBB284F82000EB
:104FD000B377F3775FE785F8A060082604F10A0548
:104FE000DBF81400294601F038FA0446002837D0CF
:104FF000DBF80830D3F83C01B0B9C3E94F44CDE940
:1050000019009B7F8DF86C3019A9204600230922D6
:1050100001F064FADBF808108A7F0923013220319D
:10502000204601F05BFA67E70023092219A901F085
:105030005FFADBF808001A9400230922D0F83C013B
:1050400019A901F04BFA00231A93DBF80830D3F8C2
:105050003C2119929A7F8DF86C20C3F83C41D3E72C
:105060005846FEF7AFFF013EBAD145E70346324A44
:1050700002215846FFF780FBD8E672680293184673
:10508000116805F0E9F83746029B083618B101347B
:10509000A542BFF44FAFDBF8080000211022043016
:1050A000119105F084F87C68E36833B194E80F004F
:1050B000DBF80850043585E80F00D4F80890DFF8D5
:1050C00080A019AE4FF0000801250027109BAB42CD
:1050D00012D974685146204605F0BEF820B1174930
:1050E000204605F0B9F868BBDBF80820B2F8483173
:1050F00043F00203A2F84831DBF808301B69002BAB
:1051000043D0109919AA02EB8802A1EB0801584676
:105110009847DBF80830B3F848216FF34102A3F851
:10512000482183E67CC2000034B0000074B0000067
:105130000DC20000D9C20000F9C1000024C2000065
:1051400021C2000015AB0093484611AB3A462946F0
:10515000FEF7F8FE781CCFD0119C002CCCD0216833
:10516000706805F079F801370028AFD1E3683BB1EA
:1051700094E80F00DBF80870043787E80F00A846B2
:10518000D4F80890013504369FE7A84A0221584612
:10519000FFF7F2FABDE71B2D0BD07F2D7FF41FAE7A
:1051A000D4F848311F077FF5E6AD5846FFF7C4FC39
:1051B000E1E501236370DEE5D4F8483119077FF596
:1051C000DAADA37FC3F17F0313F0FF0304933FF431
:1051D000D2ADE27F04F1200104F1A00004F0BEFF93
:1051E000DBF80850EB7F2B440024D87F83F8A040E5
:1051F00004F011FE031B18BF012305F1A002059066
:10520000C5F8444119A90EA80693FEF7B3FF1998F3
:10521000FEF70EFFCDE90F44C3B2029325462746A1
:105220000394A24626460E9B2BB1069A013B1344DB
:10523000AB4200F28C80059B002B3DD126AB03EBEB
:10524000850353F8340CFEF7F3FEC3B2029326AB8A
:1052500003EB85034FF00009099309F1010307935C
:1052600011AB00934A460FAB29463846FEF76AFE5B
:105270000F9B002B54D01968099B029A53F8340CE9
:105280000B9104F03CFF0890C0B9039B0B990133CC
:1052900003930846109B0A93FEF7CAFE0A9B5FFA27
:1052A00080F893B9029B049AA8EB03039A4201DDAC
:1052B000DBB20493CA4626E00023C7E7A046DDF828
:1052C0001C904446C9E74E46F9E7A045049B38BF09
:1052D000A0465FFA88F8B3B115AB0093324610AB25
:1052E00038462946FEF72EFE0F9B089E1868109B35
:1052F0001C68029A9119F3B2425CFAB9049A9A4274
:1053000028BF1A4604920F9B1093079B002BDAD1FB
:10531000474A04215846FFF72FFA44464FF0FF361C
:10532000002F40D00F9B002B3DD00E9B069A0135DD
:10533000EDB213449D42FFF476AF34E0615C9142DC
:10534000DCD10136B6F5807FD3D1FF23D6E726AB7B
:1053500003EB85034FF00008079311AB009342461F
:105360000FAB29463846FEF7EDFDB8F1FF3F05D1FA
:105370002F4A04215846FFF7FFF9FCE4DDF83C9082
:10538000B9F1000F3FF4F7AC079BD9F8001053F8C0
:10539000340C04F061FF08F101080028DDD1D9F8D0
:1053A0000870002FC1D1039B002B3FF4E4AC012B0C
:1053B0005ED13B783BB111AB0093324610AB29462E
:1053C0003846FEF7BFFD109B1C682046FEF730FEF6
:1053D000029B984205D02344049A19465846FFF789
:1053E00029FADBF80840E57F631993F8200004F000
:1053F00012FDF8B9D4F84831DA0712D5B4F84831BB
:1054000060F30003A4F8483120215846FFF758FA0A
:10541000DBF80820B2F8483143F00103A2F8483124
:10542000A9E420215846FFF74BFAA4E42BC2000060
:1054300049C20000A37FAB427FF69DAC5846FEF701
:105440000BFEDBF808208478D37F0133D3775846EE
:10545000FEF702FE8378A34205D1DBF8100001219C
:10546000FEF762FF87E4DBF81000FEF769FF82E4D5
:10547000DBF80830CB4E00225A7726AB03EB8503CE
:1054800006930AF10103059311AB52460093294696
:105490000FAB3846FEF756FD0F9B029AD3F800A0DB
:1054A000069B514653F8340C04F029FE90BB039B35
:1054B0003046013B0393FEF7BBFDDBF80830079352
:1054C0005A7E04EB0008A2EB00095046FEF7B0FD3F
:1054D000079B5A7F5FFA88F8511CB9FBF8F95FFA0D
:1054E00089F95977B2FBF9F309FB1322A8EB0008FD
:1054F000D2B25FFA88F882B9AB4ACDF800A0334641
:1055000007215846FFF738F941465846FEF712FF83
:10551000039B4BB1DDF814A0B3E7A44A534607211F
:105520005846FFF729F9EFE7DBF80030A04A584664
:105530000321FFF721F9DBF808309C4A20330821CA
:105540005846FFF719F95846FEF755FF109B049A85
:105550001968029B58461944FFF76CF90BE4D4F81C
:1055600048311B077FF507ACA67F002E3FF403AC44
:10557000E07F00283FF4FFAB361A00F12001F6B2BD
:105580001F30721C2144204404F04FFCDBF808302B
:10559000DA7F013ADA779A7F013A9A77C6B32A46D8
:1055A0008449DBF8100000F034FD5846FEF754FD46
:1055B0008278C3789A4213D1DBF80820D37F203356
:1055C00013442946794A5846FFF7D6F8DBF810000D
:1055D000FEF7CCFE31465846FEF7DAFEFFF7CBBBAE
:1055E000DBF81000FEF7BAFEDBF81000FEF7BEFE97
:1055F000DBF80820D37F2033134458466B4A2946F2
:10560000FFF7BAF8DBF81000FEF7A0FEFFF7B3BB18
:10561000694A6649DBF8100000F0FBFCFFF7ABBB02
:10562000A27F7E2A3FF6A7ABE17F4B1CDBB2E3777C
:1056300021442344013281F8205083F82000A277CE
:10564000FFF799BB9DF833305B2B40F0D0800223ED
:10565000B0E500236370D4F8483119077FF5EDAB4E
:105660009DF83330313B1B2B3FF685AB01A252F83E
:1056700023F000BF95570000C9570000E95700000C
:1056800087570000774D0000774D0000774D0000F0
:10569000774D0000774D0000774D0000774D0000FA
:1056A000774D0000774D0000774D0000774D0000EA
:1056B000774D0000E5560000F1560000F556000059
:1056C00043570000774D00008B570000774D0000D6
:1056D00099570000774D0000774D0000774D00008E
:1056E000CD57000001215846FFF78CF9FFF743BB67
:1056F0000021F8E75846FEF7AFFC037842789A425B
:10570000044604D18178C27891423FF434AB627987
:105710009A4210D12949DBF81000012200F079FCEF
:1057200061795846FEF734FEDBF80820D37F013359
:10573000D377FFF720BBDBF810000121FEF7F4FD63
:10574000F2E75846FEF788FC8379027801339A42E3
:10575000044603D18378012B3FF40DAB012ADBF81B
:1057600010000BD1164900F054FC61795846FEF741
:10577000E1FDDBF80820D37F013BD9E71149012285
:1057800000F047FCF5E7032363705846FEF762FF1D
:10579000FFF7F1BA032363705846FEF703FEFFF7E5
:1057A000EABA00BFBEB7000075C200007CC20000AC
:1057B0007BC20000EDCA000019C60000C2C1000093
:1057C000B6C10000BCC1000003236370D4F84831A7
:1057D000B4F8482103F0010383F0010363F30002EE
:1057E000A4F84821FFF7C7BA03236370D8E4002365
:1057F000E0E400BF2DE9F04F8BB0836817466C4A98
:10580000009204466B4A5B680D460821FEF7B4FF20
:10581000A6687068FEF70CFCB168033082B211B163
:105820002046FEF717FE644A00212046FEF7A4FF3B
:10583000002F3DD0002D3BD04FF00C0AA9460AFBAB
:10584000075A0826D9F80400FEF7F2FB8046D9F87B
:105850000000FEF7EDFB4044B04209F10C0988BF9F
:1058600086B2CA45EED106F10408544B544A00935F
:105870001FFA88F806F107090821204643461FFA57
:1058800089F9FEF779FF4F494A462046FEF7E2FDC7
:105890002DB1DFF82CB14FF0000ABA450AD1A36848
:1058A000D3F80C80B8F1000F3ED10BB0BDE8F08FFB
:1058B0000826D8E7D5E9002373B32AB30192424AF8
:1058C00000920821414A2046FEF756FF6868FEF71D
:1058D000AFFB03902868FEF7ABFB0399B31C591A82
:1058E000091AC9B22046FEF725FD394920693A2236
:1058F00000F08FFBA96899B14A462046FEF7AAFD41
:105900000AF1010A0C35C8E7009343465A460821BC
:105910002046FEF731FFEDE7002AEBD00092F4E7D6
:105920002069FEF70DFDEBE700220592174606AE53
:10593000009605AB0121404602F10109FEF702FB8A
:10594000059D3DB12868FEF773FBB84200D987B2C8
:105950004A46EDE7B9F1010FA7D01E4ADFF860A073
:1059600029462046FEF708FF2A46BD1CADB205AB0E
:1059700000960121404602F10109FEF7E3FA059B7A
:10598000002B92D01B68009308212B4652462046DC
:10599000FEF7F2FE059B596831B17A1D92B220469E
:1059A000FEF758FD4A46E2E72069FEF7C9FCF9E731
:1059B00022C6000076C200007FC2000036C600008A
:1059C00089C2000091C20000A8C70000A4C2000064
:1059D000EDCA0000ADC2000000221146FFF70ABF69
:1059E000022910B5044608D18368D3F848319B07D3
:1059F00003D5BDE81040FFF7EFBF2069054A06490F
:105A000000F007FB2069054A0349BDE8104000F09B
:105A100000BB00BF0EC600007CC2000009C600002B
:105A2000012906D0022906D18368D3F848319B07A3
:105A300001D5FFF7D1BF024A0221FEF79DBE00BF8C
:105A40002BC2000038B58368D3F84821C2F3400563
:105A500092070C4606D500221146FFF7CBFE2C46D6
:105A6000204638BD0029FBD05B68024A0221FEF7C0
:105A700083FEF5E7BBC20000012937B50546144691
:105A800004D103B0BDE83040FFF7A6BF023918BF0C
:105A90000121FFF7D7FF48B963680193044B0093D6
:105AA000044A236802212846FEF766FE03B030BD93
:105AB00055B20000D6C20000012907B504D103B0D9
:105AC0005DF804EBFFF788BF02290AD15368019300
:105AD000084B00931368084AFEF74EFE03B05DF8CA
